:020000040000FA
:06000000E1EF73F01200B5
:0600080004EF50F01200AD
:060018000CEF50F0120095
:06A00000E1EF73F0120015
:02A00600120046
:06A00800C9EF61F0120037
:02A00E0012003E
:04A01000800040008C
:02A01400000545
:06A01800CCEF61F0120024
:02A01E0006003A
:10A0200014A00000190E0000020000000BE8000060
:10A030001B0E00000100000038E80000E0000000F6
:10A040001600000010A00000150E00000400000023
:10A050001AE80000C20000001E00000095E30000A6
:08A06000FF01000001000000F7
:08A0680070EC55F0FB0EDBCF9C
:10A07000F3FFDB06F35000090AE0BEEC55F0FA0EE0
:10A0800029EC56F0F3E1011CF1E1010E01D0000EC4
:10A090009FEF55F070EC55F03B0EE12402E3E168D0
:10A0A000E652E16E010EDB6A020EDB6AF90EDBCFCF
:10A0B000F6FFFA0EDBCFF7FFFB0EDBCFF8FF080051
:10A0C000F550DF6EDF5002E1C3EF54F0250EDF5C88
:10A0D00002E0B6EF54F0030EDB6A040EDB6A050EF5
:10A0E000DB6A060EDB6A070EDB6AD8EC54F02D0E35
:10A0F000DF5C0CE02B0EDF5C09E0200EDF5C06E08D
:10A10000230EDF5C03E0300EDF5C1AE1DF50300A23
:10A1100014E0130A0FE0030A0AE00B0A05E0060A3E
:10A12000E4E1030EDB80E1D7030EDB82DED7030E12
:10A13000DB84DBD7030EDB86D8D7030EDB88D5D7CD
:10A140002A0EDF5C1BE1D4EC54F022EC55F010E059
:10A15000030EDB803D683E68130EDBCF42F0140E29
:10A16000DBCF43F069EC68F0040E3BC0DBFF03D0AB
:10A17000130E0BEC55F0D8EC54F00BD0090EDB6A43
:10A1800079EC55F003E0EDEC55F0FAD7090E0BEC45
:10A1900055F0030EDBB0DB982E0EDF5C1BE1D8EC34
:10A1A00054F02A0EDF5C0BE1D4EC54F022EC55F0B5
:10A1B00003E1130E5DEC55F0D8EC54F00BD0090E12
:10A1C000DB6A79EC55F003E0EDEC55F0FAD7090EB7
:10A1D0005DEC55F0680EDF5C07E1D8EC54F0680EDA
:10A1E000DF5C1DE1030E18D0740EDF5C17E07A0E01
:10A1F000DF5C14E0480EDF5C06E0540EDF5C03E039
:10A200005A0EDF5C02E1020E07D06C0EDF5C03E049
:10A210006A0EDF5C04E1010EB0EC55F0C9DBDF50E3
:10A220006E0A01E17FD31E0A01E192D1200A01E109
:10A230008FD13F0A01E149D11A0A01E146D10D0A45
:10A2400001E143D1200A01E140D13A0A01E13DD1C7
:10A25000200A01E13AD1260A01E135D10D0A01E1D6
:10A2600032D11A0A01E1D9D0200A4AE0300A1FE0AF
:10A27000460A0EE0250A01E083D3D950F90FE96EB2
:10A28000FF0EDA20EA6E010EEE5E000EEE5AEE5A76
:10A29000BEEC55F0250EE66E95DB03E1011C01E1F5
:10A2A00069D3BAEC55F001E26BD3DB2A69D3080E0F
:10A2B000DB6A040EDB50010806E2040EDB0482ECCC
:10A2C00055F0DB508BDB080EDB5009E0030EDB5052
:10A2D000010B05E172DB01E04DD3080EDB6A64DBA4
:10A2E000EFCFDFFF32EC56F003E1011C01E142D376
:10A2F000BAEC55F001E3DB2A60DB01E141D33AD34C
:10A30000070EDB5002080FE1FEEC55F0030EC5EC22
:10A3100055F00E0EEECFDBFF0F0EEECFDBFF100E73
:10A32000EECFDBFF20D0F70EDBCF03F0F80EDBCF54
:10A3300004F0020E035E000E045AF70E03C0DBFFAA
:10A34000F80E04C0DBFF03C0E9FF04C0EAFFB5EC70
:10A3500055F0026A0E0E00C0DBFF0F0E01C0DBFFDE
:10A36000100E02C0DBFF0E0EDBCFE6FF0F0EDBCFC1
:10A37000E6FF100EDBCFE6FF70EC73F0E552E5521E
:10A38000E552130E3CC0DBFF140E3DC0DBFF060E92
:10A39000DB5005E0130EF9EC55F001E26ADB1DEC31
:10A3A00056F002E2130E37DBE0EC55F006E0040E47
:10A3B000F9EC55F002E2050E2EDB030EDBB005D002
:10A3C000FCDA01E0D7D2080EDB6A090EDB6A0E0E5A
:10A3D000DBCFF6FF0F0EDBCFF7FF100EDBCFF8FF62
:10A3E0000800F550DF6EDF5014E023EC56F011E268
:10A3F00032EC56F003E1011C01E1BCD2BBDB01E30E
:10A40000DB2A090EDB2AD9500E0FE96E000ECBDBDA
:10A41000E7D7D3DA01E1B4D2ADD2C6DA110EEECF6E
:10A42000DBFF120EEDCFDBFF110EDBCFE6FF120ECE
:10A43000DBCFE6FF62EC73F0E552E552130EF3CF8B
:10A44000DBFF140EF4CFDBFF060EDB5004E0130E2F
:10A45000D0DB01E20EDB1DEC56F002E2130EDBDA7C
:10A46000AFDB05E0040EC5DB02E2050ED4DA030E15
:10A47000DBB005D0A2DA01E07DD2080EDB6A090E5E
:10A48000DB6A110EDBCFE9FF120EDBCFEAFFEFCF65
:10A49000DFFFDF5014E0D7DB12E2E4DB03E1011C55
:10A4A00001E168D267DB01E3DB2A090EDB2A110E2A
:10A4B000DB2ADBCFE9FF120EE8E3DB2AE6D77DDA01
:10A4C00001E15ED257D2030EDB8E070EDB0410E1F2
:10A4D00095DB040E5ADB0A0EEECFDBFF0B0EEECF40
:10A4E000DBFF0C0EEECFDBFF0D0EEECFDBFF6CD0F3
:10A4F000070EDB5003082CE1030EDBAE0DD0B2DA01
:10A50000020E76DAEFCF00F0016A026A036A00AE4B
:10A5100039D00168026835D0F70EDBCF01F0F80EB4
:10A52000DBCF02F0020E015E000E025AF70E01C0F0
:10A53000DBFFF80E02C0DBFF01C0E9FF02C0EAFF4B
:10A54000EFCF00F00A0E00C0DBFF0B0EDB6A38D045
:10A55000070EDB50020809E1030EDBAE04D059DB25
:10A5600002AE10D00ED055DB0DD0030EDBAE12D0F4
:10A5700079DA020E3DDAF9DA026A036A01AE02D034
:10A5800002680368E2DA0C0E02C0DBFF0D0E03C0A6
:10A59000DBFF1AD0F70EDBCF02F0F80EDBCF03F0B3
:10A5A000020E025E000E035AF70E02C0DBFFF80E29
:10A5B00003C0DBFF02C0E9FF03C0EAFFD6DAC5DA59
:10A5C0000C0EDB6A0D0EDB6A060EDB5005E1010E98
:10A5D000F36E050EF3CFDBFF150EDB6A160EDB6A9A
:10A5E000D950370F006E000EDA20016E390E00C010
:10A5F000DBFF3A0E01C0DBFF380EDB6A080EDB6AB8
:10A600000A0EAEDADF50780A12E0200A10E0280ABB
:10A610000CE0200A0AE03F0A06E00D0A02E0200AE8
:10A6200008E1020E05D0080E03D0080EDF26100E3A
:10A6300097DA030EDBBE02D0DB92DB94DB50800B9B
:10A6400024E08ADAD890030EEB50000A08E6000EE8
:10A65000EE5C000EEE58000EEE58000EEE5815E2BD
:10A6600013DA40684168426843682AEC73F00A0EC6
:10A6700037C0DBFF0B0E38C0DBFF0C0E39C0DBFF31
:10A680000D0E3AC0DBFF2D0E08D0030EDBA202D068
:10A690002B0E03D0DBA408D0200EF36E170EF3CFE1
:10A6A000DBFF150EDB2A02D0170EDB6A050EDB502E
:10A6B00003E1B7D901E189D0FA0E006EE70E016E11
:10A6C000000E026E070EDBCF03F0046A056A066A0D
:10A6D00003C040F004C041F005C042F006C043F0A2
:10A6E000D3D995EC73F000503724F36E0150382025
:10A6F000F46E02503920F86EF4CFF7FFF3CFF6FF77
:10A700000800090EF5CFDBFF580EDF5C0FE1610E8C
:10A71000F36E090E7BD90AE3200E006E090EDBCF23
:10A72000E7FF0050E75E090EE7CFDBFF070EDBCF48
:10A7300000F0016A026A036A0FDA00C040F001C04B
:10A7400041F002C042F003C043F0EECF3BF0EECF49
:10A750003CF0EECF3DF0EFCF3EF095EC73F03EC015
:10A76000EDFF3DC0EDFF3CC0EDFF3BC0EFFF390EFC
:10A77000DBCFE9FFDB063A0EDBCFEAFF01E2DB06C7
:10A78000090EDBCFEFFF150EDB2A4BD995E1030E47
:10A79000DBA61DD06F0EDF5C06E1C1D918E3150EF4
:10A7A000DB285BDA14D0780EDF5C09E0580EDF5C42
:10A7B00006E0620EDF5C03E0420EDF5C08E1020EA1
:10A7C000F36E160EF3CFDBFF02D0150EDB6A030E1D
:10A7D000DB50100B0EE0040EDBCF00F0050EDB505B
:10A7E000D880005406E2060EDB5003E1040EDB5075
:10A7F00034DA95D90AE2050EDBCFE7FF150EDB5000
:10A80000E75E050EE7CFDBFF02D0050EDB6A040E24
:10A81000DBCF00F0160E45D9D880005414E2160E96
:10A82000DBCFE6FF150EDBCFE6FF040EDBCFE6FF46
:10A83000050EDB50E552E75CE552D880E754E5525F
:10A84000D880E7545FD9030EDB50010B0BE1080EF3
:10A85000DB5008E0B2D801E08DD0080EDB50BED846
:10A86000080EDB6A170EDB5007E088D9170EF1D906
:10A8700003E1011C01E17ED0160EDB5016E07ED90B
:10A88000300EE66E9FD802E1011C74E077D9DFCF6D
:10A89000E6FFE8EC72F0E552E552E552F4CF01F044
:10A8A0000001F31C02E1011C65E0050EDBCF00F0A6
:10A8B000160EDB50D880005409E2050EDBCFE7FF0F
:10A8C000160EDB50E75E050EE7CFDBFF300EE66EBF
:10A8D000050ECBD94FE1390EDB2ADBCFE9FF3A0E6B
:10A8E00001E3DB2ADBCFEAFF090EEFCFDBFFDB5012
:10A8F0000EE044D9090EADD902E1011C3BE0390E4E
:10A90000DB2ADBCFE9FF3A0EEDE3DB2AEBD755D8A4
:10A9100031E1160EDBCFE6FF080EC3D8E552E7247F
:10A920005DD82ED0070EDB50030A1CE0010A14E0AC
:10A93000030A07E07BD9DBCFEEFF020EDBCFEDFF92
:10A940001FD0F5D8056A03AE02D0046805682CD87C
:10A95000BCD805C0EEFF14D0EAD803BE046824D8E2
:10A96000B4D80ED063D9DBCFEFFF0AD07BD905E195
:10A97000011C03E1F368F46810D0FCD801E3DB2A82
:10A9800079D95FEF50F0010EDBCF00F0020EDBCF84
:10A9900001F000C0F3FF01C0F4FF3B0EE15C02E2F6
:10A9A000E16AE552E16ECBD029D9020EC5EF55F030
:10A9B00061D90800F550DF6E1200200EE66E080E19
:10A9C00035EF56F0E8EC72F0E552E552E552F3CF80
:10A9D00000F0F4CF01F00001F31C1200006E016AD8
:10A9E000D950010F4DD90050EE260150ED22120032
:10A9F000045E000E055AF70E04C0DBFFF80E05C01A
:10AA0000DBFF04C0E9FF05C0EAFF1200DBCFF4FF63
:10AA1000F350F45C1200DB50E76E040EE7CFDBFF6F
:10AA200012000A0EDBCF00F00B0EDBCF01F00C0E94
:10AA3000DBCF02F00D0EDBCF03F00050011002104F
:10AA400003101200130EEECFDBFF140EEDCFDBFF71
:10AA5000130EDBCF00F0140EDBCF01F00001800EEF
:10AA600001141200F70EDBCF04F0F80EDBCF05F077
:10AA70001200050EDB50E66ED950130F01D9E552D6
:10AA8000E750EE6EED6A12000A0EDBCF3BF00B0EC4
:10AA9000DBCF3CF00C0EDBCF3DF00D0EDBCF3EF0FC
:10AAA0001200DBCFE6FF150EDBCFE6FF050EDB5015
:10AAB000E552E724E552E7241200DB50CED8010E20
:10AAC000F36E060EF3CFDBFF1200EE50EFCFEAFF7E
:10AAD000E96E02C0EEFF03C0EEFF04C0EEFF1200FD
:10AAE000D9CFE6FFDACFE6FFE1CFD9FFE2CFDAFF39
:10AAF0001200DFCFE6FFE66ACFEC73F0E552E552D5
:10AB0000F3501200E76E080EE7CFDBFF1200EECF26
:10AB100000F0EECF01F0EFCF02F0036A1200050E55
:10AB2000DBCF00F0150EDB50D88000541200010E70
:10AB3000DBCF02F0020EDBCF03F0046A1200E55215
:10AB4000E5CFDAFFE7CFD9FF12000A0E00C0DBFF26
:10AB50000B0E01C0DBFF1200D9500A0F40EF56F078
:10AB6000F36E070EF3CFDBFF1200EECF00F0EFCF56
:10AB700001F01200010EDB2A020E1200FC0EDBCFE8
:10AB8000E6FFFD0EDBCFE6FF1200005E000E015A6D
:10AB9000F70E00C0DBFFF80E01C0DBFF00C0E9FFCD
:10ABA00001C0EAFF1200DA20EA6EEF2AEECFF6FFCC
:10ABB000000EEF22EECFF7FFEF22EECFF8FF1200EC
:10ABC000040EDBCFE6FF130EDB50E552E75C9ADFA5
:10ABD000DB5004DF060EDB501200090EDB500A0DBD
:10ABE000F350DF24D00FE76E090EE7CFDBFFD8EF7D
:10ABF00054F0DB50F36E050E06EF55F0F70EDBCF89
:10AC000000F0F80EDBCF01F01200DFCFE6FFE2EF3D
:10AC100054F028DF030EECDE87EF55F034EC50F0F3
:10AC2000E552E552E552E55200091200BDDEEE5054
:10AC3000EFCFEAFFE96E010E1200130EDB50F36E48
:10AC4000040E06EF55F0040EDB50F36E090E06EF0E
:10AC500055F0DBCFE6FFE2EF54F0E76E050EE7CFED
:10AC6000DBFF12008BDF05EF56F0DBCFE6FF86DF60
:10AC70000EEF56F0D950F90FE96EFF0ED3EF55F0F5
:0AAC8000E96E000EDA20EA6E120001
:06AC8A0046DBE5EC5BF087
:10AC9000CDEC5AF0E0EC5BF0B4DBE0EC5BF04BEFBA
:10ACA0005AF03ADBE0EC5BF0CDEC5AF0E5EC5BF00F
:10ACB000A8DBE5EC5BF0EFD3A1EC5BF0F70EDBCFAC
:10ACC0003DF0F80EDBCF3EF069EC5AF0DCEC5AF0C8
:10ACD0005FE0E5EC5AF0DCDBDFEC5AF059E0EBEC3E
:10ACE0005AF071EC5BF02BEC5BF056EC5BF0D8ECBF
:10ACF0005BF04EE0F1EC5AF08FEC5BF02BEC5BF08C
:10AD000056EC5BF0DCEC5BF043E034EC5BF0D8EC51
:10AD10005BF00FE045EC5BF0DCEC5BF00AE0F70E7B
:10AD2000DBCF3DF0F80E84EC5BF0F1EC5BF0DB8107
:10AD30002FD034EC5BF0DCEC5BF00BE045EC5BF02F
:10AD4000D8EC5BF006E0E5EC5AF0F1EC5BF0DB836D
:10AD50001FD034EC5BF0DCEC5BF00BE145EC5BF01E
:10AD6000DCEC5BF006E1F1EC5AF0FCEC5BF0DB852F
:10AD70000FD034EC5BF0D8EC5BF00AE145EC5BF013
:10AD8000D8EC5BF005E1EBEC5AF0FCEC5BF0DB8718
:10AD9000B3EF5BF020EC5BF009EC5BF0030EEFDB54
:10ADA00000010010606F01C061F0200E426E436A26
:10ADB00060C03DF001C03EF043EC68F03DC060F083
:10ADC0003EC061F0040E09EC5BF0050ED8DB00011B
:10ADD0000010626F01C063F0200E426E436A62C0D1
:10ADE0003DF001C03EF043EC68F03DC062F03EC073
:10ADF00063F0060E09EC5BF0070EB7EC5BF0020E99
:10AE0000E15C02E2E16AE5520FEF5BF0A1EC5BF07E
:10AE10000A0EE126FB0EDBCF00F0FC0EDBCF01F0CB
:10AE200024EC5BF000C041F001C042F002C043F0EE
:10AE300003C044F0DCC03CF0DDC03DF0DEC03EF0BD
:10AE4000DFC03FF0EDEC66F03CC0DCF03DC0DDF073
:10AE50003EC0DEF03FC0DFF09DDFFA0EDB5001E1C7
:10AE6000C5D00001C4510001625D046E6351000150
:10AE7000C55570DB3CC0B6F03DC0B7F03EC0B8F081
:10AE80003FC0B9F00001C2510001605D046E615124
:10AE90000001C3555FDB3CC0BAF03DC0BBF03EC013
:10AEA000BCF03FC0BDF02CDB92DAF2DA68EC5BF06C
:10AEB0005ADBB6C03CF0B7C03DF0B8C03EF0B9C0F8
:10AEC0003FF0C0EC5BF09AC041F09BC042F09CC0E8
:10AED00043F09DC044F038DB1CDBDFCF9AF0010E5D
:10AEE000DBCF9BF0020EDBCF9CF0030EDBCF9DF09F
:10AEF00019DB6DDACDDADADB36DBBAC03CF0BBC089
:10AF00003DF0BCC03EF0BDC03FF0C0EC5BF09EC069
:10AF100041F09FC042F0A0C043F0A1C044F014DB58
:10AF20000ADBDFCF9EF0010EDBCF9FF0020EDBCFFE
:10AF3000A0F0030EDBCFA1F0416A426A400E436EDF
:10AF400041DBDCEC5BF00EE000019E6B9F6B400E82
:10AF5000A06FA16FD4DB080E0001DB15080802E129
:10AF6000010ED86F416A426A540E436E420E2ADBCC
:10AF7000D8EC5BF00FE000019E6B9F6B540EA06F4E
:10AF8000420EA16FBCDB040E0001DB15040802E1D8
:10AF9000010ED86F416A426A400E436E446E0FDB69
:10AFA0000EE000019A6B9B6B400E9C6F9D6FA2DBC5
:10AFB000020E0001DB15020802E1010ED86F416AA2
:10AFC000426AEC0E436E420E446EF6DA0FE0000168
:10AFD0009A6B9B6BEC0E9C6F420E9D6F8BDB010E90
:10AFE0000001DB15010802E1010ED86F0A0EE15CD9
:10AFF00002E2E16AE55213D300019A6B9B6B800E6B
:10B000009C6F420E9D6F9E6B9F6BA06BA16FAE6B92
:10B01000AF6BB06BB16BAEC0AAF0AFC0ABF0B0C05D
:10B02000ACF0B1C0ADF0AEC0A6F0AFC0A7F0B0C0FC
:10B03000A8F0B1C0A9F0BE6BBF6BC06BC16BBEC046
:10B04000BAF0BFC0BBF0C0C0BCF0C1C0BDF0BEC054
:10B05000B6F0BFC0B7F0C0C0B8F0C1C0B9F0B26BB5
:10B06000B36BB46B3F0EB56F0101780E006F0C0E21
:10B07000016FD7DA0001C30EC86FF50EC96F1C0E41
:10B08000CA6F410ECB6FCC6BCD6BCE6B3F0ECF6FCB
:10B0900000017E6B7F6B806B816F0001C30ED06FF0
:10B0A000F50ED16F1C0ED26F410ED36FD46BD56BE2
:10B0B000D66B3F0ED76FD86BD96B0001846B856B55
:10B0C0001200BEDAFD0EDBCFDEFFDBCFDDFFDBCF14
:10B0D00000F0FE0EDBCF01F00001800E01140EE047
:10B0E0003D683E68FD0EDBCF42F0FE0EDBCF43F045
:10B0F00069EC68F03BC0DEFF3CC0DDFFDECF00F056
:10B10000DDCF01F000C0F3FF01C0F4FF020EE15CEF
:10B1100002E2E16AE55283D214DB00016E6B6F6BD1
:10B12000010E706F716B6EC03DF06FC03EF0D1D9F3
:10B130005EDAD6EC67F03CC07AF03DC07BF03EC0F2
:10B140007CF03FC07DF070C03DF071C03EF0C1D9D1
:10B1500057DAD6EC67F03CC07EF03DC07FF03EC0D1
:10B1600080F03FC081F0FA0EDB5001E187D03FDA7A
:10B170002ED9A5DAC8C03CF0C9C03DF0CAC03EF027
:10B18000CBC03FF027DB3DC082F03EC083F0000122
:10B190003D500101025F45DA33DA19D990DAD0C0A7
:10B1A0003CF0D1C03DF0D2C03EF0D3C03FF012DB46
:10B1B0003DC086F03EC087F0000182510101045F6E
:10B1C00000017E6B7F6B806B3F0E816F010102512E
:10B1D0000001726F736B010104510001746F756B94
:10B1E000010101510001766F776B280E01010125E5
:10B1F0000001786F796B6CDA78D972C0E6FF73C0A2
:10B20000E6FFC5D9F3CF8AF0F4CF8BF061DA6DD9C0
:10B2100074C0E6FF75C0E6FFBAD9F3CF8CF0F4CF67
:10B220008DF044DA62D976C0E6FF77C0E6FFAFD989
:10B23000F3CF8EF0F4CF8FF039DA57D978C0E6FF2C
:10B2400079C0E6FFA4D9F3CF90F0F4CF91F08EC08F
:10B25000E6FF8FC0E6FF8AC0E6FF8BC0E6FFE9D9B4
:10B260000AE090C0E6FF91C0E6FF8CC0E6FF8DC00B
:10B27000E6FFDFD903E10001010EDA6F74D261DA73
:10B28000010E0001926F936B030E946F956BFD0E90
:10B29000DBCF00F0FE0EDBCF01F093510118E8AEDA
:10B2A00002D0013404D00050925D0150935913E351
:10B2B000FB0EDBCF02F0FC0EDBCF03F09551031841
:10B2C000E8AE02D0033404D00250945D0350955987
:10B2D00002E3010E01D0000E46D233DAB5D9FB0EDF
:10B2E000DB50025C006EFC0EDB500358016E00C0A8
:10B2F000E6FFE66EE6DEE552E55235D2D950F70FAD
:10B30000E96EFF0EDA20EA6E41DA40DAE1D996EC16
:10B3100068F03E50E66E120014DAFE0EDBCF14F039
:10B3200014C03EF0C6EC66F03CC010F03DC011F019
:10B330003EC012F03FC013F06ADA3CC015F03DC0C9
:10B3400016F03EC017F03FC018F085D910C03CF091
:10B3500011C03DF012C03EF013C03FF0ECEC66F0BF
:10B36000DED9F80EDBCF3DF0F90ECED93CC01DF092
:10B370003DC01EF03EC01FF03FC020F048DA3CC088
:10B3800021F03DC022F03EC023F03FC024F063D93D
:10B390001DC03CF01EC03DF01FC03EF020C03FF07D
:10B3A000ECEC66F03CC019F03DC01AF03EC01BF05A
:10B3B0003FC01CF050D90CC03CF00DC03DF00EC099
:10B3C0003EF00FC03FF083EC67F071EF5BF0BED949
:10B3D000D6EF67F0D6EC67F072D99A0E416E990EEF
:10B3E000426E190E436E3F0E446ED6EF67F03BC0BF
:10B3F00041F03CC042F03DC043F03EC044F056EF47
:10B400005BF082D93CC02DF03DC02EF03EC02FF045
:10B410003FC030F020D929C03CF02AC03DF02BC0FD
:10B420003EF02CC03FF0ECEC66F03CC025F03DC097
:10B4300026F03EC027F03FC028F00DD908C03CF0F0
:10B4400009C03DF00AC03EF00BC03FF0D6EC67F0FB
:10B45000CFEF5BF064D95CD944D9FDD869D9EDEC64
:10B4600066F03CC0DEFF3DC0DEFF3EC0DEFF3FC0F9
:10B47000DDFFDD52DD52D9CFE9FFDACFEAFFEECFB3
:10B4800000F0EECF01F0EECF02F0EFCF03F01200AC
:10B4900086D92BEF5BF038D93CC031F03DC032F09B
:10B4A0003EC033F03FC034F0D6D804C03CF005C0F5
:10B4B0003DF006C03EF007C03FF0EDEC66F0FFD86F
:10B4C0003CC03BF03DC03CF03EC03DF03FC03EF0D4
:10B4D0004AD1D9EC66F0F3D82BEF5BF0416A426AAF
:10B4E000800E436EBF0E446E1200BDEC68F03DC08E
:10B4F00000F03EC001F03DC0E6FF3EC0E6FF120096
:10B50000A6C03CF0A7C03DF0A8C03EF0A9C03FF0E7
:10B5100012003CC0A6F03DC0A7F03EC0A8F03FC05E
:10B52000A9F01200AAC03CF0ABC03DF0ACC03EF0A8
:10B53000ADC03FF012003CC0AAF03DC0ABF03EC031
:10B54000ACF03FC0ADF01200F3D8ECEC66F0FED8E2
:10B5500083EF67F0056E04C03DF03E6ED9EC66F0F7
:10B56000AED888EF5BF0EDEC66F0A9D8B2C041F040
:10B57000B3C042F0B4C043F0B5C044F01200F7D8F5
:10B58000DBCF00F000C001F0006ADF501200A5DE42
:10B59000E552E552E552E5521200B6D83CC029F01A
:10B5A0003DC02AF03EC02BF03FC02CF01200C0D8A6
:10B5B000EDEC66F0BDEF68F08BD8D8EF5BF088D883
:10B5C000DCEF5BF0446E56EF5BF0F90EDBCF3DF045
:10B5D000FA0E84EF5BF0FB0EDBCF3DF0FC0E84EF48
:10B5E0005BF0FD0EDBCF3DF0FE0E84EF5BF07AC02A
:10B5F0003CF07BC03DF07CC03EF07DC03FF01200CF
:10B600007EC03CF07FC03DF080C03EF081C03FF086
:10B610001200E66E75EC6EF0E552DF6E1200E16E20
:10B62000A2D000017A6B7B6B800E7C6F3F0E7D6F2A
:10B63000120025DEE552E552E552E55201081200FE
:10B6400080D8020EE1261200FD0EDBCF02F0FE0EC6
:10B65000DBCF03F012003CC041F03DC042F03EC0E1
:10B6600043F03FC044F0120049DE51EC56F0046E46
:10B67000090EE15E04503BC000F03CC001F03DC04B
:10B6800002F03EC003F0F7EF59F038DE45EC56F01B
:10B69000096E090EE15E09503BC005F03CC006F0A2
:10B6A0003DC007F03EC008F0F7EF59F09EC03CF0F7
:10B6B0009FC03DF0A0C03EF0A1C03FF012003CC0D2
:10B6C00000F03DC001F03EC002F03FC003F01200A8
:10B6D0009AC03CF09BC03DF09CC03EF09DC03FF046
:10B6E00012003CC008F03DC009F03EC00AF03FC067
:10B6F0000BF01200F3DE04DF6DDE89EF5AF0EEDEB0
:10B7000011DF68DE9BEF5AF0DBCF3EF0D9EF66F039
:10B71000416A426A436A400E446E83EF67F03CC060
:10B720000CF03DC00DF03EC00EF03FC00FF0120017
:10B7300000C03CF001C03DF002C03EF003C03FF04D
:10B740001200D9CFE6FFE1CFD9FF1200FB0EDBCF0D
:10B7500041F0FC0EDBCF42F0FD0EDBCF43F0FE0EDE
:10B76000DBCF44F01200E552E7CFD9FF1200E66EBE
:10B7700075EC6EF0E552E76E010EE7CFDBFF1200CD
:10B7800083EC67F024DE23DE2AEF5AF0EECFE6FFEB
:10B79000EECFE6FFEECFE6FFEECFE6FF12003CC0B5
:10B7A00004F03DC005F03EC006F03FC007F01200B7
:10B7B000F5EC68F0010A1200ECEC68F0010A1200E6
:10B7C000FC0EDBCF3DF0FD0E1200FA0EDBCF3DF09C
:10B7D000FB0E1200FCDDFBDD84DF9ADF59DED7EFC4
:10B7E0005AF03CC09AF03DC09BF03EC09CF03FC078
:10B7F0009DF080DF000112003CC09EF03DC09FF034
:10B800003EC0A0F03FC0A1F07ADF00011200F60EAA
:0AB81000DBCF3DF0F70E84EF5BF094
:06B81A00B0EC60F0FC0E32
:10B82000DB5035E1FA0E17EC61F062EC61F0FB0ED3
:10B83000DB5052EC61F0F90EDB50006E016AD890DB
:10B84000015002E6D3EC60F003E257EC61F006D061
:10B85000F90E17EC61F0040EABEC60F0F90EDB5062
:10B86000030F5DEC61F0FA0EDB5005E1A4EC60F033
:10B87000E20EEE6EED68FB0EDB507F0836E1A4ECC5
:10B8800060F0020EE926000EEA22960E2CD0F90E88
:10B8900017EC61F062EC61F0F90EDB50030F52EC33
:10B8A00061F0FA0EDB50006E016AD890015002E69A
:10B8B000D3EC60F003E257EC61F006D0FA0E17EC1F
:10B8C00061F0040EABEC60F0FB0EDB505DEC61F060
:10B8D000FB0EDB503F0809E1A4EC60F0060EE92600
:10B8E000000EEA22500EEE6EED6AB5EF60F0B0EC9D
:10B8F00060F0040EE126020EDB6A030EDB6ABFEC89
:10B9000060F0D890015002E6D3EC60F03CE2BFEC6E
:10B9100060F0B00E0024D8EC60F0020ED8EC60F0BD
:10B92000100ED8EC60F0DE6ADD6AC6EC60F004E66A
:10B93000800E005C000E015820E2DECF02F0DDCF69
:10B9400003F0800E3D6E3E6A020EDBCF42F0030E26
:10B95000DBCF43F069EC68F002503B24006E0350EB
:10B960003C2036EC61F0EF50E66E53EC6AF0E552A5
:10B97000DF2A010EDAE3DB2AD8D7020EDB2A030E18
:10B98000BEE3DB2ABCD7040EE15C02E2E16AE552C9
:10B99000E16EEBD3E5DB020EE126DE6ADD6AF6DB63
:10B9A00004E6000E005C040E01580FE2DE500E01AA
:10B9B0001925E96EDD501A21EA6EFE0EDBCFEFFF8E
:10B9C000DF2A010EECE3DB2AEAD7020EE15C02E299
:10B9D000E16AE552E16EC9D3C3DBFD0EDB04A4DBF3
:10B9E00002E0AADBFEE1A3EC61F0B2EC61F0FEEC58
:10B9F00060F002E0A1DBFEE1ACEC61F0B2EC61F0E2
:10BA0000E1DBFE0F91DB02E097DBFEE1E9DBFE0FFD
:10BA1000D9DBFE0F89DB02E08FDBFEE1DEDBFE0F10
:10BA2000D1DBFD0F81DB02E087DBFEE1D9DBFD0F1F
:10BA3000C9DBFD0F79DB02E07FDBFEE1CEDBFD0F32
:10BA400091EC61F002E078DBFEE1D1DB020F73ECF8
:10BA500061F002E071DBFEE1CADB030F7CEC61F018
:10BA600002E06ADBFEE1C3DB040F79EC61F002E087
:10BA700063DBFEE1BCDB050F91EC61F002E05CDB17
:10BA8000FEE1B1DB020F73EC61F002E055DBFEE199
:10BA9000AADB030F7CEC61F002E04EDBFEE1A3DBEE
:10BAA000040F79EC61F002E047DBFEE19CDB050F5F
:10BAB0007FEC61F002E040DBFEE1A6EC61F085EC9A
:10BAC00061F002E039DBFEE1A3EC61F085EC61F0AE
:10BAD00002E032DBFEE1ACEC61F085EC61F002E00B
:10BAE0002BDBFEE12DDB050F71DB98DB02E024DBB5
:10BAF000FEE189DB070F76EC61F002E01DDBFEE181
:10BB00006FDB070FF3DB02E017DBFEE166DB070FFD
:10BB1000EDDB02E011DBFEE179DB070F5BDB02E02E
:10BB20000BDBFEE197EC61F0BDEC61F002E004DBC1
:10BB3000FEE106DB060FECDBE5DB02E0FDDAFEE111
:10BB400069DB060FDFDB02E0F7DAFEE16DDB060FF3
:10BB5000F2DB02E0F1DAFEE143DB080FECDB02E0AE
:10BB6000EBDAFEE13ADB080FDFDB02E0E5DAFEE1CB
:10BB700037DB090FD9DB02E0DFDAFEE12EDBDFDBAA
:10BB800002E0DADAFEE12CDB0A0F1CDBA9DB02E0C3
:10BB9000D3DAFEE122DB0A0F79D399DBC5DA02E0C2
:10BBA000CBDAFEE1C4DBB1DB02E0C6DAFEE1CEDBDC
:10BBB000ACDB02E0C1DAFEE1C6DBA7DB02E0BCDA07
:10BBC000FEE1CADB48DB02E0B7DAFEE1B0DBD5DB41
:10BBD00002E0B2DAFEE1BADBD0DB02E0ADDAFEE190
:10BBE000B2DBCBDB02E0A8DAFEE1B6DB91DB4ED3C1
:10BBF0006EDB2EDB02E0A0DAFEE1A2DA0D0F99DAAD
:10BC0000050F7ADB02E098DAFEE19ADA0C0F91DA9E
:10BC1000040F78DB02E090DAFEE192DA0C0F89DAA9
:10BC2000060F61DB02E088DAFEE18ADA0B0F9DDBAA
:10BC300002E082DAFEE184DA0B0F9BDB02E07CDAC1
:10BC4000FEE17EDA0A0F91DB02E076DAFEE178DAD5
:10BC50000A0F8FDB02E070DAFEE172DA090F85DB92
:10BC600002E06ADAFEE16CDA090F83DB02E064DAF3
:10BC7000FEE166DA080F79DB02E05EDAFEE160DA07
:10BC8000080F77DB02E058DAFEE1ADDA030F2EDBB6
:10BC900002E052DAFEE1A7DA070F25DB02E04CDA18
:10BCA000FEE1B8DA030F22DB02E046DAFEE1B2DAA7
:10BCB000070F19DB02E040DAFEE1A8DA030F16DB1A
:10BCC00002E03ADAFEE1A2DA070F0DDB02E034DA35
:10BCD000FEE183DA030F0ADB02E02EDAFEE17DDA11
:10BCE000070F1FDB02E028DAFEE17ADA020F23DB1E
:10BCF00002E022DAFEE174DA080F6CDA02E01CDA04
:10BD0000FEE124DB05DB10DB02E016DAFEE17BDA84
:10BD1000090FF5DA02E010DAFEE109DB57DAE0DAC2
:10BD200002E00ADAFEE180DA0A0F68DA02E004DAF9
:10BD3000FEE106DA17DB46DA0B0FF6D902E0FCD992
:10BD4000FEE155DA0B0F5ADA02E0F6D9FEE1046E95
:10BD5000FE0EDB0407DBD3DA02E0EED9FEE1046E6F
:10BD6000FE0EDB0433DA71DA02E0E6D9FEE164DAD2
:10BD7000040FBFDA02E0E0D9FEE15EDA050FD4DAA3
:10BD800002E0DAD9FEE158DADADA02E0D5D9FEE1EA
:10BD900053DA0A0F33DA02E0CFD9FEE1D1D9FE0F30
:10BDA000E1DAADDA02E0C8D9FEE1CAD9FE0F0EDA57
:10BDB0004CDA02E0C1D9FEE144DA040F9ADA02E07B
:10BDC000BBD9FEE13EDA050FAFDA02E0B5D9FEE1FC
:10BDD00038DAB5DA02E0B0D9FEE133DA0A0F56D22A
:10BDE00076DA41DA02E0A8D9FEE101DACCDA02E043
:10BDF000A3D9FEE1FCD9040F76DA02E09DD9FEE179
:10BE0000F2D9C4DA02E098D9FEE1EDD9050FE2D902
:10BE100002E092D9FEE18BDAB3DA02E08DD9FEE1DD
:10BE200003DAB4DA02E088D9FEE1FED9050F79DA47
:10BE300002E082D9FEE1EED9A6DA02E07DD9FEE188
:10BE4000E9D9040F5FDA02E077D9FEE1E3D9060F02
:10BE500056DA02E071D9FEE179DAB8D904DA02E003
:10BE60006BD9FEE1D0D98FDA02E066D9FEE1CBD9F9
:10BE7000040F48DA02E060D9FEE1C5D9060F3FDAC7
:10BE800002E05AD9FEE168DAA1D9EDD902E054D92D
:10BE9000FEE1A3D978DA02E04FD9FEE19ED9040F82
:10BEA00031DA02E049D9FEE198D9060F93D902E0D0
:10BEB00043D9FEE148DA64DA02E03ED9FEE190D9E6
:10BEC00065DA02E039D9FEE18BD9050F0FDA02E01D
:10BED00033D9FEE185D9070F7DD902E02DD9FEE1E6
:10BEE0002FD9050F4DDA02E027D9FEE18FD94EDABE
:10BEF00002E022D9FEE18AD9050FF8D902E01CD967
:10BF0000FEE184D9070FEFD902E016D9FEE16FD91F
:10BF10003DDA02E011D9FEE16AD9050FF3D902E05A
:10BF20000BD9FEE181D9060FE1D902E005D9FEE186
:10BF30006AD9070FE4D902E0FFD8FEE104DA46D956
:10BF40006DD902E0F9D8FEE148D9070FD8D902E04F
:10BF5000F3D8FEE1F5D8050F7ED902E0EDD8FEE179
:10BF6000EFD8060FD5D9DDD902E0E6D8FEE13BD9FE
:10BF70000ADA02E0E1D8FEE136D9040F87D18BD985
:10BF8000FC0EDB50D880DF5422E3FE0EDB50CCD811
:10BF900002E0D2D8FEE111D9FE0EDB40B8D8FE0E89
:10BFA000DB5061D902E0C8D8FEE107D9FE0EDB50B4
:10BFB000020FCFD9DFA009D08ED902E0BDD8FEE1B3
:10BFC000FCD8FE0EDB28E840A2D8DF2AD9D783D9D7
:10BFD00002E0B2D8FEE1046EFD0E51D97CD902E038
:10BFE000ABD8FEE1046EFC0E4AD9020EE15C02E21F
:10BFF000E16AE552E16EB9D04ED9FC0EDB50D88033
:10C00000DF5416E3B6D802E097D8FEE199D826D9D6
:10C01000B0D802E091D8FEE199D920D9DFA006D0AE
:10C02000A8D802E089D8FEE182D918D9DF2AE5D75D
:10C03000FD0EDB5079D802E07FD8FEE178D96BD9CC
:10C04000FC0EDB5071D802E077D8FEE170D9026EA9
:10C05000036AFC0EDB405BD8020EE15C02E2E16A9F
:10C06000E552E16E82D07CD8E6520001DA5137E128
:10C07000E66A90DCE55201C1E6FF8FD8280E010187
:10C080000125E66E8AD801C1E6FF02C1E6FF85DD23
:10C09000E552E552280E01010125E66E04C1E6FFD6
:10C0A0007CDDE552E5529EC03CF09FC03DF0A0C053
:10C0B0003EF0A1C03FF096EC68F03E50E66E9AC0AC
:10C0C0003CF09BC03DF09CC03EF09DC03FF096EC24
:10C0D00068F03E50E66E8CDDE552E55214D0DA058C
:10C0E00012E1E66A57DCE55275EC65F07DEC65F02F
:10C0F000F3CF00F0F4CF01F0010EF31804E101508A
:10C1000002E12BEC63F077EC5CF0E5522ED0E840D6
:10C11000E8401F0B800D0250F324006E0350F42002
:10C12000A5D80450EF121200070B056E010E055240
:10C13000120060D8DB501200E846FE0B0506120024
:10C14000046EFE0EDB501200FD0EDBCFE9FFFE0E8B
:10C15000DBCFEAFF1200E926000EEA2262EF61F06F
:10C16000D9CFE6FFE1CFD9FF1200E552E7CFD9FFE3
:10C170001200070EDF14056E010E05521200020EAA
:10C18000DBCF00F0030EDBCF01F01200DECF00F0BA
:10C19000DDCF01F0D8900150120000C1E6FF1CDC99
:10C1A000E552E5521200080E005C000E0158120024
:10C1B000E66E50EC6AF0E5521200046EDF50026E3B
:10C1C000036A1200C6D8FD0EDB501200A4D8FD0E83
:10C1D000DB501200BED8FD0EC2D0BED899EF60F081
:10C1E000B2D899EF60F0ACDF070F99EF60F0A8DFED
:10C1F00099EF60F0026E036AFD0E1200AAD8FD0EE0
:10C20000DB0494EF60F0A2D899EF60F099DF050F9E
:10C2100099EF60F095DF060F99EF60F0070F94EF4C
:10C2200060F0030F94EF60F082D899EF60F0DB507C
:10C23000F80FE66EA4EF60F0046EFE0EDB0499EFDB
:10C2400060F07EDFFE0F99EF60F0040F94EF60F076
:10C25000050F94EF60F05FD8FD0E81D0026E036A87
:10C26000DF50A9EF61F0020F94EF60F0016E0E0154
:10C2700019510024E96E1A510120EA6E1200DB50B8
:10C28000026E036AFE0EDB28A9EF61F062D86DD75B
:10C29000060F94EF60F064DF020EE126FD0EDB5026
:10C2A000DF6E1200E66E50DF020EABEF60F04CDF87
:10C2B000040EEB6A050EEB6A1200E66E45DF060E11
:10C2C000ABEF60F0E552E750EE6EED6A120048DF2A
:10C2D000FD0EDB501200FE0E42D0090F94EF60F00D
:10C2E0000A0F94EF60F06EDF11EF61F06BDF0EEF7D
:10C2F00061F068DF28EF61F065DF25EF61F062DF54
:10C3000094EF60F05FDF48EF61F060DF94EF60F082
:10C3100071DFDB281200026E036AFD0EDB4087EF3F
:10C3200060F050DF33EF61F04DDF6DEF61F0046ED0
:10C33000FE0EDB28120046DF080F94EF60F0090FB5
:10C3400041DF70EF61F0FCDE030F1200F9DE020F37
:10C350001200E84087EF60F0F3DE040F1200DB28E4
:10C3600094EF60F047DFDB041200E3DE030F76EFAB
:10C3700061F0DFDE070F73EF61F0CADFEAEF60F014
:10C38000C7DF73EF61F0020F7CEF61F0030F79EF0D
:02C3900061F05A
:0EC3920094EC66F01100D8CFE4FFE0CFE4FF9A
:10C3A000E46E94EC66F0E550E5CFE0FFE5CFD8FF12
:10C3B0001000D4DBE0EC65F0FDD78FEC66F09BEC71
:10C3C00066F0BC0E005C020E015807E3A2EC66F0BA
:10C3D000BC0E025C020E03580DE29BEC66F0A2EC70
:10C3E00066F00250005C0350015802E2010E03D0D7
:10C3F000020E01D0000EE552E7CFD9FF12008FECFC
:10C4000066F0420EE126CAEC56F00001C25100016E
:10C41000605D006E61510001C355016E00500E0158
:10C420000527015006230001C4510001625D006E22
:10C4300063510001C555016E00500E0107270150E0
:10C4400008230001C80EEF1939E1F05137E1E66A1F
:10C45000E66AAA0EE66EDF0EB1EC66F005CE00F0DD
:10C4600006CE01F0C80E426E436A05CE3DF006CE00
:10C470003EF084EC66F0930E026EDF0EF2DB020EED
:10C48000A9EC66F007CE00F008CE01F0C80E426EAF
:10C49000436A07CE3DF008CE3EF084EC66F07C0E99
:10C4A000026EDF0EDEDB030EA9EC66F00E01056BFB
:10C4B000066B076B086B0001EF6BF06BE66AC1DB84
:10C4C00008E260C0C2F061C0C3F062C0C4F063C0E3
:10C4D000C5F0030EE66EB5DB03E20001060EE56F64
:10C4E0000001EF2B000EF023420EE15C02E2E16A54
:10C4F000E5527FEF66F0010EE66EB6EC66F0020ED6
:10C50000E66E14EC70F0E552F3CF02FEF4CF03FEBA
:10C51000F3CFE6FFF4CFE6FF00CEE6FF01CEE6FF65
:10C520004CDFD8DB0001E06FE85005E0EA5103E1A1
:10C53000010EEA6FA6DBE05102E1EA6B000CEA5162
:10C540000AE0AADBE83407E200506408000E015458
:10C5500002E297DB020CEA510BE09EDBD880E85048
:10C5600004E79C0E005CFF0E015802E28ADB010E1C
:10C570001200D5DB230EE126E66AE66A660EE66E59
:10C58000DF0EEFDBB8DFE76E020EE7CFDBFFDB503D
:10C59000020806E10001E65100080AE2E60708D0B9
:10C5A000020EDB0405E1050E0001E65D01E2E62B6B
:10C5B0000001E751E65D030804E1020EE75D01E2D8
:10C5C000E72BE751E65D04E1E751000801E2E707E8
:10C5D000010EDB6AE7C0DFFF040E0001E725DF5C28
:10C5E00024E2DFCFE6FFE66A500E006EDF0E016E3A
:10C5F000026A00C0E6FFE66E02C0E6FFD950030FF4
:10C60000BDDB036E070EE15E0350DF500001E65D07
:10C6100004E16CDBEFEC6AF003D068DBE0EC6AF07D
:10C6200059DB010EDB2ADF2AD7D7030EE66E57DB74
:10C6300005E20001060EE56F010EE66FE66A4FDBCC
:10C6400004E20001E569E6C0F1F1230EE15C02E2DB
:10C65000E16AE55254D3D9CFE6FFE1CFD9FF070E07
:10C66000E1260001E551090A01E132D2010A01E1A6
:10C67000E4D10F0A01E1DFD1010A01E1D9D0030AB7
:10C6800001E1D0D0010A70E0050A67E0010A01E08B
:10C6900021D2FDEC69F0E66A56EC6AF0E552E66AF2
:10C6A000E66A390EE66EDF0EE66EC2EC6AF0E5521F
:10C6B000E552E552E552E66A010EE66EC00EE66E00
:10C6C000DF0EE66EC2EC6AF0E552E552E552E55245
:10C6D000E66A020EE66E220EE66EDF0EE66EC2EC33
:10C6E0006AF0E552E552E552E552E66A030EE66E5F
:10C6F000C00EE66EDF0EE66EC2EC6AF0E552E55261
:10C70000E552E552E66A040EE66E0E0EE66EDF0EA8
:10C71000E66EC2EC6AF0E552E552E552E552E66A91
:10C72000050EE66EF70EE66EDE0EE66EC2EC6AF001
:10C73000E552E552E552E552E66A060EE66EE10E76
:10C74000E66EDE0EE66EC2EC6AF0E552E552E552A8
:10C75000E5520001010EE56FBED1CFD9010803E11A
:10C760000001040EE56FB7D1E66AE66ACB0EE66E0D
:10C77000DE0EE66EC2EC6AF0E552E552E552E55295
:10C78000E66A010EE66EB50EE66EDE0EE66EC2ECF1
:10C790006AF0E552E552E552E552E66A020EE66EAF
:10C7A0009F0EE66EDE0EE66EC2EC6AF0E552E552D2
:10C7B000E552E552E66A030EE66E890EE66EDE0E7F
:10C7C000E66EC2EC6AF0E552E552E552E552E66AE1
:10C7D000040EE66E730EE66EDE0EE66EC2EC6AF0D6
:10C7E000E552E552E552E552E66A050EE66EC00EE8
:10C7F000E66EDF0EE66EC2EC6AF0E552E552E552F7
:10C80000E552E66A060EE66EE10EE66EDE0EE66EB6
:10C81000C2EC6AF0E552E552E552E5520001050E20
:10C82000E56F59D16AD9010802E10001E52B53D126
:10C8300062DEE76E060EE7CFDBFF060EDB50020876
:10C8400007E10001E651000802E20001E60709D015
:10C85000060EDB0406E1030E0001E65D02E20001C4
:10C86000E62BE66AE66A5C0EE66EDE0EE66EC2EC6B
:10C870006AF0E552E552E552E552E66A010EE66ECF
:10C88000EDC0E6FFEEC0E6FFC2EC6AF0E552E5520D
:10C89000E552E5520001E6510EE1E66A020EE66E4F
:10C8A000460EE66EDE0EE66ED1EC6AF0E552E5521B
:10C8B000E552E5520DD0E66A020EE66E460EE66ED1
:10C8C000DE0EE66EC2EC6AF0E552E552E552E55244
:10C8D0000001E6050EE1E66A030EE66E300EE66E36
:10C8E000DE0EE66ED1EC6AF0E552E552E552E55215
:10C8F0000DD0E66A030EE66E300EE66EDE0EE66ED4
:10C90000C2EC6AF0E552E552E552E552020E000132
:10C91000E65D0EE1E66A040EE66E1A0EE66EDE0EC7
:10C92000E66ED1EC6AF0E552E552E552E5520DD0E3
:10C93000E66A040EE66E1A0EE66EDE0EE66EC2ECD7
:10C940006AF0E552E552E552E552030E0001E65D5C
:10C950000EE1E66A050EE66E040EE66EDE0EE66E8B
:10C96000D1EC6AF0E552E552E552E5520DD0E66AA7
:10C97000050EE66E040EE66EDE0EE66EC2EC6AF0A2
:10C98000E552E552E552E552E66A060EE66EEDC066
:10C99000E6FFEEC0E6FFC2EC6AF0E552E552E55272
:10C9A000E552E66A14EC70F0E552DE52F3CFDEFF9A
:10C9B000F4CFDDFFDD52010EDBCF00F0020EDBCF46
:10C9C00001F0580E005C020E015834E20001E651FD
:10C9D000030A2EE0010A1DE0030A08E0010A01E053
:10C9E00029D00001E5690101F16B24D00001090E95
:10C9F000E56F640EE66EE66AD9EC69F0E552E55241
:10CA0000E66A56EC6AF0E5520001E66B0001E76B5E
:10CA100011D00001070EE56F640EE66EE66AD9ECF0
:10CA200069F0E552E552E66A56EC6AF0E55202D04A
:10CA3000FF0000D050D0E3DC4ED0E66856EC6AF040
:10CA4000E552E66AE66AEE0EE66EDD0EE66ED1ECC3
:10CA50006AF0E552E552E552E552E66A020EE66EEC
:10CA6000D80EE66EDD0EE66ED1EC6AF0E552E552C8
:10CA7000E552E552E66A030EE66EC20EE66EDD0E84
:10CA8000E66ED1EC6AF0E552E552E552E552E66A0F
:10CA9000040EE66EAC0EE66EDD0EE66ED1EC6AF0CC
:10CAA000E552E552E552E552D00EE66E070EE66E0F
:10CAB000D9EC69F0E552E5520001060EE56FE66A31
:10CAC00056EC6AF0E5520101F16B0001D96B03D01D
:10CAD00050DD01D000D0070EE15C02E2E16AE552D0
:10CAE000E16EE552E7CFD9FF1200E66A030EE66E6B
:10CAF000980EE66EDD0EB1EF66F081B01FD000013A
:10CB0000F2C000F0F3C001F0F4C002F0F5C003F091
:10CB1000F22B000EF323F423F523D880D00E00541B
:10CB2000070E0154000E0254000E035416E2F26B7D
:10CB3000F36BF46BF56B010EF16F000C0001F10566
:10CB40000CE1F251F311F411F51102E1F16B010C5A
:10CB5000F207000EF35BF45BF55B000CE0D8020E0D
:10CB6000E1260F0EC112580EDE6E020EDD6E9B8C9A
:10CB7000DFCF00F0DF06010EDBCF01F001E2DB06C4
:10CB800000500110F5E10F014869496906D8020E0D
:10CB9000E15C02E2E16AE552B2D0949C8B8C828C1B
:10CBA00011EC70F07CEC70F092EC6DF08B8E828E5C
:10CBB000E66ACAEC5CF0E5520101F16BFCEF57F05C
:10CBC000AED8020EE126FF0E0001E55D2FE1000167
:10CBD000D85109E10001D95106E1010EE66E6BD88A
:10CBE000010EE66E03D0E66A66D8E66AE66AE66A91
:10CBF000E66A3F0EE66E8CEC58F0006E050EE15EC4
:10CC0000005033EC60F00E011B0504E11B6B0001CA
:10CC1000080EE56F030EE66E14D808E20001060E5A
:10CC2000E56FE66BE66A56EC6AF0E552F7EC71F0F8
:10CC3000000901E010DD020EE15C02E2E16AE5526A
:10CC40005ED014EC70F0E552F3CFDEFFF4CFDDFFE1
:10CC5000DECF00F0DDCF01F0580E005C020E01586F
:10CC60001200036E046A02C0E6FFE66E04C0E6FF2F
:10CC7000D950020F83D8056E070EE15E0550E66AB3
:10CC800012000E010251005D0001E86F0E01035118
:10CC900001590001E96F12000E010251005D026EA0
:10CCA00001510355036E00010250E85D006E035010
:10CCB000E959016E12000A0EE66ED70EE66E230EDB
:10CCC000E66E3D0EE66E06EC57F0006E050EE15E78
:10CCD00000501200E552E552E552E552120046D8E6
:10CCE0000E01580EF35C020EF4581200E66A010EB3
:10CCF000DB50020FE66ED950030FC1EF66F0E16E14
:10CD0000E552E7CFD9FF120043EC68F03DC000F0D8
:10CD10003EC001F03DC0E6FF3EC0E6FF1200D9CFA5
:10CD2000E6FFE1CFD9FF1200DACFE4FFE652E55289
:10CD3000E5CFDAFF1200FD0EDBCF00F0FE0EDBCFF9
:10CD400001F01200FB0EDBCF02F0FC0EDBCF03F094
:10CD50001200E66ED950020F14D8E0EC6AF06AEFC8
:10CD600066F0E66EC2EC6AF06AEF66F014EC70F002
:10CD7000E552F3CF00FEF4CF01FE120002D843EFDC
:0CCD800072F0E66E000EDA20E66E120083
:04CD8C00369E05D0FA
:10CD9000369E3EAE02D03E6C368E3EC038F0376ACC
:10CDA000486A476A860E396E3A6A6FEF69F0369EB6
:10CDB00008D0369E3EAE05D03D6C3E1EE86A3E224F
:10CDC000368E3EC038F03DC037F0486A476A8E0E56
:10CDD000396E3A6A6FEF69F0447E366AABEC69F0FF
:10CDE000C3EC69F036B653EF69F036A20AD036AA22
:10CDF00003D036BE53EF69F036A45FEF69F05CEF05
:10CE000069F036AA05D036AC5FEF69F05CEF69F0E7
:10CE100036A00AD036A808D036BE04D036A402D038
:10CE200068EF69F06CEF69F0476A3A6A44503F5C1A
:10CE3000466E10E33CC048F03DC037F03EC038F0CD
:10CE40003FC045F041C03CF042C03DF043C03EF021
:10CE5000363A09D041C048F042C037F043C038F0FC
:10CE600044C045F0466C369E36BC368E45C039F01F
:10CE700036B09BEF69F01A0E46609BEF69F0396A95
:10CE80003F6A36A408D03C6C3D1E3E1E3F1EE86A39
:10CE90003D223E223F2236AC08D0486C371E381E59
:10CEA000391EE86A3722382239223B6A465207E0A7
:10CEB0003F343E323D323C323B32462EF9D73C5075
:10CEC00048263D5037223E5038223F5039223BC041
:10CED00047F0369E39AE0BD0476C481E371E381EC1
:10CEE000391EE86A4822372238223922368E39A084
:10CEF00006D0D8803832373248324732452A45C0CA
:10CF000039F06FEF69F0366AABEC69F0C3EC69F0A9
:10CF100036B653EF69F036A205D036BA53EF69F052
:10CF20005AEF69F036BA66EF69F036A005D036B828
:10CF300053EF69F066EF69F036B85AEF69F03A6A74
:10CF40007F0E3F24396EE86A3A224450395EE86A1F
:10CF50003A5A1A0E456E3F6A476A486A376A386A13
:10CF600041503C5E42503D5A43503E5A000E3F5A9B
:10CF700009E741503C2642503D2243503E22000EDC
:10CF80003F2201D0478AD8903C363D363E363F3668
:10CF9000D8904736483637363836452EE1D73E509A
:10CFA0003D103C10D8A4478A6FEF69F0366AABECAD
:10CFB00069F0C3EC69F036B653EF69F036A205D0DC
:10CFC00036B853EF69F05AEF69F036AA05D036B09B
:10CFD00053EF69F05AEF69F036B002D036A802D0AC
:10CFE00066EF69F03A6A44503F24396EE86A3A22A3
:10CFF0007E0E395EE86A3A5A476A486A376A386A82
:10D0000043503E02F4CF38F0F3CF37F042503E02A7
:10D01000F3504826F4503722000E382243503D0288
:10D02000F3504826F4503722000E382241503E0279
:10D03000F3504726F4504822000E3722382242503F
:10D040003D02F3504726F4504822000E3722382282
:10D0500043503C02F3504726F4504822000E37223A
:10D06000382241503D02F4504726000E4822372214
:10D07000382242503C02F4504726000E4822372204
:10D0800038226FEF69F0356A43AE4CEF68F0426CBE
:10D09000431EE86A4322351E3EAE54EF68F03D6CF5
:10D0A0003E1EE86A3E22351EB9EC73F03EBE64EFC8
:10D0B00068F035AE000C3D6C3E1EE86A3E22396CCD
:10D0C0003A1EE86A3A22000C35BE5BEF68F03688FB
:10D0D000FF0C3EC048F03DC047F03D504202F4CF47
:10D0E0003CF0F3CF3BF03E504302F4CF3EF0F3CFA1
:10D0F0003DF04202F3503C26F4503D22E86A3E22C5
:10D1000047504302F3503C26F4503D22E86A3E2249
:10D1100043AE8FEF68F047503D5E48503E5A48AEF0
:10D12000000C42503D5E43503E5A000C366AABEC58
:10D1300069F036B6A0EF68F036A20AD036B403D054
:10D140007F0E3E6E19D0800E3E6E16D03E6A14D011
:10D1500036B0FCD7870E3F60F1D77E0E3F64F6D71E
:10D16000860E3F5C04E0D8903E323F2AF9D736A4C1
:10D1700003D03E6C3EAEEAD71200366AABEC69F0E3
:10D1800036B6C7EF68F036A20ED036B405D07F0EA3
:10D190003E6EFF0E3D6E1FD0800E3E6E3D6A1BD070
:10D1A0003E6A3D6A18D036B0FBD78F0E3F60EDD790
:10D1B0007E0E3F64F5D78E0E3F5C05E0D8903E3280
:10D1C0003D323F2AF8D736A406D03D6C3E1EE86AB1
:10D1D0003E223EAEE5D71200FEEC68F036B6000CFB
:10D1E00036B0000C36B4000C010CFEEC68F036B61C
:10D1F000000C36B0000C36A4000C010C366AABEC07
:10D2000069F0C3EC69F036B6120036AE08D036A02D
:10D2100004D036A802D03680120036901200445056
:10D220003F5C0BE143503E5C08E142503D5C05E150
:10D2300041503C5C02E136801200D8A002D0368E0C
:10D2400010D03F5044C03FF0446E3E5043C03EF0CB
:10D25000436E3D5042C03DF0426E3C5041C03CF0F8
:10D26000416E44503F5C10E0FF0F09E0369036B449
:10D2700003D036AE3684120036AE36941200442AFD
:10D28000D89043324232413241503C5E42503D5A86
:10D2900043503E5A3EBEEAD7D8903C363D363E36E5
:10D2A0003F2EF8D7C8D77F0E3F6EFF0E3E6E3D6E05
:10D2B0003C6E12007F0E36BEFF0E3F6E02D07F0E18
:10D2C0003F6E800E3E6E3D6A3C6AF3D736AE04D0A8
:10D2D000800E3F6E3E6AF7D73F6A3E6AF4D73850F9
:10D2E000371048104710F8E03ABEF0D738BE0CD0DF
:10D2F00039503A10EBE0D890473648363736383652
:10D300003906D8A03A06F2D73A50D4E13928D2E00B
:10D3100047AE11D07F0E471402E148A00CD0482A36
:10D32000E86A3722382207E3D88038323732483269
:10D33000392A3928BFE03950C9E048C03CF037C02D
:10D340003DF038343E6E39303F6E3E323F9E36BE41
:10D350003F8E59EF69F03E363F3602E33684367E23
:10D3600006E136803F6A3E6A3D6A3C6A12003F2809
:10D3700003E0D8803E321200D8903E3202E136827D
:10D380001200368612004336443602E3368C367E6F
:10D3900006E13688446A436A426A416A12004428B8
:10D3A00003E0D88043321200D8904332EAE1368A53
:02D3B000120069
:0ED3B200D4D9FD0EDBCF00F0DB06FE0EDBCF84
:10D3C00001F001E2DB060050011010E0DE6ADD6AC8
:10D3D000DECF00F0DDCF01F0E30E005C0D0E015852
:10D3E000E9E2DF2A010EF4E3DB2AF2D7020EE15C68
:10D3F00002E2E16AE552E16E71D102DA060EE1263F
:10D400008D9296928D9096908D8496948A9A939A06
:10D410008C92A8D984D902E297D9FCD78C82A2D960
:10D420007ED902E291D9FCD7AE0E42D9DB0E40D9AB
:10D43000230E3ED9D90E3CD9220E3AD9A10E38D9A5
:10D44000C80E36D9DA0E34D9120E32D9A80E30D918
:10D450003F0E2ED9D50E2CD9A00E2AD9810E28D94F
:10D46000600E26D9D30E24D9E66ACFD9A60E20D9CC
:10D47000AD0E1ED98B0E1CD9AF0E1AD90A0EE66E50
:10D48000E66A97DFE552E552A40E12D9400E10D994
:10D49000ACD9060EE15C02E2E16AE552E16E1ED112
:10D4A0004BD98A9AA7D148D98A8AA4D157D9B00E24
:10D4B000DF6EB80EDF5C1BE2DFCFE6FFA6D995D9A1
:10D4C000010EDB6ADB50006E016AD890015004E661
:10D4D000840E005C000E015808E2FE0EDBCFE6FF72
:10D4E000E2DFE552010EDB2AEDD7DF2AE2D7020E9A
:10D4F000E15C02E2E16AE552E16EF0D03FD9F6BEAE
:10D50000F768C8D80800F550D6D8F6BEF768C2D874
:10D51000010E5FD9F6BEF768BDD8020E5AD9F6BE25
:10D52000F768B8D8030E55D9F6BEF768B3D8040E1D
:10D53000EAD8F55056D9E66AB6DFE552E552CED0C4
:10D540001DD9F6BEF768A6D80800F51CB4D8F6BEFB
:10D55000F768A0D8010E41D9F6BEF7689BD8020E35
:10D560003CD9F6BEF76896D8030E37D9F6BEF768F1
:10D5700091D8040EC8D8F51C34D9E66894DFE5527A
:10D58000E552ACD09ED8AED80AE01DD9ABD8E66E35
:10D59000B5DFBED801E3DB2A060EDF26F4D7E5525D
:10D5A0009DD08FD89FD80AE00ED99CD8E66EC8DFF0
:10D5B000AFD801E3DB2A060EDF26F4D7E5528ED082
:10D5C00080D899D80AE0FFD896D8E66E97DFA0D821
:10D5D00001E3DB2A060EDF26F4D7E5527FD071D8AF
:10D5E0008AD80AE0F0D887D8E66EAADF91D801E39E
:10D5F000DB2A060EDF26F4D7E55270D001D9050EDE
:10D60000E126030EDB6A040EDB6A020E006EFA0EE0
:10D61000B0D8FA0EE7CFDBFFF90EDB50B00FDF6EAC
:10D62000FB0EDB50B00FDF5C2EE2DFCFE6FFEDD864
:10D63000FA0EDB500F0B3CD8FA0EDB380F0B0F0B3A
:10D64000100936D8010EDB6AFC0EDB50F36E010EBA
:10D65000DBCFF4FFF350F45C14E2030EDB2A040E7C
:10D6600001E3DB2AFD0EDBCFF6FFDB2AFE0EDBCF6C
:10D67000F7FF01E3DB2A0800F550B3D8010EDB2ADF
:10D68000E3D7DF2ACDD7050EE15C02E2E16AE5527D
:10D69000E16E24D0050EF702F3CFF7FFF602F3CFC9
:10D6A000F6FFF450F726BA0EF626E10EF722120026
:10D6B000E66E05EF6CF095D8FE0EDBCFF6FFF76A4D
:10D6C00012009ED8E652FB0EDB50DF6EFC0EDB50E4
:10D6D000B10FE76EFC0EE7CFDBFF1200E552E7CF9C
:10D6E000D9FF1200FD0EDBCFF6FFFE0EDBCFF7FFFA
:10D6F0000800F5501200FD0EDBCFE9FFFE0EDBCF78
:10D70000EAFFEF501200F626000EF7220800120082
:10D71000E552E552E552FD0EDB2AFE0E1200D9CF8E
:10D72000E9FFDACFEAFF640EEE5C000EEE58000E61
:10D73000EE58000EEE58120063D8956AFE0EDB50CC
:10D740008C6E8D808D821200D9CFE9FFDACFEAFF8F
:10D75000EE2A000EEE22EE22EE22120051D8020E28
:10D76000E1261200DE6ADE6ADE6ADD6ADD52DD5223
:10D770001200DBCFE7FF0050E726120041D8E65247
:10D78000200E006EFE0EDBCFE7FF0050E75EFE0EC0
:10D79000E7CFDBFFFD0EDBCFE6FF37D8020E006ED2
:10D7A000FC0EE7DFFC0EE7CFDBFFDB500F0B80DF6B
:10D7B000FC0EDB380F0B0F0B100F7ADFFE0EDBCFEA
:10D7C000F6FFF76A1200DFCFE6FFFC0EDBCFE6FFC5
:10D7D000120099DFF5505BEF6BF095DFF51C5BEF06
:10D7E0006BF0E66E60DEE5521200020E61DF100E95
:10D7F00058EF6BF08D948D928D828D8495686ED7E5
:10D80000D9CFE6FFE1CFD9FF12004ADEE552120080
:10D81000D9CFE6FFE1CFD9FFE652DF6A0101EE5131
:10D82000DF5C28E2DF50040DF3CFE9FFF4CFEAFF1D
:10D83000060EE926010EEA22EECFE6FFEECFE6FF66
:10D84000EECFE6FFEFCFE6FFDF50080DF3CF00F09D
:10D85000F4CF01F03E0E0026010E012200C0E6FFCB
:10D8600001C0E6FF0DEC5CF0026E060EE15E0250B8
:10D87000DF2AD4D7E552E552E7CFD9FF1200D9CF3E
:10D88000E6FFE1CFD9FFFE0E47D93CC09AF03DC07C
:10D890009BF03EC09CF03FC09DF0FD0E3DD93CC0CA
:10D8A0009EF03DC09FF03EC0A0F03FC0A1F000013F
:10D8B000A26BA36BA46BA56B0001AE6BAF6BB06BDF
:10D8C000B16BAEC0AAF0AFC0ABF0B0C0ACF0B1C0AD
:10D8D000ADF0AEC0A6F0AFC0A7F0B0C0A8F0B1C028
:10D8E000A9F00001BE6BBF6BC06BC16BBEC0BAF0CC
:10D8F000BFC0BBF0C0C0BCF0C1C0BDF0BEC0B6F080
:10D90000BFC0B7F0C0C0B8F0C1C0B9F0E552E7CFB2
:10D91000D9FF12001200120012000101EE6B160E68
:10D92000F06FEF6BF26F310EF36F070EEED801015F
:10D93000070EC06F060EC16F070EC26F110EC36FC8
:10D94000070EC46F1C0EC56F070EC66F270EC76F7C
:10D95000070EC86F320EC96F160ECA6F060ECB6F58
:10D96000250ECC6F060ECD6F340ECE6F060ECF6F28
:10D97000430ED06F060ED16F520ED26F060ED36FCC
:10D98000620ED46F060ED56F6F0ED66F1C0ED76F5A
:10D990006F0ED86F270ED96F6F0EDA6F320EDB6FF6
:10D9A000250EDC6F320EDD6F340EDE6F320EDF6F50
:10D9B000430EE06F320EE16F520EE26F320EE36FF4
:10D9C000620EE46F320EE56F430EE66F110EE76FE5
:10D9D000430EE86F1C0EE96F250EEA6F270EEB6F02
:10D9E00012000101030EEE6FF06B010EEF6F0A0ED5
:10D9F000F26F070EF36F340E88D80101096B140E15
:10DA0000066F280E076F800E086F0D6B280E0A6FC9
:10DA10000B6F800E0C6F116B1E0E0E6F0F6B500E86
:10DA2000106F1F0EB36F020EAE6F010EB16F080EB6
:10DA3000AF6F010EB06F12000101060EEE6F020E05
:10DA4000F06F030EEF6F0A0EF26F340EF36F5DD8B6
:10DA50000101010E096F1E0E066F200E076F3F0EAB
:10DA6000086F010E0D6F3E0E0A6F0B6B200E0C6FD0
:10DA7000010E116F5E0E0E6F200E0F6F400E106FB5
:10DA8000010E156F1E0E126F0D0E136F150E146F13
:10DA9000010E196F3E0E166F2C0E176F340E186F95
:10DAA000010E1D6F5E0E1A6F0D0E1B6F150E1C6F93
:10DAB0000D0EB26F150EB36F030EAE6F010EB16F88
:10DAC000090EAF6F030EB06F0D0EB86F150EB96F64
:10DAD000050EB46F010EB76F090EB56F010EB66F6C
:10DAE0002B0EBE6F330EBF6F040EBA6F010EBD6FEB
:10DAF000090EBB6F020EBC6F2C0EC06F1C0EC16FE7
:10DB00004C0EC26F1C0EC36F1200E66E6E0EE66EF8
:10DB1000B6DEE552E5521200DBCF00F000C03EF069
:04DB2000C6EF66F0F6
:0CDB2400D9CFE6FFE1CFD9FF030EE126C8
:10DB300059D8736A820E726E739C94949396958CE6
:10DB40007288728A949EE66AD0D8E552E76E020E19
:10DB5000E7CFDBFF0000D950020FE96EDACFEAFF12
:10DB6000EF50070B020801E00000140EE66EBDD86E
:10DB7000E552E76E020EE7CFDBFF020EDB96DB8895
:10DB8000020EDB80DB92DB94020EDBCFE6FF140E8D
:10DB9000E66E3AD8E552E552010EE66EA6D8E55299
:10DBA000DE6EDD6A0000110EE66E9FD8E552DE6E75
:10DBB000DD6A0000E66A110EE66E26D8E552E552EF
:10DBC0000000110EE66E91D8E552DE6EDD6A0000AF
:10DBD000030EE15C02E2E16AE552E16EE552E7CF55
:10DBE000D9FF1200550EA76EAA0EA76E0E01FF9167
:10DBF000090ECC6F0A0ED36F170EFB6F550EA76E72
:10DC0000AA0EA76EFF811200D9CFE6FFE1CFD9FFA0
:10DC1000E652DF6AFE0EDB50140804E0FE0EDB5015
:10DC2000340806E1140EE66E60D8E552E00BDF6EB4
:10DC30008B9EA49EFE0EDB50756EA4AEFED7000038
:10DC400000000000000000000000000000000000D4
:10DC500000000000000000000000000000000000C4
:10DC600000000000000000000000000000000000B4
:10DC700000000000000000000000000000000000A4
:10DC80000000000000000000000000000000000094
:10DC90000000000000000000000000000000000084
:10DCA0000000000000000000000000000000000074
:10DCB0000000000000000000000000000000A49E22
:10DCC000FE0EDB500A0805E1FD0EDB507F0B756E82
:10DCD00004D0FD0EDB50DF10756EA4AEFED78B8E28
:10DCE000E552E552E7CFD9FF1200D9CFE6FFE1CFE9
:10DCF000D9FF8B9EA49EFE0EDB508009756EA4AEEC
:10DD0000FED700000000000000000000000000003E
:10DD10000000000000000000000000000000000003
:10DD200000000000000000000000000000000000F3
:10DD300000000000000000000000000000000000E3
:10DD400000000000000000000000000000000000D3
:10DD500000000000000000000000000000000000C3
:10DD600000000000000000000000000000000000B3
:10DD700000000000000000000000000000000000A3
:10DD80000000A49E756AA4AEFED78B8E755000D09D
:08DD9000E552E7CFD9FF1200B4
:08DD980020202020202047413B
:10DDA0004D45204F56455220202020002020205055
:10DDB000524543494F55532074696D65203A2920D7
:10DDC000200020596F75206A757374207761737411
:10DDD0006520796F75722000202020596F7520779B
:10DDE0006F6E206E6F7468696E672020200020209F
:10DDF000434F524E47524154554C4154494F4E5354
:10DE00002120200020202020202051554954204747
:10DE1000414D4520202020202000202020202020AF
:10DE200043414C49425241544520202020202000AB
:10DE3000202020202053454C454354204C45564536
:10DE40004C20202020002020202020204E4557203C
:10DE50002047414D45202020202020002020204127
:10DE60004C4C49454E2047414D45204D454E55208F
:10DE700020200020332E2048617665206120676FC6
:10DE80006F642074696D652E0020746F206D6F764D
:10DE9000652074686520706C616E6520202000200C
:10DEA000322E2054696C742074686520626F617230
:10DEB00064202020002073656C656374206D656E9E
:10DEC00075206974656D732E20200020312E205539
:10DED0007365207363726F6C6C20746F2020202038
:10DEE000005072657373204D656E7520746F2070DD
:10DEF000726F636565640020202020202020202090
:10DF00002020202020202020202020202000202031
:10DF10002050726F6A6574204D4131204953494247
:10DF2000200020206279204D6172696520566F6C57
:10DF30006F6C6F6E6A6F202000202020416C6C692E
:10DF4000656E2047616D652076312E3020202000DF
:10DF5000202020202020204C6576656C2025642020
:10DF60002020202020002020202053454C454354D1
:10DF700020204C4556454C202020200020202059B0
:10DF80003A2020256420202020202020202020202E
:10DF9000202000202020583A202025642020202006
:10DFA0002020202020202020200020202043414C21
:10DFB0004942524154452053454E534F5220200070
:10DFC0002020202020202020202020202020202051
:06DFD000202020202000AB
:0ADFD600030EB16EB392B390B39640
:10DFE000B288B28EB290B292A494B38E12002F0E69
:10DFF000926E0F01E00E486F1F0E496FC18EC19CDB
:10E00000C70EC1140809C16EF80EC1140209C16E11
:10E01000498FC29CC29EC30EC2140809C26EC28040
:10E020001200D9DFF7EF6FF0D9CFE6FFE1CFD9FFCC
:10E03000020EE126FE0EDB500F0BF36EF346F346A5
:10E04000C30EC214F310C26EFE0EDB50EA6A110F4B
:10E05000E96E0E0EEA22EF503F0BF36EF346F346E5
:10E06000030EB114F310B16EB38EB3820000000042
:10E0700000000000000000000000000000000000A0
:10E080000000000000000000000000000000000090
:10E0900000000000B392B280000000000000000009
:10E0A0000000000000000000000000000000000070
:10E0B0000000000000000000000000000000000060
:10E0C000B2909E9CC2829EACFED7C3CFDEFFC4CF6F
:10E0D000DDFFDECF00F0DDCF01F000C0F3FF01C0B7
:10E0E000F4FF00D0020EE15C02E2E16AE552E16E6B
:10E0F000E552E7CFD9FF1200D9CFE6FFE1CFD9FF34
:10E10000030EE126020EDB6A040EF36E020EDBCF75
:10E11000F4FFF350F45C21E22AD8EF6A30D80CE225
:10E1200026D8EF501F0803E122D8EF6A13D01FD87A
:10E13000EF2A25D8F5E30ED02CD80CE218D8EF50F2
:10E14000E10803E114D8EF6A05D011D8EF062BD807
:10E1500020D8F4E3020EDB2AD7D7030EE15C02E2FB
:10E16000E16AE552E16EE552E7CFD9FF1200020EF7
:10E17000DB50EA6A110FE96E0E0EEA22120013D884
:10E18000DECF00F0DDCF01F0200E005C030E015861
:10E190001200D9CFE9FFDACFEAFF200ED880EE5483
:10E1A000030EED541200020EDBCFE6FF3DDFE55219
:0AE1B000F3CFDEFFF4CFDDFF120015
:06E1BA000000000000005F
:10E1C000004F00000007000700147F147F14242A6A
:10E1D0007F2A122313086462364955225000050332
:10E1E0000000001C2241000041221C0014083E08CF
:10E1F0001408083E08080050300000080808080805
:10E20000006060000020100804023E5149453E00B5
:10E21000427F400042615149462141454B3118142B
:10E22000127F1027454545393C4A4949300171095B
:10E2300005033649494936064949291E0036360044
:10E24000000056360000081422410014141414145F
:10E2500000412214080201510906324979413E7EEB
:10E260001111117E7F494949363E414141227F418A
:10E2700041221C7F494949417F090909013E414921
:10E28000497A7F0808087F00417F41002040413FD4
:10E29000017F081422417F404040407F020C027FF2
:10E2A0007F0408107F3E4141413E7F090909063E37
:10E2B0004151215E7F0919294646494949310101E9
:10E2C0007F01013F4040403F1F2040201F3F40381A
:10E2D000403F6314081463070870080761514945FB
:10E2E00043007F41410002040810200041417F00AB
:10E2F00004020102044040404040000102040020AA
:10E30000545454787F484444383844444420384472
:10E3100044487F3854545418087E0901020C525264
:10E32000523E7F0804047800447D40002040443D74
:10E33000007F1028440000417F40007C04180478CE
:10E340007C0804047838444444387C1414140808C5
:10E350001414187C7C080404084854545420043FC6
:10E360004440203C4040207C1C2040201C3C40304D
:10E37000403C44281028440C5050503C4464544CB9
:10E3800044000836410000007F00000041360800CC
:05E3900002010204027D
:01E395000087
:0AE396000101FFB122D0FF838B804C
:10E3A0009490550EA76EAA0EA76E0E01FF910E0E49
:10E3B000D16F550EA76EAA0EA76EFF810F0EBA6E13
:10E3C000CF0EBA140009BA6EBB6A0F01526B800EF1
:10E3D000CB6E040ECA6EA496600E776E7F0E766EBC
:10E3E00012000101FF91FF938B80949012000101B4
:10E3F000FFA109D08B50010B04E19450010B01E106
:10E40000010CFF91C8DF0101FFA3C5DFA4A63AD02C
:10E41000A496BA50300BE842E842E842E8420308CA
:10E4200019E1400EBB5C10E18B909490BA6ACA6A05
:10E430000E01D16B0F01526BCB68766A7768A49698
:10E440000101FF81FF93010CBB2ACF0EBA14000912
:10E45000BA6E000CBA0EE96E0F0EEA6EEF50300B7A
:10E46000E842E842E842E842E82AE850030BF36E4B
:10E47000F46EF346F346F346F346CF0EEF14F31073
:06E48000EF6EF450000CE9
:0AE48600D9CFE6FFDACFE6FFE1CFC1
:10E49000D9FFE2CFDAFFE652E652E652E652D95011
:10E4A000F90F006EFF0EDA20016E020E00C0DBFFD6
:10E4B000030E01C0DBFF020EDBCFE6FF030EDBCF56
:10E4C000E6FFF90EDBCFE6FFFA0EDBCFE6FFFB0E31
:10E4D000DBCFE6FFD950FC0FE66EFF0EDA20E66ECA
:10E4E0004AEC50F0006E070EE15C02E2E16AE55290
:10E4F000E16E0050F3CFDEFFF4CFDDFFFC0EDBCF8B
:10E50000E9FFFD0EDBCFEAFFEF6ADECF00F0DDCFE3
:10E5100001F000C0F3FF01C0F4FF040EE15C02E271
:10E52000E16AE552E16EE552E5CFDAFFE7CFD9FFC8
:02E530001200D7
:0EE532001E0EF66EA00EF76E000EF86E0001C3
:10E540000900F550FB6F0900F550FC6F03E1FB6714
:10E5500001D03DD00900F550F66F0900F550F76F76
:10E560000900F550F86F09000900F550E96E09003F
:10E57000F550EA6E090009000900F550F96F09002D
:10E58000F550FA6F09000900F6CFFDF0F7CFFEF065
:10E59000F8CFFFF0F6C0F6FFF7C0F7FFF8C0F8FFBE
:10E5A0000001F95302E1FA5307E00900F550EE6E5D
:10E5B000F907F8E2FA07F9D7FDC0F6FFFEC0F7FF4A
:10E5C000FFC0F8FF0001FB07000EFC5BBFD7120085
:10E5D000D9CFE6FFDACFE6FFE1CFD9FFE2CFDAFF0E
:10E5E000FB0EDBCF00F0FC0EDBCF01F00001800E54
:10E5F00001141AE1FB0EDBCFE9FFFC0EDBCFEAFFD3
:10E60000EECFF3FFEDCFF4FFEE2A000EEF22F3CFB3
:10E61000E9FFF4CFEAFFFD0EDBCFEFFFEF50016A19
:10E62000F36E01C0F4FF10D0FB0EDB50FE0806E1D4
:10E63000FD0EDBCFE6FFEFEC73F005D0FD0EDBCF78
:10E64000E6FF03EC50F0E552E552E5CFDAFFE7CF05
:04E65000D9FF1200DC
:0CE654003B504002F3CF37F0F4CF38F019
:10E660004102F3503826000EF420396E3B5042022E
:10E67000F3503926000EF4203A6E3B504302F3501B
:10E680003A263C504002F3503826F4503922000E0E
:10E690003A223C504102F3503926F4503A223C5081
:10E6A0004202F3503A263D504002F3503926F450CE
:10E6B0003A223D504102F3503A263E504002F35078
:04E6C0003A261200E4
:0CE6C400FE0EE3CFE9FFFF0EE3CFEAFFFC
:10E6D000F36AF46AEE5203E0F34AF42AFBD712001D
:10E6E000FF0EE3CFF8FFE552FF0EE3CFF7FFE55251
:10E6F000FF0EE3CFF6FFE552E66AE66AE66A090036
:10E70000F55209E0FD0EE32A05E1FE0EE32A02E1DF
:10E71000FF0EE32AF4D7FD0EE3CF3CF0FE0EE3CF6D
:0AE720003DF0FF0EE3CF3EF01200C3
:06E72A003A6A396A386A00
:10E73000376A200EE76ED8903B363C363D363E3683
:10E740003736383639363A364050375C41503858CB
:10E750004250395843503A5809E34050375E4150CF
:10E76000385A4250395A43503A5A3B2AE72EE4D796
:02E77000120095
:0EE772003A6A396A100EE76ED8903D363E3690
:10E7800039363A364250395C43503A5805E34250E4
:0EE79000395E43503A5A3D2AE72EF0D7120068
:02E79E00F36A1C
:10E7A000F46AFF0EE124E96EFF0EE220EA6EED66E8
:10E7B00007D02F0EEF6404D03A0EEF6001D0F32A99
:02E7C000120045
:0EE7C2001DEE00F02DEE00F0F86A369C99EC8A
:0EE7D00072F007EC50F0D9EC61F0FBD71200AC
:02E7DE00FF0E2C
:10E7E000E350ADBA04D0B06AAC8EAD8A949CADA2B1
:0AE7F000FED7AE6EF36EF46A12005D
:06E7FA00303132333435EA
:0BE800003637383961626364656600DA
:01E80B00000C
:04E80C0000EE00F02A
:0AE810000E0EEE6AEA62FDD7120058
:06E81A00000000000000F8
:10E82000C3F51C410000003FC3F51C410000003F40
:08E830000000000000000000E0
:08E838000000000000000000D8
:0EE840000000000000C0DF000000000000002B
:01FFF800AA5E
:01FFF900F710
:01FFFA001DE9
:01FFFB00FF06
:01FFFC0063A1
:01FFFD00F80B
:01FFFE008181
:01FFFF00F110
:00000001FF
