:020000040000FA
:06000000B8EF7DF01200D4
:0600080004EF50F01200AD
:060018000CEF50F0120095
:06A00000B8EF7DF0120034
:02A00600120046
:06A00800D5EF63F0120029
:02A00E0012003E
:02A01000000549
:06A01800D8EF63F0120016
:02A01E0005003B
:10A0200010A00000CC000000020000001FF30000A0
:10A03000CE00000001000000D5FB00008E000000F3
:10A0400016000000C8FB0000EE0100000D0000003B
:0CA05000B9FB0000FF010000010000004F
:04A05C00E2DB4CEC0B
:10A0600055F075EC55F046EC55F009EC57F046EC20
:10A0700055F09CEF56F0D5DB46EC55F075EC55F0FD
:10A080004CEC55F009EC57F04CEC55F09CEF56F0C9
:10A09000EDEC56F07EEC55F0AEEC54F061EC55F082
:10A0A0006AE084EC55F026EC56F0CAEC55F064EC0E
:10A0B00055F061E08AEC55F014EC56F0CAEC55F01E
:10A0C0000BEC56F0A6EC56F056E090EC55F02FEC69
:10A0D00056F0CAEC55F00BEC56F0B3EC56F04BE0F2
:10A0E000D3EC55F0A6EC56F00EE0E4EC55F0B3ECF2
:10A0F00056F009E07EEC55F015EC55F055EC56F0B5
:10A100000101F68138D0D3EC55F0B3EC56F00EE0F7
:10A11000E4EC55F0A6EC56F009E084EC55F015ECB3
:10A1200055F055EC56F00101F68325D0D3EC55F0EF
:10A13000B3EC56F00EE1E4EC55F0B3EC56F009E167
:10A1400090EC55F01EEC55F05AEC56F00101F685F6
:10A1500012D0D3EC55F0A6EC56F00DE1E4EC55F03E
:10A16000A6EC56F008E18AEC55F01EEC55F05AECDE
:10A1700056F00101F687F2EF56F0EDEC56F0020EC4
:10A18000E126BAEC55F0030E3EEC55F0000100104C
:10A19000606F01C061F0200E426E436A60C03DF006
:10A1A00001C03EF037EC6AF03DC060F03EC061F0A7
:10A1B000040EBAEC55F0050E3EEC55F0000100100F
:10A1C000626F01C063F0200E426E436A62C03DF0D0
:10A1D00001C03EF037EC6AF03DC062F03EC063F073
:10A1E000060EBAEC55F0070EB7EC56F0020EE15C25
:10A1F00002E2E16AE552E16EF2EF56F0EDEC56F064
:10A200000A0EE126FB0EDBCF00F0FC0EDBCF01F0E7
:10A21000FD0EDBCF02F0FE0EDBCF03F000C041F0FD
:10A2200001C042F002C043F003C044F0F7C13CF06B
:10A23000F8C13DF0F9C13EF0FAC13FF0E1EC68F041
:10A240003CC0F7F13DC0F8F13EC0F9F13FC0FAF172
:10A2500094DFFA0EDB5001E1BAD00101F0510001A8
:10A26000625D046E63510101F155D6DB3CC07EF0A6
:10A270003DC07FF03EC080F03FC081F00101EE5153
:10A280000001605D046E61510101EF55C5DB3CC00A
:10A2900082F03DC083F03EC084F03FC085F081DB9A
:10A2A000AADB38EC56F0D3DB7EC03CF07FC03DF03B
:10A2B00080C03EF081C03FF018DBC0EC56F0A6DB5A
:10A2C00079DBDFCF66F0010EDBCF67F0020EDBCF6C
:10A2D00068F0030EDBCF69F076DB8DDB0BEC56F01C
:10A2E000B6DB82C03CF083C03DF084C03EF085C048
:10A2F0003FF0FBDAC9EC56F089DB6EDBDFCF6AF0AA
:10A30000010EDBCF6BF0020EDBCF6CF0030EDBCF68
:10A310006DF0416A426A400E436EE4DBB3EC56F0E6
:10A320000FE000016A6B6B6B400E6C6F6D6F5AEC47
:10A3300056F0080E0101F615080802E1010EF46F4F
:10A34000416A426A540E436E420ECCDBA6EC56F0D4
:10A3500010E000016A6B6B6B540E6C6F420E6D6FF8
:10A360005AEC56F0040E0101F615040802E1010E44
:10A37000F46F416A426A400E436E446EA5DB0FE003
:10A380000001666B676B400E686F696F55EC56F0A5
:10A39000020E0101F615020802E1010EF46F416A96
:10A3A000426AEC0E436E420E446E8BDB10E00001FD
:10A3B000666B676BEC0E686F420E696F55EC56F07A
:10A3C000010E0101F615010802E1010EF46F080EFD
:10A3D000DB6A0101E8517FDB54E2090EDB6A01010F
:10A3E000E951F36E090EDBCFF4FFF350F45C46E263
:10A3F000F5EC55F0EF50F36E080EDB50F35C3BE1EB
:10A40000F4DB030EE926000EEA22EF5004E12BDB19
:10A4100007E051DB03D027DB03E150DB7DD90DD012
:10A420004ADB7AD9EA22EE52E552E750EF6E46DB7C
:10A4300073D9EA22020EE926000EEA22E552E7501D
:10A44000EF6E68EC56F09CDBEFCFE6FF080EDB50BA
:10A45000080DF3CF00F0F4CF01F0380E0026010E06
:10A46000012200C0E6FF01C0E6FF31EC57F0026EAA
:10A47000060EE15E0250090EDB2AB1D7080EDB2A78
:10A48000A8D7FA0EDB5001E103D10101F66B080EEB
:10A49000DB6A0101E8511FDB15E2080EDB50080DF5
:10A4A00029EC57F0380EE926010E6ADB83EC56F0F2
:10A4B000EECFE6FFEDDD006E080EE15E0050080E07
:10A4C000DB2AE7D7030E0101F615030804E00C0EA2
:10A4D000F6150C0802E1010EF46F080EDB6A0101AB
:10A4E000EA51F9DA01E382D03CDAEECF10F0EFCF97
:10A4F00011F010C03EF0BAEC68F01BEC57F031DA06
:10A50000EECF1AF0EFCF1BF08FEC56F06EDAD2ECF4
:10A5100056F00ADA26DAEECF28F0EFCF29F029C07C
:10A520003EF0BAEC68F002DB63DA09DB1ADAEECF50
:10A5300032F0EFCF33F033C03EF0BAEC68F03CC0FD
:10A540002EF03DC02FF03EC030F03FC031F050DA69
:10A550003CC02AF03DC02BF03EC02CF03FC02DF097
:10A5600019DB20C03CF021C03DF022C03EF023C0EA
:10A570003FF0CAEC69F0ECDAE4D9FED9436A410E47
:10A580007ADAE4DB18E1FDEC56F00CC03EF09FDA1D
:10A590002CDA5CDBDFDB05DAE1EC68F00BDAFDECF2
:10A5A00056F00DC03EF093DA23DA50DBD3DB0BDA42
:10A5B000E1EC68F011DA98DB800E436E400E5BDA56
:10A5C000C5DB11E103EC57F000C03EF0BAEC68F0D7
:10A5D0002CDA03EC57F001C03EF0BAEC68F02EDA4A
:10A5E0000101010EF46F080EDB2A79D7CBDA1BECE0
:10A5F00057F0C8DA3CC014F03DC015F03EC016F06C
:10A600003FC017F0F2D9D7DB8FD9C0DA98DAF0D98A
:10A610009FDABCDA3CC028F03DC029F03EC02AF0E9
:10A620003FC02BF0E5D982DAB5DA1CC03CF01DC082
:10A630003DF01EC03EF01FC03FF0CAEC69F03CC0C8
:10A6400018F03DC019F03EC01AF03FC01BF079D998
:10A6500093D9A00E436E400E0EDA85DB0FE092DA3E
:10A660007DD906DBE1EC68F0E0D990DA77D9D3DA6E
:10A67000E1EC68F0E3D90101010EF56F72DA91D9CE
:10A68000CAEC69F097D96DDA9ED9CAEC69F0A4D901
:10A690000A0EE15C02E2E16AE552E16EA3D3000139
:10A6A000666B676B800E686F420E696F6A6B6B6BCF
:10A6B0006C6B6D6F6E6B6F6B706B716B7A6B7B6BB2
:10A6C0007C6B7D6B7AC076F07BC077F07CC078F0D5
:10A6D0007DC079F07AC072F07BC073F07CC074F0FA
:10A6E0007DC075F0866B876B886B896B86C082F046
:10A6F00087C083F088C084F089C085F086C07EF072
:10A7000087C07FF088C080F089C081F08A6B8B6B36
:10A710008C6B3F0E8D6F1200E926000EEA22EFCF00
:10A7200004F004C03EF0BAEC68F087DA5EDAEE526C
:10A73000EFCF0DF00DC03EF0BAEC68F03CC009F070
:10A740003DC00AF03EC00BF03FC00CF000C0E6FF79
:10A7500001C0E6FF02C0E6FF03C0E6FFD7DA45DA34
:10A76000020EE926000EEA22EFCF1AF0D8DAF7C17E
:10A7700041F0F8C142F0F9C143F0FAC144F0CAEC2B
:10A7800069F010DBC3DA44EC7DF0E552E552E552A6
:10A79000E552E552E7CF0CF0E552E7CF0BF0E5527A
:10A7A000E7CF0AF0E552E7CF09F0E552E7CF03F033
:10A7B000E552E7CF02F0E552E7CF01F0E552E7CFEF
:10A7C00000F03BC00EF03CC00FF03DC010F03EC0AA
:10A7D00011F0FADA09C03CF00AC03DF00BC03EF0BF
:10A7E0000CC03FF0CAEC69F03CC005F03DC006F07B
:10A7F0003EC007F03FC008F022DB8AEC6AF03E5012
:10A80000E66E68EF56F0D950F70FE96EFF0EDA20CA
:10A81000EA6E79DA78DA2CDA8AEC6AF03E50E66E83
:10A820001200DBDAFE0EDBCF14F014C03EF0BAECFF
:10A8300068F0C1DA08DB3CC015F03DC016F03EC040
:10A8400017F03FC018F0A6D910C03CF011C03DF081
:10A8500012C03EF013C03FF0E0EC68F000DAF80EF2
:10A86000DBCF3DF0F90E3CDA3CC01DF03DC01EF0E0
:10A870003EC01FF03FC020F0E6DA3CC021F03DC0F2
:10A8800022F03EC023F03FC024F084D91DC03CF02C
:10A890001EC03DF01FC03EF020C03FF0E0EC68F06D
:10A8A0003CC019F03DC01AF03EC01BF03FC01CF088
:10A8B00071D90CC03CF00DC03DF00EC03EF00FC091
:10A8C0003FF077EC69F014EF56F0CAEC69F0B5D9B7
:10A8D0009A0E416E990E426E190E436E3F0E446EF3
:10A8E000CAEF69F071DA0BEF56F077EC69F0B6DA7F
:10A8F000B5DAB5D97BDA98D9A2DA3CC0DEFF3DC023
:10A90000DEFF3EC0DEFF3FC0DDFFDD52DD52D9CFAE
:10A91000E9FFDACFEAFFEECF00F0EECF01F0EECFA5
:10A9200002F0EFCF03F0120035D908C03CF009C0A7
:10A930003DF00AC03EF00BC03FF0CAEC69F026EFD4
:10A9400056F028D904C03CF005C03DF006C03EF0EA
:10A9500007C03FF0E1EC68F01DEF56F06ED9CAEF8A
:10A9600055F0080EEA6ADB34FE0BEA36E96EBA0EE1
:10A97000E926010EEA221200C9D923EC71F0E55252
:10A98000E552E552E552040E3BC0DBFF050E3CC02C
:10A99000DBFF060E3DC0DBFF070E3EC0DBFF74EFA2
:10A9A00056F072C03CF073C03DF074C03EF075C00C
:10A9B0003FF012003CC072F03DC073F03EC074F036
:10A9C0003FC075F0120076C03CF077C03DF078C013
:10A9D0003EF079C03FF012003CC076F03DC077F009
:10A9E0003EC078F03FC079F01200CAD9E0EF68F0BD
:10A9F000D0D9E0EF68F032DA29D9CAEF55F0416AD0
:10AA0000426A800E436EBF0E446E120058D9E0ECCD
:10AA100068F0F4D877EF69F0056E04C03DF03E6E43
:10AA2000CDEC68F00AD9F6EF56F03CC066F03DC0B8
:10AA300067F03EC068F03FC069F012003CC06AF0A9
:10AA40003DC06BF03EC06CF03FC06DF01200E1EC19
:10AA500068F0F3D88AC041F08BC042F08CC043F05C
:10AA60008DC044F0120034D9EA22030EE926000E0C
:10AA7000EA22EF501200446E5FEF56F078D9DBCF38
:10AA800000F000C001F0006ADF501200FC0EDBCFC6
:10AA90003DF0FD0E70EF56F0FA0EDBCF3DF0FB0EF1
:10AAA00070EF56F03CC03BF03DC03CF03EC03DF086
:10AAB0003FC03EF097D199D8040E120096D8050EEB
:10AAC0001200D6D8A6EF56F0D3D8B3EF56F0BAECB2
:10AAD00068F014EF56F0F36E080EDBCFF4FFF3507E
:10AAE000F45C1200446E0BEF56F03CC029F03DC000
:10AAF0002AF03EC02BF03FC02CF01200F70EDBCF47
:10AB00003DF0F80E70EF56F0F90EDBCF3DF0FA0E87
:10AB100070EF56F0FB0EDBCF3DF0FC0E70EF56F001
:10AB2000FD0EDBCF3DF0FE0E70EF56F03CC024F082
:10AB30003DC025F03EC026F03FC027F012003CC0CB
:10AB400020F03DC021F03EC022F03FC023F01200B3
:10AB50003CC01CF03DC01DF03EC01EF03FC01FF0C9
:10AB60001200F60E416E280E426E7C0E436E3F0EB2
:10AB7000446E1200E66E45EC76F0E552DF6E120090
:10AB8000EA2252D1ECC13EF0BAEF68F0EDC13EF0DE
:10AB9000BAEF68F03CC041F03DC042F03EC043F027
:10ABA0003FC044F012002FDE3BEC50F0046E090E63
:10ABB000E15E04503BC000F03CC001F03DC002F03B
:10ABC0003EC003F072EF54F01EDE2EEC50F0096E22
:10ABD000090EE15E09503BC005F03CC006F03DC0E7
:10ABE00007F03EC008F072EF54F0090EDB50060D7E
:10ABF00030D9A80EE926010EEA221200FB0EDBCFA7
:10AC000041F0FC0EDBCF42F0FD0EDBCF43F0FE0E39
:10AC1000DBCF44F012006AC03CF06BC03DF06CC06A
:10AC20003EF06DC03FF012003CC008F03DC009F09E
:10AC30003EC00AF03FC00BF012003CC000F03DC027
:10AC400001F03EC002F03FC003F012003CC004F02F
:10AC50003DC005F03EC006F03FC007F012003CC00A
:10AC60000CF03DC00DF03EC00EF03FC00FF01200E2
:10AC700066C03CF067C03DF068C03EF069C03FF080
:10AC8000120029C03CF02AC03DF02BC03EF02CC081
:10AC90003FF0E0EC68F03CC025F03DC026F03EC03F
:10ACA00027F03FC028F094EF54F0A9DE7ADE0DDEE5
:10ACB000DAEF54F0A4DE87DE08DEECEF54F000C0DB
:10ACC0003CF001C03DF002C03EF003C03FF0120076
:10ACD000080EDB50040DBDD8000EE926010E12004F
:10ACE000DBCF3EF0CDEF68F0040EDBCF00F0050EB9
:10ACF000DBCF01F0060EDBCF02F0070EDBCF03F057
:10AD0000416A426A1200EECFE6FF8ED03CC0E6FFF9
:10AD10003DC0E6FF3EC0E6FF3FC0E6FF12001AC09E
:10AD20003EF0BAEC68F03CC016F03DC017F03EC0F3
:10AD300018F03FC019F012003CC031F03DC032F0B5
:10AD40003EC033F03FC034F0FCDDACD6BAEC6AF064
:10AD5000010A1200416A426A436A3F0E446ECAEC1D
:10AD600069F0AEEF54F0B1EC6AF0010A1200E66E41
:10AD700045EC76F0E552E76E010EE7CFDBFF1200FF
:10AD800066C041F067C042F068C043F069C044F05B
:10AD900012006AC041F06BC042F06CC043F06DC05D
:10ADA00044F012003CC012F03DC013F03EC014F05D
:10ADB0003FC015F012003CC010F03DC011F03EC085
:10ADC00012F03FC013F012003BC041F03CC042F013
:10ADD0003DC043F03EC044F01200D9CFE6FFE1CFC2
:10ADE000D9FF1200E552E7CFD9FF1200416A426A4B
:10ADF000436A400E446E77EF69F0B3DDEECF0CF09E
:10AE0000EFCF0DF01200ADDDEECF00F0EFCF01F08F
:10AE100012003CC02DF03DC02EF03EC02FF03FC0D0
:10AE200030F0B8DE41EF56F0EECFE6FFEECFE6FFB2
:10AE3000EECFE6FF120013DFD8DD14EF56F0AADEE6
:10AE40003EDFE1EF68F0F60EDBCF3DF0F70E70EF7E
:10AE500056F0F3CFE9FFF4CFEAFF1200CFDECAEFDE
:02AE600069F097
:0EAE6200A0EC5CF0FC0EDB5035E1FA0E23ECA8
:10AE70005DF053EC5DF0FB0EDB5043EC5DF0F90E42
:10AE8000DB50006E016AD890015002E6D5EC5CF010
:10AE900003E248EC5DF006D0F90E23EC5DF0040E01
:10AEA0009BEC5CF0F90EDB50030F4EEC5DF0FA0EFC
:10AEB000DB5005E194EC5CF0E20EEE6EED68FB0E0B
:10AEC000DB507F0836E194EC5CF0020EE926000EC0
:10AED000EA22960E2CD0F90E23EC5DF053EC5DF0D7
:10AEE000F90EDB50030F43EC5DF0FA0EDB50006E01
:10AEF000016AD890015002E6D5EC5CF003E248EC20
:10AF00005DF006D0FA0E23EC5DF0040E9BEC5CF0D5
:10AF1000FB0EDB504EEC5DF0FB0EDB503F0809E111
:10AF200094EC5CF0060EE926000EEA22500EEE6E5E
:10AF3000ED6AA5EF5CF03DEC5DF0DF6A080EDF5CCA
:10AF400021E2010EDB6AFE0EDB50F36E010EDBCF59
:10AF5000F4FFF350F45C14E2DF50800D0001CC519B
:10AF6000F324006ECD51F420016E010EDB5000245D
:10AF7000E96E000E0120EA6EEF68010EDB2AE3D7CE
:10AF8000DF2ADCD7020EE15C02E2E16AE552E16E03
:10AF9000A5EF5CF0A0EC5CF0040EE126020EDB6A8B
:10AFA000030EDB6AC7EC5CF0D890015002E6D5ECEA
:10AFB0005CF03CE2C7EC5CF0B00E0024DAEC5CF034
:10AFC000020EDAEC5CF0100EDAEC5CF0DE6ADD6AA0
:10AFD000CEEC5CF004E6800E005C000E015820E22E
:10AFE000DECF02F0DDCF03F0800E3D6E3E6A020E32
:10AFF000DBCF42F0030EDBCF43F05DEC6AF0025092
:10B000003B24006E03503C202DEC5DF0EF50E66ECB
:10B010006EEC6FF0E552DF2A010EDAE3DB2AD8D7B7
:10B02000020EDB2A030EBEE3DB2ABCD7040EE15C72
:10B0300002E2E16AE552E16EA5EF5CF03DEC5DF005
:10B04000DE6ADD6ACEEC5CF004E6000E005C040E05
:10B0500001580FE2DE500001CC25E96EDD50CD2114
:10B06000EA6EFE0EDBCFEFFFDF2A010EEBE3DB2AF9
:10B07000E9D7020EE15C02E2E16AE552E16EA5EF7A
:10B080005CF09DEC5DF003E08CEC5CF0FDE10AEC23
:10B090005DF0020FA8EC5DF003E08CEC5CF0FDE1EC
:10B0A0000AEC5DF0030F63EC5DF003E08CEC5CF008
:10B0B000FDE10AEC5DF070EC5DF01AEC5DF003E090
:10B0C0008CEC5CF0FDE10AEC5DF06CEC5DF003E013
:10B0D0008CEC5CF0FDE1EFEC5CF0020FA8EC5DF0B5
:10B0E00003E08CEC5CF0FDE1EFEC5CF0030F63EC53
:10B0F0005DF003E08CEC5CF0FDE1EFEC5CF070ECFB
:10B100005DF01AEC5DF003E08CEC5CF0FDE1EFEC3F
:10B110005CF085EC5DF003E08CEC5CF0FDE17BEC39
:10B120005DF0F2DB03E08CEC5CF0FDE169EC5DF0DE
:10B13000EBDB02E0F1DBFEE17EEC5DF0E5DB02E063
:10B14000EBDBFEE173EC5DF0DB501DEC5DF002E04B
:10B15000E3DBFEE1F7EC5CF0C1EC5DF002E0DCDB90
:10B16000FEE1FBEC5CF0C1EC5DF002E0D5DBFEE162
:10B17000F3EC5CF0C1EC5DF002E0CEDBFEE1FFEC55
:10B180005CF0070FEBEC5CF002E0C6DBFEE181EC6B
:10B190005DF010EC5DF0DB28EBEC5CF002E0BCDB7A
:10B1A000FEE1B1EC5DF020EC5DF002E0B5DBFEE12C
:10B1B00003EC5DF077EC5DF002E0AEDBFEE107EC66
:10B1C0005DF0060F41EF5DF0BBDBFD0EDB049CDBA9
:10B1D00002E0A2DBFEE1046EFE0EDB048FEC5DF00C
:10B1E00002E09ADBFEE1046EFE0EDB04F1DBDB0421
:10B1F0008BDB02E091DBFEE193DB8FEC5DF002E0A4
:10B200008BDBFEE18DDBE4DB97EC5DF002E084DBC1
:10B21000FEE186DB5BEC5DF077DB02E07DDBFEE1EF
:10B2200081EC5DF0D5DB97EC5DF002E075DBFEE1D3
:10B2300081EC5DF05BEC5DF0F0DB02E06DDBFEE1EC
:10B24000E9DB020F41EF5DF07BDBFC0EDB50030816
:10B2500074E2FD0EDB50E1DB02E05EDBFEE1DADBF7
:10B26000AEEC5DF002E058DBFEE1D4DBB5EC5DF066
:10B2700002E052DBFEE1B3DB5FEC5DF002E04CDBB1
:10B28000FEE1ADDB85EC5DF002E046DBFEE17BEC50
:10B290005DF03ADB02E040DBFEE17EEC5DF0CDDB11
:10B2A00002E03ADBFEE1A7DBC1EC5DF002E034DB5B
:10B2B000FEE193EC5DF002E02FDBFEE1ABDB5FEC47
:10B2C0005DF002E029DBFEE1A5DB85EC5DF002E04C
:10B2D00023DBFEE169EC5DF0A0DB02E01DDBFEE1BB
:10B2E0007EDB020FF3DB02E017DBFEE17CDB88ECA8
:10B2F0005DF002E011DBFEE1F6DBDB5098DB02E003
:10B300000BDBFEE16CDBECDBFFDA02E005DBFEE1F0
:10B31000E0DBFADA02E000DBFEE1E5DBDB508DDBAF
:10B3200002E0FADAFEE163DBC1EC5DF002E0F4DAA0
:10B33000FEE159DB070FE840DADAFC0EDB500208C9
:10B3400001E38ED0FD0EF3DB02E0E6DAFEE1D9DBAD
:10B35000B8EC5DF002E0E0DAFEE159DBB0DB02E0E0
:10B36000DBDAFEE154DBB8DB02E0D6DAFEE14BDBF0
:10B37000F5DB02E0D1DAFEE146DBBBEC5DF002E09A
:10B38000CBDAFEE140DBB3DB02E0C6DAFEE12FDB25
:10B39000AEDB02E0C1DAFEE126DB060F1CDB02E0D9
:10B3A000BBDAFEE1BDDA030F3BDBDB2814DB02E096
:10B3B000B3DAFEE1B5DA050F7EDB42DB02E0ACDAA0
:10B3C000FEE125DB060F07DB02E0A6DAFEE1C9DBC2
:10B3D00024DB02E0A1DAFEE11ADBC0DB02E09CDA4A
:10B3E000FEE115DB040FF7DA02E096DAFEE198DA07
:10B3F000020F61DB25DB02E08FDAFEE1FCDA77DBAE
:10B4000002E08ADAFEE1FBDA060FE5DA02E084DA2E
:10B41000FEE186DA040F4FDB0DDB02E07DDAFEE1B0
:10B42000F2DA050F95DB02E077DAFEE1ECDA47DBD2
:10B4300002E072DAFEE1DBDA4FDB02E06DDAFEE118
:10B44000DEDA020FC1DAE9DA02E066DAFEE1CFDA2B
:10B4500062DB02E061DAFEE1D2DA050FE84047DAAA
:10B46000FC0EDB50010830E2FD0EDB50DDDA02E0BD
:10B4700053DAFEE1BCDA030F26DB02E04DDAFEE12F
:10B48000B6DA2EDBCADA02E047DAFEE1B4DA43DBF1
:10B4900002E042DAFEE1AFDA1FDB02E03DDAFEE174
:10B4A000A2DA39DB02E038DAFEE19DDA050F0BDBC8
:10B4B00002E032DAFEE1A3DA58DB02E02DDAFEE147
:10B4C0009EDA030FE84013DAFD0EDB50B0DA02E03B
:10B4D00023DAFEE190DA49DB02E01EDAFEE18BDAE4
:10B4E000030F36DB02E018DAFEE17DDA030FEBDA58
:10B4F00002E012DAFEE177DA040FC3D21EDB02E0CB
:10B500000BDAFEE187DA2ADB02E006DAFEE182DA14
:10B510002CDB02E001DAFEE162DAD1DA02E0FCD9EA
:10B52000FEE15DDA050F57DA02E0F6D9FEE1E9DA6D
:10B530001FDB02E0F1D9FEE16ADAC1DA02E0ECD900
:10B54000FEE165DAC9DA02E0E7D9FEE15CDA06DBA2
:10B5500002E0E2D9FEE157DA0EDB02E0DDD9FEE1DE
:10B5600052DA060FF8DA02E0D7D9FEE1C4DA55DA8A
:10B5700002E0D2D9FEE13BDAF1DA02E0CDD9FEE118
:10B5800036DAF9DA02E0C8D9FEE131DA060FE3DA99
:10B5900002E0C2D9FEE1B2DA40DA02E0BDD9FEE152
:10B5A00022DADCDA02E0B8D9FEE11DDAE4DA02E000
:10B5B000B3D9FEE118DA060F0EDA02E0ADD9FEE1EA
:10B5C000AFD9030FD5DA02E0A7D9FEE114DA77DAB2
:10B5D00002E0A2D9FEE10FDA050F78DA02E09CD989
:10B5E000FEE109DA070FF7D902E096D9FEE198D912
:10B5F000050FBEDA02E090D9FEE101DA60DA02E07E
:10B600008BD9FEE1FCD9050F61DA02E085D9FEE1B4
:10B610008ADA02E081D9FEE1FDD951DA02E07CD973
:10B62000FEE1F8D9050FD0D90BDA02E075D9FEE1B9
:10B63000EED9060F4BDA02E06FD9FEE1D8D968DA0D
:10B6400002E06AD9FEE145DAF8D902E065D9FEE107
:10B65000CAD95EDA02E060D9FEE145DA68DA02E0D2
:10B660005BD9FEE17EDAD9D902E056D9FEE1B7D93D
:10B6700075DA02E051D9FEE1B2D9040F02D2FDD948
:10B68000FD0EDB50DF6EFC0EDB50D880DF5422E372
:10B69000FE0EDB5039D902E03FD9FEE190D9FE0E13
:10B6A000DB4025D9FE0EDB50B8D902E035D9FEE1EA
:10B6B00086D9FE0EDB50020F3DDADFA009D0F8D9A3
:10B6C00002E02AD9FEE17BD9FE0EDB28E8400FD943
:10B6D000DF2AD9D7EDD902E01FD9FEE1046EFD0EB5
:10B6E000C5D9E6D902E018D9FEE1046EFC0EBED938
:10B6F000020EE15C02E2E16AE552E16E26D1BDD9BB
:10B70000FD0EDB50DF6EFC0EDB50D880DF5417E3FC
:10B7100034D902E001D9FEE103D99AD92ED902E049
:10B72000FBD8FEE1FDD8020F93D9DFA006D025D9C2
:10B7300002E0F2D8FEE1E5D98BD9DF2AE4D7FD0E8D
:10B74000DB50E2D802E0E8D8FEE1DBD9FBD9FC0E01
:10B75000DB50DAD802E0E0D8FEE1D3D9026E036A0A
:10B76000FC0EDB40C4D8020EE15C02E2E16AE55265
:10B77000E16EEBD0E5D8FE0EDB5003E1EAD87FDFC7
:10B7800002D0E7D8BCDFFFD8E0D0DAD8E652E66ACC
:10B7900055DCE5527F0EE66EE66AE66A70DFF3D8A6
:10B7A0007F0EE66EE66A3D0EE66E69DFECD83F0E70
:10B7B000E66EE66AE66AA3DFE6D83F0EE66EE66A64
:10B7C0007D0EE66E9CDFDFD80101F45102E1040E2C
:10B7D0000FD0F42B050EF45D02E2030E09D00A0E21
:10B7E000F45D02E2020E04D00F0EF45D1DE2010EC4
:10B7F000E66E6AC03CF06BC03DF06CC03EF06DC0C0
:10B800003FF08AEC6AF03E50E66E66C03CF067C0DE
:10B810003DF068C03EF069C03FF08AEC6AF03E50EF
:10B82000E66E12DDB0D80CD0F46BE66AE66AE66A22
:10B83000E66AE66AFEEC50F0006E050EE15E00502E
:10B84000EDC1E6FFECC1E6FF59DEE552E552DF6AE5
:10B850000101E851DF5C17E2DF50040DF3CFE9FF8F
:10B86000F4CFEAFF000EE926010EEA22EECFE6FF52
:10B87000EECFE6FFEECFE6FFEFCFE6FF7BDFE55250
:10B8800082D8DF2AE5D7DF6A0101EA51DF5C0DE2E9
:10B890006AD8EE52EF50E66E66D8EF50E66E41EC95
:10B8A00058F0E552E552DF2AEFD70101F5511BE0D0
:10B8B000100EF55D03E2080EF50304D0200ED880CB
:10B8C000F555080DF304E66E9BEC57F0E5520101C7
:10B8D000F52B100EF55D03E10101EB2B04D0200EDA
:10B8E000F55D01E1F56BCAEC57F0E5522ED0E8406A
:10B8F000E8401F0B800D0250F324006E0350F4202B
:10B90000ACD80450EF121200070B056E010E055261
:10B91000120086D8DB501200E846FE0B0506120026
:10B92000046EFE0EDB501200FD0EDBCFE9FFFE0EB3
:10B93000DBCFEAFF1200E926000EEA2253EF5DF0AA
:10B94000D9CFE6FFE1CFD9FF1200E552E7CFD9FF0B
:10B950001200FD0EDBCFE6FFFC0EDBCFE6FFFB0E99
:10B96000DBCFE6FF1200EA6ADF34FE0BEA36E96E4F
:10B97000BA0EE926010EEA221200070EDF14056E48
:10B98000010E05521200E552E552E5521200020E78
:10B99000DBCF00F0030EDBCF01F01200DECF00F0B2
:10B9A000DDCF01F0D89001501200080E005C000EAF
:10B9B00001581200E66E6BEC6FF0E5521200046E57
:10B9C000DF50026E036A1200B5D8FD0EDB50120084
:10B9D000B9D8FD0E1200AED8FD0E97EF5DF0A0DFD6
:10B9E000070F89EF5CF09CDF040F89EF5CF098DFB4
:10B9F000020F89EF5CF094DF030F89EF5CF090DFBA
:10BA0000050F89EF5CF08CDF060F89EF5CF079D8C9
:10BA100089EF5CF085DF89EF5CF0020F84EF5CF06A
:10BA2000026E036AFD0E1200030F84EF5CF0040F38
:10BA300084EF5CF0050F84EF5CF0070F84EF5CF09F
:10BA4000060F84EF5CF0DB50F80FE66E94EF5CF0CD
:10BA5000026E036ADF509AEF5DF0016E0001CC5177
:10BA60000024E96ECD510120EA6E1200DB50026E17
:10BA7000036AFE0EDB289AEF5DF062DF020EE1261C
:10BA8000120058D862D7E66E4FDF020E9BEF5CF0D3
:10BA90004BDF040EEB6A050EEB6A1200E66E44DF24
:10BAA000060E9BEF5CF0E552E750EE6EED6A120079
:10BAB000FE0E97EF5DF0B4DFDB28E4EF5CF0030FE0
:10BAC00083DF1AEF5DF080DF17EF5DF07DDF1DEFA4
:10BAD0005DF026DF030F52D0050F76DF0DEF5DF02E
:10BAE000040FE4EF5CF01CDF050FE8EF5CF0060FDD
:10BAF0006BDF20EF5DF014DF020F40D011DF040F89
:10BB00003DD0046EFE0EDB281200050FABEF5DF09A
:10BB1000070FABEF5DF0020F57DF1AEF5DF080DF2C
:10BB2000DB04ABEF5DF06BDF070FA8EF5DF0DB2808
:10BB300084EF5CF0E84077EF5CF002DFFD0EDB5055
:10BB40000DEF5DF0026E036AFD0EDB4077EF5CF0F7
:10BB50003BDF14EF5DF038DF84EF5CF0020F63EF42
:10BB60005DF0DEDE060F5BEF5DF0BADF14EF5DF037
:10BB7000A2DF14EF5DF0B4DF20EF5DF029DFDB50D2
:08BB80001200070F66EF5DF0F3
:08BB880000EC63F0FB0EDBCFC3
:10BB9000F3FFDB06F35000090AE04EEC63F0FA0E07
:10BBA000B9EC63F0F3E1011CF1E1010E01D0000EEC
:10BBB0002FEF63F000EC63F03B0EE12402E3E16859
:10BBC000E652E16E010EDB6A020EDB6AF90EDBCF94
:10BBD000F6FFFA0EDBCFF7FFFB0EDBCFF8FF080016
:10BBE000F550DF6EDF5002E153EF62F0250EDF5CAF
:10BBF00002E046EF62F0030EDB6A040EDB6A050E1C
:10BC0000DB6A060EDB6A070EDB6A68EC62F02D0E5B
:10BC1000DF5C0CE02B0EDF5C09E0200EDF5C06E051
:10BC2000230EDF5C03E0300EDF5C1AE1DF50300AE8
:10BC300014E0130A0FE0030A0AE00B0A05E0060A03
:10BC4000E4E1030EDB80E1D7030EDB82DED7030ED7
:10BC5000DB84DBD7030EDB86D8D7030EDB88D5D792
:10BC60002A0EDF5C1BE164EC62F0B2EC62F010E0E3
:10BC7000030EDB803D683E68130EDBCF42F0140EEE
:10BC8000DBCF43F05DEC6AF0040E3BC0DBFF03D07A
:10BC9000130E9BEC62F068EC62F00BD0090EDB6ACD
:10BCA00009EC63F003E07DEC63F0FAD7090E9BEC3E
:10BCB00062F0030EDBB0DB982E0EDF5C1BE168EC5C
:10BCC00062F02A0EDF5C0BE164EC62F0B2EC62F031
:10BCD00003E1130EEDEC62F068EC62F00BD0090E9C
:10BCE000DB6A09EC63F003E07DEC63F0FAD7090E40
:10BCF000EDEC62F0680EDF5C07E168EC62F0680E64
:10BD0000DF5C1DE1030E18D0740EDF5C17E07A0EC5
:10BD1000DF5C14E0480EDF5C06E0540EDF5C03E0FD
:10BD20005A0EDF5C02E1020E07D06C0EDF5C03E00E
:10BD30006A0EDF5C04E1010E40EC63F0C9DBDF500A
:10BD40006E0A01E17FD31E0A01E192D1200A01E1CE
:10BD50008FD13F0A01E149D11A0A01E146D10D0A0A
:10BD600001E143D1200A01E140D13A0A01E13DD18C
:10BD7000200A01E13AD1260A01E135D10D0A01E19B
:10BD800032D11A0A01E1D9D0200A4AE0300A1FE074
:10BD9000460A0EE0250A01E083D3D950F90FE96E77
:10BDA000FF0EDA20EA6E010EEE5E000EEE5AEE5A3B
:10BDB0004EEC63F0250EE66E95DB03E1011C01E11C
:10BDC00069D34AEC63F001E26BD3DB2A69D3080E36
:10BDD000DB6A040EDB50010806E2040EDB0412EC01
:10BDE00063F0DB508BDB080EDB5009E0030EDB5009
:10BDF000010B05E172DB01E04DD3080EDB6A64DB69
:10BE0000EFCFDFFFC2EC63F003E1011C01E142D39D
:10BE10004AEC63F001E3DB2A60DB01E141D33AD372
:10BE2000070EDB5002080FE18EEC63F0030E55ECB9
:10BE300063F00E0EEECFDBFF0F0EEECFDBFF100E2A
:10BE4000EECFDBFF20D0F70EDBCF03F0F80EDBCF19
:10BE500004F0020E035E000E045AF70E03C0DBFF6F
:10BE6000F80E04C0DBFF03C0E9FF04C0EAFF45ECA5
:10BE700063F0026A0E0E00C0DBFF0F0E01C0DBFF95
:10BE8000100E02C0DBFF0E0EDBCFE6FF0F0EDBCF86
:10BE9000E6FF100EDBCFE6FFECEC7CF0E552E5525E
:10BEA000E552130E3CC0DBFF140E3DC0DBFF060E57
:10BEB000DB5005E0130E89EC63F001E26ADBADECC8
:10BEC00063F002E2130E37DB70EC63F006E0040E61
:10BED00089EC63F002E2050E2EDB030EDBB005D029
:10BEE000FCDA01E0D7D2080EDB6A090EDB6A0E0E1F
:10BEF000DBCFF6FF0F0EDBCFF7FF100EDBCFF8FF27
:10BF00000800F550DF6EDF5014E0B3EC63F011E28F
:10BF1000C2EC63F003E1011C01E1BCD2BBDB01E335
:10BF2000DB2A090EDB2AD9500E0FE96E000ECBDB9F
:10BF3000E7D7D3DA01E1B4D2ADD2C6DA110EEECF33
:10BF4000DBFF120EEDCFDBFF110EDBCFE6FF120E93
:10BF5000DBCFE6FFDEEC7CF0E552E552130EF3CFCB
:10BF6000DBFF140EF4CFDBFF060EDB5004E0130EF4
:10BF7000D0DB01E20EDBADEC63F002E2130EDBDAA4
:10BF8000AFDB05E0040EC5DB02E2050ED4DA030EDA
:10BF9000DBB005D0A2DA01E07DD2080EDB6A090E23
:10BFA000DB6A110EDBCFE9FF120EDBCFEAFFEFCF2A
:10BFB000DFFFDF5014E0D7DB12E2E4DB03E1011C1A
:10BFC00001E168D267DB01E3DB2A090EDB2A110EEF
:10BFD000DB2ADBCFE9FF120EE8E3DB2AE6D77DDAC6
:10BFE00001E15ED257D2030EDB8E070EDB0410E1B7
:10BFF00095DB040E5ADB0A0EEECFDBFF0B0EEECF05
:10C00000DBFF0C0EEECFDBFF0D0EEECFDBFF6CD0B7
:10C01000070EDB5003082CE1030EDBAE0DD0B2DAC5
:10C02000020E76DAEFCF00F0016A026A036A00AE10
:10C0300039D00168026835D0F70EDBCF01F0F80E79
:10C04000DBCF02F0020E015E000E025AF70E01C0B5
:10C05000DBFFF80E02C0DBFF01C0E9FF02C0EAFF10
:10C06000EFCF00F00A0E00C0DBFF0B0EDB6A38D00A
:10C07000070EDB50020809E1030EDBAE04D059DBEA
:10C0800002AE10D00ED055DB0DD0030EDBAE12D0B9
:10C0900079DA020E3DDAF9DA026A036A01AE02D0F9
:10C0A00002680368E2DA0C0E02C0DBFF0D0E03C06B
:10C0B000DBFF1AD0F70EDBCF02F0F80EDBCF03F078
:10C0C000020E025E000E035AF70E02C0DBFFF80EEE
:10C0D00003C0DBFF02C0E9FF03C0EAFFD6DAC5DA1E
:10C0E0000C0EDB6A0D0EDB6A060EDB5005E1010E5D
:10C0F000F36E050EF3CFDBFF150EDB6A160EDB6A5F
:10C10000D950370F006E000EDA20016E390E00C0D4
:10C11000DBFF3A0E01C0DBFF380EDB6A080EDB6A7C
:10C120000A0EAEDADF50780A12E0200A10E0280A80
:10C130000CE0200A0AE03F0A06E00D0A02E0200AAD
:10C1400008E1020E05D0080E03D0080EDF26100EFF
:10C1500097DA030EDBBE02D0DB92DB94DB50800B60
:10C1600024E08ADAD890030EEB50000A08E6000EAD
:10C17000EE5C000EEE58000EEE58000EEE5815E282
:10C1800013DA4068416842684368A6EC7CF00A0E06
:10C1900037C0DBFF0B0E38C0DBFF0C0E39C0DBFFF6
:10C1A0000D0E3AC0DBFF2D0E08D0030EDBA202D02D
:10C1B0002B0E03D0DBA408D0200EF36E170EF3CFA6
:10C1C000DBFF150EDB2A02D0170EDB6A050EDB50F3
:10C1D00003E1B7D901E189D0A80E006EFB0E016E14
:10C1E000000E026E070EDBCF03F0046A056A066AD2
:10C1F00003C040F004C041F005C042F006C043F067
:10C20000D3D96CEC7DF000503724F36E0150382008
:10C21000F46E02503920F86EF4CFF7FFF3CFF6FF3B
:10C220000800090EF5CFDBFF580EDF5C0FE1610E51
:10C23000F36E090E7BD90AE3200E006E090EDBCFE8
:10C24000E7FF0050E75E090EE7CFDBFF070EDBCF0D
:10C2500000F0016A026A036A0FDA00C040F001C010
:10C2600041F002C042F003C043F0EECF3BF0EECF0E
:10C270003CF0EECF3DF0EFCF3EF06CEC7DF03EC0F9
:10C28000EDFF3DC0EDFF3CC0EDFF3BC0EFFF390EC1
:10C29000DBCFE9FFDB063A0EDBCFEAFF01E2DB068C
:10C2A000090EDBCFEFFF150EDB2A4BD995E1030E0C
:10C2B000DBA61DD06F0EDF5C06E1C1D918E3150EB9
:10C2C000DB285BDA14D0780EDF5C09E0580EDF5C07
:10C2D00006E0620EDF5C03E0420EDF5C08E1020E66
:10C2E000F36E160EF3CFDBFF02D0150EDB6A030EE2
:10C2F000DB50100B0EE0040EDBCF00F0050EDB5020
:10C30000D880005406E2060EDB5003E1040EDB5039
:10C3100034DA95D90AE2050EDBCFE7FF150EDB50C4
:10C32000E75E050EE7CFDBFF02D0050EDB6A040EE9
:10C33000DBCF00F0160E45D9D880005414E2160E5B
:10C34000DBCFE6FF150EDBCFE6FF040EDBCFE6FF0B
:10C35000050EDB50E552E75CE552D880E754E55224
:10C36000D880E7545FD9030EDB50010B0BE1080EB8
:10C37000DB5008E0B2D801E08DD0080EDB50BED80B
:10C38000080EDB6A170EDB5007E088D9170EF1D9CB
:10C3900003E1011C01E17ED0160EDB5016E07ED9D0
:10C3A000300EE66E9FD802E1011C74E077D9DFCF32
:10C3B000E6FF64EC7CF0E552E552E552F4CF01F083
:10C3C0000001F31C02E1011C65E0050EDBCF00F06B
:10C3D000160EDB50D880005409E2050EDBCFE7FFD4
:10C3E000160EDB50E75E050EE7CFDBFF300EE66E84
:10C3F000050ECBD94FE1390EDB2ADBCFE9FF3A0E30
:10C4000001E3DB2ADBCFEAFF090EEFCFDBFFDB50D6
:10C410000EE044D9090EADD902E1011C3BE0390E12
:10C42000DB2ADBCFE9FF3A0EEDE3DB2AEBD755D869
:10C4300031E1160EDBCFE6FF080EC3D8E552E72444
:10C440005DD82ED0070EDB50030A1CE0010A14E071
:10C45000030A07E07BD9DBCFEEFF020EDBCFEDFF57
:10C460001FD0F5D8056A03AE02D0046805682CD841
:10C47000BCD805C0EEFF14D0EAD803BE046824D8A7
:10C48000B4D80ED063D9DBCFEFFF0AD07BD905E15A
:10C49000011C03E1F368F46810D0FCD801E3DB2A47
:10C4A00079D9EFEF5DF0010EDBCF00F0020EDBCFAC
:10C4B00001F000C0F3FF01C0F4FF3B0EE15C02E2BB
:10C4C000E16AE552E16ECBD029D9020E55EF63F057
:10C4D00061D90800F550DF6E1200200EE66E080EDE
:10C4E000C5EF63F064EC7CF0E552E552E552F3CF22
:10C4F00000F0F4CF01F00001F31C1200006E016A9D
:10C50000D950010F4DD90050EE260150ED221200F6
:10C51000045E000E055AF70E04C0DBFFF80E05C0DE
:10C52000DBFF04C0E9FF05C0EAFF1200DBCFF4FF28
:10C53000F350F45C1200DB50E76E040EE7CFDBFF34
:10C5400012000A0EDBCF00F00B0EDBCF01F00C0E59
:10C55000DBCF02F00D0EDBCF03F000500110021014
:10C5600003101200130EEECFDBFF140EEDCFDBFF36
:10C57000130EDBCF00F0140EDBCF01F00001800EB4
:10C5800001141200F70EDBCF04F0F80EDBCF05F03C
:10C590001200050EDB50E66ED950130F01D9E5529B
:10C5A000E750EE6EED6A12000A0EDBCF3BF00B0E89
:10C5B000DBCF3CF00C0EDBCF3DF00D0EDBCF3EF0C1
:10C5C0001200DBCFE6FF150EDBCFE6FF050EDB50DA
:10C5D000E552E724E552E7241200DB50CED8010EE5
:10C5E000F36E060EF3CFDBFF1200EE50EFCFEAFF43
:10C5F000E96E02C0EEFF03C0EEFF04C0EEFF1200C2
:10C60000D9CFE6FFDACFE6FFE1CFD9FFE2CFDAFFFD
:10C610001200DFCFE6FFE66AA6EC7DF0E552E552B8
:10C62000F3501200E76E080EE7CFDBFF1200EECFEB
:10C6300000F0EECF01F0EFCF02F0036A1200050E1A
:10C64000DBCF00F0150EDB50D88000541200010E35
:10C65000DBCF02F0020EDBCF03F0046A1200E552DA
:10C66000E5CFDAFFE7CFD9FF12000A0E00C0DBFFEB
:10C670000B0E01C0DBFF1200D9500A0FD0EF63F0A0
:10C68000F36E070EF3CFDBFF1200EECF00F0EFCF1B
:10C6900001F01200010EDB2A020E1200FC0EDBCFAD
:10C6A000E6FFFD0EDBCFE6FF1200005E000E015A32
:10C6B000F70E00C0DBFFF80E01C0DBFF00C0E9FF92
:10C6C00001C0EAFF1200DA20EA6EEF2AEECFF6FF91
:10C6D000000EEF22EECFF7FFEF22EECFF8FF1200B1
:10C6E000040EDBCFE6FF130EDB50E552E75C9ADF6A
:10C6F000DB5004DF060EDB501200090EDB500A0D82
:10C70000F350DF24D00FE76E090EE7CFDBFF68EFB1
:10C7100062F0DB50F36E050E96EF62F0F70EDBCFA2
:10C7200000F0F80EDBCF01F01200DFCFE6FF72EF72
:10C7300062F028DF030EECDE17EF63F0C4EC5DF06F
:10C74000E552E552E552E55200091200BDDEEE5019
:10C75000EFCFEAFFE96E010E1200130EDB50F36E0D
:10C76000040E96EF62F0040EDB50F36E090E96EFA6
:10C7700062F0DBCFE6FF72EF62F0E76E050EE7CF07
:10C78000DBFF12008BDF95EF63F0DBCFE6FF86DF88
:10C790009EEF63F0D950F90FE96EFF0E63EF63F07F
:0AC7A000E96E000EDA20EA6E1200C6
:06C7AA0093EC68F01100A1
:10C7B000D8CFE4FFE0CFE4FFE46E93EC68F0E550FF
:10C7C000E5CFE0FFE5CFD8FF1000CEDBE6EC67F069
:10C7D000FDD789EC68F09AEC68F0BC0E005C020EA4
:10C7E000015807E3A1EC68F0BC0E025C020E03588E
:10C7F0000DE29AEC68F0A1EC68F00250005C035086
:10C80000015802E2010E03D0020E01D0000EE552E3
:10C81000E7CFD9FF120089EC68F0420EE126BDECAB
:10C8200050F00101EE510001605D006E61510101A7
:10C83000EF55016E00500001B4270150B5230101EE
:10C84000F0510001625D006E63510101F155016E0E
:10C8500000500001B6270150B7230001C80E9D19F2
:10C8600039E19E5137E1E66AE66A340EE66EEF0E74
:10C870008EEC68F0B4C000F0B5C001F0C80E426E96
:10C88000436AB4C03DF0B5C03EF07EEC68F01D0ECA
:10C89000026EEF0EEADB020E61EC68F0B6C000F04B
:10C8A000B7C001F0C80E426E436AB6C03DF0B7C0D3
:10C8B0003EF07EEC68F0060E026EEF0ED6DB030E45
:10C8C00061EC68F00001B46BB56BB66BB76B00013F
:10C8D0009D6B9E6BE66AB9DB08E260C0EEF161C059
:10C8E000EFF162C0F0F163C0F1F1030EE66EADDB73
:10C8F00003E20001060E936F00019D2B000E9E23A4
:10C90000420EE15C02E2E16AE552F3D3010EE66E0B
:10C91000B2EC68F0020EE66ED9EC77F0E552F3CF98
:10C92000B1F0F4CFB2F0F3CFE6FFF4CFE6FFAFC043
:10C93000E6FFB0C0E6FF4DDFA8EC68F000018E6FA7
:10C94000E85005E0985103E1010E986FA0DB8E518D
:10C9500002E1986B000C98510AE0A4DBE83407E28E
:10C9600000506408000E015402E291DB020C985161
:10C970000BE098DBD880E85004E79C0E005CFF0ECB
:10C98000015802E284DB010E1200C3DB230EE12614
:10C99000E66AE66AF00EE66EEE0EC0DBB7DFE76E23
:10C9A000020EE7CFDBFFDB50020806E100019451E5
:10C9B00000080AE2940708D0020EDB0405E1050E28
:10C9C0000001945D01E2942B00019551945D0308F0
:10C9D00004E1020E955D01E2952B9551945D04E111
:10C9E0009551000801E29507010EDB6A95C0DFFF53
:10C9F000040E00019525DF5C26E2DFCFE6FFE66A44
:10CA0000DA0E006EEE0E016E026A00C0E6FFE66E00
:10CA100002C0E6FFD950030FA0DBBFEC7BF0036E32
:10CA2000070EE15E0350DF500001945D04E158DB26
:10CA30000AEC70F003D054DBFBEC6FF089DB010EE5
:10CA4000DB2ADF2AD5D7030EE66E43DB05E20001C1
:10CA5000060E936F010E946FE66A3BDB04E2000161
:10CA6000936994C0EBF1230EE15C02E2E16AE552C6
:10CA700040D3D9CFE6FFE1CFD9FF070EE126000171
:10CA80009351090A01E132D2010A01E1E4D10F0A0E
:10CA900001E1DFD1010A01E1D9D0030A01E1D0D0DF
:10CAA000010A70E0050A67E0010A01E021D218ECF2
:10CAB0006FF0E66A71EC6FF0E552E66AE66AC40E62
:10CAC000E66EEE0EE66EDDEC6FF0E552E552E552F5
:10CAD000E552E66A010EE66E4A0EE66EEF0EE66E6F
:10CAE000DDEC6FF0E552E552E552E552E66A020EE2
:10CAF000E66EAD0EE66EEE0EE66EDDEC6FF0E55224
:10CB0000E552E552E552E66A030EE66E4A0EE66E1F
:10CB1000EF0EE66EDDEC6FF0E552E552E552E552C0
:10CB2000E66A040EE66E990EE66EEE0EE66EDDEC3B
:10CB30006FF0E552E552E552E552E66A050EE66E03
:10CB4000820EE66EEE0EE66EDDEC6FF0E552E5521B
:10CB5000E552E552E66A060EE66E6C0EE66EEE0EE5
:10CB6000E66EDDEC6FF0E552E552E552E55200016C
:10CB7000010E936FBED1C7D9010803E10001040E75
:10CB8000936FB7D1E66AE66A560EE66EEE0EE66E73
:10CB9000DDEC6FF0E552E552E552E552E66A010E32
:10CBA000E66E400EE66EEE0EE66EDDEC6FF0E552E0
:10CBB000E552E552E552E66A020EE66E2A0EE66E90
:10CBC000EE0EE66EDDEC6FF0E552E552E552E55211
:10CBD000E66A030EE66E140EE66EEE0EE66EDDEC11
:10CBE0006FF0E552E552E552E552E66A040EE66E54
:10CBF000FE0EE66EED0EE66EDDEC6FF0E552E552F0
:10CC0000E552E552E66A050EE66E4A0EE66EEF0E56
:10CC1000E66EDDEC6FF0E552E552E552E552E66A6C
:10CC2000060EE66E6C0EE66EEE0EE66EDDEC6FF056
:10CC3000E552E552E552E5520001050E936F59D1D8
:10CC400062D9010802E10001932B53D15FDEE76E48
:10CC5000060EE7CFDBFF060EDB50020807E10001FE
:10CC60009451000802E20001940709D0060EDB048B
:10CC700006E1030E0001945D02E20001942BE66AD6
:10CC8000E66AE80EE66EED0EE66EDDEC6FF0E5525C
:10CC9000E552E552E552E66A010EE66E9BC0E6FFFC
:10CCA0009CC0E6FFDDEC6FF0E552E552E552E5523F
:10CCB000000194510EE1E66A020EE66ED20EE66EB7
:10CCC000ED0EE66EECEC6FF0E552E552E552E55202
:10CCD0000DD0E66A020EE66ED20EE66EED0EE66E40
:10CCE000DDEC6FF0E552E552E552E55200019405A6
:10CCF0000EE1E66A030EE66EBC0EE66EED0EE66E23
:10CD0000ECEC6FF0E552E552E552E5520DD0E66AE3
:10CD1000030EE66EBC0EE66EED0EE66EDDEC6FF019
:10CD2000E552E552E552E552020E0001945D0EE136
:10CD3000E66A040EE66EA60EE66EED0EE66EECEC0E
:10CD40006FF0E552E552E552E5520DD0E66A040E69
:10CD5000E66EA60EE66EED0EE66EDDEC6FF0E552C9
:10CD6000E552E552E552030E0001945D0EE1E66ADC
:10CD7000050EE66E900EE66EED0EE66EECEC6FF0D4
:10CD8000E552E552E552E5520DD0E66A050EE66E33
:10CD9000900EE66EED0EE66EDDEC6FF0E552E552BC
:10CDA000E552E552E66A060EE66E9BC0E6FF9CC0C1
:10CDB000E6FFDDEC6FF0E552E552E552E552E66A3A
:10CDC000D9EC77F0E552DE52F3CFDEFFF4CFDDFF92
:10CDD000DD52010EDBCF00F0020EDBCF01F0580E6A
:10CDE000005C020E015834E200019451030A2EE067
:10CDF000010A1DE0030A08E0010A01E029D0000150
:10CE000093690101EB6B24D00001090E936F640E4E
:10CE1000E66EE66AF4EC6EF0E552E552E66A71EC15
:10CE20006FF0E5520001946B0001956B11D0000189
:10CE3000070E936F640EE66EE66AF4EC6EF0E55250
:10CE4000E552E66A71EC6FF0E55202D0FF0000D0C7
:10CE500050D0E1DC4ED0E66871EC6FF0E552E66A46
:10CE6000E66A7A0EE66EED0EE66EECEC6FF0E552D9
:10CE7000E552E552E552E66A020EE66E640EE66E93
:10CE8000ED0EE66EECEC6FF0E552E552E552E55240
:10CE9000E66A030EE66E4E0EE66EED0EE66EECEC06
:10CEA0006FF0E552E552E552E552E66A040EE66E91
:10CEB000380EE66EED0EE66EECEC6FF0E552E552E4
:10CEC000E552E552D00EE66E070EE66EF4EC6EF01B
:10CED000E552E5520001060E936FE66A71EC6FF0C1
:10CEE000E5520101EB6B0101F56B03D04EDD01D082
:10CEF00000D0070EE15C02E2E16AE552E16EE55224
:10CF0000E7CFD9FF120081B01FD00001A0C000F010
:10CF1000A1C001F0A2C002F0A3C003F0A02B000E3C
:10CF2000A123A223A323D880D00E0054070E0154BE
:10CF3000000E0254000E035416E2A06BA16BA26B0C
:10CF4000A36B010E9F6F000C00019F050CE1A05127
:10CF5000A111A211A31102E19F6B010CA007000E09
:10CF6000A15BA25BA35B000CD4D8020EE1260F0EDE
:10CF7000C112580EDE6E020EDD6E9B8CDFCF00F00C
:10CF8000DF06010EDBCF01F001E2DB0600500110ED
:10CF9000F5E10F014869496906D8020EE15C02E239
:10CFA000E16AE552A6D0949C8B8C828CD6EC77F00B
:10CFB00041EC78F062EC75F08B8E828EE66A1EECA6
:10CFC00058F0E5520101EB6B4FEF53F0A2D8020E7F
:10CFD000E126FF0E0001935D2DE10101F45106E110
:10CFE0000101F55103E1010EE66E01D0E66A0A0E79
:10CFF000E66ED70EE66E230EE66E3D0EE66EFEEC96
:10D0000050F0006E050EE15E0050C5EC5BF00001D3
:10D01000CE0504E1CE6B0001080E936F030EE66EA1
:10D0200014D808E20001060E936F946BE66A71EC67
:10D030006FF0E55273EC7BF0000901E01ADD020E9F
:10D04000E15C02E2E16AE55254D0D9EC77F0E552B6
:10D05000F3CFDEFFF4CFDDFFDECF00F0DDCF01F058
:10D06000580E005C020E01581200036E046A02C0E2
:10D07000E6FFE66E04C0E6FFD950020F6ED8BFECA3
:10D080007BF0056E070EE15E0550E66A12000001B6
:10D09000B151AF5D0001966F0001B251B05900016E
:10D0A000976F12000001B151AF5D026EB051B255E1
:10D0B000036E00010250965D006E03509759016E99
:10D0C0001200E66ED950020F48D8FBEC6FF0A8EFC3
:10D0D00068F048D80001580EF35C020EF4581200B4
:10D0E000E66A010EDB50020FE66ED950030FADEF7A
:10D0F00068F0E16EE552E7CFD9FF120037EC6AF035
:10D100003DC000F03EC001F03DC0E6FF3EC0E6FF7E
:10D110001200D9CFE6FFE1CFD9FF1200E66EDDECB9
:10D120006FF0A8EF68F0DACFE4FFE652E552E5CF02
:10D13000DAFF1200FD0EDBCF00F0FE0EDBCF01F0B8
:10D140001200FB0EDBCF02F0FC0EDBCF03F012006F
:10D15000E552E552E552E5521200E66E000EDA2085
:10D16000E66E1200D9EC77F0E552F3CFAFF0F4CFD2
:04D17000B0F0120009
:0CD17400369E05D0369E3EAE02D03E6CCA
:10D18000368E3EC038F0376A486A476A860E396E76
:10D190003A6A34EF6BF0369E08D0369E3EAE05D02C
:10D1A0003D6C3E1EE86A3E22368E3EC038F03DC0E1
:10D1B00037F0486A476A8E0E396E3A6A34EF6BF080
:10D1C000447E366A70EC6BF088EC6BF036B618EF84
:10D1D0006BF036A20AD036AA03D036BE18EF6BF039
:10D1E00036A424EF6BF021EF6BF036AA05D036ACF5
:10D1F00024EF6BF021EF6BF036A00AD036A808D0F0
:10D2000036BE04D036A402D02DEF6BF031EF6BF0B8
:10D21000476A3A6A44503F5C466E10E33CC048F0AF
:10D220003DC037F03EC038F03FC045F041C03CF053
:10D2300042C03DF043C03EF0363A09D041C048F00C
:10D2400042C037F043C038F044C045F0466C369ECB
:10D2500036BC368E45C039F036B060EF6BF01A0E32
:10D26000466060EF6BF0396A3F6A36A408D03C6CC8
:10D270003D1E3E1E3F1EE86A3D223E223F2236AC46
:10D2800008D0486C371E381E391EE86A372238220B
:10D2900039223B6A465207E03F343E323D323C324F
:10D2A0003B32462EF9D73C5048263D5037223E505F
:10D2B00038223F5039223BC047F0369E39AE0BD062
:10D2C000476C481E371E381E391EE86A482237222E
:10D2D00038223922368E39A006D0D88038323732FB
:10D2E00048324732452A45C039F034EF6BF0366A90
:10D2F00070EC6BF088EC6BF036B618EF6BF036A282
:10D3000005D036BA18EF6BF01FEF6BF036BA2BEF83
:10D310006BF036A005D036B818EF6BF02BEF6BF042
:10D3200036B81FEF6BF03A6A7F0E3F24396EE86A19
:10D330003A224450395EE86A3A5A1A0E456E3F6AFC
:10D34000476A486A376A386A41503C5E42503D5AE3
:10D3500043503E5A000E3F5A09E741503C26425086
:10D360003D2243503E22000E3F2201D0478AD890F2
:10D370003C363D363E363F36D8904736483637360F
:10D380003836452EE1D73E503D103C10D8A4478A90
:10D3900034EF6BF0366A70EC6BF088EC6BF036B6FD
:10D3A00018EF6BF036A205D036B818EF6BF01FEF10
:10D3B0006BF036AA05D036B018EF6BF01FEF6BF0AC
:10D3C00036B002D036A802D02BEF6BF03A6A445048
:10D3D0003F24396EE86A3A227E0E395EE86A3A5A8C
:10D3E000476A486A376A386A43503E02F4CF38F0D9
:10D3F000F3CF37F042503E02F3504826F450372224
:10D40000000E382243503D02F3504826F450372294
:10D41000000E382241503E02F3504726F450482275
:10D42000000E3722382242503D02F3504726F45076
:10D430004822000E3722382243503C02F350472640
:10D44000F4504822000E3722382241503D02F45059
:10D450004726000E48223722382242503C02F45020
:10D460004726000E48223722382234EF6BF0356A07
:10D4700043AE40EF6AF0426C431EE86A4322351E19
:10D480003EAE48EF6AF03D6C3E1EE86A3E22351E15
:10D4900090EC7DF03EBE58EF6AF035AE000C3D6C6E
:10D4A0003E1EE86A3E22396C3A1EE86A3A22000CB7
:10D4B00035BE4FEF6AF03688FF0C3EC048F03DC0E5
:10D4C00047F03D504202F4CF3CF0F3CF3BF03E50EA
:10D4D0004302F4CF3EF0F3CF3DF04202F3503C263E
:10D4E000F4503D22E86A3E2247504302F3503C2666
:10D4F000F4503D22E86A3E2243AE83EF6AF0475083
:10D500003D5E48503E5A48AE000C42503D5E43508E
:10D510003E5A000C366A70EC6BF036B694EF6AF047
:10D5200036A20AD036B403D07F0E3E6E19D0800EDC
:10D530003E6E16D03E6A14D036B0FCD7870E3F60E0
:10D54000F1D77E0E3F64F6D7860E3F5C04E0D8909C
:10D550003E323F2AF9D736A403D03E6C3EAEEAD71E
:10D560001200C3EC6AF036B6000C36B0000C36B4CC
:10D57000000C010CC3EC6AF036B6000C36B0000C9F
:10D5800036A4000C010C366A70EC6BF088EC6BF082
:10D5900036B6120036AE08D036A004D036A802D077
:10D5A000368012003690120044503F5C0BE143502D
:10D5B0003E5C08E142503D5C05E141503C5C02E1CB
:10D5C00036801200D8A002D0368E10D03F5044C012
:10D5D0003FF0446E3E5043C03EF0436E3D5042C06B
:10D5E0003DF0426E3C5041C03CF0416E44503F5CC7
:10D5F00010E0FF0F09E0369036B403D036AE368423
:10D60000120036AE36941200442AD8904332423289
:10D61000413241503C5E42503D5A43503E5A3EBE1C
:10D62000EAD7D8903C363D363E363F2EF8D7C8D79D
:10D630007F0E3F6EFF0E3E6E3D6E3C6E12007F0E03
:10D6400036BEFF0E3F6E02D07F0E3F6E800E3E6EE6
:10D650003D6A3C6AF3D736AE04D0800E3F6E3E6A18
:10D66000F7D73F6A3E6AF4D7385037104810471052
:10D67000F8E03ABEF0D738BE0CD039503A10EBE0A3
:10D68000D89047364836373638363906D8A03A0665
:10D69000F2D73A50D4E13928D2E047AE11D07F0E0C
:10D6A000471402E148A00CD0482AE86A3722382201
:10D6B00007E3D880383237324832392A3928BFE078
:10D6C0003950C9E048C03CF037C03DF038343E6EB8
:10D6D00039303F6E3E323F9E36BE3F8E1EEF6BF0BE
:10D6E0003E363F3602E33684367E06E136803F6AB8
:10D6F0003E6A3D6A3C6A12003F2803E0D8803E3211
:10D700001200D8903E3202E13682120036861200B4
:10D710004336443602E3368C367E06E13688446A68
:10D72000436A426A416A1200442803E0D8804332C7
:10D730001200D8904332EAE1368A1200369E0CD0AD
:10D74000369E3EAE09D03B6C3C1E3D1E3E1EE86A36
:10D750003C223D223E22368E3EC038F03DC037F09E
:10D760003CC048F03BC047F09E0E396E3A6A34EF39
:10D770006BF0366A70EC6BF036B6C3EF6BF036A226
:10D780000ED036B405D07F0E3E6EFF0E3D6E1FD01C
:10D79000800E3E6E3D6A1BD03E6A3D6A18D036B0A0
:10D7A000FBD78F0E3F60EDD77E0E3F64F5D78E0E10
:10D7B0003F5C05E0D8903E323D323F2AF8D736A490
:10D7C00006D03D6C3E1EE86A3E223EAEE5D7120012
:10D7D000366A70EC6BF036B6F2EF6BF036A20FD013
:10D7E00036B407D07F0E3E6EFF0E3D6E3C6E3B6E34
:10D7F00025D0800E3E6E01D03E6A000EF6D736B0C0
:10D80000FBD73B6A9F0E3F60EBD77E0E3F64F4D799
:10D810009E0E3F5C07E0D8903E323D323C323B32B8
:10D820003F2AF6D736A40AD03B6C3C1E3D1E3E1E56
:0ED83000E86A3C223D223E223EAEDED71200C8
:02D83E00D9CF40
:10D84000E6FFDACFE6FFE1CFD9FFE2CFDAFF220E23
:10D85000E12402E3E168E652E16ED950130FE66E6F
:10D86000000EDA20E66EA8DA2CEC7AF0006E060ED6
:10D87000E15C02E2E16AE552E16E0050E76E0E0EF5
:10D88000E7CFDBFFDB50840B0CE0210E0001CA6FF9
:10D89000CB6B0F0EDB68100EDB68110EDB687F0EA2
:10D8A0006ED08ADA36DA020E3BC0DBFF030E3CC0D4
:10D8B000DBFF040E3DC0DBFF050E3EC0DBFF87DA59
:10D8C000416A100E426E490E436E460E14DABAECEF
:10D8D0006AF0010A32E07BDA67DA0DDA77EC69F098
:10D8E000BFD9060EDBCF3CF0070EDBCF3DF0080EB4
:10D8F000DBCF3EF0090EDBCF3FF0E8EC6BF0A0ECA5
:10D900006BF0AED964DA060EDBCF08F0070EDBCF82
:10D9100009F0080EDBCF0AF0090EDBCF0BF044DA7A
:10D92000446E08C03CF009C03DF00AC03EF00BC098
:10D930003FF048DAE0EC68F0C4D9F90EDB5012E0B1
:10D940000E0EDB040BE1FA0EDBCF00F0FB0EDBCF9B
:10D9500001F0FC0EDBCF02F0FD0E52D167D9436A15
:10D96000F8D947D00E0EDB0419E10F0EDB6A100E5A
:10D97000DB6A800EF36E110EF3CFDBFF3F0EF36E0A
:10D98000120EF3CFDBFF0F0EDBCF00F0100EDBCF5C
:10D9900001F0110EDBCF02F0120E32D1190EDB6A4C
:10D9A00045D9800E436ED5D9006A016A026A3F0EDE
:10D9B000036ED950060FE96E000EDA20EA6EEECF44
:10D9C0003CF0EECF3DF0EECF3EF0EFCF3FF000C0A9
:10D9D00041F001C042F002C043F003C044F0E0EC6B
:10D9E00068F03FC0EDFF3EC0EDFF3DC0EDFF3CC025
:10D9F000EFFFDF50010B0AE0190EDB5002E0000ED2
:10DA000001D0010EE76E190EE7CFDBFF8CD9060EB1
:10DA1000DBCF0CF0070EDBCF0DF0080EDBCF0EF0E6
:10DA2000090EDBCF0FF0416A426A490E436E400E89
:10DA3000446E0CC03CF00DC03DF00EC03EF00FC077
:10DA40003FF0CAEC69F05CD9A6D995D9E0EC68F052
:10DA500077D9060EDBCF14F0070EDBCF15F0080EDA
:10DA6000DBCF16F0090EDBCF17F0220E416EAA0EA7
:10DA7000426E7D0E436E3A0E446E14C03CF015C0EB
:10DA80003DF016C03EF017C03FF0CAEC69F03CC054
:10DA900010F03DC011F03EC012F03FC013F0EDD8C1
:10DAA000E0EC68F00A0E3CC0DBFF0B0E3DC0DBFF74
:10DAB0000C0E3EC0DBFF0D0E3FC0DBFFD9500A0F3E
:10DAC000E96E000EEAD825D93BC000F03CC001F059
:10DAD0003DC002F03EC003F0416A426A800E436ED0
:10DAE000390E446E3BC03CF04FD9BAEC6AF0010AE3
:10DAF00013E1D9500A0FE96E000EDA20EA6E020E29
:10DB0000EECFDBFF030EEECFDBFF040EEECFDBFF2D
:10DB1000050EEECFDBFF68D0E1D80A0EDBCF41F077
:10DB20000B0EDBCF42F00C0EDBCF43F00D0EDBCF44
:10DB300044F0CAEC69F01A0E3CC0DBFF1B0E3DC07E
:10DB4000DBFF1C0E3EC0DBFF1D0E3FC0DBFF5B0E8C
:10DB50003C6E9C0E3D6E2E0E3E6E360E3F6E72D8A3
:10DB6000CFD8220E416EB20E426E4F0E436EB90EEA
:10DB700032D99ED83E0E416E870E426E080E436E1D
:10DB80003C0E29D9DDD8A40E416EAA0E426E2A0E93
:10DB9000436EBE0E20D91E0E3CC0DBFF1F0E3DC0E3
:10DBA000DBFF200E3EC0DBFF210E3FC0DBFF0A0E75
:10DBB000DBCF00F00B0EDBCF01F00C0EDBCF02F061
:10DBC0000D0EDBCF03F08AD81E0EDBCF41F01F0E07
:10DBD000DBCF42F0200EDBCF43F0210EDBCF44F051
:10DBE000F1D8E1EC68F06DD8190EDB5008E09BD855
:10DBF000416A426A800E436EBF0EF0D803D042D80D
:10DC0000DBCF03F000C03BF001C03CF002C03DF0B0
:10DC100003C03EF0220EE15C02E2E16AE552E16EF1
:10DC2000E552E5CFDAFFE7CFD9FF12007CD8830EAB
:10DC3000416EF90E426EA20E436E3E0ECFD8416A7F
:10DC4000426A12001A0EDBCF41F01B0EDBCF42F00E
:10DC50001C0EDBCF43F01D0EDBCF44F0CAEF69F0A2
:10DC6000060E3CC0DBFF070E3DC0DBFF080E3EC0CA
:10DC7000DBFF090E3FC0DBFF12008DD800C03CF077
:10DC8000C4EF6EF0020EDBCF00F0030EDBCF01F02D
:10DC9000040EDBCF02F0050E1200DA20EA6EEECFA2
:10DCA000E6FFEECFE6FFEECFE6FFEFCFE6FF120096
:10DCB0003CC004F03DC005F03EC006F03FC007F098
:10DCC0001200020E3CC0DBFF030E3DC0DBFF040E62
:10DCD0003EC0DBFF050E3FC0DBFF12000A0EDBCFAC
:10DCE0003CF00B0EDBCF3DF00C0EDBCF3EF00D0E0B
:10DCF000DBCF3FF01200446E00C03CF0C4EF6EF08A
:10DD00003CC008F03DC009F03EC00AF03FC00BF037
:10DD1000120011EC7DF0E552E552E552E552120099
:10DD2000446EE1EF68F0020EDBCF04F0030EDBCFB0
:10DD300005F0040EDBCF06F0050EDBCF07F0120076
:10DD40003CC000F03DC001F03EC002F03FC003F017
:10DD500012003F0EE5DFB9EC6BF03DC0DEFF3EC0C8
:10DD6000DDFF000EDFCF3DF0010EDBCF3EF0CDEC4E
:10DD700068F030EF6EF004C03CF005C03DF006C026
:10DD80003EF007C03FF0120001C03DF002C03EF07F
:10DD900003C03FF012003CC041F03DC042F03EC025
:10DDA00043F03FC044F01200DB0E416E0F0E426E96
:10DDB000C90E436E400E1200D950FA0FE96EFF0EE5
:10DDC0004DEF6EF0CAEC69F073DF3DEF6EF05ADF95
:10DDD000DBCF03F01200A4DF22EF6EF0446ECBDF46
:08DDE000CAEC69F0A0EF6EF03F
:08DDE800D4D9FD0EDBCF00F0E1
:10DDF000DB06FE0EDBCF01F001E2DB060050011076
:10DE000010E0DE6ADD6ADECF00F0DDCF01F0E30E68
:10DE1000005C0D0E0158E9E2DF2A010EF4E3DB2A73
:10DE2000F2D7020EE15C02E2E16AE552E16E71D1E5
:10DE300002DA060EE1268D9296928D9096908D8450
:10DE400096948A9A939A8C92A8D984D902E297D907
:10DE5000FCD78C82A2D97ED902E291D9FCD7AE0E32
:10DE600042D9DB0E40D9230E3ED9D90E3CD9220E21
:10DE70003AD9A10E38D9C80E36D9DA0E34D9120ED5
:10DE800032D9A80E30D93F0E2ED9D50E2CD9A00EDE
:10DE90002AD9810E28D9600E26D9D30E24D9E66A54
:10DEA000CFD9A60E20D9AD0E1ED98B0E1CD9AF0E20
:10DEB0001AD90A0EE66EE66A97DFE552E552A40E1D
:10DEC00012D9400E10D9ACD9060EE15C02E2E16A2B
:10DED000E552E16E1ED14BD98A9AA7D148D98A8AD8
:10DEE000A4D157D9B00EDF6EB80EDF5C1BE2DFCFD6
:10DEF000E6FFA6D995D9010EDB6ADB50006E016AF8
:10DF0000D890015004E6840E005C000E015808E22F
:10DF1000FE0EDBCFE6FFE2DFE552010EDB2AEDD796
:10DF2000DF2AE2D7020EE15C02E2E16AE552E16E2D
:10DF3000F0D03FD9F6BEF768C8D80800F550D6D85B
:10DF4000F6BEF768C2D8010E5FD9F6BEF768BDD835
:10DF5000020E5AD9F6BEF768B8D8030E55D9F6BEE8
:10DF6000F768B3D8040EEAD8F55056D9E66AB6DF9A
:10DF7000E552E552CED01DD9F6BEF768A6D8080006
:10DF8000F51CB4D8F6BEF768A0D8010E41D9F6BE8C
:10DF9000F7689BD8020E3CD9F6BEF76896D8030EF8
:10DFA00037D9F6BEF76891D8040EC8D8F51C34D915
:10DFB000E66894DFE552E552ACD09ED8AED80AE0D0
:10DFC0001DD9ABD8E66EB5DFBED801E3DB2A060E5D
:10DFD000DF26F4D7E5529DD08FD89FD80AE00ED91E
:10DFE0009CD8E66EC8DFAFD801E3DB2A060EDF2639
:10DFF000F4D7E5528ED080D899D80AE0FFD896D8C9
:10E00000E66E97DFA0D801E3DB2A060EDF26F4D701
:10E01000E5527FD071D88AD80AE0F0D887D8E66E6A
:10E02000AADF91D801E3DB2A060EDF26F4D7E552FA
:10E0300070D001D9050EE126030EDB6A040EDB6AFF
:10E04000020E006EFA0EB0D8FA0EE7CFDBFFF90E23
:10E05000DB50B00FDF6EFB0EDB50B00FDF5C2EE24B
:10E06000DFCFE6FFEDD8FA0EDB500F0B3CD8FA0EEF
:10E07000DB380F0B0F0B100936D8010EDB6AFC0ED4
:10E08000DB50F36E010EDBCFF4FFF350F45C14E2CF
:10E09000030EDB2A040E01E3DB2AFD0EDBCFF6FFC5
:10E0A000DB2AFE0EDBCFF7FF01E3DB2A0800F55089
:10E0B000B3D8010EDB2AE3D7DF2ACDD7050EE15C0A
:10E0C00002E2E16AE552E16E24D0050EF702F3CFD9
:10E0D000F7FFF602F3CFF6FFF450F726440EF626CC
:10E0E000F10EF7221200E66E20EF71F095D8FE0EC9
:10E0F000DBCFF6FFF76A12009ED8E652FB0EDB502C
:10E10000DF6EFC0EDB50B10FE76EFC0EE7CFDBFFDE
:10E110001200E552E7CFD9FF1200FD0EDBCFF6FF6C
:10E12000FE0EDBCFF7FF0800F5501200FD0EDBCF2F
:10E13000E9FFFE0EDBCFEAFFEF501200F626000EDD
:10E14000F72208001200E552E552E552FD0EDB2AE7
:10E15000FE0E1200D9CFE9FFDACFEAFF640EEE5CC3
:10E16000000EEE58000EEE58000EEE58120063D866
:10E17000956AFE0EDB508C6E8D808D821200D9CF99
:10E18000E9FFDACFEAFFEE2A000EEE22EE22EE22BF
:10E19000120051D8020EE1261200DE6ADE6ADE6A43
:10E1A000DD6ADD52DD521200DBCFE7FF0050E726CB
:10E1B000120041D8E652200E006EFE0EDBCFE7FFC4
:10E1C0000050E75EFE0EE7CFDBFFFD0EDBCFE6FF84
:10E1D00037D8020E006EFC0EE7DFFC0EE7CFDBFF48
:10E1E000DB500F0B80DFFC0EDB380F0B0F0B100F1B
:10E1F0007ADFFE0EDBCFF6FFF76A1200DFCFE6FF15
:10E20000FC0EDBCFE6FF120099DFF55076EF70F0E1
:10E2100095DFF51C76EF70F0E66E60DEE5521200D9
:10E22000020E61DF100E73EF70F08D948D928D826F
:10E230008D8495686ED7D9CFE6FFE1CFD9FF120064
:06E240004ADEE552120067
:0AE24600D9CFE6FFDACFE6FFE1CF03
:10E25000D9FFE2CFDAFF240EE12402E3E168E652BF
:10E26000E16ED950FA0FE96EFF0EDA20EA6E020E67
:10E27000EECFDBFF030EEECFDBFF040EEECFDBFFB6
:10E28000050EEECFDBFFE8D9F2D92CEC7AF0006E68
:10E29000060EE15C02E2E16AE552E16E0050E76ED3
:10E2A0000D0EE7CFDBFFDB50800815E0A0D9416AF7
:10E2B000426A436A446A00C03CF001C03DF002C0BB
:10E2C0003EF003C03FF0BAEC6AF0010A10E1210E03
:10E2D0000001CA6FCB6B020EDB68030EDB68040E15
:10E2E000DB687F0EF36E050EF3CFDBFF66D10D0EFC
:10E2F000DB50050B01E061D10A0EDBCF00F00B0E05
:10E30000DBCF01F0830E0026FF0E012200C0DEFFEE
:10E3100001C0DDFFD950060F65D976D9DF50010B5A
:10E320000FE0DF06010E01E2DB06D950180F5AD9C3
:10E33000D890EF36010EEB36020EEB36030EEB36BD
:10E34000D9CFE9FFDACFEAFF020E426E436AEECF81
:10E350003DF0EDCF3EF037EC6AF03DC0EEFF3EC041
:10E36000EDFF140EDB6A150EDB6A160EDB6A170E64
:10E37000DB6A1C0EDB6A1D0EDB6A1E0EDB6A010EF9
:10E38000F36E1F0EF3CFDBFF010EF36E0E0EF3CF15
:10E39000DBFF0F0EDB6A0E0EDBCF00F00F0EDBCFC4
:10E3A00001F0D890015004E61A0E005C000E0158EE
:10E3B00001E398D0180EDBCF00F0190EDBCF01F08F
:10E3C0001A0EDBCF02F01B0EDBCF03F0010E1F0B8A
:10E3D00007E0D8900036013602360336E806F9E148
:10E3E000180E00C0DBFF190E01C0DBFF1A0E02C0C1
:10E3F000DBFF1B0E03C0DBFF140EDBCF08F0150E96
:10E40000DBCF09F0160EDBCF0AF0170EDBCF0BF0D7
:10E41000010E1F0B07E0D890083609360A360B3676
:10E42000E806F9E1D9501C0FDDD80850EE24046E3F
:10E430000950EE20056E0A50EE20066E0B50EE20BD
:10E44000076ED950180FCED80450EE5C006E055000
:10E45000EE58016E0650EE58026E0750EE58036EED
:10E46000200E00C0DBFF210E01C0DBFF220E02C028
:10E47000DBFF230E03C0DBFF200EDBCF3CF0210EC1
:10E48000DBCF3DF0220EDBCF3EF0230EDBCF3FF0A3
:10E490003F34000E3F1809E6D880000E3C54000EB1
:10E4A0003D54000E3E54000E3F5411E2D950200F4F
:10E4B00099D8AAD8D8D81C0EDB50EE121D0EDB500E
:10E4C000EE121E0EDB50EE121F0EDB50EE12D95074
:10E4D0001C0F88D8AFD80E0EDB2A0F0E01E25BD7D7
:10E4E000DB2A59D7C9D8100E00C0DBFF110E01C0BE
:10E4F000DBFF180EDBCF3DF0190EDBCF3EF0120E26
:10E500003DC0DBFF130E3EC0DBFFADD893D8D95022
:10E51000100F68D8EE50ED1012E0D950120F62D8EB
:10E52000EE50ED1006E1A8D80050011002100310C3
:10E5300006E099D8EE2A000EEE22EE22EE220C0E14
:10E54000DB6A91D8060EEECFDBFF070EEECFDBFFC6
:10E55000080EEECFDBFF090EEECFDBFF7E0EF36E73
:10E560000A0EF3CFDBFF0B0EDB6AD950020FE66E0B
:10E57000000EDA20E66E70D8BAEC7AF0E552E55279
:10E58000E552E552DECFE6FFDDCFE6FF70D890EC36
:10E5900079F0006E060EE15C02E2E16AE552E16E9E
:10E5A0000050020E3BC0DBFF030E3CC0DBFF040E3D
:10E5B0003DC0DBFF050E3EC0DBFF19D800C03BF0BD
:10E5C00001C03CF002C03DF003C03EF0240EE15C0F
:10E5D00002E2E16AE552E16EE552E5CFDAFFE7CF0C
:10E5E000D9FF1200E96E000EDA20EA6E1200020E68
:10E5F000DBCF00F0030EDBCF01F0040EDBCF02F027
:10E60000050EDBCF03F01200180EEECFDBFF190E64
:10E61000EECFDBFF1A0EEECFDBFF1B0EEECFDBFFE4
:10E620001200EECFE6FFEECFE6FFEECFE6FFEFCF34
:10E63000E6FF1200D890030EEB32020EEB32010E11
:10E64000EB32EF321200EE500016EE500116EE5093
:10E650000216EE5003161200D950060FE66E000E99
:10E66000DA20E66E1200D950140FF2EF72F0D95092
:10E67000020FB8DF11EF73F0010E006E016A026A3B
:08E68000036AF1DF23EF73F0E0
:08E68800D9CFE6FFE1CFD9FF75
:10E69000E652DF6A0101E851DF5C28E2DF50040D39
:10E6A000F3CFE9FFF4CFEAFF000EE926010EEA22DC
:10E6B000EECFE6FFEECFE6FFEECFE6FFEFCFE6FFD1
:10E6C000DF50080DF3CF00F0F4CF01F0380E002634
:10E6D000010E012200C0E6FF01C0E6FF31EC57F059
:10E6E000026E060EE15E0250DF2AD4D7E552E552F3
:10E6F000E7CFD9FF1200D9CFE6FFE1CFD9FFFE0E59
:10E70000CED93CC066F03DC067F03EC068F03FC067
:10E7100069F0FD0EC4D93CC06AF03DC06BF03EC04C
:10E720006CF03FC06DF000016E6B6F6B706B716BC6
:10E7300000017A6B7B6B7C6B7D6B7AC076F07BC063
:10E7400077F07CC078F07DC079F07AC072F07BC041
:10E7500073F07CC074F07DC075F00001866B876B30
:10E76000886B896B86C082F087C083F088C084F094
:10E7700089C085F086C07EF087C07FF088C080F0B9
:10E7800089C081F0E552E7CFD9FF12000101E86BA3
:10E79000EA6BE96B55EF75F00101020EE86F060EAA
:10E7A000EA6FE96B070EEC6FED6F310E71D9010165
:10E7B000036B1F0E006F280E016F570E026F010EC4
:10E7C000076F3D0E046F1A0E056F260E066F3A0E88
:10E7D000BA6F070EBB6F3A0EBC6F310EBD6F6E0E77
:10E7E000BE6F1C0EBF6F070EC06F1C0EC16F6E0E8A
:10E7F000C26F070EC36FC46F310EC56F12000101E7
:10E800000A0EE86F030EEA6FE96B070E55D9010196
:10E81000036B140E006F1E0E016F7F0E026F076BED
:10E82000280E046F056B610E066F0B6B120E086FDE
:10E830004D0E096F610E0A6F0F6B100E0C6F4D0EAF
:10E840000D6F610E0E6F136B020E106F2F0E116F96
:10E85000430E126F176B040E146F2F0E156F430EBD
:10E86000166F1B6B260E186F390E196F4D0E1A6F2F
:10E870001F6B240E1C6F390E1D6F4D0E1E6F236B08
:10E88000160E206F6B0E216F7F0E226F276B180EF6
:10E89000246F6B0E256F7F0E266F070EBA6FBB6F4E
:10E8A0006E0EBC6F310EBD6F070EBE6F190EBF6FBF
:10E8B00012000101E86B160EEA6FE96BFDD8010149
:10E8C000070EBA6F060EBB6F070EBC6F110EBD6F41
:10E8D000070EBE6F1C0EBF6F070EC06F270EC16FF5
:10E8E000070EC26F320EC36F160EC46F060EC56FD1
:10E8F000250EC66F060EC76F340EC86F060EC96FA1
:10E90000430ECA6F060ECB6F520ECC6F060ECD6F44
:10E91000620ECE6F060ECF6F6F0ED06F1C0ED16FD2
:10E920006F0ED26F270ED36F6F0ED46F320ED56F6E
:10E93000250ED66F320ED76F340ED86F320ED96FC8
:10E94000430EDA6F320EDB6F520EDC6F320EDD6F6C
:10E95000620EDE6F320EDF6F430EE06F110EE16F5D
:10E96000430EE26F1C0EE36F250EE46F270EE56F7A
:10E9700012000101030EE86FEA6B010EE96F95D8F2
:10E980000101036B140E006F280E016F800E026FE1
:10E99000076B280E046F056F800E066F0B6B1E0E43
:10E9A000086F096B500E0A6F1F0EAD6F020EA86F35
:10E9B000010EAB6F080EA96F010EAA6F12000101C4
:10E9C000060EE86F020EEA6F030EE96F0A0EEC6F97
:10E9D000340EED6F5DD80101010E036F1E0E006F46
:10E9E000200E016F3F0E026F010E076F3E0E046F87
:10E9F000056B200E066F010E0B6F5E0E086F200E6A
:10EA0000096F400E0A6F010E0F6F1E0E0C6F0D0E78
:10EA10000D6F150E0E6F010E136F3E0E106F2C0E44
:10EA2000116F340E126F010E176F5E0E146F0D0E04
:10EA3000156F150E166F0D0EAC6F150EAD6F030E24
:10EA4000A86F010EAB6F090EA96F030EAA6F0D0E12
:10EA5000B26F150EB36F050EAE6F010EB16F090EDA
:10EA6000AF6F010EB06F2B0EB86F330EB96F040E7F
:10EA7000B46F010EB76F090EB56F020EB66F2C0E94
:10EA8000BA6F1C0EBB6F4C0EBC6F1C0EBD6F12001C
:10EA9000E66E6E0EE66E2FDEE552E5521200DBCF1B
:10EAA00000F000C03EF0BAEF68F00A0EEC6F070EFF
:10EAB000ED6F340E48EF75F0EC6F310EED6F070E11
:04EAC00048EF75F0B6
:0CEAC400D9CFE6FFE1CFD9FF030EE12619
:10EAD00059D8736A820E726E739C94949396958C37
:10EAE0007288728A949EE66AD0D8E552E76E020E6A
:10EAF000E7CFDBFF0000D950020FE96EDACFEAFF63
:10EB0000EF50070B020801E00000140EE66EBDD8BE
:10EB1000E552E76E020EE7CFDBFF020EDB96DB88E5
:10EB2000020EDB80DB92DB94020EDBCFE6FF140EDD
:10EB3000E66E3AD8E552E552010EE66EA6D8E552E9
:10EB4000DE6EDD6A0000110EE66E9FD8E552DE6EC5
:10EB5000DD6A0000E66A110EE66E26D8E552E5523F
:10EB60000000110EE66E91D8E552DE6EDD6A0000FF
:10EB7000030EE15C02E2E16AE552E16EE552E7CFA5
:10EB8000D9FF1200550EA76EAA0EA76E0E01FF91B7
:10EB9000090ECC6F0A0ED36F170EFB6F550EA76EC2
:10EBA000AA0EA76EFF811200D9CFE6FFE1CFD9FFF1
:10EBB000E652DF6AFE0EDB50140804E0FE0EDB5066
:10EBC000340806E1140EE66E60D8E552E00BDF6E05
:10EBD0008B9EA49EFE0EDB50756EA4AEFED7000089
:10EBE0000000000000000000000000000000000025
:10EBF0000000000000000000000000000000000015
:10EC00000000000000000000000000000000000004
:10EC100000000000000000000000000000000000F4
:10EC200000000000000000000000000000000000E4
:10EC300000000000000000000000000000000000D4
:10EC400000000000000000000000000000000000C4
:10EC50000000000000000000000000000000A49E72
:10EC6000FE0EDB500A0805E1FD0EDB507F0B756ED2
:10EC700004D0FD0EDB50DF10756EA4AEFED78B8E78
:10EC8000E552E552E7CFD9FF1200D9CFE6FFE1CF39
:10EC9000D9FF8B9EA49EFE0EDB508009756EA4AE3C
:10ECA000FED700000000000000000000000000008F
:10ECB0000000000000000000000000000000000054
:10ECC0000000000000000000000000000000000044
:10ECD0000000000000000000000000000000000034
:10ECE0000000000000000000000000000000000024
:10ECF0000000000000000000000000000000000014
:10ED00000000000000000000000000000000000003
:10ED100000000000000000000000000000000000F3
:10ED20000000A49E756AA4AEFED78B8E755000D0ED
:08ED3000E552E7CFD9FF120004
:08ED3800202020505245434900
:10ED40004F55532074696D65203A292020002059C1
:10ED50006F75206A75737420776173746520796F9D
:10ED600075722000202020596F7520776F6E206EFD
:10ED70006F7468696E67202020002020434F524E38
:10ED800047524154554C4154494F4E532120200085
:10ED9000202020202020515549542047414D452016
:10EDA00020202020200020202020202043414C49EA
:10EDB00042524154452020202020200020202020A5
:10EDC0002053454C454354204C4556454C2020206B
:10EDD00020002020202020204E4557202047414D54
:10EDE00045202020202020002020204C4142495254
:10EDF000594E544820204D454E55202020002033A8
:10EE00002E2048617665206120676F6F64207469E9
:10EE10006D652E0020746F206D6F766520746865B7
:10EE20002062616C6C2E2020200020322E2054693C
:10EE30006C742074686520626F6172642020200009
:10EE40002073656C656374206D656E7520697465EB
:10EE50006D732E20200020312E20557365207363A2
:10EE6000726F6C6C20746F202020200050726573CC
:10EE700073204D656E7520746F2070726F636565C9
:10EE8000640020202020202020202020202020205E
:10EE900020202020202020200020202050726F6A77
:10EEA0006574204D413120495349422000202062A1
:10EEB00079204D6172696520566F6C6F6C6F6E6A58
:10EEC0006F202000202020536E616B652047616D0C
:10EED000652076312E302020200020202020202088
:10EEE000204C6576656C20256420202020202000A1
:10EEF0002020202053454C45435420204C45564566
:10EF00004C2020202000202020593A202025642059
:10EF10002020202020202020202020200020202011
:10EF2000583A202025642020202020202020202046
:10EF30002020200020202043414C4942524154458A
:10EF40002053454E534F52202000202020202020C7
:10EF500020202020202020202020202020202000D1
:10EF6000030EB16EB392B390B396B288B28EB290E4
:10EF7000B292A494B38E12002F0E926E0F01E00E87
:10EF8000486F1F0E496FC18EC19CC70EC11408097E
:10EF9000C16EF80EC1140209C16E498FC29CC29E97
:10EFA000C30EC2140809C26EC2801200D9DFBCEFC2
:10EFB00077F0D9CFE6FFE1CFD9FF020EE126FE0EB2
:10EFC000DB500F0BF36EF346F346C30EC214F3107F
:10EFD000C26EFE0EDB50EA6AFB0FE96E010EEA22FA
:10EFE000EF503F0BF36EF346F346030EB114F310EC
:10EFF000B16EB38EB382000000000000000000007C
:10F000000000000000000000000000000000000000
:10F010000000000000000000000000000000B392AB
:10F02000B2800000000000000000000000000000AE
:10F0300000000000000000000000000000000000D0
:10F0400000000000000000000000B2909E9CC28200
:10F050009EACFED7C3CFDEFFC4CFDDFFDECF00F016
:10F06000DDCF01F000C0F3FF01C0F4FF00D0020EBD
:10F07000E15C02E2E16AE552E16EE552E7CFD9FFD9
:10F080001200D9CFE6FFE1CFD9FF030EE126020E31
:10F09000DB6A040EF36E020EDBCFF4FFF350F45C78
:10F0A00021E22AD8EF6A30D80CE226D8EF501F08A8
:10F0B00003E122D8EF6A13D01FD8EF2A25D8F5E351
:10F0C0000ED02CD80CE218D8EF50E10803E114D888
:10F0D000EF6A05D011D8EF062BD820D8F4E3020E42
:10F0E000DB2AD7D7030EE15C02E2E16AE552E16E6A
:10F0F000E552E7CFD9FF1200020EDB50EA6AFB0FA0
:10F10000E96E010EEA22120013D8DECF00F0DDCF47
:10F1100001F0200E005C030E01581200D9CFE9FF68
:10F12000DACFEAFF200ED880EE54030EED54120021
:10F13000020EDBCFE6FF3DDFE552F3CFDEFFF4CF7B
:04F14000DDFF1200DD
:0CF14400000000000000004F0000000769
:10F15000000700147F147F14242A7F2A1223130827
:10F16000646236495522500005030000001C22410C
:10F17000000041221C0014083E081408083E08083C
:10F1800000503000000808080808006060000020F7
:10F19000100804023E5149453E00427F4000426152
:10F1A0005149462141454B311814127F10274545DE
:10F1B00045393C4A494930017109050336494949F5
:10F1C00036064949291E0036360000005636000032
:10F1D00008142241001414141414004122140802CB
:10F1E00001510906324979413E7E1111117E7F4954
:10F1F0004949363E414141227F4141221C7F4949D4
:10F2000049417F090909013E4149497A7F080808B7
:10F210007F00417F41002040413F017F081422418F
:10F220007F404040407F020C027F7F0408107F3EF9
:10F230004141413E7F090909063E4151215E7F0956
:10F24000192946464949493101017F01013F4040A2
:10F25000403F1F2040201F3F4038403F63140814A8
:10F260006307087008076151494543007F41410029
:10F2700002040810200041417F0004020102044002
:10F2800040404040000102040020545454787F481C
:10F290004444383844444420384444487F38545423
:10F2A0005418087E0901020C5252523E7F08040491
:10F2B0007800447D40002040443D007F10284400F9
:10F2C00000417F40007C041804787C0804047838EE
:10F2D000444444387C14141408081414187C7C0822
:10F2E0000404084854545420043F4440203C404007
:10F2F000207C1C2040201C3C4030403C44281028EE
:10F30000440C5050503C4464544C44000836410076
:0FF3100000007F000000413608000201020402E5
:01F31F0000ED
:10F3200096D8E1CFD9FFE2CFDAFF0C0EE12402E359
:10F33000E168E652E16ED950FA0FE96EFF0EDA206D
:10F34000EA6E080EEECFDBFF090EEECFDBFF0A0EF2
:10F35000EECFDBFF0B0EEECFDBFF79D8D950080FD5
:10F36000E96E000EDA20EA6EEECFE6FFEECFE6FFA2
:10F37000EECFE6FFEFCFE6FF2CEC7AF0006E060E44
:10F38000E15C02E2E16AE552E16E0050E76E070ED1
:10F39000E7CFDBFFDB50840B3AE1070EDB041AE119
:10F3A000060EDB5006E0006A016A026A800E036EF8
:10F3B00004D0006A016A026A036A080E00C0DBFF1B
:10F3C000090E01C0DBFF0A0E02C0DBFF0B0E03C0FB
:10F3D000DBFF1DD0F80EDBCF00F0F90EDBCF01F024
:10F3E000D950040FE96E000EDA20EA6E0050EE26C6
:10F3F0000150ED22D950080FE66E000EDA20E66EBD
:10F4000026D8BAEC7AF0E552E552E552E552080EFC
:10F41000DBCF00F0090EDBCF01F00A0EDBCF02F0EC
:10F420000B0EDBCF03F000C03BF001C03CF002C08C
:10F430003DF003C03EF00C0EE15C02E2E16AE552F1
:10F44000E16EE552E5CFDAFFE7CFD9FF1200D9CF61
:08F45000E6FFDACFE6FF12002F
:08F45800D9CFE6FFDACFE6FF91
:10F46000E1CFD9FFE2CFDAFFE652006801687F0EF4
:10F47000026E036AD950FA0FE96EFF0EDA20EA6EC7
:10F48000EE500016EE500116EE500216EE50031626
:10F490006AD800C0EEFF01C0EEFF02C0EEFF03C05D
:10F4A000EEFFFD0EDB50800B02E0010E01D0000EDE
:10F4B000E66E59D8060EE926000EEA22E552E7501C
:10F4C000EF6EFC0EDBCF00F0FD0EDBCF01F0D8902D
:10F4D00000360136FC0E00C0DBFFFD0E01C0DBFF75
:10F4E000DB50E66E40D8040EE926000EEA22E55213
:10F4F000E750EE6EED6AFD0EDB50006E016AFF0E06
:10F50000001818E1015016E12ED8EECF00F0EECF32
:10F5100001F0EECF02F0EFCF03F000500110021027
:10F52000031006E0210E0001CA6FCB6B800E0BD0DA
:10F53000040E09D0FD0EDB5008E115D8EE6AEE6A24
:10F54000EE6AEE6A010EDF6E06D0020EDF6E0BD899
:10F55000EE52EE52EE8EDF50E552E552E5CFDAFF85
:10F56000E7CFD9FF1200F80EDBCFE9FFF90EDBCFB2
:04F57000EAFF12009C
:0CF57400D9CFE6FFDACFE6FFE1CFD9FFE8
:10F58000E2CFDAFF5BD8013411E20050FE08000E32
:10F5900001540CE276D805E06CD8800EEE6EEE6871
:10F5A00047D067D8800EEE6E7F0E0ED047D8D89029
:10F5B000015004E6010E005C000E01580BE261D818
:10F5C00005E057D8EE6A800EEE6E32D052D8EE6A61
:10F5D000EE6A2ED047D8EECF00F0EECF01F0EECF9E
:10F5E00002F0EFCF03F032D800C0EEFF01C0EEFF13
:10F5F00002C0EEFF03C0EEFF21D80050010B05E072
:10F6000025D8020E3AD8EF8E04D020D8020E35D875
:10F61000EF9E14D8D8900132003218D8030E2DD89E
:10F6200000C0EFFF1AD804E011D8030E26D8EF8EE1
:10F63000E552E5CFDAFFE7CFD9FF120013D8040E69
:10F640001CD8EECF00F0EFCF01F01200FA0EDBCFA6
:10F65000E9FFFB0EDBCFEAFF120004D8060E0DD83F
:10F66000EF501200FC0EDBCFE9FFFD0EDBCFEAFF0F
:10F670001200ECDFEE6AEE6A1200E926000EEA22C2
:0EF680001200220E0001CA6FCB6B2DEF7BF043
:02F68E00010178
:10F69000FFB122D0FF838B809490550EA76EAA0EE7
:10F6A000A76E0E01FF910E0ED16F550EA76EAA0E1A
:10F6B000A76EFF810F0EBA6ECF0EBA140009BA6E94
:10F6C000BB6A0F01526B800ECB6E040ECA6EA496FD
:10F6D000600E776E7F0E766E12000101FF91FF9330
:10F6E0008B80949012000101FFA109D08B50010B77
:10F6F00004E19450010B01E1010CFF91C8DF01010D
:10F70000FFA3C5DFA4A63AD0A496BA50300BE842B6
:10F71000E842E842E842030819E1400EBB5C10E110
:10F720008B909490BA6ACA6A0E01D16B0F01526B2A
:10F73000CB68766A7768A4960101FF81FF93010C7C
:10F74000BB2ACF0EBA140009BA6E000CBA0EE96ECD
:10F750000F0EEA6EEF50300BE842E842E842E84212
:10F76000E82AE850030BF36EF46EF346F346F346D3
:0EF77000F346CF0EEF14F310EF6EF450000CC2
:02F77E00D9CFE1
:10F78000E6FFDACFE6FFE1CFD9FFE2CFDAFFE652BC
:10F79000E652E652E652D950F90F006EFF0EDA201B
:10F7A000016E020E00C0DBFF030E01C0DBFF020E84
:10F7B000DBCFE6FF030EDBCFE6FFF90EDBCFE6FF84
:10F7C000FA0EDBCFE6FFFB0EDBCFE6FFD950FC0FD6
:10F7D000E66EFF0EDA20E66EDAEC5DF0006E070EE4
:10F7E000E15C02E2E16AE552E16E0050F3CFDEFF38
:10F7F000F4CFDDFFFC0EDBCFE9FFFD0EDBCFEAFF30
:10F80000EF6ADECF00F0DDCF01F000C0F3FF01C0F2
:10F81000F4FF040EE15C02E2E16AE552E16EE552BA
:0AF82000E5CFDAFFE7CFD9FF1200B1
:06F82A001E0EF66EA00E9A
:10F83000F76E000EF86E00010900F550BF6F090069
:10F84000F550C06F03E1BF6701D03DD00900F5500E
:10F85000BA6F0900F550BB6F0900F550BC6F090085
:10F860000900F550E96E0900F550EA6E090009003B
:10F870000900F550BD6F0900F550BE6F0900090081
:10F88000F6CFC1F0F7CFC2F0F8CFC3F0BAC0F6FFA1
:10F89000BBC0F7FFBCC0F8FF0001BD5302E1BE537F
:10F8A00007E00900F550EE6EBD07F8E2BE07F9D794
:10F8B000C1C0F6FFC2C0F7FFC3C0F8FF0001BF0719
:08F8C000000EC05BBFD712006F
:08F8C800D9CFE6FFDACFE6FF1D
:10F8D000E1CFD9FFE2CFDAFFFB0EDBCF00F0FC0E69
:10F8E000DBCF01F00001800E01141AE1FB0EDBCF2B
:10F8F000E9FFFC0EDBCFEAFFEECFF3FFEDCFF4FF25
:10F90000EE2A000EEF22F3CFE9FFF4CFEAFFFD0E5F
:10F91000DBCFEFFFEF50016AF36E01C0F4FF10D0B0
:10F92000FB0EDB50FE0806E1FD0EDBCFE6FFC6EC6A
:10F930007DF005D0FD0EDBCFE6FF03EC50F0E55285
:0CF94000E552E5CFDAFFE7CFD9FF120057
:04F94C003B504002EA
:10F95000F3CF37F0F4CF38F04102F3503826000EE1
:10F96000F420396E3B504202F3503926000EF42049
:10F970003A6E3B504302F3503A263C504002F3505B
:10F980003826F4503922000E3A223C504102F350FE
:10F990003926F4503A223C504202F3503A263D5068
:10F9A0004002F3503926F4503A223D504102F350C0
:0CF9B0003A263E504002F3503A26120066
:04F9BC00FE0EE3CF89
:10F9C000E9FFFF0EE3CFEAFFF36AF46AEE5203E0C9
:10F9D000F34AF42AFBD71200FF0EE3CFF8FFE552FB
:10F9E000FF0EE3CFF7FFE552FF0EE3CFF6FFE55240
:10F9F000E66AE66AE66A0900F55209E0FD0EE32AC6
:10FA000005E1FE0EE32A02E1FF0EE32AF4D7FD0E24
:10FA1000E3CF3CF0FE0EE3CF3DF0FF0EE3CF3EF030
:02FA20001200D2
:0EFA2200D9CFE6FFDACFE6FFE1CFD9FFE2CF82
:10FA3000DAFFE652E652D950FD0F006EFF0EDA20D3
:10FA400000C0DEFFDD6EDECFE9FFDDCFEAFFEF9E17
