:020000040000FA
:06000000B0EF7BF01200DE
:0600080004EF50F01200AD
:060018000CEF50F0120095
:06A00000B0EF7BF012003E
:02A00600120046
:06A008003DEF5DF01200C7
:02A00E0012003E
:02A01000000549
:06A0180040EF5DF01200B4
:02A01E0005003B
:10A0200010A00000D4000000020000000FEF0000AC
:10A03000D600000001000000C5F7000096000000F7
:10A0400016000000B8F70000EE0100000D0000004F
:0CA05000A9F70000FF0100000100000063
:04A05C00DDDB47EC15
:10A0600055F070EC55F041EC55F004EC57F041EC34
:10A0700055F097EF56F0D0DB41EC55F070EC55F011
:10A0800047EC55F004EC57F047EC55F097EF56F0DD
:10A09000E8EC56F079EC55F0A9EC54F05CEC55F096
:10A0A0006AE07FEC55F021EC56F0C5EC55F05FEC22
:10A0B00055F061E085EC55F00FEC56F0C5EC55F02D
:10A0C00006EC56F0A1EC56F056E08BEC55F02AEC7D
:10A0D00056F0C5EC55F006EC56F0AEEC56F04BE001
:10A0E000CEEC55F0A1EC56F00EE0DFEC55F0AEEC06
:10A0F00056F009E079EC55F010EC55F050EC56F0C4
:10A100000101F68138D0CEEC55F0AEEC56F00EE001
:10A11000DFEC55F0A1EC56F009E07FEC55F010ECC7
:10A1200055F050EC56F00101F68325D0CEEC55F0F9
:10A13000AEEC56F00EE1DFEC55F0AEEC56F009E176
:10A140008BEC55F019EC55F055EC56F00101F68505
:10A1500012D0CEEC55F0A1EC56F00DE1DFEC55F04D
:10A16000A1EC56F008E185EC55F019EC55F055ECF2
:10A1700056F00101F687EDEF56F0E8EC56F0020ECE
:10A18000E126B5EC55F0030E39EC55F00001001056
:10A19000606F01C061F0200E426E436A60C03DF006
:10A1A00001C03EF02FEC68F03DC060F03EC061F0B1
:10A1B000040EB5EC55F0050E39EC55F00001001019
:10A1C000626F01C063F0200E426E436A62C03DF0D0
:10A1D00001C03EF02FEC68F03DC062F03EC063F07D
:10A1E000060EB5EC55F0070EB2EC56F0020EE15C2F
:10A1F00002E2E16AE552E16EEDEF56F0E8EC56F06E
:10A200000A0EE126FB0EDBCF00F0FC0EDBCF01F0E7
:10A21000FD0EDBCF02F0FE0EDBCF03F000C041F0FD
:10A2200001C042F002C043F003C044F0F7C13CF06B
:10A23000F8C13DF0F9C13EF0FAC13FF0D9EC66F04B
:10A240003CC0F7F13DC0F8F13EC0F9F13FC0FAF172
:10A2500094DFFA0EDB5001E1BAD00101F0510001A8
:10A26000625D046E63510101F155D1DB3CC086F0A3
:10A270003DC087F03EC088F03FC089F00101EE513B
:10A280000001605D046E61510101EF55C0DB3CC00F
:10A290008AF03DC08BF03EC08CF03FC08DF07CDB7F
:10A2A000A5DB33EC56F0CEDB86C03CF087C03DF03A
:10A2B00088C03EF089C03FF013DBBBEC56F0A1DB59
:10A2C00074DBDFCF66F0010EDBCF67F0020EDBCF71
:10A2D00068F0030EDBCF69F071DB88DB06EC56F02B
:10A2E000B1DB8AC03CF08BC03DF08CC03EF08DC02D
:10A2F0003FF0F6DAC4EC56F084DB69DBDFCF6AF0BE
:10A30000010EDBCF6BF0020EDBCF6CF0030EDBCF68
:10A310006DF0416A426A400E436EDFDBAEEC56F0F0
:10A320000FE000016A6B6B6B400E6C6F6D6F55EC4C
:10A3300056F0080E0101F615080802E1010EF46F4F
:10A34000416A426A540E436E420EC7DBA1EC56F0DE
:10A3500010E000016A6B6B6B540E6C6F420E6D6FF8
:10A3600055EC56F0040E0101F615040802E1010E49
:10A37000F46F416A426A400E436E446EA0DB0FE008
:10A380000001666B676B400E686F696F50EC56F0AA
:10A39000020E0101F615020802E1010EF46F416A96
:10A3A000426AEC0E436E420E446E86DB10E0000102
:10A3B000666B676BEC0E686F420E696F50EC56F07F
:10A3C000010E0101F615010802E1010EF46F080EFD
:10A3D000DB6A0101E8517ADB53E2090EDB6A010115
:10A3E000E951F36E090EDBCFF4FFF350F45C45E264
:10A3F000F7DBEF50F36E080EDB50F35C3BE1F0DB74
:10A40000030EE926000EEA22EF5004E127DB07E005
:10A410004DDB03D023DB03E14CDB79D90DD046DBE8
:10A4200076D9EA22EE52E552E750EF6E42DB6FD961
:10A43000EA22020EE926000EEA22E552E750EF6E0C
:10A4400063EC56F098DBEFCFE6FF080EDB50080D0B
:10A45000F3CF00F0F4CF01F0380E0026010E0122F8
:10A4600000C0E6FF01C0E6FF22EC62F0026E060EBD
:10A47000E15E0250090EDB2AB2D7080EDB2AA9D70B
:10A48000FA0EDB5001E103D10101F66B080EDB6A25
:10A490000101E8511BDB15E2080EDB50080D24EC2E
:10A4A00057F0380EE926010E66DB7EEC56F0EECF53
:10A4B000E6FFEEDD006E080EE15E0050080EDB2ABE
:10A4C000E7D7030E0101F615030804E00C0EF6159C
:10A4D0000C0802E1010EF46F080EDB6A0101EA517B
:10A4E000F5DA01E382D038DAEECF10F0EFCF11F0D9
:10A4F00010C03EF0B2EC66F016EC57F02DDAEECF5D
:10A500001AF0EFCF1BF08AEC56F06ADACDEC56F079
:10A5100006DA22DAEECF28F0EFCF29F029C03EF09C
:10A52000B2EC66F0FEDA5FDA05DB16DAEECF32F077
:10A53000EFCF33F033C03EF0B2EC66F03CC02EF00B
:10A540003DC02FF03EC030F03FC031F04CDA3CC08F
:10A550002AF03DC02BF03EC02CF03FC02DF015DBA3
:10A5600020C03CF021C03DF022C03EF023C03FF0AF
:10A57000C2EC67F0E8DAE0D9FAD9436A410E76DA3C
:10A58000E0DB18E1F8EC56F00CC03EF09BDA28DA7C
:10A5900058DBDBDB01DAD9EC66F007DAF8EC56F0D1
:10A5A0000DC03EF08FDA1FDA4CDBCFDB07DAD9ECD7
:10A5B00066F00DDA94DB800E436E400E57DAC1DB95
:10A5C00011E1FEEC56F000C03EF0B2EC66F028DA85
:10A5D000FEEC56F001C03EF0B2EC66F02ADA010162
:10A5E000010EF46F080EDB2A79D7C7DA16EC57F0A4
:10A5F000C4DA3CC014F03DC015F03EC016F03FC0B8
:10A6000017F0EED9D3DB8BD9BCDA94DAECD99BDA2C
:10A61000B8DA3CC028F03DC029F03EC02AF03FC067
:10A620002BF0E1D97EDAB1DA1CC03CF01DC03DF060
:10A630001EC03EF01FC03FF0C2EC67F03CC018F0F7
:10A640003DC019F03EC01AF03FC01BF075D98FD93C
:10A65000A00E436E400E0ADA81DB0FE08EDA79D964
:10A6600002DBD9EC66F0DCD98CDA73D9CFDAD9EC1D
:10A6700066F0DFD90101010EF56F6EDA8DD9C2ECFB
:10A6800067F093D969DA9AD9C2EC67F0A0D90A0EBB
:10A69000E15C02E2E16AE552E16E9FD30001726B78
:10A6A000736B800E746F420E756F766B776B786B81
:10A6B000796F826B836B846B856B82C07EF083C005
:10A6C0007FF084C080F085C081F082C07AF083C0C2
:10A6D0007BF084C07CF085C07DF08E6B8F6B906BBF
:10A6E000916B8EC08AF08FC08BF090C08CF091C0BF
:10A6F0008DF08EC086F08FC087F090C088F091C03A
:10A7000089F0926B936B946B3F0E956F1200E92664
:10A71000000EEA22EFCF04F004C03EF0B2EC66F087
:10A7200087DA5EDAEE52EFCF0DF00DC03EF0B2ECFC
:10A7300066F03CC009F03DC00AF03EC00BF03FC0DF
:10A740000CF000C0E6FF01C0E6FF02C0E6FF03C058
:10A75000E6FFD7DA45DA020EE926000EEA22EFCF4D
:10A760001AF0D8DAF7C141F0F8C142F0F9C143F06C
:10A77000FAC144F0C2EC67F010DBC3DA3CEC7BF0CA
:10A78000E552E552E552E552E552E7CF0CF0E552CD
:10A79000E7CF0BF0E552E7CF0AF0E552E7CF09F03B
:10A7A000E552E7CF03F0E552E7CF02F0E552E7CFFD
:10A7B00001F0E552E7CF00F03BC00EF03CC00FF0D7
:10A7C0003DC010F03EC011F0FADA09C03CF00AC0FA
:10A7D0003DF00BC03EF00CC03FF0C2EC67F03CC057
:10A7E00005F03DC006F03EC007F03FC008F022DB98
:10A7F00082EC68F03E50E66E63EF56F0D950F70FEA
:10A80000E96EFF0EDA20EA6E79DA78DA2CDA82EC79
:10A8100068F03E50E66E1200DBDAFE0EDBCF14F07D
:10A8200014C03EF0B2EC66F0C1DA08DB3CC015F0B3
:10A830003DC016F03EC017F03FC018F0A6D910C0BA
:10A840003CF011C03DF012C03EF013C03FF0D8EC18
:10A8500066F000DAF80EDBCF3DF0F90E3CDA3CC0D2
:10A860001DF03DC01EF03EC01FF03FC020F0E6DAF4
:10A870003CC021F03DC022F03EC023F03FC024F098
:10A8800084D91DC03CF01EC03DF01FC03EF020C06A
:10A890003FF0D8EC66F03CC019F03DC01AF03EC065
:10A8A0001BF03FC01CF071D90CC03CF00DC03DF056
:10A8B0000EC03EF00FC03FF06FEC67F00FEF56F0A8
:10A8C000C2EC67F0B5D99A0E416E990E426E190E20
:10A8D000436E3F0E446EC2EF67F071DA06EF56F03A
:10A8E0006FEC67F0B6DAB5DAB5D97BDA98D9A2DAC7
:10A8F0003CC0DEFF3DC0DEFF3EC0DEFF3FC0DDFFEF
:10A90000DD52DD52D9CFE9FFDACFEAFFEECF00F01A
:10A91000EECF01F0EECF02F0EFCF03F0120035D909
:10A9200008C03CF009C03DF00AC03EF00BC03FF04B
:10A93000C2EC67F021EF56F028D904C03CF005C006
:10A940003DF006C03EF007C03FF0D9EC66F018EFCE
:10A9500056F06ED9C5EF55F0080EEA6ADB34FE0BEF
:10A96000EA36E96EBA0EE926010EEA221200C9D9CA
:10A970001BEC6FF0E552E552E552E552040E3BC088
:10A98000DBFF050E3CC0DBFF060E3DC0DBFF070E04
:10A990003EC0DBFF6FEF56F07AC03CF07BC03DF06D
:10A9A0007CC03EF07DC03FF012003CC07AF03DC05C
:10A9B0007BF03EC07CF03FC07DF012007EC03CF0DA
:10A9C0007FC03DF080C03EF081C03FF012003CC02F
:10A9D0007EF03DC07FF03EC080F03FC081F01200AD
:10A9E000CAD9D8EF66F0D0D9D8EF66F032DA29D9D3
:10A9F000C5EF55F0416A426A800E436EBF0E446E49
:10AA0000120058D9D8EC66F0F4D86FEF67F0056EF5
:10AA100004C03DF03E6EC5EC66F00AD9F1EF56F089
:10AA20003CC066F03DC067F03EC068F03FC069F0D2
:10AA300012003CC06AF03DC06BF03EC06CF03FC0FD
:10AA40006DF01200D9EC66F0F3D892C041F093C0DB
:10AA500042F094C043F095C044F0120034D9EA2289
:10AA6000030EE926000EEA22EF501200446E5AEF60
:10AA700056F078D9DBCF00F000C001F0006ADF505B
:10AA80001200FC0EDBCF3DF0FD0E6BEF56F0FA0E20
:10AA9000DBCF3DF0FB0E6BEF56F03CC03BF03DC012
:10AAA0003CF03EC03DF03FC03EF097D199D8040E37
:10AAB000120096D8050E1200D6D8A1EF56F0D3D8C2
:10AAC000AEEF56F0B2EC66F00FEF56F0F36E080EF4
:10AAD000DBCFF4FFF350F45C1200446E06EF56F047
:10AAE0003CC029F03DC02AF03EC02BF03FC02CF006
:10AAF0001200F70EDBCF3DF0F80E6BEF56F0F90EBB
:10AB0000DBCF3DF0FA0E6BEF56F0FB0EDBCF3DF0E6
:10AB1000FC0E6BEF56F0FD0EDBCF3DF0FE0E6BEF43
:10AB200056F03CC024F03DC025F03EC026F03FC0AA
:10AB300027F012003CC020F03DC021F03EC022F0C2
:10AB40003FC023F012003CC01CF03DC01DF03EC0D1
:10AB50001EF03FC01FF01200F60E416E280E426E2E
:10AB60007C0E436E3F0E446E1200E66E3DEC74F0B8
:10AB7000E552DF6E1200EA2252D1ECC13EF0B2EF94
:10AB800066F0EDC13EF0B2EF66F03CC041F03DC072
:10AB900042F03EC043F03FC044F012002FDE3BECD9
:10ABA00050F0046E090EE15E04503BC000F03CC062
:10ABB00001F03DC002F03EC003F06DEF54F01EDE28
:10ABC0002EEC50F0096E090EE15E09503BC005F015
:10ABD0003CC006F03DC007F03EC008F06DEF54F0F9
:10ABE000090EDB50060D30D9A80EE926010EEA2227
:10ABF0001200FB0EDBCF41F0FC0EDBCF42F0FD0E6E
:10AC0000DBCF43F0FE0EDBCF44F012006AC03CF015
:10AC10006BC03DF06CC03EF06DC03FF012003CC018
:10AC200008F03DC009F03EC00AF03FC00BF0120032
:10AC30003CC000F03DC001F03EC002F03FC003F058
:10AC400012003CC004F03DC005F03EC006F03FC01D
:10AC500007F012003CC00CF03DC00DF03EC00EF0FD
:10AC60003FC00FF0120066C03CF067C03DF068C006
:10AC70003EF069C03FF0120029C03CF02AC03DF010
:10AC80002BC03EF02CC03FF0D8EC66F03CC025F065
:10AC90003DC026F03EC027F03FC028F08FEF54F0B3
:10ACA000A9DE7ADE0DDED5EF54F0A4DE87DE08DE05
:10ACB000E7EF54F000C03CF001C03DF002C03EF0B0
:10ACC00003C03FF01200080EDB50040DBDD8000E8B
:10ACD000E926010E1200DBCF3EF0C5EF66F0040E50
:10ACE000DBCF00F0050EDBCF01F0060EDBCF02F06C
:10ACF000070EDBCF03F0416A426A1200EECFE6FF97
:10AD00008ED03CC0E6FF3DC0E6FF3EC0E6FF3FC040
:10AD1000E6FF12001AC03EF0B2EC66F03CC016F03E
:10AD20003DC017F03EC018F03FC019F012003CC003
:10AD300031F03DC032F03EC033F03FC034F0FCDDB6
:10AD4000ACD6B2EC68F0010A1200416A426A436A6A
:10AD50003F0E446EC2EC67F0A9EF54F0A9EC68F026
:10AD6000010A1200E66E3DEC74F0E552E76E010E4A
:10AD7000E7CFDBFF120066C041F067C042F068C059
:10AD800043F069C044F012006AC041F06BC042F069
:10AD90006CC043F06DC044F012003CC012F03DC0E6
:10ADA00013F03EC014F03FC015F012003CC010F08C
:10ADB0003DC011F03EC012F03FC013F012003BC086
:10ADC00041F03CC042F03DC043F03EC044F01200B0
:10ADD000D9CFE6FFE1CFD9FF1200E552E7CFD9FF87
:10ADE0001200416A426A436A400E446E6FEF67F098
:10ADF000B3DDEECF0CF0EFCF0DF01200ADDDEECFF6
:10AE000000F0EFCF01F012003CC02DF03DC02EF05D
:10AE10003EC02FF03FC030F0B8DE3CEF56F0EECF32
:10AE2000E6FFEECFE6FFEECFE6FF120013DFD8DD40
:10AE30000FEF56F0AADE3EDFD9EF66F0F60EDBCF5D
:10AE40003DF0F70E6BEF56F0F3CFE9FFF4CFEAFFDA
:08AE50001200CFDEC2EF67F033
:08AE580068EC5CF0FB0EDBCF9F
:10AE6000F3FFDB06F35000090AE0B6EC5CF0FA0EE3
:10AE700021EC5DF0F3E1011CF1E1010E01D0000EC7
:10AE800097EF5CF068EC5CF03B0EE12402E3E168D4
:10AE9000E652E16E010EDB6A020EDB6AF90EDBCFD1
:10AEA000F6FFFA0EDBCFF7FFFB0EDBCFF8FF080053
:10AEB000F550DF6EDF5002E1BBEF5BF0250EDF5C8B
:10AEC00002E0AEEF5BF0030EDB6A040EDB6A050EF8
:10AED000DB6A060EDB6A070EDB6AD0EC5BF02D0E38
:10AEE000DF5C0CE02B0EDF5C09E0200EDF5C06E08F
:10AEF000230EDF5C03E0300EDF5C1AE1DF50300A26
:10AF000014E0130A0FE0030A0AE00B0A05E0060A40
:10AF1000E4E1030EDB80E1D7030EDB82DED7030E14
:10AF2000DB84DBD7030EDB86D8D7030EDB88D5D7CF
:10AF30002A0EDF5C1BE1CCEC5BF01AEC5CF010E05D
:10AF4000030EDB803D683E68130EDBCF42F0140E2B
:10AF5000DBCF43F055EC68F0040E3BC0DBFF03D0C1
:10AF6000130E03EC5CF0D0EC5BF00BD0090EDB6A47
:10AF700071EC5CF003E0E5EC5CF0FAD7090E03EC51
:10AF80005CF0030EDBB0DB982E0EDF5C1BE1D0EC37
:10AF90005BF02A0EDF5C0BE1CCEC5BF01AEC5CF0B2
:10AFA00003E1130E55EC5CF0D0EC5BF00BD0090E16
:10AFB000DB6A71EC5CF003E0E5EC5CF0FAD7090EBB
:10AFC00055EC5CF0680EDF5C07E1D0EC5BF0680EDE
:10AFD000DF5C1DE1030E18D0740EDF5C17E07A0E03
:10AFE000DF5C14E0480EDF5C06E0540EDF5C03E03B
:10AFF0005A0EDF5C02E1020E07D06C0EDF5C03E04C
:10B000006A0EDF5C04E1010EA8EC5CF0C9DBDF50E6
:10B010006E0A01E17FD31E0A01E192D1200A01E10B
:10B020008FD13F0A01E149D11A0A01E146D10D0A47
:10B0300001E143D1200A01E140D13A0A01E13DD1C9
:10B04000200A01E13AD1260A01E135D10D0A01E1D8
:10B0500032D11A0A01E1D9D0200A4AE0300A1FE0B1
:10B06000460A0EE0250A01E083D3D950F90FE96EB4
:10B07000FF0EDA20EA6E010EEE5E000EEE5AEE5A78
:10B08000B6EC5CF0250EE66E95DB03E1011C01E1F8
:10B0900069D3B2EC5CF001E26BD3DB2A69D3080E12
:10B0A000DB6A040EDB50010806E2040EDB047AECD6
:10B0B0005CF0DB508BDB080EDB5009E0030EDB504D
:10B0C000010B05E172DB01E04DD3080EDB6A64DBA6
:10B0D000EFCFDFFF2AEC5DF003E1011C01E142D379
:10B0E000B2EC5CF001E3DB2A60DB01E141D33AD34F
:10B0F000070EDB5002080FE1F6EC5CF0030EBDEC2E
:10B100005CF00E0EEECFDBFF0F0EEECFDBFF100E6E
:10B11000EECFDBFF20D0F70EDBCF03F0F80EDBCF56
:10B1200004F0020E035E000E045AF70E03C0DBFFAC
:10B13000F80E04C0DBFF03C0E9FF04C0EAFFADEC7A
:10B140005CF0026A0E0E00C0DBFF0F0E01C0DBFFD9
:10B15000100E02C0DBFF0E0EDBCFE6FF0F0EDBCFC3
:10B16000E6FF100EDBCFE6FFE4EC7AF0E552E552A5
:10B17000E552130E3CC0DBFF140E3DC0DBFF060E94
:10B18000DB5005E0130EF1EC5CF001E26ADB15EC3C
:10B190005DF002E2130E37DBD8EC5CF006E0040E43
:10B1A000F1EC5CF002E2050E2EDB030EDBB005D005
:10B1B000FCDA01E0D7D2080EDB6A090EDB6A0E0E5C
:10B1C000DBCFF6FF0F0EDBCFF7FF100EDBCFF8FF64
:10B1D0000800F550DF6EDF5014E01BEC5DF011E26B
:10B1E0002AEC5DF003E1011C01E1BCD2BBDB01E311
:10B1F000DB2A090EDB2AD9500E0FE96E000ECBDBDD
:10B20000E7D7D3DA01E1B4D2ADD2C6DA110EEECF70
:10B21000DBFF120EEDCFDBFF110EDBCFE6FF120ED0
:10B22000DBCFE6FFD6EC7AF0E552E552130EF3CF12
:10B23000DBFF140EF4CFDBFF060EDB5004E0130E31
:10B24000D0DB01E20EDB15EC5DF002E2130EDBDA7F
:10B25000AFDB05E0040EC5DB02E2050ED4DA030E17
:10B26000DBB005D0A2DA01E07DD2080EDB6A090E60
:10B27000DB6A110EDBCFE9FF120EDBCFEAFFEFCF67
:10B28000DFFFDF5014E0D7DB12E2E4DB03E1011C57
:10B2900001E168D267DB01E3DB2A090EDB2A110E2C
:10B2A000DB2ADBCFE9FF120EE8E3DB2AE6D77DDA03
:10B2B00001E15ED257D2030EDB8E070EDB0410E1F4
:10B2C00095DB040E5ADB0A0EEECFDBFF0B0EEECF42
:10B2D000DBFF0C0EEECFDBFF0D0EEECFDBFF6CD0F5
:10B2E000070EDB5003082CE1030EDBAE0DD0B2DA03
:10B2F000020E76DAEFCF00F0016A026A036A00AE4E
:10B3000039D00168026835D0F70EDBCF01F0F80EB6
:10B31000DBCF02F0020E015E000E025AF70E01C0F2
:10B32000DBFFF80E02C0DBFF01C0E9FF02C0EAFF4D
:10B33000EFCF00F00A0E00C0DBFF0B0EDB6A38D047
:10B34000070EDB50020809E1030EDBAE04D059DB27
:10B3500002AE10D00ED055DB0DD0030EDBAE12D0F6
:10B3600079DA020E3DDAF9DA026A036A01AE02D036
:10B3700002680368E2DA0C0E02C0DBFF0D0E03C0A8
:10B38000DBFF1AD0F70EDBCF02F0F80EDBCF03F0B5
:10B39000020E025E000E035AF70E02C0DBFFF80E2B
:10B3A00003C0DBFF02C0E9FF03C0EAFFD6DAC5DA5B
:10B3B0000C0EDB6A0D0EDB6A060EDB5005E1010E9A
:10B3C000F36E050EF3CFDBFF150EDB6A160EDB6A9C
:10B3D000D950370F006E000EDA20016E390E00C012
:10B3E000DBFF3A0E01C0DBFF380EDB6A080EDB6ABA
:10B3F0000A0EAEDADF50780A12E0200A10E0280ABE
:10B400000CE0200A0AE03F0A06E00D0A02E0200AEA
:10B4100008E1020E05D0080E03D0080EDF26100E3C
:10B4200097DA030EDBBE02D0DB92DB94DB50800B9D
:10B4300024E08ADAD890030EEB50000A08E6000EEA
:10B44000EE5C000EEE58000EEE58000EEE5815E2BF
:10B4500013DA40684168426843689EEC7AF00A0E4D
:10B4600037C0DBFF0B0E38C0DBFF0C0E39C0DBFF33
:10B470000D0E3AC0DBFF2D0E08D0030EDBA202D06A
:10B480002B0E03D0DBA408D0200EF36E170EF3CFE3
:10B49000DBFF150EDB2A02D0170EDB6A050EDB5030
:10B4A00003E1B7D901E189D0980E006EF70E016E65
:10B4B000000E026E070EDBCF03F0046A056A066A0F
:10B4C00003C040F004C041F005C042F006C043F0A4
:10B4D000D3D964EC7BF000503724F36E0150382050
:10B4E000F46E02503920F86EF4CFF7FFF3CFF6FF79
:10B4F0000800090EF5CFDBFF580EDF5C0FE1610E8F
:10B50000F36E090E7BD90AE3200E006E090EDBCF25
:10B51000E7FF0050E75E090EE7CFDBFF070EDBCF4A
:10B5200000F0016A026A036A0FDA00C040F001C04D
:10B5300041F002C042F003C043F0EECF3BF0EECF4B
:10B540003CF0EECF3DF0EFCF3EF064EC7BF03EC040
:10B55000EDFF3DC0EDFF3CC0EDFF3BC0EFFF390EFE
:10B56000DBCFE9FFDB063A0EDBCFEAFF01E2DB06C9
:10B57000090EDBCFEFFF150EDB2A4BD995E1030E49
:10B58000DBA61DD06F0EDF5C06E1C1D918E3150EF6
:10B59000DB285BDA14D0780EDF5C09E0580EDF5C44
:10B5A00006E0620EDF5C03E0420EDF5C08E1020EA3
:10B5B000F36E160EF3CFDBFF02D0150EDB6A030E1F
:10B5C000DB50100B0EE0040EDBCF00F0050EDB505D
:10B5D000D880005406E2060EDB5003E1040EDB5077
:10B5E00034DA95D90AE2050EDBCFE7FF150EDB5002
:10B5F000E75E050EE7CFDBFF02D0050EDB6A040E27
:10B60000DBCF00F0160E45D9D880005414E2160E98
:10B61000DBCFE6FF150EDBCFE6FF040EDBCFE6FF48
:10B62000050EDB50E552E75CE552D880E754E55261
:10B63000D880E7545FD9030EDB50010B0BE1080EF5
:10B64000DB5008E0B2D801E08DD0080EDB50BED848
:10B65000080EDB6A170EDB5007E088D9170EF1D908
:10B6600003E1011C01E17ED0160EDB5016E07ED90D
:10B67000300EE66E9FD802E1011C74E077D9DFCF6F
:10B68000E6FF5CEC7AF0E552E552E552F4CF01F0CA
:10B690000001F31C02E1011C65E0050EDBCF00F0A8
:10B6A000160EDB50D880005409E2050EDBCFE7FF11
:10B6B000160EDB50E75E050EE7CFDBFF300EE66EC1
:10B6C000050ECBD94FE1390EDB2ADBCFE9FF3A0E6D
:10B6D00001E3DB2ADBCFEAFF090EEFCFDBFFDB5014
:10B6E0000EE044D9090EADD902E1011C3BE0390E50
:10B6F000DB2ADBCFE9FF3A0EEDE3DB2AEBD755D8A7
:10B7000031E1160EDBCFE6FF080EC3D8E552E72481
:10B710005DD82ED0070EDB50030A1CE0010A14E0AE
:10B72000030A07E07BD9DBCFEEFF020EDBCFEDFF94
:10B730001FD0F5D8056A03AE02D0046805682CD87E
:10B74000BCD805C0EEFF14D0EAD803BE046824D8E4
:10B75000B4D80ED063D9DBCFEFFF0AD07BD905E197
:10B76000011C03E1F368F46810D0FCD801E3DB2A84
:10B7700079D957EF57F0010EDBCF00F0020EDBCF87
:10B7800001F000C0F3FF01C0F4FF3B0EE15C02E2F8
:10B79000E16AE552E16ECBD029D9020EBDEF5CF033
:10B7A00061D90800F550DF6E1200200EE66E080E1B
:10B7B0002DEF5DF05CEC7AF0E552E552E552F3CF07
:10B7C00000F0F4CF01F00001F31C1200006E016ADA
:10B7D000D950010F4DD90050EE260150ED22120034
:10B7E000045E000E055AF70E04C0DBFFF80E05C01C
:10B7F000DBFF04C0E9FF05C0EAFF1200DBCFF4FF66
:10B80000F350F45C1200DB50E76E040EE7CFDBFF71
:10B8100012000A0EDBCF00F00B0EDBCF01F00C0E96
:10B82000DBCF02F00D0EDBCF03F000500110021051
:10B8300003101200130EEECFDBFF140EEDCFDBFF73
:10B84000130EDBCF00F0140EDBCF01F00001800EF1
:10B8500001141200F70EDBCF04F0F80EDBCF05F079
:10B860001200050EDB50E66ED950130F01D9E552D8
:10B87000E750EE6EED6A12000A0EDBCF3BF00B0EC6
:10B88000DBCF3CF00C0EDBCF3DF00D0EDBCF3EF0FE
:10B890001200DBCFE6FF150EDBCFE6FF050EDB5017
:10B8A000E552E724E552E7241200DB50CED8010E22
:10B8B000F36E060EF3CFDBFF1200EE50EFCFEAFF80
:10B8C000E96E02C0EEFF03C0EEFF04C0EEFF1200FF
:10B8D000D9CFE6FFDACFE6FFE1CFD9FFE2CFDAFF3B
:10B8E0001200DFCFE6FFE66A9EEC7BF0E552E55200
:10B8F000F3501200E76E080EE7CFDBFF1200EECF29
:10B9000000F0EECF01F0EFCF02F0036A1200050E57
:10B91000DBCF00F0150EDB50D88000541200010E72
:10B92000DBCF02F0020EDBCF03F0046A1200E55217
:10B93000E5CFDAFFE7CFD9FF12000A0E00C0DBFF28
:10B940000B0E01C0DBFF1200D9500A0F38EF5DF07B
:10B95000F36E070EF3CFDBFF1200EECF00F0EFCF58
:10B9600001F01200010EDB2A020E1200FC0EDBCFEA
:10B97000E6FFFD0EDBCFE6FF1200005E000E015A6F
:10B98000F70E00C0DBFFF80E01C0DBFF00C0E9FFCF
:10B9900001C0EAFF1200DA20EA6EEF2AEECFF6FFCE
:10B9A000000EEF22EECFF7FFEF22EECFF8FF1200EE
:10B9B000040EDBCFE6FF130EDB50E552E75C9ADFA7
:10B9C000DB5004DF060EDB501200090EDB500A0DBF
:10B9D000F350DF24D00FE76E090EE7CFDBFFD0EF87
:10B9E0005BF0DB50F36E050EFEEF5BF0F70EDBCF86
:10B9F00000F0F80EDBCF01F01200DFCFE6FFDAEF48
:10BA00005BF028DF030EECDE7FEF5CF02CEC57F0F0
:10BA1000E552E552E552E55200091200BDDEEE5056
:10BA2000EFCFEAFFE96E010E1200130EDB50F36E4A
:10BA3000040EFEEF5BF0040EDB50F36E090EFEEF1A
:10BA40005BF0DBCFE6FFDAEF5BF0E76E050EE7CFEA
:10BA5000DBFF12008BDFFDEF5CF0DBCFE6FF86DF64
:10BA600006EF5DF0D950F90FE96EFF0ECBEF5CF0F9
:0ABA7000E96E000EDA20EA6E120003
:06BA7A00FBEC61F011007D
:10BA8000D8CFE4FFE0CFE4FFE46EFBEC61F0E550DB
:10BA9000E5CFE0FFE5CFD8FF1000CEDB4EEC61F044
:10BAA000FDD7F1EC61F002EC62F0BC0E005C020E1E
:10BAB000015807E309EC62F0BC0E025C020E035869
:10BAC0000DE202EC62F009EC62F00250005C0350FF
:10BAD000015802E2010E03D0020E01D0000EE55221
:10BAE000E7CFD9FF1200F1EC61F0420EE126BDEC88
:10BAF00050F00101EE510001605D006E61510101E5
:10BB0000EF55016E00500001BC270150BD2301011B
:10BB1000F0510001625D006E63510101F155016E4B
:10BB200000500001BE270150BF230001C80EA51917
:10BB300039E1A65137E1E66AE66A240EE66EEB0EBD
:10BB4000F6EC61F0BCC000F0BDC001F0C80E426E62
:10BB5000436ABCC03DF0BDC03EF0E6EC61F00D0EA6
:10BB6000026EEB0EEADB020EC9EC61F0BEC000F023
:10BB7000BFC001F0C80E426E436ABEC03DF0BFC0F8
:10BB80003EF0E6EC61F0F60E026EEA0ED6DB030E36
:10BB9000C9EC61F00001BC6BBD6BBE6BBF6B0001FB
:10BBA000A56BA66BE66AB9DB08E260C0EEF161C086
:10BBB000EFF162C0F0F163C0F1F1030EE66EADDBB0
:10BBC00003E20001060E9B6F0001A52B000EA623C9
:10BBD000420EE15C02E2E16AE552F3D3010EE66E49
:10BBE0001AEC62F0020EE66ED1EC75F0E552F3CF7E
:10BBF000B9F0F4CFBAF0F3CFE6FFF4CFE6FFB7C069
:10BC0000E6FFB8C0E6FF4DDF10EC62F00001966F72
:10BC1000E85005E0A05103E1010EA06FA0DB9651B2
:10BC200002E1A06B000CA0510AE0A4DBE83407E2BB
:10BC300000506408000E015402E291DB020CA05196
:10BC40000BE098DBD880E85004E79C0E005CFF0E08
:10BC5000015802E284DB010E1200C3DB230EE12651
:10BC6000E66AE66AE00EE66EEA0EC0DBB7DFE76E74
:10BC7000020EE7CFDBFFDB50020806E100019C511A
:10BC800000080AE29C0708D0020EDB0405E1050E5D
:10BC900000019C5D01E29C2B00019D519C5D03080D
:10BCA00004E1020E9D5D01E29D2B9D519C5D04E12E
:10BCB0009D51000801E29D07010EDB6A9DC0DFFF78
:10BCC000040E00019D25DF5C26E2DFCFE6FFE66A79
:10BCD000CA0E006EEA0E016E026A00C0E6FFE66E52
:10BCE00002C0E6FFD950030FA0DBB7EC79F0036E7A
:10BCF000070EE15E0350DF5000019C5D04E158DB5C
:10BD000002EC6EF003D054DBF3EC6DF089DB010E36
:10BD1000DB2ADF2AD5D7030EE66E43DB05E20001FE
:10BD2000060E9B6F010E9C6FE66A3BDB04E200018E
:10BD30009B699CC0EBF1230EE15C02E2E16AE552F3
:10BD400040D3D9CFE6FFE1CFD9FF070EE1260001AE
:10BD50009B51090A01E132D2010A01E1E4D10F0A43
:10BD600001E1DFD1010A01E1D9D0030A01E1D0D01C
:10BD7000010A70E0050A67E0010A01E021D210EC37
:10BD80006DF0E66A69EC6DF0E552E66AE66AB40EBB
:10BD9000E66EEA0EE66ED5EC6DF0E552E552E55240
:10BDA000E552E66A010EE66E3A0EE66EEB0EE66EC0
:10BDB000D5EC6DF0E552E552E552E552E66A020E29
:10BDC000E66E9D0EE66EEA0EE66ED5EC6DF0E5527F
:10BDD000E552E552E552E66A030EE66E3A0EE66E6D
:10BDE000EB0EE66ED5EC6DF0E552E552E552E5520C
:10BDF000E66A040EE66E890EE66EEA0EE66ED5EC95
:10BE00006DF0E552E552E552E552E66A050EE66E42
:10BE1000720EE66EEA0EE66ED5EC6DF0E552E55276
:10BE2000E552E552E66A060EE66E5C0EE66EEA0E36
:10BE3000E66ED5EC6DF0E552E552E552E5520001B3
:10BE4000010E9B6FBED1C7D9010803E10001040EAA
:10BE50009B6FB7D1E66AE66A460EE66EEA0EE66EBC
:10BE6000D5EC6DF0E552E552E552E552E66A010E79
:10BE7000E66E300EE66EEA0EE66ED5EC6DF0E5523B
:10BE8000E552E552E552E66A020EE66E1A0EE66EDD
:10BE9000EA0EE66ED5EC6DF0E552E552E552E5525C
:10BEA000E66A030EE66E040EE66EEA0EE66ED5EC6A
:10BEB0006DF0E552E552E552E552E66A040EE66E93
:10BEC000EE0EE66EE90EE66ED5EC6DF0E552E5524B
:10BED000E552E552E66A050EE66E3A0EE66EEB0EA8
:10BEE000E66ED5EC6DF0E552E552E552E552E66AB4
:10BEF000060EE66E5C0EE66EEA0EE66ED5EC6DF0B2
:10BF0000E552E552E552E5520001050E9B6F59D10D
:10BF100062D9010802E100019B2B53D15FDEE76E7D
:10BF2000060EE7CFDBFF060EDB50020807E100013B
:10BF30009C51000802E200019C0709D0060EDB04B8
:10BF400006E1030E00019C5D02E200019C2BE66A03
:10BF5000E66AD80EE66EE90EE66ED5EC6DF0E552B7
:10BF6000E552E552E552E66A010EE66EA3C0E6FF31
:10BF7000A4C0E6FFD5EC6DF0E552E552E552E5527E
:10BF800000019C510EE1E66A020EE66EC20EE66EFC
:10BF9000E90EE66EE4EC6DF0E552E552E552E5524D
:10BFA0000DD0E66A020EE66EC20EE66EE90EE66E91
:10BFB000D5EC6DF0E552E552E552E55200019C05E5
:10BFC0000EE1E66A030EE66EAC0EE66EE90EE66E74
:10BFD000E4EC6DF0E552E552E552E5520DD0E66A2B
:10BFE000030EE66EAC0EE66EE90EE66ED5EC6DF075
:10BFF000E552E552E552E552020E00019C5D0EE16C
:10C00000E66A040EE66E960EE66EE90EE66EE4EC67
:10C010006DF0E552E552E552E5520DD0E66A040EA8
:10C02000E66E960EE66EE90EE66ED5EC6DF0E55224
:10C03000E552E552E552030E00019C5D0EE1E66A11
:10C04000050EE66E800EE66EE90EE66EE4EC6DF02F
:10C05000E552E552E552E5520DD0E66A050EE66E70
:10C06000800EE66EE90EE66ED5EC6DF0E552E55217
:10C07000E552E552E66A060EE66EA3C0E6FFA4C0EE
:10C08000E6FFD5EC6DF0E552E552E552E552E66A81
:10C09000D1EC75F0E552DE52F3CFDEFFF4CFDDFFD9
:10C0A000DD52010EDBCF00F0020EDBCF01F0580EA7
:10C0B000005C020E015834E200019C51030A2EE09C
:10C0C000010A1DE0030A08E0010A01E029D000018D
:10C0D0009B690101EB6B24D00001090E9B6F640E7C
:10C0E000E66EE66AECEC6CF0E552E552E66A69EC65
:10C0F0006DF0E55200019C6B00019D6B11D00001B9
:10C10000070E9B6F640EE66EE66AECEC6CF0E5528F
:10C11000E552E66A69EC6DF0E55202D0FF0000D00E
:10C1200050D0E1DC4ED0E66869EC6DF0E552E66A8D
:10C13000E66A6A0EE66EE90EE66EE4EC6DF0E55234
:10C14000E552E552E552E66A020EE66E540EE66EE0
:10C15000E90EE66EE4EC6DF0E552E552E552E5528B
:10C16000E66A030EE66E3E0EE66EE90EE66EE4EC5F
:10C170006DF0E552E552E552E552E66A040EE66ED0
:10C18000280EE66EE90EE66EE4EC6DF0E552E5523F
:10C19000E552E552D00EE66E070EE66EECEC6CF062
:10C1A000E552E5520001060E9B6FE66A69EC6DF000
:10C1B000E5520101EB6B0101F56B03D04EDD01D0BF
:10C1C00000D0070EE15C02E2E16AE552E16EE55261
:10C1D000E7CFD9FF120081B01FD00001A8C000F046
:10C1E000A9C001F0AAC002F0ABC003F0A82B000E5A
:10C1F000A923AA23AB23D880D00E0054070E0154E4
:10C20000000E0254000E035416E2A86BA96BAA6B31
:10C21000AB6B010EA76F000C0001A7050CE1A85144
:10C22000A911AA11AB1102E1A76B010CA807000E1E
:10C23000A95BAA5BAB5B000CD4D8020EE1260F0E03
:10C24000C112580EDE6E020EDD6E9B8CDFCF00F049
:10C25000DF06010EDBCF01F001E2DB06005001102A
:10C26000F5E10F014869496906D8020EE15C02E276
:10C27000E16AE552A6D0949C8B8C828CCEEC75F052
:10C2800039EC76F05AEC73F08B8E828EE66AC7EC4E
:10C2900062F0E5520101EB6B4EEF53F0A2D8020EB3
:10C2A000E126FF0E00019B5D2DE10101F45106E145
:10C2B0000101F55103E1010EE66E01D0E66A0A0EB6
:10C2C000E66ED70EE66E230EE66E3D0EE66EFEECD3
:10C2D00050F0006E050EE15E005087EC65F0000145
:10C2E000D60504E1D66B0001080E9B6F030EE66EC7
:10C2F00014D808E20001060E9B6F9C6BE66A69EC9D
:10C300006DF0E5526BEC79F0000901E01ADD020EE8
:10C31000E15C02E2E16AE55254D0D1EC75F0E552FD
:10C32000F3CFDEFFF4CFDDFFDECF00F0DDCF01F095
:10C33000580E005C020E01581200036E046A02C01F
:10C34000E6FFE66E04C0E6FFD950020F6ED8B7ECE8
:10C3500079F0056E070EE15E0550E66A12000001F5
:10C36000B951B75D00019E6F0001BA51B859000183
:10C370009F6F12000001B951B75D026EB851BA55F6
:10C38000036E000102509E5D006E03509F59016EC6
:10C390001200E66ED950020F48D8F3EC6DF010EFA2
:10C3A00062F048D80001580EF35C020EF4581200F7
:10C3B000E66A010EDB50020FE66ED950030F15EF4F
:10C3C00062F0E16EE552E7CFD9FF12002FEC68F082
:10C3D0003DC000F03EC001F03DC0E6FF3EC0E6FFBC
:10C3E0001200D9CFE6FFE1CFD9FF1200E66ED5ECFF
:10C3F0006DF010EF62F0DACFE4FFE652E552E5CFE0
:10C40000DAFF1200FD0EDBCF00F0FE0EDBCF01F0F5
:10C410001200FB0EDBCF02F0FC0EDBCF03F01200AC
:10C42000E552E552E552E5521200E66E000EDA20C2
:10C43000E66E1200D1EC75F0E552F3CFB7F0F4CF11
:04C44000B8F012003E
:0CC444009CDBFC0EDB5030E1FA0E34EC07
:10C4500066F054EC66F0FB0EDB5044EC66F0F90E2F
:10C46000DB50006E016AD890015001E69BDB03E2CD
:10C4700049EC66F004D0F90EF7DB040E7BDBF90E15
:10C48000DB50030F4FEC66F0FA0EDB5004E16BDB80
:10C49000E20EEE6EED68FB0EDB507F082DE163DBF4
:10C4A000020EE926000EEA22960E24D0F90EDCDBFD
:10C4B00054EC66F0F90EDB50030FE6DBFA0EDB50AE
:10C4C000006E016AD890015001E66CDB02E2E1DB0C
:10C4D00004D0FA0EC9DB040E4DDBFB0EDB50DFDBB4
:10C4E000FB0EDB503F0808E13EDB060EE926000E9E
:10C4F000EA22500EEE6EED6ABCD341DB040EE1265B
:10C50000020EDB6A030EDB6A3FDBD890015001E6C6
:10C5100049DB36E239DBB00E002449DB020E47DB93
:10C52000100E45DBDE6ADD6A36DB04E6800E005C59
:10C53000000E01581FE2DECF02F0DDCF03F0800EC7
:10C540003D6E3E6A020EDBCF42F0030EDBCF43F0BE
:10C5500055EC68F002503B24006E03503C20CEDBCB
:10C56000EF50E66E66EC6DF0E552DF2A010EDCE37B
:10C57000DB2ADAD7020EDB2A030EC6E3DB2AC4D796
:10C58000040EE15C02E2E16AE552E16E72D3F7DA91
:10C59000020EE126DE6ADD6AFEDA04E6000E005CC9
:10C5A000040E01580FE2DE500001D425E96EDD5083
:10C5B000D521EA6EFE0EDBCFEFFFDF2A010EECE3A2
:10C5C000DB2AEAD7020EE15C02E2E16AE552E16EA3
:10C5D00050D3D5DAFD0EDB04B3DA02E0B9DAFEE1BE
:10C5E0008ADB3BDBDB04E840A8DADB04A9DA02E003
:10C5F000AFDAFEE18CDBDB04DFDAFE0FA1DA02E06A
:10C60000A7DAFEE1F5DAFE0FD7DAFE0F99DA02E0DB
:10C610009FDAFEE1E3DAFE0FCFDAFD0F91DA02E0F6
:10C6200097DAFEE1E5DAFD0FC7DAFD0F89DA02E0FD
:10C630008FDAFEE1D3DAFD0F46DB02E089DAFEE1B4
:10C64000CADA75DB02E084DAFEE1C5DA73DB02E008
:10C650007FDAFEE1C0DA33DB02E07ADAFEE1BBDA50
:10C66000050F31DB02E074DAFEE1B1DA60DB02E0F3
:10C670006FDAFEE1ACDA5EDB02E06ADAFEE1A7DA4D
:10C680001EDB02E065DAFEE1A2DA050F28DB02E03C
:10C690005FDAFEE155DB02E05BDAFEE154DB02E04B
:10C6A00057DAFEE153DB12DB02E052DAFEE132DB65
:10C6B000D8DA02E04DDAFEE19EDA4BDB02E048DA3E
:10C6C000FEE196DA46DB02E043DAFEE187DA41DB9F
:10C6D00002E03EDAFEE192DA070FE84082DA02E099
:10C6E00037DAFEE1046EFE0EDB2800DB02E030DA12
:10C6F000FEE132DA060FB1DADB28EBDA02E028DA03
:10C70000FEE18DDA060FE5DA02E022DAFEE191DAE7
:10C71000060F26D2B5DA69DA02E01ADAFEE15BDA50
:10C7200009DB02E015DAFEE156DAC9DA02E010DAD6
:10C73000FEE151DA050FC7DA02E00ADAFEE179DA42
:10C74000020FC7DA02E004DAFEE173DA060FE8400E
:10C7500048DA02E0FDD9FEE1E1DA7FDADB28BCDA73
:10C7600002E0F6D9FEE147DA070FA3DA02E0F0D9DA
:10C77000FEE141DAB7DA02E0EBD9FEE13CDA050F7F
:10C780009BDA02E0E5D9FEE1046EFE0EDB04DDD9A2
:10C79000040F92DA02E0DCD9FEE1DED9FE0FD5D932
:10C7A000040F8ADA02E0D4D9FEE1D6D9FD0FCDD943
:10C7B000040F95DA02E0CCD9FEE19DDA01DA080F28
:10C7C000BFD902E0C5D9FEE113DA080FE84009DA63
:10C7D00002E0BED9FEE19BDADB287EDA02E0B8D9BE
:10C7E000FEE1FCD9070F6FDA02E0B2D9FEE106DA0A
:10C7F0009EDA02E0ADD9FEE101DA9CDA02E0A8D9C6
:10C80000FEE1FCD95CDA02E0A3D9FEE1F7D995DAC2
:10C8100002E09ED9FEE1F2D99FDA02E099D9FEE169
:10C82000FED985DA02E094D9FEE1F9D983DA02E093
:10C830008FD9FEE1F4D943DA02E08AD9FEE1EFD9DB
:10C840007CDA02E085D9FEE1EAD986DA02E080D915
:10C85000FEE1BDD96CDA02E07BD9FEE1B8D96ADA33
:10C8600002E076D9FEE1B3D92ADA02E071D9FEE11D
:10C87000AED963DA02E06CD9FEE1A9D96DDA02E043
:10C8800067D9FEE1DBD953DA02E062D9FEE1D6D9FD
:10C8900051DA02E05DD9FEE1D1D911DA02E058D9CE
:10C8A000FEE1CCD94ADA02E053D9FEE1C7D954DA25
:10C8B00002E04ED9FEE1C6D93ADA02E049D9FEE1FA
:10C8C000C1D938DA02E044D9FEE1BCD9F8D902E096
:10C8D0003FD9FEE1B7D931DA02E03AD9FEE1B2D967
:10C8E0003BDA02E035D9FEE1B1D921DA02E030D9F4
:10C8F000FEE1ACD91FDA02E02BD9FEE1A7D9DFD9DE
:10C9000002E026D9FEE1A2D918DA02E021D9FEE13F
:10C910009DD9060FCED902E01BD9FEE11DD90B0F20
:10C9200014D9E0D902E014D9FEE116D90B0F0DD9C4
:10C93000050FC2D902E00CD9FEE10ED90C0F05D9C2
:10C94000040F0ED19DD9FCD802E002D9FEE104D932
:10C95000BDD902E0FDD8FEE1046EFE0EDB28B6D99B
:10C9600002E0F6D8FEE1ECD902E0F2D8FEE1EBD924
:10C9700002E0EED8FEE1EAD9D4D902E0E9D8FEE13E
:10C98000EBD8B4D902E0E4D8FEE1C1D9DB289BD9C9
:10C9900002E0DED8FEE11FD9020F95D902E0D8D817
:10C9A000FEE11CD9C4D902E0D3D8FEE114D9D7D90D
:10C9B00002E0CED8FEE13DD9D2D902E0C9D8FEE1ED
:10C9C0001AD9CDD902E0C4D8FEE112D9C8D902E003
:10C9D000BFD8FEE103D9030FC3D052D9B1D802E0CA
:10C9E000B7D8FEE19BD99DD902E0B2D8FEE1046E32
:10C9F000FE0EDB287BD902E0ABD8FEE17CD92DD935
:10CA0000DB2861D902E0A4D8FEE1E5D8020F5BD9AA
:10CA100002E09ED8FEE1E2D88AD902E099D8FEE190
:10CA200008D99DD902E094D8FEE1E2D883D902E08A
:10CA30008FD8FEE1E0D8040F93D022D9F7D802E0D6
:10CA400087D8FEE1C8D8020F37D902E081D8FEE1CD
:10CA5000C2D8040F2ED902E07BD8FEE1B8D842D963
:10CA600002E076D8FEE1B3D8050F39D902E070D8DC
:10CA7000FEE166D902E06CD8FEE168D9A1D8F1D810
:10CA800002E066D8FEE1B4D864D902E061D8FEE1E4
:10CA9000B5D8070F0ED902E05BD8FEE19CD822D9A9
:10CAA00002E056D8FEE197D8050F19D902E050D818
:10CAB000FEE121D985D8BAD802E04AD8FEE187D86C
:10CAC000020F0AD902E044D8FEE188D8070F07D93F
:10CAD00002E03ED8FEE11ED9A6D802E039D8FEE138
:10CAE00076D8040FFCD802E033D8FEE12CD902E05E
:10CAF0002FD8FEE10FD9B5D802E02AD8FEE17BD8C5
:10CB000028D902E025D8FEE169D8070F29D037D807
:10CB1000E652E66A3CDDE552200EE66E400EE66E19
:10CB200058DDE552E552140EE66E370EE66EF2DD84
:10CB3000E552E552E2DCE5529CD064D8FD0E1200CD
:10CB4000070B056E010E0552120087D8DB5012004C
:10CB5000E846FE0B05061200046EFE0EDB501200C6
:10CB6000E84050D886D0FD0EDBCFE9FFFE0EDBCFCC
:10CB7000EAFF1200E926000EEA2254EF66F0D9CF50
:10CB8000E6FFE1CFD9FF1200020EDBCF00F0030E6B
:10CB9000DBCF01F01200DECF00F0DDCF01F0D89046
:10CBA00001501200080E005C000E01581200E66EE3
:10CBB00063EC6DF0E5521200E840BFDFDB5012007D
:10CBC000026E036AFD0EDB40B8DFDB501200C4DFEB
:10CBD000070FA5EF65F0C0DFA5EF65F0B7D8A5EFAB
:10CBE00065F0ABDFDB28A0EF65F0030FA0EF65F089
:10CBF00082D8A5EF65F092D8A5EF65F0ADDF050FFF
:10CC0000A5EF65F0E840E8401F0B800D0250F324CB
:10CC1000006E0350F42072D80450EF1212009CDF13
:10CC2000060FA5EF65F0040FA0EF65F0020FA0EF6F
:10CC300065F0046EFE0EDB28A5EF65F08DDF080FB2
:10CC4000A5EF65F089DF090FA5EF65F085DF0A0F15
:10CC5000A5EF65F0050FA0EF65F0026E036AFD0E0B
:10CC60001200070FA0EF65F0DB50F80FE66EB3EF90
:10CC700065F0E552E7CFD9FF1200060FA0EF65F08F
:10CC80007EDFFD0EDB501200E66E6DDF020EBAEFA6
:10CC900065F069DF040EEB6A050EEB6A1200E66EC2
:10CCA00062DF060EBAEF65F0E552E750EE6EED6A10
:10CCB000120082DFF5EF65F07FDF13EF66F0040FFF
:10CCC0007BDF2AEF66F078DF16EF66F079DFA0EF02
:10CCD00065F072DF3DEF66F06FDF31EF66F06CDF1D
:10CCE000A0EF65F0030F68DF2AEF66F0B6DFDB2800
:10CCF000E840F1EF65F030DF030F1200016E000134
:10CD0000D4510024E96ED5510120EA6E12001ED8DC
:10CD10002DEF66F021DF050FE0EF65F01DDF020F5C
:10CD20001200026E036AFD0EDB40F1EF65F0020FA8
:10CD300059EF66F0030F5CEF66F0050F69EF66F0E0
:10CD4000EDDF66EF66F0D7DF66EF66F005DF040F14
:10CD50001200070F6CEF66F0060F63EF66F0030F2B
:04CD600059EF66F031
:0CCD6400369E05D0369E3EAE02D03E6CDE
:10CD7000368E3EC038F0376A486A476A860E396E8A
:10CD80003A6A2CEF69F0369E08D0369E3EAE05D04A
:10CD90003D6C3E1EE86A3E22368E3EC038F03DC0F5
:10CDA00037F0486A476A8E0E396E3A6A2CEF69F09E
:10CDB000447E366A68EC69F080EC69F036B610EFB4
:10CDC00069F036A20AD036AA03D036BE10EF69F059
:10CDD00036A41CEF69F019EF69F036AA05D036AC1D
:10CDE0001CEF69F019EF69F036A00AD036A808D018
:10CDF00036BE04D036A402D025EF69F029EF69F0E1
:10CE0000476A3A6A44503F5C466E10E33CC048F0C3
:10CE10003DC037F03EC038F03FC045F041C03CF067
:10CE200042C03DF043C03EF0363A09D041C048F020
:10CE300042C037F043C038F044C045F0466C369EDF
:10CE400036BC368E45C039F036B058EF69F01A0E50
:10CE5000466058EF69F0396A3F6A36A408D03C6CE6
:10CE60003D1E3E1E3F1EE86A3D223E223F2236AC5A
:10CE700008D0486C371E381E391EE86A372238221F
:10CE800039223B6A465207E03F343E323D323C3263
:10CE90003B32462EF9D73C5048263D5037223E5073
:10CEA00038223F5039223BC047F0369E39AE0BD076
:10CEB000476C481E371E381E391EE86A4822372242
:10CEC00038223922368E39A006D0D880383237320F
:10CED00048324732452A45C039F02CEF69F0366AAE
:10CEE00068EC69F080EC69F036B610EF69F036A2B4
:10CEF00005D036BA10EF69F017EF69F036BA23EFB4
:10CF000069F036A005D036B810EF69F023EF69F06C
:10CF100036B817EF69F03A6A7F0E3F24396EE86A37
:10CF20003A224450395EE86A3A5A1A0E456E3F6A10
:10CF3000476A486A376A386A41503C5E42503D5AF7
:10CF400043503E5A000E3F5A09E741503C2642509A
:10CF50003D2243503E22000E3F2201D0478AD89006
:10CF60003C363D363E363F36D89047364836373623
:10CF70003836452EE1D73E503D103C10D8A4478AA4
:10CF80002CEF69F0366A68EC69F080EC69F036B62F
:10CF900010EF69F036A205D036B810EF69F017EF40
:10CFA00069F036AA05D036B010EF69F017EF69F0D6
:10CFB00036B002D036A802D023EF69F03A6A445066
:10CFC0003F24396EE86A3A227E0E395EE86A3A5AA0
:10CFD000476A486A376A386A43503E02F4CF38F0ED
:10CFE000F3CF37F042503E02F3504826F450372238
:10CFF000000E382243503D02F3504826F4503722A9
:10D00000000E382241503E02F3504726F450482289
:10D01000000E3722382242503D02F3504726F4508A
:10D020004822000E3722382243503C02F350472654
:10D03000F4504822000E3722382241503D02F4506D
:10D040004726000E48223722382242503C02F45034
:10D050004726000E4822372238222CEF69F0356A25
:10D0600043AE38EF68F0426C431EE86A4322351E37
:10D070003EAE40EF68F03D6C3E1EE86A3E22351E33
:10D0800088EC7BF03EBE50EF68F035AE000C3D6C96
:10D090003E1EE86A3E22396C3A1EE86A3A22000CCB
:10D0A00035BE47EF68F03688FF0C3EC048F03DC003
:10D0B00047F03D504202F4CF3CF0F3CF3BF03E50FE
:10D0C0004302F4CF3EF0F3CF3DF04202F3503C2652
:10D0D000F4503D22E86A3E2247504302F3503C267A
:10D0E000F4503D22E86A3E2243AE7BEF68F04750A1
:10D0F0003D5E48503E5A48AE000C42503D5E4350A3
:10D100003E5A000C366A68EC69F036B68CEF68F06F
:10D1100036A20AD036B403D07F0E3E6E19D0800EF0
:10D120003E6E16D03E6A14D036B0FCD7870E3F60F4
:10D13000F1D77E0E3F64F6D7860E3F5C04E0D890B0
:10D140003E323F2AF9D736A403D03E6C3EAEEAD732
:10D150001200BBEC68F036B6000C36B0000C36B4EA
:10D16000000C010CBBEC68F036B6000C36B0000CBD
:10D1700036A4000C010C366A68EC69F080EC69F0AA
:10D1800036B6120036AE08D036A004D036A802D08B
:10D19000368012003690120044503F5C0BE1435041
:10D1A0003E5C08E142503D5C05E141503C5C02E1DF
:10D1B00036801200D8A002D0368E10D03F5044C026
:10D1C0003FF0446E3E5043C03EF0436E3D5042C07F
:10D1D0003DF0426E3C5041C03CF0416E44503F5CDB
:10D1E00010E0FF0F09E0369036B403D036AE368437
:10D1F000120036AE36941200442AD890433242329E
:10D20000413241503C5E42503D5A43503E5A3EBE30
:10D21000EAD7D8903C363D363E363F2EF8D7C8D7B1
:10D220007F0E3F6EFF0E3E6E3D6E3C6E12007F0E17
:10D2300036BEFF0E3F6E02D07F0E3F6E800E3E6EFA
:10D240003D6A3C6AF3D736AE04D0800E3F6E3E6A2C
:10D25000F7D73F6A3E6AF4D7385037104810471066
:10D26000F8E03ABEF0D738BE0CD039503A10EBE0B7
:10D27000D89047364836373638363906D8A03A0679
:10D28000F2D73A50D4E13928D2E047AE11D07F0E20
:10D29000471402E148A00CD0482AE86A3722382215
:10D2A00007E3D880383237324832392A3928BFE08C
:10D2B0003950C9E048C03CF037C03DF038343E6ECC
:10D2C00039303F6E3E323F9E36BE3F8E16EF69F0DC
:10D2D0003E363F3602E33684367E06E136803F6ACC
:10D2E0003E6A3D6A3C6A12003F2803E0D8803E3225
:10D2F0001200D8903E3202E13682120036861200C9
:10D300004336443602E3368C367E06E13688446A7C
:10D31000436A426A416A1200442803E0D8804332DB
:10D320001200D8904332EAE1368A1200369E0CD0C1
:10D33000369E3EAE09D03B6C3C1E3D1E3E1EE86A4A
:10D340003C223D223E22368E3EC038F03DC037F0B2
:10D350003CC048F03BC047F09E0E396E3A6A2CEF55
:10D3600069F0366A68EC69F036B6BBEF69F036A250
:10D370000ED036B405D07F0E3E6EFF0E3D6E1FD030
:10D38000800E3E6E3D6A1BD03E6A3D6A18D036B0B4
:10D39000FBD78F0E3F60EDD77E0E3F64F5D78E0E24
:10D3A0003F5C05E0D8903E323D323F2AF8D736A4A4
:10D3B00006D03D6C3E1EE86A3E223EAEE5D7120026
:10D3C000366A68EC69F036B6EAEF69F036A20FD03B
:10D3D00036B407D07F0E3E6EFF0E3D6E3C6E3B6E48
:10D3E00025D0800E3E6E01D03E6A000EF6D736B0D4
:10D3F000FBD73B6A9F0E3F60EBD77E0E3F64F4D7AE
:10D400009E0E3F5C07E0D8903E323D323C323B32CC
:10D410003F2AF6D736A40AD03B6C3C1E3D1E3E1E6A
:0ED42000E86A3C223D223E223EAEDED71200DC
:02D42E00D9CF54
:10D43000E6FFDACFE6FFE1CFD9FFE2CFDAFF220E37
:10D44000E12402E3E168E652E16ED950130FE66E83
:10D45000000EDA20E66EA8DA24EC78F0006E060EF4
:10D46000E15C02E2E16AE552E16E0050E76E0E0E09
:10D47000E7CFDBFFDB50840B0CE0210E0001D26F05
:10D48000D36B0F0EDB68100EDB68110EDB687F0EAE
:10D490006ED08ADA36DA020E3BC0DBFF030E3CC0E8
:10D4A000DBFF040E3DC0DBFF050E3EC0DBFF87DA6D
:10D4B000416A100E426E490E436E460E14DAB2EC0B
:10D4C00068F0010A32E07BDA67DA0DDA6FEC67F0B8
:10D4D000BFD9060EDBCF3CF0070EDBCF3DF0080EC8
:10D4E000DBCF3EF0090EDBCF3FF0E0EC69F098ECCB
:10D4F00069F0AED964DA060EDBCF08F0070EDBCF99
:10D5000009F0080EDBCF0AF0090EDBCF0BF044DA8E
:10D51000446E08C03CF009C03DF00AC03EF00BC0AC
:10D520003FF048DAD8EC66F0C4D9F90EDB5012E0CF
:10D530000E0EDB040BE1FA0EDBCF00F0FB0EDBCFAF
:10D5400001F0FC0EDBCF02F0FD0E52D167D9436A29
:10D55000F8D947D00E0EDB0419E10F0EDB6A100E6E
:10D56000DB6A800EF36E110EF3CFDBFF3F0EF36E1E
:10D57000120EF3CFDBFF0F0EDBCF00F0100EDBCF70
:10D5800001F0110EDBCF02F0120E32D1190EDB6A60
:10D5900045D9800E436ED5D9006A016A026A3F0EF2
:10D5A000036ED950060FE96E000EDA20EA6EEECF58
:10D5B0003CF0EECF3DF0EECF3EF0EFCF3FF000C0BD
:10D5C00041F001C042F002C043F003C044F0D8EC87
:10D5D00066F03FC0EDFF3EC0EDFF3DC0EDFF3CC03B
:10D5E000EFFFDF50010B0AE0190EDB5002E0000EE6
:10D5F00001D0010EE76E190EE7CFDBFF8CD9060EC6
:10D60000DBCF0CF0070EDBCF0DF0080EDBCF0EF0FA
:10D61000090EDBCF0FF0416A426A490E436E400E9D
:10D62000446E0CC03CF00DC03DF00EC03EF00FC08B
:10D630003FF0C2EC67F05CD9A6D995D9D8EC66F07A
:10D6400077D9060EDBCF14F0070EDBCF15F0080EEE
:10D65000DBCF16F0090EDBCF17F0220E416EAA0EBB
:10D66000426E7D0E436E3A0E446E14C03CF015C0FF
:10D670003DF016C03EF017C03FF0C2EC67F03CC072
:10D6800010F03DC011F03EC012F03FC013F0EDD8D5
:10D69000D8EC66F00A0E3CC0DBFF0B0E3DC0DBFF92
:10D6A0000C0E3EC0DBFF0D0E3FC0DBFFD9500A0F52
:10D6B000E96E000EEAD825D93BC000F03CC001F06D
:10D6C0003DC002F03EC003F0416A426A800E436EE4
:10D6D000390E446E3BC03CF04FD9B2EC68F0010A01
:10D6E00013E1D9500A0FE96E000EDA20EA6E020E3D
:10D6F000EECFDBFF030EEECFDBFF040EEECFDBFF42
:10D70000050EEECFDBFF68D0E1D80A0EDBCF41F08B
:10D710000B0EDBCF42F00C0EDBCF43F00D0EDBCF58
:10D7200044F0C2EC67F01A0E3CC0DBFF1B0E3DC09C
:10D73000DBFF1C0E3EC0DBFF1D0E3FC0DBFF5B0EA0
:10D740003C6E9C0E3D6E2E0E3E6E360E3F6E72D8B7
:10D75000CFD8220E416EB20E426E4F0E436EB90EFE
:10D7600032D99ED83E0E416E870E426E080E436E31
:10D770003C0E29D9DDD8A40E416EAA0E426E2A0EA7
:10D78000436EBE0E20D91E0E3CC0DBFF1F0E3DC0F7
:10D79000DBFF200E3EC0DBFF210E3FC0DBFF0A0E89
:10D7A000DBCF00F00B0EDBCF01F00C0EDBCF02F075
:10D7B0000D0EDBCF03F08AD81E0EDBCF41F01F0E1B
:10D7C000DBCF42F0200EDBCF43F0210EDBCF44F065
:10D7D000F1D8D9EC66F06DD8190EDB5008E09BD873
:10D7E000416A426A800E436EBF0EF0D803D042D821
:10D7F000DBCF03F000C03BF001C03CF002C03DF0C5
:10D8000003C03EF0220EE15C02E2E16AE552E16E05
:10D81000E552E5CFDAFFE7CFD9FF12007CD8830EBF
:10D82000416EF90E426EA20E436E3E0ECFD8416A93
:10D83000426A12001A0EDBCF41F01B0EDBCF42F022
:10D840001C0EDBCF43F01D0EDBCF44F0C2EF67F0C0
:10D85000060E3CC0DBFF070E3DC0DBFF080E3EC0DE
:10D86000DBFF090E3FC0DBFF12008DD800C03CF08B
:10D87000BCEF6CF0020EDBCF00F0030EDBCF01F04B
:10D88000040EDBCF02F0050E1200DA20EA6EEECFB6
:10D89000E6FFEECFE6FFEECFE6FFEFCFE6FF1200AA
:10D8A0003CC004F03DC005F03EC006F03FC007F0AC
:10D8B0001200020E3CC0DBFF030E3DC0DBFF040E76
:10D8C0003EC0DBFF050E3FC0DBFF12000A0EDBCFC0
:10D8D0003CF00B0EDBCF3DF00C0EDBCF3EF00D0E1F
:10D8E000DBCF3FF01200446E00C03CF0BCEF6CF0A8
:10D8F0003CC008F03DC009F03EC00AF03FC00BF04C
:10D90000120009EC7BF0E552E552E552E5521200B7
:10D91000446ED9EF66F0020EDBCF04F0030EDBCFCE
:10D9200005F0040EDBCF06F0050EDBCF07F012008A
:10D930003CC000F03DC001F03EC002F03FC003F02B
:10D9400012003F0EE5DFB1EC69F03DC0DEFF3EC0E6
:10D95000DDFF000EDFCF3DF0010EDBCF3EF0C5EC6A
:10D9600066F028EF6CF004C03CF005C03DF006C046
:10D970003EF007C03FF0120001C03DF002C03EF093
:10D9800003C03FF012003CC041F03DC042F03EC039
:10D9900043F03FC044F01200DB0E416E0F0E426EAA
:10D9A000C90E436E400E1200D950FA0FE96EFF0EF9
:10D9B00045EF6CF0C2EC67F073DF35EF6CF05ADFC7
:10D9C000DBCF03F01200A4DF1AEF6CF0446ECBDF64
:08D9D000C2EC67F098EF6CF067
:08D9D800D4D9FD0EDBCF00F0F5
:10D9E000DB06FE0EDBCF01F001E2DB06005001108A
:10D9F00010E0DE6ADD6ADECF00F0DDCF01F0E30E7D
:10DA0000005C0D0E0158E9E2DF2A010EF4E3DB2A87
:10DA1000F2D7020EE15C02E2E16AE552E16E71D1F9
:10DA200002DA060EE1268D9296928D9096908D8464
:10DA300096948A9A939A8C92A8D984D902E297D91B
:10DA4000FCD78C82A2D97ED902E291D9FCD7AE0E46
:10DA500042D9DB0E40D9230E3ED9D90E3CD9220E35
:10DA60003AD9A10E38D9C80E36D9DA0E34D9120EE9
:10DA700032D9A80E30D93F0E2ED9D50E2CD9A00EF2
:10DA80002AD9810E28D9600E26D9D30E24D9E66A68
:10DA9000CFD9A60E20D9AD0E1ED98B0E1CD9AF0E34
:10DAA0001AD90A0EE66EE66A97DFE552E552A40E31
:10DAB00012D9400E10D9ACD9060EE15C02E2E16A3F
:10DAC000E552E16E1ED14BD98A9AA7D148D98A8AEC
:10DAD000A4D157D9B00EDF6EB80EDF5C1BE2DFCFEA
:10DAE000E6FFA6D995D9010EDB6ADB50006E016A0C
:10DAF000D890015004E6840E005C000E015808E244
:10DB0000FE0EDBCFE6FFE2DFE552010EDB2AEDD7AA
:10DB1000DF2AE2D7020EE15C02E2E16AE552E16E41
:10DB2000F0D03FD9F6BEF768C8D80800F550D6D86F
:10DB3000F6BEF768C2D8010E5FD9F6BEF768BDD849
:10DB4000020E5AD9F6BEF768B8D8030E55D9F6BEFC
:10DB5000F768B3D8040EEAD8F55056D9E66AB6DFAE
:10DB6000E552E552CED01DD9F6BEF768A6D808001A
:10DB7000F51CB4D8F6BEF768A0D8010E41D9F6BEA0
:10DB8000F7689BD8020E3CD9F6BEF76896D8030E0C
:10DB900037D9F6BEF76891D8040EC8D8F51C34D929
:10DBA000E66894DFE552E552ACD09ED8AED80AE0E4
:10DBB0001DD9ABD8E66EB5DFBED801E3DB2A060E71
:10DBC000DF26F4D7E5529DD08FD89FD80AE00ED932
:10DBD0009CD8E66EC8DFAFD801E3DB2A060EDF264D
:10DBE000F4D7E5528ED080D899D80AE0FFD896D8DD
:10DBF000E66E97DFA0D801E3DB2A060EDF26F4D716
:10DC0000E5527FD071D88AD80AE0F0D887D8E66E7E
:10DC1000AADF91D801E3DB2A060EDF26F4D7E5520E
:10DC200070D001D9050EE126030EDB6A040EDB6A13
:10DC3000020E006EFA0EB0D8FA0EE7CFDBFFF90E37
:10DC4000DB50B00FDF6EFB0EDB50B00FDF5C2EE25F
:10DC5000DFCFE6FFEDD8FA0EDB500F0B3CD8FA0E03
:10DC6000DB380F0B0F0B100936D8010EDB6AFC0EE8
:10DC7000DB50F36E010EDBCFF4FFF350F45C14E2E3
:10DC8000030EDB2A040E01E3DB2AFD0EDBCFF6FFD9
:10DC9000DB2AFE0EDBCFF7FF01E3DB2A0800F5509D
:10DCA000B3D8010EDB2AE3D7DF2ACDD7050EE15C1E
:10DCB00002E2E16AE552E16E24D0050EF702F3CFED
:10DCC000F7FFF602F3CFF6FFF450F726340EF626F0
:10DCD000ED0EF7221200E66E18EF6FF095D8FE0EEB
:10DCE000DBCFF6FFF76A12009ED8E652FB0EDB5040
:10DCF000DF6EFC0EDB50B10FE76EFC0EE7CFDBFFF3
:10DD00001200E552E7CFD9FF1200FD0EDBCFF6FF80
:10DD1000FE0EDBCFF7FF0800F5501200FD0EDBCF43
:10DD2000E9FFFE0EDBCFEAFFEF501200F626000EF1
:10DD3000F72208001200E552E552E552FD0EDB2AFB
:10DD4000FE0E1200D9CFE9FFDACFEAFF640EEE5CD7
:10DD5000000EEE58000EEE58000EEE58120063D87A
:10DD6000956AFE0EDB508C6E8D808D821200D9CFAD
:10DD7000E9FFDACFEAFFEE2A000EEE22EE22EE22D3
:10DD8000120051D8020EE1261200DE6ADE6ADE6A57
:10DD9000DD6ADD52DD521200DBCFE7FF0050E726DF
:10DDA000120041D8E652200E006EFE0EDBCFE7FFD8
:10DDB0000050E75EFE0EE7CFDBFFFD0EDBCFE6FF98
:10DDC00037D8020E006EFC0EE7DFFC0EE7CFDBFF5C
:10DDD000DB500F0B80DFFC0EDB380F0B0F0B100F2F
:10DDE0007ADFFE0EDBCFF6FFF76A1200DFCFE6FF29
:10DDF000FC0EDBCFE6FF120099DFF5506EEF6EF000
:10DE000095DFF51C6EEF6EF0E66E60DEE5521200F7
:10DE1000020E61DF100E6BEF6EF08D948D928D828D
:10DE20008D8495686ED7D9CFE6FFE1CFD9FF120078
:06DE30004ADEE55212007B
:0ADE3600D9CFE6FFDACFE6FFE1CF17
:10DE4000D9FFE2CFDAFF240EE12402E3E168E652D3
:10DE5000E16ED950FA0FE96EFF0EDA20EA6E020E7B
:10DE6000EECFDBFF030EEECFDBFF040EEECFDBFFCA
:10DE7000050EEECFDBFFE8D9F2D924EC78F0006E86
:10DE8000060EE15C02E2E16AE552E16E0050E76EE7
:10DE90000D0EE7CFDBFFDB50800815E0A0D9416A0B
:10DEA000426A436A446A00C03CF001C03DF002C0CF
:10DEB0003EF003C03FF0B2EC68F0010A10E1210E21
:10DEC0000001D26FD36B020EDB68030EDB68040E19
:10DED000DB687F0EF36E050EF3CFDBFF66D10D0E10
:10DEE000DB50050B01E061D10A0EDBCF00F00B0E19
:10DEF000DBCF01F0830E0026FF0E012200C0DEFF03
:10DF000001C0DDFFD950060F65D976D9DF50010B6E
:10DF10000FE0DF06010E01E2DB06D950180F5AD9D7
:10DF2000D890EF36010EEB36020EEB36030EEB36D1
:10DF3000D9CFE9FFDACFEAFF020E426E436AEECF95
:10DF40003DF0EDCF3EF02FEC68F03DC0EEFF3EC05F
:10DF5000EDFF140EDB6A150EDB6A160EDB6A170E78
:10DF6000DB6A1C0EDB6A1D0EDB6A1E0EDB6A010E0D
:10DF7000F36E1F0EF3CFDBFF010EF36E0E0EF3CF29
:10DF8000DBFF0F0EDB6A0E0EDBCF00F00F0EDBCFD8
:10DF900001F0D890015004E61A0E005C000E015802
:10DFA00001E398D0180EDBCF00F0190EDBCF01F0A3
:10DFB0001A0EDBCF02F01B0EDBCF03F0010E1F0B9E
:10DFC00007E0D8900036013602360336E806F9E15C
:10DFD000180E00C0DBFF190E01C0DBFF1A0E02C0D5
:10DFE000DBFF1B0E03C0DBFF140EDBCF08F0150EAA
:10DFF000DBCF09F0160EDBCF0AF0170EDBCF0BF0EC
:10E00000010E1F0B07E0D890083609360A360B368A
:10E01000E806F9E1D9501C0FDDD80850EE24046E53
:10E020000950EE20056E0A50EE20066E0B50EE20D1
:10E03000076ED950180FCED80450EE5C006E055014
:10E04000EE58016E0650EE58026E0750EE58036E01
:10E05000200E00C0DBFF210E01C0DBFF220E02C03C
:10E06000DBFF230E03C0DBFF200EDBCF3CF0210ED5
:10E07000DBCF3DF0220EDBCF3EF0230EDBCF3FF0B7
:10E080003F34000E3F1809E6D880000E3C54000EC5
:10E090003D54000E3E54000E3F5411E2D950200F63
:10E0A00099D8AAD8D8D81C0EDB50EE121D0EDB5022
:10E0B000EE121E0EDB50EE121F0EDB50EE12D95088
:10E0C0001C0F88D8AFD80E0EDB2A0F0E01E25BD7EB
:10E0D000DB2A59D7C9D8100E00C0DBFF110E01C0D2
:10E0E000DBFF180EDBCF3DF0190EDBCF3EF0120E3A
:10E0F0003DC0DBFF130E3EC0DBFFADD893D8D95037
:10E10000100F68D8EE50ED1012E0D950120F62D8FF
:10E11000EE50ED1006E1A8D80050011002100310D7
:10E1200006E099D8EE2A000EEE22EE22EE220C0E28
:10E13000DB6A91D8060EEECFDBFF070EEECFDBFFDA
:10E14000080EEECFDBFF090EEECFDBFF7E0EF36E87
:10E150000A0EF3CFDBFF0B0EDB6AD950020FE66E1F
:10E16000000EDA20E66E70D8B2EC78F0E552E55297
:10E17000E552E552DECFE6FFDDCFE6FF70D888EC52
:10E1800077F0006E060EE15C02E2E16AE552E16EB4
:10E190000050020E3BC0DBFF030E3CC0DBFF040E51
:10E1A0003DC0DBFF050E3EC0DBFF19D800C03BF0D1
:10E1B00001C03CF002C03DF003C03EF0240EE15C23
:10E1C00002E2E16AE552E16EE552E5CFDAFFE7CF20
:10E1D000D9FF1200E96E000EDA20EA6E1200020E7C
:10E1E000DBCF00F0030EDBCF01F0040EDBCF02F03B
:10E1F000050EDBCF03F01200180EEECFDBFF190E79
:10E20000EECFDBFF1A0EEECFDBFF1B0EEECFDBFFF8
:10E210001200EECFE6FFEECFE6FFEECFE6FFEFCF48
:10E22000E6FF1200D890030EEB32020EEB32010E25
:10E23000EB32EF321200EE500016EE500116EE50A7
:10E240000216EE5003161200D950060FE66E000EAD
:10E25000DA20E66E1200D950140FEAEF70F0D950B0
:10E26000020FB8DF09EF71F0010E006E016A026A59
:08E27000036AF1DF1BEF71F0FE
:08E27800D9CFE6FFE1CFD9FF89
:10E28000E652DF6A0101E851DF5C28E2DF50040D4D
:10E29000F3CFE9FFF4CFEAFF000EE926010EEA22F0
:10E2A000EECFE6FFEECFE6FFEECFE6FFEFCFE6FFE5
:10E2B000DF50080DF3CF00F0F4CF01F0380E002648
:10E2C000010E012200C0E6FF01C0E6FF22EC62F071
:10E2D000026E060EE15E0250DF2AD4D7E552E55207
:10E2E000E7CFD9FF1200D9CFE6FFE1CFD9FFFE0E6D
:10E2F000CED93CC066F03DC067F03EC068F03FC07C
:10E3000069F0FD0EC4D93CC06AF03DC06BF03EC060
:10E310006CF03FC06DF000016E6B6F6B706B716BDA
:10E320000001826B836B846B856B82C07EF083C03F
:10E330007FF084C080F085C081F082C07AF083C015
:10E340007BF084C07CF085C07DF000018E6B8F6B0C
:10E35000906B916B8EC08AF08FC08BF090C08CF068
:10E3600091C08DF08EC086F08FC087F090C088F08D
:10E3700091C089F0E552E7CFD9FF12000101E86BA7
:10E38000EA6BE96B4DEF73F00101020EE86F060EC8
:10E39000EA6FE96B070EEC6FED6F310E71D9010179
:10E3A000036B1F0E006F280E016F570E026F010ED8
:10E3B000076F3D0E046F1A0E056F260E066F3A0E9C
:10E3C000BA6F070EBB6F3A0EBC6F310EBD6F6E0E8B
:10E3D000BE6F1C0EBF6F070EC06F1C0EC16F6E0E9E
:10E3E000C26F070EC36FC46F310EC56F12000101FB
:10E3F0000A0EE86F030EEA6FE96B070E55D90101AB
:10E40000036B140E006F1E0E016F7F0E026F076B01
:10E41000280E046F056B610E066F0B6B120E086FF2
:10E420004D0E096F610E0A6F0F6B100E0C6F4D0EC3
:10E430000D6F610E0E6F136B020E106F2F0E116FAA
:10E44000430E126F176B040E146F2F0E156F430ED1
:10E45000166F1B6B260E186F390E196F4D0E1A6F43
:10E460001F6B240E1C6F390E1D6F4D0E1E6F236B1C
:10E47000160E206F6B0E216F7F0E226F276B180E0A
:10E48000246F6B0E256F7F0E266F070EBA6FBB6F62
:10E490006E0EBC6F310EBD6F070EBE6F190EBF6FD3
:10E4A00012000101E86B160EEA6FE96BFDD801015D
:10E4B000070EBA6F060EBB6F070EBC6F110EBD6F55
:10E4C000070EBE6F1C0EBF6F070EC06F270EC16F09
:10E4D000070EC26F320EC36F160EC46F060EC56FE5
:10E4E000250EC66F060EC76F340EC86F060EC96FB5
:10E4F000430ECA6F060ECB6F520ECC6F060ECD6F59
:10E50000620ECE6F060ECF6F6F0ED06F1C0ED16FE6
:10E510006F0ED26F270ED36F6F0ED46F320ED56F82
:10E52000250ED66F320ED76F340ED86F320ED96FDC
:10E53000430EDA6F320EDB6F520EDC6F320EDD6F80
:10E54000620EDE6F320EDF6F430EE06F110EE16F71
:10E55000430EE26F1C0EE36F250EE46F270EE56F8E
:10E5600012000101030EE86FEA6B010EE96F95D806
:10E570000101036B140E006F280E016F800E026FF5
:10E58000076B280E046F056F800E066F0B6B1E0E57
:10E59000086F096B500E0A6F1F0EAD6F020EA86F49
:10E5A000010EAB6F080EA96F010EAA6F12000101D8
:10E5B000060EE86F020EEA6F030EE96F0A0EEC6FAB
:10E5C000340EED6F5DD80101010E036F1E0E006F5A
:10E5D000200E016F3F0E026F010E076F3E0E046F9B
:10E5E000056B200E066F010E0B6F5E0E086F200E7E
:10E5F000096F400E0A6F010E0F6F1E0E0C6F0D0E8D
:10E600000D6F150E0E6F010E136F3E0E106F2C0E58
:10E61000116F340E126F010E176F5E0E146F0D0E18
:10E62000156F150E166F0D0EAC6F150EAD6F030E38
:10E63000A86F010EAB6F090EA96F030EAA6F0D0E26
:10E64000B26F150EB36F050EAE6F010EB16F090EEE
:10E65000AF6F010EB06F2B0EB86F330EB96F040E93
:10E66000B46F010EB76F090EB56F020EB66F2C0EA8
:10E67000BA6F1C0EBB6F4C0EBC6F1C0EBD6F120030
:10E68000E66E6E0EE66E2FDEE552E5521200DBCF2F
:10E6900000F000C03EF0B2EF66F00A0EEC6F070E1D
:10E6A000ED6F340E40EF73F0EC6F310EED6F070E2F
:04E6B00040EF73F0D4
:0CE6B400D9CFE6FFE1CFD9FF030EE1262D
:10E6C00059D8736A820E726E739C94949396958C4B
:10E6D0007288728A949EE66AD0D8E552E76E020E7E
:10E6E000E7CFDBFF0000D950020FE96EDACFEAFF77
:10E6F000EF50070B020801E00000140EE66EBDD8D3
:10E70000E552E76E020EE7CFDBFF020EDB96DB88F9
:10E71000020EDB80DB92DB94020EDBCFE6FF140EF1
:10E72000E66E3AD8E552E552010EE66EA6D8E552FD
:10E73000DE6EDD6A0000110EE66E9FD8E552DE6ED9
:10E74000DD6A0000E66A110EE66E26D8E552E55253
:10E750000000110EE66E91D8E552DE6EDD6A000013
:10E76000030EE15C02E2E16AE552E16EE552E7CFB9
:10E77000D9FF1200550EA76EAA0EA76E0E01FF91CB
:10E78000090ECC6F0A0ED36F170EFB6F550EA76ED6
:10E79000AA0EA76EFF811200D9CFE6FFE1CFD9FF05
:10E7A000E652DF6AFE0EDB50140804E0FE0EDB507A
:10E7B000340806E1140EE66E60D8E552E00BDF6E19
:10E7C0008B9EA49EFE0EDB50756EA4AEFED700009D
:10E7D0000000000000000000000000000000000039
:10E7E0000000000000000000000000000000000029
:10E7F0000000000000000000000000000000000019
:10E800000000000000000000000000000000000008
:10E8100000000000000000000000000000000000F8
:10E8200000000000000000000000000000000000E8
:10E8300000000000000000000000000000000000D8
:10E840000000000000000000000000000000A49E86
:10E85000FE0EDB500A0805E1FD0EDB507F0B756EE6
:10E8600004D0FD0EDB50DF10756EA4AEFED78B8E8C
:10E87000E552E552E7CFD9FF1200D9CFE6FFE1CF4D
:10E88000D9FF8B9EA49EFE0EDB508009756EA4AE50
:10E89000FED70000000000000000000000000000A3
:10E8A0000000000000000000000000000000000068
:10E8B0000000000000000000000000000000000058
:10E8C0000000000000000000000000000000000048
:10E8D0000000000000000000000000000000000038
:10E8E0000000000000000000000000000000000028
:10E8F0000000000000000000000000000000000018
:10E900000000000000000000000000000000000007
:10E910000000A49E756AA4AEFED78B8E755000D001
:08E92000E552E7CFD9FF120018
:08E92800202020505245434914
:10E930004F55532074696D65203A292020002059D5
:10E940006F75206A75737420776173746520796FB1
:10E9500075722000202020596F7520776F6E206E11
:10E960006F7468696E67202020002020434F524E4C
:10E9700047524154554C4154494F4E532120200099
:10E98000202020202020515549542047414D45202A
:10E9900020202020200020202020202043414C49FE
:10E9A00042524154452020202020200020202020B9
:10E9B0002053454C454354204C4556454C2020207F
:10E9C00020002020202020204E4557202047414D68
:10E9D00045202020202020002020204C4142495268
:10E9E000594E544820204D454E55202020002033BC
:10E9F0002E2048617665206120676F6F64207469FE
:10EA00006D652E0020746F206D6F766520746865CB
:10EA10002062616C6C2E2020200020322E20546950
:10EA20006C742074686520626F617264202020001D
:10EA30002073656C656374206D656E7520697465FF
:10EA40006D732E20200020312E20557365207363B6
:10EA5000726F6C6C20746F202020200050726573E0
:10EA600073204D656E7520746F2070726F636565DD
:10EA70006400202020202020202020202020202072
:10EA800020202020202020200020202050726F6A8B
:10EA90006574204D413120495349422000202062B5
:10EAA00079204D6172696520566F6C6F6C6F6E6A6C
:10EAB0006F202000202020536E616B652047616D20
:10EAC000652076312E30202020002020202020209C
:10EAD000204C6576656C20256420202020202000B5
:10EAE0002020202053454C45435420204C4556457A
:10EAF0004C2020202000202020593A20202564206E
:10EB00002020202020202020202020200020202025
:10EB1000583A20202564202020202020202020205A
:10EB20002020200020202043414C4942524154459E
:10EB30002053454E534F52202000202020202020DB
:10EB400020202020202020202020202020202000E5
:10EB5000030EB16EB392B390B396B288B28EB290F8
:10EB6000B292A494B38E12002F0E926E0F01E00E9B
:10EB7000486F1F0E496FC18EC19CC70EC114080992
:10EB8000C16EF80EC1140209C16E498FC29CC29EAB
:10EB9000C30EC2140809C26EC2801200D9DFB4EFDE
:10EBA00075F0D9CFE6FFE1CFD9FF020EE126FE0EC8
:10EBB000DB500F0BF36EF346F346C30EC214F31093
:10EBC000C26EFE0EDB50EA6AFB0FE96E010EEA220E
:10EBD000EF503F0BF36EF346F346030EB114F31000
:10EBE000B16EB38EB3820000000000000000000090
:10EBF0000000000000000000000000000000000015
:10EC00000000000000000000000000000000B392BF
:10EC1000B2800000000000000000000000000000C2
:10EC200000000000000000000000000000000000E4
:10EC300000000000000000000000B2909E9CC28214
:10EC40009EACFED7C3CFDEFFC4CFDDFFDECF00F02A
:10EC5000DDCF01F000C0F3FF01C0F4FF00D0020ED1
:10EC6000E15C02E2E16AE552E16EE552E7CFD9FFED
:10EC70001200D9CFE6FFE1CFD9FF030EE126020E45
:10EC8000DB6A040EF36E020EDBCFF4FFF350F45C8C
:10EC900021E22AD8EF6A30D80CE226D8EF501F08BC
:10ECA00003E122D8EF6A13D01FD8EF2A25D8F5E365
:10ECB0000ED02CD80CE218D8EF50E10803E114D89C
:10ECC000EF6A05D011D8EF062BD820D8F4E3020E56
:10ECD000DB2AD7D7030EE15C02E2E16AE552E16E7E
:10ECE000E552E7CFD9FF1200020EDB50EA6AFB0FB4
:10ECF000E96E010EEA22120013D8DECF00F0DDCF5C
:10ED000001F0200E005C030E01581200D9CFE9FF7C
:10ED1000DACFEAFF200ED880EE54030EED54120035
:10ED2000020EDBCFE6FF3DDFE552F3CFDEFFF4CF8F
:04ED3000DDFF1200F1
:0CED3400000000000000004F000000077D
:10ED4000000700147F147F14242A7F2A122313083B
:10ED5000646236495522500005030000001C224120
:10ED6000000041221C0014083E081408083E080850
:10ED7000005030000008080808080060600000200B
:10ED8000100804023E5149453E00427F4000426166
:10ED90005149462141454B311814127F10274545F2
:10EDA00045393C4A49493001710905033649494909
:10EDB00036064949291E0036360000005636000046
:10EDC00008142241001414141414004122140802DF
:10EDD00001510906324979413E7E1111117E7F4968
:10EDE0004949363E414141227F4141221C7F4949E8
:10EDF00049417F090909013E4149497A7F080808CC
:10EE00007F00417F41002040413F017F08142241A3
:10EE10007F404040407F020C027F7F0408107F3E0D
:10EE20004141413E7F090909063E4151215E7F096A
:10EE3000192946464949493101017F01013F4040B6
:10EE4000403F1F2040201F3F4038403F63140814BC
:10EE50006307087008076151494543007F4141003D
:10EE600002040810200041417F0004020102044016
:10EE700040404040000102040020545454787F4830
:10EE80004444383844444420384444487F38545437
:10EE90005418087E0901020C5252523E7F080404A5
:10EEA0007800447D40002040443D007F102844000D
:10EEB00000417F40007C041804787C080404783802
:10EEC000444444387C14141408081414187C7C0836
:10EED0000404084854545420043F4440203C40401B
:10EEE000207C1C2040201C3C4030403C4428102802
:10EEF000440C5050503C4464544C4400083641008B
:0FEF000000007F000000413608000201020402F9
:01EF0F000001
:10EF100096D8E1CFD9FFE2CFDAFF0C0EE12402E36D
:10EF2000E168E652E16ED950FA0FE96EFF0EDA2081
:10EF3000EA6E080EEECFDBFF090EEECFDBFF0A0E06
:10EF4000EECFDBFF0B0EEECFDBFF79D8D950080FE9
:10EF5000E96E000EDA20EA6EEECFE6FFEECFE6FFB6
:10EF6000EECFE6FFEFCFE6FF24EC78F0006E060E62
:10EF7000E15C02E2E16AE552E16E0050E76E070EE5
:10EF8000E7CFDBFFDB50840B3AE1070EDB041AE12D
:10EF9000060EDB5006E0006A016A026A800E036E0C
:10EFA00004D0006A016A026A036A080E00C0DBFF2F
:10EFB000090E01C0DBFF0A0E02C0DBFF0B0E03C00F
:10EFC000DBFF1DD0F80EDBCF00F0F90EDBCF01F038
:10EFD000D950040FE96E000EDA20EA6E0050EE26DA
:10EFE0000150ED22D950080FE66E000EDA20E66ED1
:10EFF00026D8B2EC78F0E552E552E552E552080E1B
:10F00000DBCF00F0090EDBCF01F00A0EDBCF02F000
:10F010000B0EDBCF03F000C03BF001C03CF002C0A0
:10F020003DF003C03EF00C0EE15C02E2E16AE55205
:10F03000E16EE552E5CFDAFFE7CFD9FF1200D9CF75
:08F04000E6FFDACFE6FF120043
:08F04800D9CFE6FFDACFE6FFA5
:10F05000E1CFD9FFE2CFDAFFE652006801687F0E08
:10F06000026E036AD950FA0FE96EFF0EDA20EA6EDB
:10F07000EE500016EE500116EE500216EE5003163A
:10F080006AD800C0EEFF01C0EEFF02C0EEFF03C071
:10F09000EEFFFD0EDB50800B02E0010E01D0000EF2
:10F0A000E66E59D8060EE926000EEA22E552E75030
:10F0B000EF6EFC0EDBCF00F0FD0EDBCF01F0D89041
:10F0C00000360136FC0E00C0DBFFFD0E01C0DBFF89
:10F0D000DB50E66E40D8040EE926000EEA22E55227
:10F0E000E750EE6EED6AFD0EDB50006E016AFF0E1A
:10F0F000001818E1015016E12ED8EECF00F0EECF47
:10F1000001F0EECF02F0EFCF03F00050011002103B
:10F11000031006E0210E0001D26FD36B800E0BD0DE
:10F12000040E09D0FD0EDB5008E115D8EE6AEE6A38
:10F13000EE6AEE6A010EDF6E06D0020EDF6E0BD8AD
:10F14000EE52EE52EE8EDF50E552E552E5CFDAFF99
:10F15000E7CFD9FF1200F80EDBCFE9FFF90EDBCFC6
:04F16000EAFF1200B0
:0CF16400D9CFE6FFDACFE6FFE1CFD9FFFC
:10F17000E2CFDAFF5BD8013411E20050FE08000E46
:10F1800001540CE276D805E06CD8800EEE6EEE6885
:10F1900047D067D8800EEE6E7F0E0ED047D8D8903D
:10F1A000015004E6010E005C000E01580BE261D82C
:10F1B00005E057D8EE6A800EEE6E32D052D8EE6A75
:10F1C000EE6A2ED047D8EECF00F0EECF01F0EECFB2
:10F1D00002F0EFCF03F032D800C0EEFF01C0EEFF27
:10F1E00002C0EEFF03C0EEFF21D80050010B05E086
:10F1F00025D8020E3AD8EF8E04D020D8020E35D88A
:10F20000EF9E14D8D8900132003218D8030E2DD8B2
:10F2100000C0EFFF1AD804E011D8030E26D8EF8EF5
:10F22000E552E5CFDAFFE7CFD9FF120013D8040E7D
:10F230001CD8EECF00F0EFCF01F01200FA0EDBCFBA
:10F24000E9FFFB0EDBCFEAFF120004D8060E0DD853
:10F25000EF501200FC0EDBCFE9FFFD0EDBCFEAFF23
:10F260001200ECDFEE6AEE6A1200E926000EEA22D6
:0EF270001200220E0001D26FD36B25EF79F051
:02F27E0001018C
:10F28000FFB122D0FF838B809490550EA76EAA0EFB
:10F29000A76E0E01FF910E0ED16F550EA76EAA0E2E
:10F2A000A76EFF810F0EBA6ECF0EBA140009BA6EA8
:10F2B000BB6A0F01526B800ECB6E040ECA6EA49611
:10F2C000600E776E7F0E766E12000101FF91FF9344
:10F2D0008B80949012000101FFA109D08B50010B8B
:10F2E00004E19450010B01E1010CFF91C8DF010121
:10F2F000FFA3C5DFA4A63AD0A496BA50300BE842CB
:10F30000E842E842E842030819E1400EBB5C10E124
:10F310008B909490BA6ACA6A0E01D16B0F01526B3E
:10F32000CB68766A7768A4960101FF81FF93010C90
:10F33000BB2ACF0EBA140009BA6E000CBA0EE96EE1
:10F340000F0EEA6EEF50300BE842E842E842E84226
:10F35000E82AE850030BF36EF46EF346F346F346E7
:0EF36000F346CF0EEF14F310EF6EF450000CD6
:02F36E00D9CFF5
:10F37000E6FFDACFE6FFE1CFD9FFE2CFDAFFE652D0
:10F38000E652E652E652D950F90F006EFF0EDA202F
:10F39000016E020E00C0DBFF030E01C0DBFF020E98
:10F3A000DBCFE6FF030EDBCFE6FFF90EDBCFE6FF98
:10F3B000FA0EDBCFE6FFFB0EDBCFE6FFD950FC0FEA
:10F3C000E66EFF0EDA20E66E42EC57F0006E070E96
:10F3D000E15C02E2E16AE552E16E0050F3CFDEFF4C
:10F3E000F4CFDDFFFC0EDBCFE9FFFD0EDBCFEAFF44
:10F3F000EF6ADECF00F0DDCF01F000C0F3FF01C007
:10F40000F4FF040EE15C02E2E16AE552E16EE552CE
:0AF41000E5CFDAFFE7CFD9FF1200C5
:06F41A001E0EF66EA00EAE
:10F42000F76E000EF86E00010900F550C76F090075
:10F43000F550C86F03E1C76701D03DD00900F55012
:10F44000C26F0900F550C36F0900F550C46F090081
:10F450000900F550E96E0900F550EA6E090009004F
:10F460000900F550C56F0900F550C66F0900090085
:10F47000F6CFC9F0F7CFCAF0F8CFCBF0C2C0F6FF95
:10F48000C3C0F7FFC4C0F8FF0001C55302E1C65373
:10F4900007E00900F550EE6EC507F8E2C607F9D798
:10F4A000C9C0F6FFCAC0F7FFCBC0F8FF0001C7070D
:08F4B000000EC85BBFD712007B
:08F4B800D9CFE6FFDACFE6FF31
:10F4C000E1CFD9FFE2CFDAFFFB0EDBCF00F0FC0E7D
:10F4D000DBCF01F00001800E01141AE1FB0EDBCF3F
:10F4E000E9FFFC0EDBCFEAFFEECFF3FFEDCFF4FF39
:10F4F000EE2A000EEF22F3CFE9FFF4CFEAFFFD0E74
:10F50000DBCFEFFFEF50016AF36E01C0F4FF10D0C4
:10F51000FB0EDB50FE0806E1FD0EDBCFE6FFBEEC86
:10F520007BF005D0FD0EDBCFE6FF03EC50F0E5529B
:0CF53000E552E5CFDAFFE7CFD9FF12006B
:04F53C003B504002FE
:10F54000F3CF37F0F4CF38F04102F3503826000EF5
:10F55000F420396E3B504202F3503926000EF4205D
:10F560003A6E3B504302F3503A263C504002F3506F
:10F570003826F4503922000E3A223C504102F35012
:10F580003926F4503A223C504202F3503A263D507C
:10F590004002F3503926F4503A223D504102F350D4
:0CF5A0003A263E504002F3503A2612007A
:04F5AC00FE0EE3CF9D
:10F5B000E9FFFF0EE3CFEAFFF36AF46AEE5203E0DD
:10F5C000F34AF42AFBD71200FF0EE3CFF8FFE5520F
:10F5D000FF0EE3CFF7FFE552FF0EE3CFF6FFE55254
:10F5E000E66AE66AE66A0900F55209E0FD0EE32ADA
:10F5F00005E1FE0EE32A02E1FF0EE32AF4D7FD0E39
:10F60000E3CF3CF0FE0EE3CF3DF0FF0EE3CF3EF044
:02F610001200E6
:0EF61200D9CFE6FFDACFE6FFE1CFD9FFE2CF96
:10F62000DAFFE652E652D950FD0F006EFF0EDA20E7
:10F6300000C0DEFFDD6EDECFE9FFDDCFEAFFEF9E2B
:10F64000FA0EDBCF00F0FB0EDBCF01F0FC0EDBCFC0
:10F6500002F0FD0EDBCF03F000C03BF001C03CF038
:10F6600002C03DF003C03EF0E552E552E552E5CF61
:08F67000DAFFE7CFD9FF120019
:08F67800D9CFE6FFDACFE6FF6F
:10F68000E1CFD9FFE2CFDAFF010EE66ED950FA0FD3
:10F69000E96EFF0EDA20EA6EEECFE6FFEECFE6FF70
:10F6A000EECFE6FFEFCFE6FF17EC6AF0006E050E37
:10F6B000E15C02E2E16AE552E16E0050E552E5CF1D
:08F6C000DAFFE7CFD9FF1200C9
:08F6C8003A6A396A386A376AB0
:10F6D000200EE76ED8903B363C363D363E36373608
:10F6E000383639363A364050375C415038584250F7
:10F6F000395843503A5809E34050375E4150385A20
:10F700004250395A43503A5A3B2AE72EE4D7120066
:10F710003A6A396A100EE76ED8903D363E36393671
:10F720003A364250395C43503A5805E34250395E0C
:0CF7300043503A5A3D2AE72EF0D7120051
:04F73C00F36AF46A0E
:10F74000FF0EE124E96EFF0EE220EA6EED6607D0BF
:10F750002F0EEF6404D03A0EEF6001D0F32A1200AE
:10F760001DEE00F02DEE00F0F86A369C0DEC7AF0FC
:0CF7700007EC50F04DEC5DF0FBD71200F0
:04F77C00FF0EE35049
:10F78000ADBA04D0B06AAC8EAD8A949CADA2FED75F
:08F79000AE6EF36EF46A120084
:08F798003031323334353637CD
:09F7A0003839616263646566009A
:01F7A900005F
:06F7AA0000EE00F00E0E5F
:08F7B000EE6AEA62FDD71200C7
:08F7B800000000000000000049
:05F7C000000000000044
:0BF7C500000000000000000000000039
:0BF7D00000003AEB0000000000000009
:01FFF800AA5E
:01FFF900F710
:01FFFA001DE9
:01FFFB00FF06
:01FFFC0063A1
:01FFFD00F80B
:01FFFE008181
:01FFFF00F110
:00000001FF
