:020000040000FA
:0600000084EF73F0120012
:0600080004EF50F01200AD
:060018000CEF50F0120095
:06A0000084EF73F0120072
:02A00600120046
:06A0080036EF5DF01200CE
:02A00E0012003E
:04A01000800040008C
:02A01400000545
:06A0180039EF5DF01200BB
:02A01E0006003A
:10A0200014A00000FD0100000200000051E7000044
:10A03000DE000000010000006DE700009A00000053
:10A040001600000010A00000DA000000040000006C
:10A0500060E70000F00100000D000000DBE20000FE
:08A06000FF01000001000000F7
:08A06800F7EC55F0FC0EDB5093
:10A0700035E1FA0E80EC56F0B7EC56F0FB0EDB50F3
:10A08000A7EC56F0F90EDB50006E016AD890015033
:10A0900002E614EC56F003E2ACEC56F006D0F90EF2
:10A0A00080EC56F0040EF2EC55F0F90EDB50030F85
:10A0B000B2EC56F0FA0EDB5005E1EBEC55F0E20E97
:10A0C000EE6EED68FB0EDB507F0836E1EBEC55F0F1
:10A0D000020EE926000EEA22960E2CD0F90E80EC34
:10A0E00056F0B7EC56F0F90EDB50030FA7EC56F024
:10A0F000FA0EDB50006E016AD890015002E614ECB3
:10A1000056F003E2ACEC56F006D0FA0E80EC56F0B6
:10A11000040EF2EC55F0FB0EDB50B2EC56F0FB0EE9
:10A12000DB503F0809E1EBEC55F0060EE926000E86
:10A13000EA22500EEE6EED6AFCEF55F0F7EC55F0AA
:10A14000040EE126020EDB6A030EDB6A06EC56F013
:10A15000D890015002E614EC56F03CE206EC56F0C2
:10A16000B00E002419EC56F0020E19EC56F0100E49
:10A1700019EC56F0DE6ADD6A0DEC56F004E6800E4E
:10A18000005C000E015820E2DECF02F0DDCF03F0CC
:10A19000800E3D6E3E6A020EDBCF42F0030EDBCF37
:10A1A00043F0B2EC67F002503B24006E03503C20B9
:10A1B0008AEC56F0EF50E66E6DEC69F0E552DF2A5E
:10A1C000010EDAE3DB2AD8D7020EDB2A030EBEE348
:10A1D000DB2ABCD7040EE15C02E2E16AE552E16EE3
:10A1E000FCEF55F0F7EC55F0020EE126DE6ADD6A71
:10A1F0000DEC56F004E6000E005C040E01580FE270
:10A20000DE500101FD25E96EDD50FE21EA6EFE0EF5
:10A21000DBCFEFFFDF2A010EEBE3DB2AE9D7020EEB
:10A22000E15C02E2E16AE552E16EFCEF55F0F7EC29
:10A2300055F0FD0EDB04DBEC55F003E0E3EC55F0EC
:10A24000FDE1E7EC55F0030F01EC57F064EC56F03C
:10A2500003E0E3EC55F0FDE104EC57F001EC57F0BE
:10A2600023EC56F0FE0FDBEC55F003E0E3EC55F089
:10A27000FDE137EC56F0FE0F23EC56F0FE0FDBEC61
:10A2800055F003E0E3EC55F0FDE12FEC56F0FE0F46
:10A2900023EC56F0FD0FDBEC55F003E0E3EC55F05A
:10A2A000FDE137EC56F0FD0F23EC56F0FD0FDBEC33
:10A2B00055F003E0E3EC55F0FDE12FEC56F0FD0F17
:10A2C000D9EC56F003E0E3EC55F0FDE149EC56F033
:10A2D00010EC57F003E0E3EC55F0FDE149EC56F0EB
:10A2E0000AEC57F003E0E3EC55F0FDE149EC56F0E1
:10A2F00007EC57F003E0E3EC55F0FDE149EC56F0D4
:10A30000050FD9EC56F003E0E3EC55F0FDE12BEC42
:10A3100056F010EC57F003E0E3EC55F0FDE12BECC8
:10A3200056F00AEC57F003E0E3EC55F0FDE12BECBE
:10A3300056F007EC57F003E0E3EC55F0FDE12BECB1
:10A3400056F0050FDCEC56F003E0E3EC55F0FDE1D0
:10A35000FEEC56F027EC56F0DBEC55F003E0E3ECB6
:10A3600055F0FDE1EBEC56F0DBEC55F003E0E3ECEF
:10A3700055F0FDE104EC57F027EC56F0DBEC55F01E
:10A3800003E0E3EC55F0FDE1E7EC55F0050F27ECB9
:10A3900056F061EC56F003E0E3EC55F0FDE143ECE0
:10A3A00056F0070FD3EC56F003E0E3EC55F0FDE177
:10A3B00037EC56F0070FD3EC56F003E0E3EC55F022
:10A3C000FDE12FEC56F0070FD3EC56F003E0E3EC81
:10A3D00055F0FDE13BEC56F0070F32EC56F002E091
:10A3E000F2DBFEE1F7EC56F0E8EC56F032EC56F01A
:10A3F00002E0E9DBFEE1EBDB060FE8EC56F0D6EC21
:10A4000056F002E0E0DBFEE13FEC56F0060FD6EC42
:10A4100056F002E0D8DBFEE14FEC56F0060FEFEC11
:10A4200056F002E0D0DBFEE137EC56F0080FEFEC1F
:10A4300056F002E0C8DBFEE12FEC56F0080FE5EC29
:10A4400056F002E0C0DBFEE137EC56F0090FE5EC18
:10A4500056F002E0B8DBFEE12FEC56F0F3EC56F0DC
:10A4600002E0B1DBFEE137EC56F00A0FECDBC7ECA3
:10A4700056F002E0A8DBFEE1F2DB0A0F9EEF56F099
:10A48000BCEC56F046EC56F002E09DDBFEE149ECF8
:10A4900056F00AEC57F002E096DBFEE149EC56F08C
:10A4A00007EC57F002E08FDBFEE1F3DB050FD9ECA0
:10A4B00056F002E088DBFEE1F2DB020FD6EC56F04C
:10A4C00002E081DBFEE1EBDB060FCCDB02E07BDBB5
:10A4D000FEE1FEEC56F0E8EC56F0D3EC56F002E06C
:10A4E00072DBFEE1D0DB0DEC57F002E06CDBFEE14D
:10A4F000CADB19EC57F002E066DBFEE1C4DB050FB6
:10A50000CDEC56F002E05FDBFEE1EDDB040FCDECBD
:10A5100056F002E058DBFEE1EBDB040FCDEC56F029
:10A5200002E051DBFEE153DBFD0F4ADB040FDCEC04
:10A5300056F002E048DBFEE1EBEC56F0080F3BDBA7
:10A5400002E041DBFEE193DB080F8CDB02E03BDB4A
:10A55000FEE104EC57F0E8EC56F0D3EC56F002E0E4
:10A5600032DBFEE17CDB070FD9EC56F002E02BDB9F
:10A57000FEE181DB10EC57F002E025DBFEE17BDB46
:10A580000AEC57F002E01FDBFEE175DB07EC57F049
:10A5900002E019DBFEE16FDB16EC57F002E013DBA3
:10A5A000FEE169DB1FEC57F002E00DDBFEE167DB4B
:10A5B00010EC57F002E007DBFEE161DB0AEC57F03C
:10A5C00002E001DBFEE15BDB07EC57F002E0FBDAC7
:10A5D000FEE155DB16EC57F002E0F5DAFEE14FDB69
:10A5E0001FEC57F002E0EFDAFEE135DB10EC57F03C
:10A5F00002E0E9DAFEE12FDB0AEC57F002E0E3DAF1
:10A60000FEE129DB07EC57F002E0DDDAFEE123DBB7
:10A6100016EC57F002E0D7DAFEE11DDB1FEC57F035
:10A6200002E0D1DAFEE13EDB10EC57F002E0CBDADB
:10A63000FEE138DBEFDB02E0C6DAFEE133DBE7DB2D
:10A6400002E0C1DAFEE12EDBF1DB02E0BCDAFEE182
:10A6500029DBF5DB02E0B7DAFEE128DBE1DB02E033
:10A66000B2DAFEE123DBD6DB02E0ADDAFEE11EDB8F
:10A67000CEDB02E0A8DAFEE119DBD8DB02E0A3DAE8
:10A68000FEE114DBDCDB02E09EDAFEE113DBC8DB7B
:10A6900002E099DAFEE10EDBBDDB02E094DAFEE1D6
:10A6A00009DBB5DB02E08FDAFEE104DBBFDB02E0B1
:10A6B0008ADAFEE1FFDA060F6DDB02E084DAFEE102
:10A6C0001BDBA8DB02E07FDAFEE116DBA0DB02E0A9
:10A6D0007ADAFEE111DB050F60DB02E074DAFEE1FD
:10A6E00029DB040F2BD348DBE9DA02E06CDAFEE168
:10A6F0006EDA0D0F65DA050F50DB02E064DAFEE179
:10A7000019DB040F53DB02E05EDAFEE113DB060F18
:10A7100041DB02E058DAFEE1EFDA85DB02E053DAF2
:10A72000FEE1EADA7ADB02E04EDAFEE1C3DA7BDB55
:10A7300002E049DAFEE1BEDA70DB02E044DAFEE173
:10A74000B5DA71DB02E03FDAFEE1B0DA66DB02E0A7
:10A750003ADAFEE1A7DA67DB02E035DAFEE1A2DAF7
:10A760005CDB02E030DAFEE176DA5DDB02E02BDA78
:10A77000FEE171DA52DB02E026DAFEE180DA53DB39
:10A7800002E021DAFEE17BDA48DB02E01CDAFEE1DE
:10A7900072DA49DB02E017DAFEE16DDA3EDB02E055
:10A7A00012DAFEE15CDA3FDB02E00DDAFEE157DAB5
:10A7B000070FFFDA02E007DAFEE159DA020F0FDBDA
:10A7C00002E001DAFEE153DA080F4CDA02E0FBD9CD
:10A7D000FEE114DBFDDAF9DA02E0F5D9FEE153DA45
:10A7E000090FEADA02E0EFD9FEE101DB30DACFDA75
:10A7F00002E0E9D9FEE153DA0A0F66DA02E0E3D9B2
:10A80000FEE1E5D9FEDA1FDA0B0FD5D902E0DBD97C
:10A81000FEE13FDA0B0F58DA02E0D5D9FEE1046E13
:10A82000FE0EDB04EEDAC8DA02E0CDD9FEE1046EFA
:10A83000FE0EDB040CDA30DA02E0C5D9FEE153DAB1
:10A84000E6DA02E0C0D9FEE14EDA050FBEDA02E038
:10A85000BAD9FEE148DAC7DA02E0B5D9FEE143DA57
:10A860000A0F32DA02E0AFD9FEE1B1D9FE0FC9DA40
:10A87000A3DA02E0A8D9FEE1AAD9FE0FE8D90CDAE2
:10A8800002E0A1D9FEE134DAC2DA02E09CD9FEE1AD
:10A890002FDA050F9ADA02E096D9FEE129DAA3DA77
:10A8A00002E091D9FEE124DA0A0F48D265DA11DA22
:10A8B00002E089D9FEE1EDD9C5DA02E084D9FEE1F2
:10A8C000E8D9040F67DA02E07ED9FEE1C4D9B1DA33
:10A8D00002E079D9FEE1BFD9050FC4D902E073D9EE
:10A8E000FEE185DAA9DA02E06ED9FEE1D8D9A1DA73
:10A8F00002E069D9FEE1D3D9050F5BDA02E063D942
:10A90000FEE1BDD99FDA02E05ED9FEE1B8D9040FBD
:10A910004DDA02E058D9FEE1B2D9060F4DDA02E075
:10A9200052D9FEE16BDA93D9D4D902E04CD9FEE1D9
:10A93000AAD988DA02E047D9FEE1A5D9040F36DAB0
:10A9400002E041D9FEE19FD9060F36DA02E03BD999
:10A95000FEE15ADA7CD9BDD902E035D9FEE17FD9D2
:10A9600071DA02E030D9FEE17AD9040F1FDA02E091
:10A970002AD9FEE174D9060F75D902E024D9FEE187
:10A9800026D9030F59DA02E01ED9FEE170D951DA57
:10A9900002E019D9FEE16BD9050F05DA02E013D9FF
:10A9A000FEE165D9070F5ED902E00DD9FEE10FD9AE
:10A9B000050F42DA02E007D9FEE15DD93ADA02E09A
:10A9C00002D9FEE158D9050FEED902E0FCD8FEE12C
:10A9D00052D923DA02E0F7D8FEE15BD92ADA02E0A5
:10A9E000F2D8FEE156D922DA02E0EDD8FEE157D9DD
:10A9F000060FD9D902E0E7D8FEE145D9070FDCD927
:10AA000002E0E1D8FEE1E7D95CD902E0DCD8FEE162
:10AA100026D9070FD1D902E0D6D8FEE1D8D8050F44
:10AA2000CED9FD0EDB28C7D802E0CDD8FEE1CFD8C5
:10AA3000060FCED9BED902E0C6D8FEE10CD902DAA3
:10AA400002E0C1D8FEE107D9040F78D179D9FC0E14
:10AA5000DB50D880DF5422E3FE0EDB50ACD802E09E
:10AA6000B2D8FEE1EBD8FE0EDB4098D8FE0EDB50EC
:10AA700030D902E0A8D8FEE1E1D8FE0EDB50020F8B
:10AA8000BAD9DFA009D07CD902E09DD8FEE1D6D8A2
:10AA9000FE0EDB28E84082D8DF2AD9D771D902E040
:10AAA00092D8FEE1046EFD0E3ED96AD902E08BD841
:10AAB000FEE1046EFC0E37D9020EE15C02E2E16AAF
:10AAC000E552E16E99D03CD9FC0EDB50D880DF54C2
:10AAD00016E396D802E077D8FEE179D816D990D857
:10AAE00002E071D8FEE18AD910D9DFA006D088D85B
:10AAF00002E069D8FEE17BD908D9DF2AE5D7FD0E4F
:10AB0000DB5059D802E05FD8FEE171D958D9FC0E6C
:10AB1000DB5051D802E057D8FEE169D9026E036AD2
:10AB2000FC0EDB403BD8020EE15C02E2E16AE5523A
:10AB3000E16E62D05CD8E652E66AF2EC50F0E55283
:10AB40000C0EE66E780EE66E17EC51F0E552E5520B
:10AB50002A0EE66E780EE66EA9DEE552E55276C064
:10AB60003CF077C03DF078C03EF079C03FF0DFECBC
:10AB700067F03E50E66E72C03CF073C03DF074C0AA
:10AB80003EF075C03FF0DFEC67F03E50E66EABDDA7
:10AB9000E552E5529EEC50F0E5522ED0E840E840F8
:10ABA0001F0B800D0250F324006E0350F420B2D826
:10ABB0000450EF121200070B056E010E0552120031
:10ABC0008BD8DB501200E846FE0B05061200046E1F
:10ABD000FE0EDB501200FD0EDBCFE9FFFE0EDBCFD9
:10ABE000EAFF1200E926000EEA22B7EF56F0D9CFAD
:10ABF000E6FFE1CFD9FF1200E552E7CFD9FF1200FF
:10AC0000070EDF14056E010E05521200020EDBCF97
:10AC100000F0030EDBCF01F01200DECF00F0DDCF3D
:10AC200001F0D89001501200080E005C000E01588F
:10AC30001200E66E6AEC69F0E5521200046EDF5015
:10AC4000026E036A1200D7D8FD0EDB501200B7D88F
:10AC5000FD0EDB501200BBDF070FE0EF55F0D4D83C
:10AC6000E0EF55F0C8D8FD0EDB28DBEF55F0AFDF85
:10AC7000030FE0EF55F0ABDF050FE0EF55F0A7DF76
:10AC8000060FE0EF55F0BAD8E0EF55F0030FDBEF19
:10AC900055F09DDFE0EF55F0040FDBEF55F0A7D83E
:10ACA000E0EF55F094DF080FE0EF55F090DF090F6B
:10ACB000E0EF55F08CDF0A0FE0EF55F0050FDBEF0A
:10ACC00055F0070FDBEF55F096D8FD0EDB04DBEFF8
:10ACD00055F0020FDBEF55F0026E036AFD0E120015
:10ACE000060FDBEF55F0046EFE0EDB04E0EF55F0CF
:10ACF0006EDFFE0FE0EF55F06ADF0B0FE0EF55F06F
:10AD0000DB50F80FE66EEBEF55F0026E036ADF5092
:10AD1000FBEF56F0016E0101FD510024E96EFE517A
:10AD20000120EA6E1200DB50026E036AFE0EDB2881
:10AD3000FBEF56F04CDF0C0FE0EF55F05CD85CD722
:10AD400056DF020EE126FD0EDB50DF6E1200E66ECE
:10AD500042DF020EF2EF55F03EDF040EEB6A050E05
:10AD6000EB6A1200E66E37DF060EF2EF55F0E552A1
:10AD7000E750EE6EED6A12003ADFFD0EDB50120076
:10AD8000FE0EDB28DBEF55F0090FDBEF55F00A0F65
:10AD9000DBEF55F058DF46EF56F055DF4CEF56F03D
:10ADA00052DF5EEF56F04FDF61EF56F04CDF70EF91
:10ADB00056F049DF69EF56F046DFDBEF55F0026EE3
:10ADC000036AFD0EDB40CEEF55F03DDFC4EF56F0D9
:10ADD00083DFDB281200FBDE030F27EF56F033DFA3
:10ADE000080FDBEF55F0090F2EDFC7EF56F0046EAA
:10ADF000FE0EDB281200E840CEEF55F0E8DE020F31
:10AE000012006ADFDB041200E2DE040F1200040FFE
:10AE1000D0EF56F0030FCDEF56F0070FCAEF56F004
:10AE2000020FCAEF56F0030FD3EF56F0050FD6EF1F
:10AE300056F0030FD0EF56F0CBDFCAEF56F0060FF7
:0AAE4000D9EF56F0020FCDEF56F0E7
:06AE4A0061EC5CF0FB0E60
:10AE5000DBCFF3FFDB06F35000090AE0AFEC5CF058
:10AE6000FA0E1AEC5DF0F3E1011CF1E1010E01D0E4
:10AE7000000E90EF5CF061EC5CF03B0EE12402E32D
:10AE8000E168E652E16E010EDB6A020EDB6AF90E42
:10AE9000DBCFF6FFFA0EDBCFF7FFFB0EDBCFF8FFC1
:10AEA0000800F550DF6EDF5002E1B4EF5BF0250ED5
:10AEB000DF5C02E0A7EF5BF0030EDB6A040EDB6AE7
:10AEC000050EDB6A060EDB6A070EDB6AC9EC5BF077
:10AED0002D0EDF5C0CE02B0EDF5C09E0200EDF5C4A
:10AEE00006E0230EDF5C03E0300EDF5C1AE1DF508A
:10AEF000300A14E0130A0FE0030A0AE00B0A05E027
:10AF0000060AE4E1030EDB80E1D7030EDB82DED725
:10AF1000030EDB84DBD7030EDB86D8D7030EDB887A
:10AF2000D5D72A0EDF5C1BE1C5EC5BF013EC5CF0BF
:10AF300010E0030EDB803D683E68130EDBCF42F06D
:10AF4000140EDBCF43F0B2EC67F0040E3BC0DBFF26
:10AF500003D0130EFCEC5BF0C9EC5BF00BD0090ED8
:10AF6000DB6A6AEC5CF003E0DEEC5CF0FAD7090E19
:10AF7000FCEC5BF0030EDBB0DB982E0EDF5C1BE11C
:10AF8000C9EC5BF02A0EDF5C0BE1C5EC5BF013EC67
:10AF90005CF003E1130E4EEC5CF0C9EC5BF00BD0FF
:10AFA000090EDB6A6AEC5CF003E0DEEC5CF0FAD7D9
:10AFB000090E4EEC5CF0680EDF5C07E1C9EC5BF05B
:10AFC000680EDF5C1DE1030E18D0740EDF5C17E025
:10AFD0007A0EDF5C14E0480EDF5C06E0540EDF5CA6
:10AFE00003E05A0EDF5C02E1020E07D06C0EDF5C5C
:10AFF00003E06A0EDF5C04E1010EA1EC5CF0C9DB4A
:10B00000DF506E0A01E17FD31E0A01E192D1200ACE
:10B0100001E18FD13F0A01E149D11A0A01E146D18C
:10B020000D0A01E143D1200A01E140D13A0A01E1D0
:10B030003DD1200A01E13AD1260A01E135D10D0ABC
:10B0400001E132D11A0A01E1D9D0200A4AE0300ADE
:10B050001FE0460A0EE0250A01E083D3D950F90F1C
:10B06000E96EFF0EDA20EA6E010EEE5E000EEE5A79
:10B07000EE5AAFEC5CF0250EE66E95DB03E1011CA9
:10B0800001E169D3ABEC5CF001E26BD3DB2A69D35D
:10B09000080EDB6A040EDB50010806E2040EDB0436
:10B0A00073EC5CF0DB508BDB080EDB5009E0030E29
:10B0B000DB50010B05E172DB01E04DD3080EDB6ACA
:10B0C00064DBEFCFDFFF23EC5DF003E1011C01E166
:10B0D00042D3ABEC5CF001E3DB2A60DB01E141D35E
:10B0E0003AD3070EDB5002080FE1EFEC5CF0030EE1
:10B0F000B6EC5CF00E0EEECFDBFF0F0EEECFDBFFFB
:10B10000100EEECFDBFF20D0F70EDBCF03F0F80EF2
:10B11000DBCF04F0020E035E000E045AF70E03C0EC
:10B12000DBFFF80E04C0DBFF03C0E9FF04C0EAFF49
:10B13000A6EC5CF0026A0E0E00C0DBFF0F0E01C031
:10B14000DBFF100E02C0DBFF0E0EDBCFE6FF0F0EA3
:10B15000DBCFE6FF100EDBCFE6FF13EC73F0E5521A
:10B16000E552E552130E3CC0DBFF140E3DC0DBFF81
:10B17000060EDB5005E0130EEAEC5CF001E26ADB40
:10B180000EEC5DF002E2130E37DBD1EC5CF006E072
:10B19000040EEAEC5CF002E2050E2EDB030EDBB0DF
:10B1A00005D0FCDA01E0D7D2080EDB6A090EDB6AB3
:10B1B0000E0EDBCFF6FF0F0EDBCFF7FF100EDBCF4F
:10B1C000F8FF0800F550DF6EDF5014E014EC5DF07E
:10B1D00011E223EC5DF003E1011C01E1BCD2BBDB19
:10B1E00001E3DB2A090EDB2AD9500E0FE96E000EAF
:10B1F000CBDBE7D7D3DA01E1B4D2ADD2C6DA110E98
:10B20000EECFDBFF120EEDCFDBFF110EDBCFE6FF43
:10B21000120EDBCFE6FF05EC73F0E552E552130E9C
:10B22000F3CFDBFF140EF4CFDBFF060EDB5004E0A0
:10B23000130ED0DB01E20EDB0EEC5DF002E2130E2A
:10B24000DBDAAFDB05E0040EC5DB02E2050ED4DA83
:10B25000030EDBB005D0A2DA01E07DD2080EDB6A76
:10B26000090EDB6A110EDBCFE9FF120EDBCFEAFF1E
:10B27000EFCFDFFFDF5014E0D7DB12E2E4DB03E1C6
:10B28000011C01E168D267DB01E3DB2A090EDB2A3E
:10B29000110EDB2ADBCFE9FF120EE8E3DB2AE6D74B
:10B2A0007DDA01E15ED257D2030EDB8E070EDB049E
:10B2B00010E195DB040E5ADB0A0EEECFDBFF0B0E1E
:10B2C000EECFDBFF0C0EEECFDBFF0D0EEECFDBFF84
:10B2D0006CD0070EDB5003082CE1030EDBAE0DD063
:10B2E000B2DA020E76DAEFCF00F0016A026A036A80
:10B2F00000AE39D00168026835D0F70EDBCF01F01F
:10B30000F80EDBCF02F0020E015E000E025AF70EBD
:10B3100001C0DBFFF80E02C0DBFF01C0E9FF02C085
:10B32000EAFFEFCF00F00A0E00C0DBFF0B0EDB6A76
:10B3300038D0070EDB50020809E1030EDBAE04D063
:10B3400059DB02AE10D00ED055DB0DD0030EDBAEB4
:10B3500012D079DA020E3DDAF9DA026A036A01AE36
:10B3600002D002680368E2DA0C0E02C0DBFF0D0EA9
:10B3700003C0DBFF1AD0F70EDBCF02F0F80EDBCFF5
:10B3800003F0020E025E000E035AF70E02C0DBFF4E
:10B39000F80E03C0DBFF02C0E9FF03C0EAFFD6DA04
:10B3A000C5DA0C0EDB6A0D0EDB6A060EDB5005E11A
:10B3B000010EF36E050EF3CFDBFF150EDB6A160EE2
:10B3C000DB6AD950370F006E000EDA20016E390E9D
:10B3D00000C0DBFF3A0E01C0DBFF380EDB6A080E4F
:10B3E000DB6A0A0EAEDADF50780A12E0200A10E0BB
:10B3F000280A0CE0200A0AE03F0A06E00D0A02E0F3
:10B40000200A08E1020E05D0080E03D0080EDF2640
:10B41000100E97DA030EDBBE02D0DB92DB94DB501A
:10B42000800B24E08ADAD890030EEB50000A08E67D
:10B43000000EEE5C000EEE58000EEE58000EEE58B8
:10B4400015E213DA4068416842684368CDEC72F057
:10B450000A0E37C0DBFF0B0E38C0DBFF0C0E39C005
:10B46000DBFF0D0E3AC0DBFF2D0E08D0030EDBA272
:10B4700002D02B0E03D0DBA408D0200EF36E170EE3
:10B48000F3CFDBFF150EDB2A02D0170EDB6A050EA9
:10B49000DB5003E1B7D901E189D0400E006EE70E21
:10B4A000016E000E026E070EDBCF03F0046A056A20
:10B4B000066A03C040F004C041F005C042F006C077
:10B4C00043F0D3D938EC73F000503724F36E0150B9
:10B4D0003820F46E02503920F86EF4CFF7FFF3CF26
:10B4E000F6FF0800090EF5CFDBFF580EDF5C0FE119
:10B4F000610EF36E090E7BD90AE3200E006E090E71
:10B50000DBCFE7FF0050E75E090EE7CFDBFF070E5A
:10B51000DBCF00F0016A026A036A0FDA00C040F074
:10B5200001C041F002C042F003C043F0EECF3BF057
:10B53000EECF3CF0EECF3DF0EFCF3EF038EC73F0C5
:10B540003EC0EDFF3DC0EDFF3CC0EDFF3BC0EFFF57
:10B55000390EDBCFE9FFDB063A0EDBCFEAFF01E273
:10B56000DB06090EDBCFEFFF150EDB2A4BD995E189
:10B57000030EDBA61DD06F0EDF5C06E1C1D918E318
:10B58000150EDB285BDA14D0780EDF5C09E0580E6C
:10B59000DF5C06E0620EDF5C03E0420EDF5C08E188
:10B5A000020EF36E160EF3CFDBFF02D0150EDB6A30
:10B5B000030EDB50100B0EE0040EDBCF00F0050E87
:10B5C000DB50D880005406E2060EDB5003E1040E87
:10B5D000DB5034DA95D90AE2050EDBCFE7FF150E12
:10B5E000DB50E75E050EE7CFDBFF02D0050EDB6A1E
:10B5F000040EDBCF00F0160E45D9D880005414E2BB
:10B60000160EDBCFE6FF150EDBCFE6FF040EDBCF19
:10B61000E6FF050EDB50E552E75CE552D880E754C3
:10B62000E552D880E7545FD9030EDB50010B0BE1E4
:10B63000080EDB5008E0B2D801E08DD0080EDB50D8
:10B64000BED8080EDB6A170EDB5007E088D9170E4C
:10B65000F1D903E1011C01E17ED0160EDB5016E0AA
:10B660007ED9300EE66E9FD802E1011C74E077D9D6
:10B67000DFCFE6FF8BEC72F0E552E552E552F4CFF6
:10B6800001F00001F31C02E1011C65E0050EDBCFB7
:10B6900000F0160EDB50D880005409E2050EDBCF17
:10B6A000E7FF160EDB50E75E050EE7CFDBFF300E3F
:10B6B000E66E050ECBD94FE1390EDB2ADBCFE9FF71
:10B6C0003A0E01E3DB2ADBCFEAFF090EEFCFDBFF07
:10B6D000DB500EE044D9090EADD902E1011C3BE07C
:10B6E000390EDB2ADBCFE9FF3A0EEDE3DB2AEBD79D
:10B6F00055D831E1160EDBCFE6FF080EC3D8E55270
:10B70000E7245DD82ED0070EDB50030A1CE0010AA7
:10B7100014E0030A07E07BD9DBCFEEFF020EDBCF9C
:10B72000EDFF1FD0F5D8056A03AE02D004680568A6
:10B730002CD8BCD805C0EEFF14D0EAD803BE0468EC
:10B7400024D8B4D80ED063D9DBCFEFFF0AD07BD991
:10B7500005E1011C03E1F368F46810D0FCD801E3B3
:10B76000DB2A79D950EF57F0010EDBCF00F0020E43
:10B77000DBCF01F000C0F3FF01C0F4FF3B0EE15C42
:10B7800002E2E16AE552E16ECBD029D9020EB6EFB2
:10B790005CF061D90800F550DF6E1200200EE66EF5
:10B7A000080E26EF5DF08BEC72F0E552E552E552A3
:10B7B000F3CF00F0F4CF01F00001F31C1200006E93
:10B7C000016AD950010F4DD90050EE260150ED22EB
:10B7D0001200045E000E055AF70E04C0DBFFF80EDF
:10B7E00005C0DBFF04C0E9FF05C0EAFF1200DBCFA4
:10B7F000F4FFF350F45C1200DB50E76E040EE7CF69
:10B80000DBFF12000A0EDBCF00F00B0EDBCF01F0E6
:10B810000C0EDBCF02F00D0EDBCF03F00050011059
:10B82000021003101200130EEECFDBFF140EEDCF4B
:10B83000DBFF130EDBCF00F0140EDBCF01F00001B5
:10B84000800E01141200F70EDBCF04F0F80EDBCFF0
:10B8500005F01200050EDB50E66ED950130F01D92A
:10B86000E552E750EE6EED6A12000A0EDBCF3BF0B8
:10B870000B0EDBCF3CF00C0EDBCF3DF00D0EDBCF23
:10B880003EF01200DBCFE6FF150EDBCFE6FF050E24
:10B89000DB50E552E724E552E7241200DB50CED816
:10B8A000010EF36E060EF3CFDBFF1200EE50EFCF6A
:10B8B000EAFFE96E02C0EEFF03C0EEFF04C0EEFF38
:10B8C0001200D9CFE6FFDACFE6FFE1CFD9FFE2CF12
:10B8D000DAFF1200DFCFE6FFE66A72EC73F0E552A2
:10B8E000E552F3501200E76E080EE7CFDBFF1200BF
:10B8F000EECF00F0EECF01F0EFCF02F0036A1200BE
:10B90000050EDBCF00F0150EDB50D880005412007E
:10B91000010EDBCF02F0020EDBCF03F0046A12004F
:10B92000E552E5CFDAFFE7CFD9FF12000A0E00C0DB
:10B93000DBFF0B0E01C0DBFF1200D9500A0F31EF05
:10B940005DF0F36E070EF3CFDBFF1200EECF00F0D9
:10B95000EFCF01F01200010EDB2A020E1200FC0EE6
:10B96000DBCFE6FFFD0EDBCFE6FF1200005E000E30
:10B97000015AF70E00C0DBFFF80E01C0DBFF00C06C
:10B98000E9FF01C0EAFF1200DA20EA6EEF2AEECFEB
:10B99000F6FF000EEF22EECFF7FFEF22EECFF8FF1B
:10B9A0001200040EDBCFE6FF130EDB50E552E75C1E
:10B9B0009ADFDB5004DF060EDB501200090EDB506D
:10B9C0000A0DF350DF24D00FE76E090EE7CFDBFF3F
:10B9D000C9EF5BF0DB50F36E050EF7EF5BF0F70E8F
:10B9E000DBCF00F0F80EDBCF01F01200DFCFE6FF77
:10B9F000D3EF5BF028DF030EECDE78EF5CF025EC94
:10BA000057F0E552E552E552E55200091200BDDE5D
:10BA1000EE50EFCFEAFFE96E010E1200130EDB507D
:10BA2000F36E040EF7EF5BF0040EDB50F36E090EBD
:10BA3000F7EF5BF0DBCFE6FFD3EF5BF0E76E050ED1
:10BA4000E7CFDBFF12008BDFF6EF5CF0DBCFE6FF2A
:10BA500086DFFFEF5CF0D950F90FE96EFF0EC4EFFF
:0CBA60005CF0E96E000EDA20EA6E1200C5
:04BA6C00F4EC61F0A5
:10BA70001100D8CFE4FFE0CFE4FFE46EF4EC61F016
:10BA8000E550E5CFE0FFE5CFD8FF1000CEDB47EC77
:10BA900061F0FDD7EAEC61F0FBEC61F0BC0E005CFC
:10BAA000020E015807E302EC62F0BC0E025C020ECB
:10BAB00003580DE2FBEC61F002EC62F00250005C16
:10BAC0000350015802E2010E03D0020E01D0000E15
:10BAD000E552E7CFD9FF1200EAEC61F0420EE12611
:10BAE00068EC62F00101F0510001605D006E61518F
:10BAF0000101F155016E00500001C0270150C12322
:10BB00000101F2510001625D006E63510101F355C4
:10BB1000016E00500001C2270150C3230001C80E6E
:10BB2000A91939E1AA5137E1E66AE66AF00EE66E34
:10BB3000DE0EEFEC61F0C0C000F0C1C001F0C80E35
:10BB4000426E436AC0C03DF0C1C03EF0DFEC61F020
:10BB5000D90E026EDE0EEADB020EC2EC61F0C2C04C
:10BB600000F0C3C001F0C80E426E436AC2C03DF08F
:10BB7000C3C03EF0DFEC61F0C20E026EDE0ED6DB1B
:10BB8000030EC2EC61F00001C06BC16BC26BC36BF2
:10BB90000001A96BAA6BE66AB9DB08E260C0F0F1AC
:10BBA00061C0F1F162C0F2F163C0F3F1030EE66E21
:10BBB000ADDB03E20001060E9F6F0001A92B000E12
:10BBC000AA23420EE15C02E2E16AE552F3D3010EE0
:10BBD000E66E13EC62F0020EE66EB7EC6FF0E55223
:10BBE000F3CFBDF0F4CFBEF0F3CFE6FFF4CFE6FF26
:10BBF000BBC0E6FFBCC0E6FF4DDF09EC62F0000110
:10BC00009A6FE85005E0A45103E1010EA46FA0DB98
:10BC10009A5102E1A46B000CA4510AE0A4DBE834C1
:10BC200007E200506408000E015402E291DB020CAE
:10BC3000A4510BE098DBD880E85004E79C0E005C30
:10BC4000FF0E015802E284DB010E1200C3DB230E5B
:10BC5000E126E66AE66AAC0EE66EDE0EC0DBB7DF12
:10BC6000E76E020EE7CFDBFFDB50020806E10001C2
:10BC7000A05100080AE2A00708D0020EDB0405E18B
:10BC8000050E0001A05D01E2A02B0001A151A05D05
:10BC9000030804E1020EA15D01E2A12BA151A05D08
:10BCA00004E1A151000801E2A107010EDB6AA1C075
:10BCB000DFFF040E0001A125DF5C26E2DFCFE6FFF7
:10BCC000E66A960E006EDE0E016E026A00C0E6FFA6
:10BCD000E66E02C0E6FFD950030FA0DBE6EC71F080
:10BCE000036E070EE15E0350DF500001A05D04E12A
:10BCF00058DB09EC6AF003D054DBFAEC69F089DB1D
:10BD0000010EDB2ADF2AD5D7030EE66E43DB05E200
:10BD10000001060E9F6F010EA06FE66A3BDB04E296
:10BD200000019F69A0C0EDF1230EE15C02E2E16A2F
:10BD3000E55240D3D9CFE6FFE1CFD9FF070EE12688
:10BD400000019F51090A01E132D2010A01E1E4D167
:10BD50000F0A01E1DFD1010A01E1D9D0030A01E1B3
:10BD6000D0D0010A70E0050A67E0010A01E021D2A3
:10BD700017EC69F0E66A70EC69F0E552E66AE66A8B
:10BD8000800EE66EDE0EE66EDCEC69F0E552E55202
:10BD9000E552E552E66A010EE66E060EE66EDF0E2D
:10BDA000E66EDCEC69F0E552E552E552E552E66AF2
:10BDB000020EE66E690EE66EDE0EE66EDCEC69F0F3
:10BDC000E552E552E552E552E66A030EE66E060ECE
:10BDD000E66EDF0EE66EDCEC69F0E552E552E55208
:10BDE000E552E66A040EE66E550EE66EDE0EE66E6F
:10BDF000DCEC69F0E552E552E552E552E66A050EE3
:10BE0000E66E3E0EE66EDE0EE66EDCEC69F0E552A6
:10BE1000E552E552E552E66A060EE66E280EE66E3B
:10BE2000DE0EE66EDCEC69F0E552E552E552E552D5
:10BE30000001010E9F6FBED1C7D9010803E10001C7
:10BE4000040E9F6FB7D1E66AE66A120EE66EDE0E4A
:10BE5000E66EDCEC69F0E552E552E552E552E66A41
:10BE6000010EE66EFC0EE66EDD0EE66EDCEC69F0B1
:10BE7000E552E552E552E552E66A020EE66EE60E3E
:10BE8000E66EDD0EE66EDCEC69F0E552E552E55259
:10BE9000E552E66A030EE66ED00EE66EDD0EE66E45
:10BEA000DCEC69F0E552E552E552E552E66A040E33
:10BEB000E66EBA0EE66EDD0EE66EDCEC69F0E5527B
:10BEC000E552E552E552E66A050EE66E060EE66EAE
:10BED000DF0EE66EDCEC69F0E552E552E552E55224
:10BEE000E66A060EE66E280EE66EDE0EE66EDCEC08
:10BEF00069F0E552E552E552E5520001050E9F6FEB
:10BF000059D162D9010802E100019F2B53D15FDEB4
:10BF1000E76E060EE7CFDBFF060EDB50020807E1F7
:10BF20000001A051000802E20001A00709D0060E9E
:10BF3000DB0406E1030E0001A05D02E20001A02B7C
:10BF4000E66AE66AA40EE66EDD0EE66EDCEC69F0EB
:10BF5000E552E552E552E552E66A010EE66EA7C0EB
:10BF6000E6FFA8C0E6FFDCEC69F0E552E552E552D9
:10BF7000E5520001A0510EE1E66A020EE66E8E0E59
:10BF8000E66EDD0EE66EEBEC69F0E552E552E55249
:10BF9000E5520DD0E66A020EE66E8E0EE66EDD0EFE
:10BFA000E66EDCEC69F0E552E552E552E55200013F
:10BFB000A0050EE1E66A030EE66E780EE66EDD0E73
:10BFC000E66EEBEC69F0E552E552E552E5520DD034
:10BFD000E66A030EE66E780EE66EDD0EE66EDCECCB
:10BFE00069F0E552E552E552E552020E0001A05D0E
:10BFF0000EE1E66A040EE66E620EE66EDD0EE66E99
:10C00000EBEC69F0E552E552E552E5520DD0E66AF7
:10C01000040EE66E620EE66EDD0EE66EDCEC69F096
:10C02000E552E552E552E552030E0001A05D0EE136
:10C03000E66A050EE66E4C0EE66EDD0EE66EEBEC85
:10C0400069F0E552E552E552E5520DD0E66A050E7B
:10C05000E66E4C0EE66EDD0EE66EDCEC69F0E55247
:10C06000E552E552E552E66A060EE66EA7C0E6FF27
:10C07000A8C0E6FFDCEC69F0E552E552E552E55276
:10C08000E66AB7EC6FF0E552DE52F3CFDEFFF4CF95
:10C09000DDFFDD52010EDBCF00F0020EDBCF01F041
:10C0A000580E005C020E015834E20001A051030A50
:10C0B0002EE0010A1DE0030A08E0010A01E029D090
:10C0C00000019F690101ED6B24D00001090E9F6FF3
:10C0D000640EE66EE66AF3EC68F0E552E552E66A55
:10C0E00070EC69F0E5520001A06B0001A16B11D06A
:10C0F0000001070E9F6F640EE66EE66AF3EC68F0CF
:10C10000E552E552E66A70EC69F0E55202D0FF00B4
:10C1100000D050D0E1DC4ED0E66870EC69F0E5521A
:10C12000E66AE66A360EE66EDD0EE66EEBEC69F068
:10C13000E552E552E552E552E66A020EE66E200E41
:10C14000E66EDD0EE66EEBEC69F0E552E552E55287
:10C15000E552E66A030EE66E0A0EE66EDD0EE66E48
:10C16000EBEC69F0E552E552E552E552E66A040E61
:10C17000E66EF40EE66EDC0EE66EEBEC69F0E55270
:10C18000E552E552E552D00EE66E070EE66EF3EC90
:10C1900068F0E552E5520001060E9F6FE66A70EC0A
:10C1A00069F0E5520101ED6B0101F76B03D04EDD43
:10C1B00001D000D0070EE15C02E2E16AE552E16ED7
:10C1C000E552E7CFD9FF120081B01FD00001ACC00B
:10C1D00000F0ADC001F0AEC002F0AFC003F0AC2B78
:10C1E000000EAD23AE23AF23D880D00E0054070E2F
:10C1F0000154000E0254000E035416E2AC6BAD6BFA
:10C20000AE6BAF6B010EAB6F000C0001AB050CE128
:10C21000AC51AD11AE11AF1102E1AB6B010CAC072B
:10C22000000EAD5BAE5BAF5B000CD4D8020EE12616
:10C230000F0EC112580EDE6E020EDD6E9B8CDFCF2C
:10C2400000F0DF06010EDBCF01F001E2DB0600505B
:10C250000110F5E10F014869496906D8020EE15C59
:10C2600002E2E16AE552A6D0949C8B8C828CB4ECFD
:10C270006FF01FEC70F040EC6DF08B8E828EE66AF2
:10C28000F2EC50F0E5520101ED6B94EF63F0A2D8AF
:10C29000020EE126FF0E00019F5D2DE10101F65126
:10C2A00006E10101F75103E1010EE66E01D0E66AF5
:10C2B0000A0EE66ED70EE66E230EE66E3D0EE66EB5
:10C2C000A1EC62F0006E050EE15E00509AEC55F0B4
:10C2D0000001DE0504E1DE6B0001080E9F6F030E16
:10C2E000E66E14D808E20001060E9F6FA06BE66AA6
:10C2F00070EC69F0E5529AEC71F0000901E01ADD8A
:10C30000020EE15C02E2E16AE55254D0B7EC6FF054
:10C31000E552F3CFDEFFF4CFDDFFDECF00F0DDCF5F
:10C3200001F0580E005C020E01581200036E046A00
:10C3300002C0E6FFE66E04C0E6FFD950020F6ED8D9
:10C34000E6EC71F0056E070EE15E0550E66A12003C
:10C350000001BD51BB5D0001A26F0001BE51BC597F
:10C360000001A36F12000001BD51BB5D026EBC5104
:10C37000BE55036E00010250A25D006E0350A3592A
:10C38000016E1200E66ED950020F48D8FAEC69F03F
:10C3900009EF62F048D80001580EF35C020EF45821
:10C3A0001200E66A010EDB50020FE66ED950030F51
:10C3B0000EEF62F0E16EE552E7CFD9FF12008CEC90
:10C3C00067F03DC000F03EC001F03DC0E6FF3EC05A
:10C3D000E6FF1200D9CFE6FFE1CFD9FF1200E66EEB
:10C3E000DCEC69F009EF62F0DACFE4FFE652E552E7
:10C3F000E5CFDAFF1200FD0EDBCF00F0FE0EDBCF43
:10C4000001F01200FB0EDBCF02F0FC0EDBCF03F0DD
:10C410001200E552E552E552E5521200E66E000EBA
:10C42000DA20E66E1200B7EC6FF0E552F3CFBBF006
:06C43000F4CFBCF0120085
:0AC43600BFD9CEDBEADAC7DB4FDA2C
:10C44000C5DB76D2B8D9C2DBE3DAC5DB48DAC3DBB9
:10C450006FD2A4DBF0DA43DB0CDBE4DA38E0F1DAAC
:10C4600067DB07DBE2DA33E0F2DA6BDB02DB40DBCF
:10C470009EDB2DE0F2DA6EDBFCDA3ADB9CDB27E0B8
:10C4800001DB95DB07E00EDB96DB04E0D4DAA8DB0A
:10C49000F8811DD0F7DA8FDB07E004DB88DB04E0EE
:10C4A000D0DA9EDBF88313D0EDDA85DB07E1FADA28
:10C4B00082DB04E1D2DA9FDBF88509D0E3DA77DBAF
:10C4C00006E1F0DA74DB03E1C2DA95DBF8876BD3BF
:10C4D00065DB020EE126C7DA030E92DA00010010D6
:10C4E000606F01C061F0200E426E436A60C03DF093
:10C4F00001C03EF08CEC67F03DC060F03EC061F0E2
:10C50000040EB1DA050E7CDA00010010626F01C082
:10C5100063F0200E426E436A62C03DF001C03EF0FF
:10C520008CEC67F03DC062F03EC063F0060E9BDA13
:10C53000070E19DB020EE15C02E2E16AE552E16EF0
:10C5400032D32CDB0A0EE126FB0EDBCF00F0FC0E13
:10C55000DBCF01F0FD0EDBCF02F0FE0EDBCF03F0F0
:10C5600000C041F001C042F002C043F003C044F0FB
:10C57000F9C13CF0FAC13DF0FBC13EF0FCC13FF017
:10C5800036EC66F03CC0F9F13DC0FAF13EC0FBF17B
:10C590003FC0FCF19DDFFA0EDB5001E1BED001018E
:10C5A000F2510001625D046E63510101F35513DA2B
:10C5B0003CC08EF03DC08FF03EC090F03FC091F087
:10C5C0000101F0510001605D046E61510101F155FE
:10C5D00002DA3CC092F03DC093F03EC094F03FC000
:10C5E00095F0CFD9C3D997DAFFD98EC03CF08FC070
:10C5F0003DF090C03EF091C03FF04FD972C041F085
:10C6000073C042F074C043F075C044F0DED9C2D9A3
:10C61000DFCF72F0010EDBCF73F0020EDBCF74F0D0
:10C62000030EDBCF75F0BFD9A1D962DADDD992C094
:10C630003CF093C03DF094C03EF095C03FF02DD942
:10C6400076C041F077C042F078C043F079C044F042
:10C65000BCD9B2D9DFCF76F0010EDBCF77F0020E76
:10C66000DBCF78F0030EDBCF79F0416A426A400EEF
:10C67000436EDED9A0DA0EE00001766B776B400ED8
:10C68000786F796F43DA080E0101F815080802E1A6
:10C69000010EF66F416A426A540E436E420EC8D9CB
:10C6A00086DA0FE00001766B776B540E786F420EDE
:10C6B000796F2CDA040E0101F815040802E1010E6D
:10C6C000F66F416A426A400E436E446EAED90EE088
:10C6D0000001726B736B400E746F756F12DA020E8D
:10C6E0000101F815020802E1010EF66F416A426A83
:10C6F000EC0E436E420E446E95D90FE00001726B52
:10C70000736BEC0E746F420E756FFBD9010E010155
:10C71000F815010802E1010EF66F0A0EE15C02E273
:10C72000E16AE552E16E3FD20001726B736B800EDD
:10C73000746F420E756F766B776B786B796F866B63
:10C74000876B886B896B86C082F087C083F088C056
:10C7500084F089C085F086C07EF087C07FF088C0F5
:10C7600080F089C081F0966B976B986B996B96C03F
:10C7700092F097C093F098C094F099C095F096C04D
:10C780008EF097C08FF098C090F099C091F08A6BAE
:10C790008B6B8C6B3F0E8D6F1200D950F70FE96ECB
:10C7A000FF0EDA20EA6EE8D9E7D9B5D9DFEC67F0F9
:10C7B0003E50E66E1200F2D9FE0EDBCF14F014C02C
:10C7C0003EF00FEC66F03CC010F03DC011F03EC0F2
:10C7D00012F03FC013F01ADA3CC015F03DC016F05D
:10C7E0003EC017F03FC018F044D910C03CF011C053
:10C7F0003DF012C03EF013C03FF035EC66F0AAD910
:10C80000F80EDBCF3DF0F90E8FD93CC01DF03DC0D6
:10C810001EF03EC01FF03FC020F0F8D93CC021F010
:10C820003DC022F03EC023F03FC024F022D91DC0FD
:10C830003CF01EC03DF01FC03EF020C03FF035EC84
:10C8400066F03CC019F03DC01AF03EC01BF03FC07E
:10C850001CF00FD90CC03CF00DC03DF00EC03EF0F6
:10C860000FC03FF0CCEC66F0A1EF65F01FEC67F075
:10C8700036D99A0E416E990E426E190E436E3F0ED6
:10C88000446E1FEF67F03BC041F03CC042F03DC03A
:10C8900043F03EC044F078EF65F0CCEC66F0BCD9D4
:10C8A000BBD958D98CD94DD9E4D86FD936EC66F0BC
:10C8B0003CC0DEFF3DC0DEFF3EC0DEFF3FC0DDFF0F
:10C8C000DD52DD52D9CFE9FFDACFEAFFEECF00F03B
:10C8D000EECF01F0EECF02F0EFCF03F0120024D93B
:10C8E0003CC02DF03DC02EF03EC02FF03FC030F0D8
:10C8F000C0D829C03CF02AC03DF02BC03EF02CC06F
:10C900003FF035EC66F03CC025F03DC026F03EC05F
:10C9100027F03FC028F0ADD808C03CF009C03DF07A
:10C920000AC03EF00BC03FF01FEC67F098EF65F0D7
:10C93000FBD83CC031F03DC032F03EC033F03FC0C8
:10C9400034F097D804C03CF005C03DF006C03EF07E
:10C9500007C03FF036EC66F0C2D83CC03BF03DC0AB
:10C960003CF03EC03DF03FC03EF01DD155D9E0D86F
:10C9700039EF65F0416A426A800E436EBF0E446E25
:10C9800012007EC03CF07FC03DF080C03EF081C010
:10C990003FF012003CC07EF03DC07FF03EC080F012
:10C9A0003FC081F0120082C03CF083C03DF084C0E3
:10C9B0003EF085C03FF012003CC082F03DC083F0E5
:10C9C0003EC084F03FC085F01200DFD835EC66F041
:10C9D00079D8CCEF66F0056E04C03DF03E6E22ECD7
:10C9E00066F07DD8DFEF65F036EC66F078D88AC067
:10C9F00041F08BC042F08CC043F08DC044F0120077
:10CA0000B2D8DBCF00F000C001F0006ADF501200A6
:10CA10008BD83CC029F03DC02AF03EC02BF03FC06F
:10CA20002CF0120078D8D7EF65F075D8DBEF65F001
:10CA3000446E78EF65F0F70EDBCF3DF0F80E94EF23
:10CA400065F0F90EDBCF3DF0FA0E94EF65F0FB0ECA
:10CA5000DBCF3DF0FC0E94EF65F0FD0EDBCF3DF03B
:10CA6000FE0E94EF65F0E66E23EC6EF0E552DF6E9D
:10CA700012003CC041F03DC042F03EC043F03FC018
:10CA800044F012008ADEDEDC046E090EE15E045022
:10CA90003BC000F03CC001F03DC002F03EC003F0DE
:10CAA00043EF64F07ADEC7DC096E090EE15E0950DF
:10CAB0003BC005F03CC006F03DC007F03EC008F0AA
:10CAC00043EF64F0FB0EDBCF41F0FC0EDBCF42F016
:10CAD000FD0EDBCF43F0FE0EDBCF44F012003CC076
:10CAE00000F03DC001F03EC002F03FC003F0120074
:10CAF00076C03CF077C03DF078C03EF079C03FF0A2
:10CB0000120038DF3EDFB2DECAEF64F033DF4BDF06
:10CB1000ADDEDCEF64F072C03CF073C03DF074C079
:10CB20003EF075C03FF01200DBCF3EF022EF66F022
:10CB30003CC004F03DC005F03EC006F03FC007F029
:10CB400012003CC008F03DC009F03EC00AF03FC0F2
:10CB50000BF012003CC00CF03DC00DF03EC00EF0DA
:10CB60003FC00FF01200E66E23EC6EF0E552E76E68
:10CB7000010EE7CFDBFF1200EECFE6FFEECFE6FFC0
:10CB8000EECFE6FFEECFE6FF120000C03CF001C0A2
:10CB90003DF002C03EF003C03FF01200D9CFE6FFE7
:10CBA000E1CFD9FF1200E552E7CFD9FF12000FEC19
:10CBB00068F0010A120006EC68F0010A1200416AEE
:10CBC000426A436A400E446ECCEF66F0FC0EDBCF47
:10CBD0003DF0FD0E1200FA0EDBCF3DF0FB0E120011
:10CBE0003CC072F03DC073F03EC074F03FC075F0C1
:10CBF00088DF010112003CC076F03DC077F03EC0F6
:10CC000078F03FC079F082DF01011200F60EDBCF31
:0ECC10003DF0F70E94EF65F055DF1FEF67F073
:02CC1E00369E40
:10CC200005D0369E3EAE02D03E6C368E3EC038F009
:10CC3000376A486A476A860E396E3A6A89EF68F041
:10CC4000369E08D0369E3EAE05D03D6C3E1EE86A4C
:10CC50003E22368E3EC038F03DC037F0486A476A03
:10CC60008E0E396E3A6A89EF68F0447E366AC5ECFA
:10CC700068F0DDEC68F036B66DEF68F036A20AD0E9
:10CC800036AA03D036BE6DEF68F036A479EF68F0AF
:10CC900076EF68F036AA05D036AC79EF68F076EF1B
:10CCA00068F036A00AD036A808D036BE04D036A424
:10CCB00002D082EF68F086EF68F0476A3A6A445023
:10CCC0003F5C466E10E33CC048F03DC037F03EC0CC
:10CCD00038F03FC045F041C03CF042C03DF043C099
:10CCE0003EF0363A09D041C048F042C037F043C068
:10CCF00038F044C045F0466C369E36BC368E45C092
:10CD000039F036B0B5EF68F01A0E4660B5EF68F04E
:10CD1000396A3F6A36A408D03C6C3D1E3E1E3F1E59
:10CD2000E86A3D223E223F2236AC08D0486C371ECE
:10CD3000381E391EE86A3722382239223B6A4652A9
:10CD400007E03F343E323D323C323B32462EF9D78B
:10CD50003C5048263D5037223E5038223F50392221
:10CD60003BC047F0369E39AE0BD0476C481E371E8D
:10CD7000381E391EE86A4822372238223922368E78
:10CD800039A006D0D8803832373248324732452A67
:10CD900045C039F089EF68F0366AC5EC68F0DDEC23
:10CDA00068F036B66DEF68F036A205D036BA6DEF92
:10CDB00068F074EF68F036BA80EF68F036A005D0FE
:10CDC00036B86DEF68F080EF68F036B874EF68F051
:10CDD0003A6A7F0E3F24396EE86A3A224450395E3F
:10CDE000E86A3A5A1A0E456E3F6A476A486A376AD5
:10CDF000386A41503C5E42503D5A43503E5A000E04
:10CE00003F5A09E741503C2642503D2243503E22C2
:10CE1000000E3F2201D0478AD8903C363D363E3640
:10CE20003F36D8904736483637363836452EE1D724
:10CE30003E503D103C10D8A4478A89EF68F0366A0E
:10CE4000C5EC68F0DDEC68F036B66DEF68F036A240
:10CE500005D036B86DEF68F074EF68F036AA05D0EB
:10CE600036B06DEF68F074EF68F036B002D036A8D7
:10CE700002D080EF68F03A6A44503F24396EE86A85
:10CE80003A227E0E395EE86A3A5A476A486A376A39
:10CE9000386A43503E02F4CF38F0F3CF37F04250B7
:10CEA0003E02F3504826F4503722000E38224350F9
:10CEB0003D02F3504826F4503722000E38224150EC
:10CEC0003E02F3504726F4504822000E3722382203
:10CED00042503D02F3504726F4504822000E3722BC
:10CEE000382243503C02F3504726F4504822000EAB
:10CEF0003722382241503D02F4504726000E482286
:10CF00003722382242503C02F4504726000E482275
:10CF10003722382289EF68F0356A43AE95EF67F023
:10CF2000426C431EE86A4322351E3EAE9DEF67F019
:10CF30003D6C3E1EE86A3E22351E5CEC73F03EBE40
:10CF4000ADEF67F035AE000C3D6C3E1EE86A3E2248
:10CF5000396C3A1EE86A3A22000C35BEA4EF67F03D
:10CF60003688FF0C3EC048F03DC047F03D504202BD
:10CF7000F4CF3CF0F3CF3BF03E504302F4CF3EF011
:10CF8000F3CF3DF04202F3503C26F4503D22E86AD4
:10CF90003E2247504302F3503C26F4503D22E86ABB
:10CFA0003E2243AED8EF67F047503D5E48503E5AB0
:10CFB00048AE000C42503D5E43503E5A000C366A6B
:10CFC000C5EC68F036B6E9EF67F036A20AD036B4A1
:10CFD00003D07F0E3E6E19D0800E3E6E16D03E6A94
:10CFE00014D036B0FCD7870E3F60F1D77E0E3F6479
:10CFF000F6D7860E3F5C04E0D8903E323F2AF9D740
:10D0000036A403D03E6C3EAEEAD7120018EC68F0AE
:10D0100036B6000C36B0000C36B4000C010C18EC1F
:10D0200068F036B6000C36B0000C36A4000C010CCB
:10D03000366AC5EC68F0DDEC68F036B6120036AE44
:10D0400008D036A004D036A802D036801200369020
:10D05000120044503F5C0BE143503E5C08E14250FB
:10D060003D5C05E141503C5C02E136801200D8A0F5
:10D0700002D0368E10D03F5044C03FF0446E3E5038
:10D0800043C03EF0436E3D5042C03DF0426E3C50C6
:10D0900041C03CF0416E44503F5C10E0FF0F09E09E
:10D0A000369036B403D036AE3684120036AE36949F
:10D0B0001200442AD89043324232413241503C5E01
:10D0C00042503D5A43503E5A3EBEEAD7D8903C3675
:10D0D0003D363E363F2EF8D7C8D77F0E3F6EFF0E47
:10D0E0003E6E3D6E3C6E12007F0E36BEFF0E3F6EF2
:10D0F00002D07F0E3F6E800E3E6E3D6A3C6AF3D7D3
:10D1000036AE04D0800E3F6E3E6AF7D73F6A3E6A65
:10D11000F4D73850371048104710F8E03ABEF0D72F
:10D1200038BE0CD039503A10EBE0D890473648362C
:10D13000373638363906D8A03A06F2D73A50D4E115
:10D140003928D2E047AE11D07F0E471402E148A043
:10D150000CD0482AE86A3722382207E3D8803832D0
:10D1600037324832392A3928BFE03950C9E048C03F
:10D170003CF037C03DF038343E6E39303F6E3E32C1
:10D180003F9E36BE3F8E73EF68F03E363F3602E379
:10D190003684367E06E136803F6A3E6A3D6A3C6AE6
:10D1A00012003F2803E0D8803E321200D8903E3271
:10D1B00002E136821200368612004336443602E31C
:10D1C000368C367E06E13688446A436A426A416A92
:10D1D0001200442803E0D88043321200D890433232
:06D1E000EAE1368A1200AC
:0AD1E600D4D9FD0EDBCF00F0DB060C
:10D1F000FE0EDBCF01F001E2DB060050011010E073
:10D20000DE6ADD6ADECF00F0DDCF01F0E30E005C08
:10D210000D0E0158E9E2DF2A010EF4E3DB2AF2D712
:10D22000020EE15C02E2E16AE552E16E71D102DADE
:10D23000060EE1268D9296928D9096908D8496940E
:10D240008A9A939A8C92A8D984D902E297D9FCD76A
:10D250008C82A2D97ED902E291D9FCD7AE0E42D9F6
:10D26000DB0E40D9230E3ED9D90E3CD9220E3AD935
:10D27000A10E38D9C80E36D9DA0E34D9120E32D9E9
:10D28000A80E30D93F0E2ED9D50E2CD9A00E2AD9F2
:10D29000810E28D9600E26D9D30E24D9E66ACFD9BB
:10D2A000A60E20D9AD0E1ED98B0E1CD9AF0E1AD9E1
:10D2B0000A0EE66EE66A97DFE552E552A40E12D931
:10D2C000400E10D9ACD9060EE15C02E2E16AE552EB
:10D2D000E16E1ED14BD98A9AA7D148D98A8AA4D1A6
:10D2E00057D9B00EDF6EB80EDF5C1BE2DFCFE6FF72
:10D2F000A6D995D9010EDB6ADB50006E016AD89081
:10D30000015004E6840E005C000E015808E2FE0E97
:10D31000DBCFE6FFE2DFE552010EDB2AEDD7DF2AA5
:10D32000E2D7020EE15C02E2E16AE552E16EF0D082
:10D330003FD9F6BEF768C8D80800F550D6D8F6BE73
:10D34000F768C2D8010E5FD9F6BEF768BDD8020EE5
:10D350005AD9F6BEF768B8D8030E55D9F6BEF768A5
:10D36000B3D8040EEAD8F55056D9E66AB6DFE552CE
:10D37000E552CED01DD9F6BEF768A6D80800F51C38
:10D38000B4D8F6BEF768A0D8010E41D9F6BEF7684A
:10D390009BD8020E3CD9F6BEF76896D8030E37D953
:10D3A000F6BEF76891D8040EC8D8F51C34D9E668E3
:10D3B00094DFE552E552ACD09ED8AED80AE01DD934
:10D3C000ABD8E66EB5DFBED801E3DB2A060EDF265A
:10D3D000F4D7E5529DD08FD89FD80AE00ED99CD8BB
:10D3E000E66EC8DFAFD801E3DB2A060EDF26F4D7EE
:10D3F000E5528ED080D899D80AE0FFD896D8E66E4C
:10D4000097DFA0D801E3DB2A060EDF26F4D7E5522A
:10D410007FD071D88AD80AE0F0D887D8E66EAADF24
:10D4200091D801E3DB2A060EDF26F4D7E55270D04F
:10D4300001D9050EE126030EDB6A040EDB6A020E3B
:10D44000006EFA0EB0D8FA0EE7CFDBFFF90EDB5014
:10D45000B00FDF6EFB0EDB50B00FDF5C2EE2DFCFD4
:10D46000E6FFEDD8FA0EDB500F0B3CD8FA0EDB3896
:10D470000F0B0F0B100936D8010EDB6AFC0EDB50C8
:10D48000F36E010EDBCFF4FFF350F45C14E2030EF5
:10D49000DB2A040E01E3DB2AFD0EDBCFF6FFDB2ADD
:10D4A000FE0EDBCFF7FF01E3DB2A0800F550B3D80F
:10D4B000010EDB2AE3D7DF2ACDD7050EE15C02E2BD
:10D4C000E16AE552E16E24D0050EF702F3CFF7FFD3
:10D4D000F602F3CFF6FFF450F726000EF626E10E23
:10D4E000F7221200E66E1FEF6BF095D8FE0EDBCF31
:10D4F000F6FFF76A12009ED8E652FB0EDB50DF6E95
:10D50000FC0EDB50B10FE76EFC0EE7CFDBFF120025
:10D51000E552E7CFD9FF1200FD0EDBCFF6FFFE0E7E
:10D52000DBCFF7FF0800F5501200FD0EDBCFE9FF5F
:10D53000FE0EDBCFEAFFEF501200F626000EF722B8
:10D5400008001200E552E552E552FD0EDB2AFE0E00
:10D550001200D9CFE9FFDACFEAFF640EEE5C000ECD
:10D56000EE58000EEE58000EEE58120063D8956A81
:10D57000FE0EDB508C6E8D808D821200D9CFE9FFBC
:10D58000DACFEAFFEE2A000EEE22EE22EE221200A1
:10D5900051D8020EE1261200DE6ADE6ADE6ADD6A1A
:10D5A000DD52DD521200DBCFE7FF0050E72612000C
:10D5B00041D8E652200E006EFE0EDBCFE7FF005092
:10D5C000E75EFE0EE7CFDBFFFD0EDBCFE6FF37D8D1
:10D5D000020E006EFC0EE7DFFC0EE7CFDBFFDB5038
:10D5E0000F0B80DFFC0EDB380F0B0F0B100F7ADFF9
:10D5F000FE0EDBCFF6FFF76A1200DFCFE6FFFC0E70
:10D60000DBCFE6FF120099DFF55075EF6AF095DF8A
:10D61000F51C75EF6AF0E66E60DEE5521200020E50
:10D6200061DF100E72EF6AF08D948D928D828D8481
:10D6300095686ED7D9CFE6FFE1CFD9FF12004ADE59
:04D64000E55212009D
:0CD64400D9CFE6FFE1CFD9FFE652DF6A44
:10D650000101EA51DF5C28E2DF50040DF3CFE9FF5E
:10D66000F4CFEAFF020EE926010EEA22EECFE6FF32
:10D67000EECFE6FFEECFE6FFEFCFE6FFDF50080D7F
:10D68000F3CF00F0F4CF01F03A0E0026010E012294
:10D6900000C0E6FF01C0E6FF34EC50F0026E060E5B
:10D6A000E15E0250DF2AD4D7E552E552E7CFD9FF39
:10D6B0001200D9CFE6FFE1CFD9FFFE0ECED93CC094
:10D6C00072F03DC073F03EC074F03FC075F0FD0EC7
:10D6D000C4D93CC076F03DC077F03EC078F03FC082
:10D6E00079F000017A6B7B6B7C6B7D6B0001866B44
:10D6F000876B886B896B86C082F087C083F088C097
:10D7000084F089C085F086C07EF087C07FF088C035
:10D7100080F089C081F00001966B976B986B996BD4
:10D7200096C092F097C093F098C094F099C095F08D
:10D7300096C08EF097C08FF098C090F099C091F08D
:10D74000E552E7CFD9FF12000101EA6BEC6BEB6BFE
:10D7500033EF6DF00101020EEA6F060EEC6FEB6B1A
:10D76000070EEE6FEF6F310E71D90101056B1F0EC1
:10D77000026F280E036F570E046F010E096F3D0EE6
:10D78000066F1A0E076F260E086F3A0EBC6F070E53
:10D79000BD6F3A0EBE6F310EBF6F6E0EC06F1C0EA6
:10D7A000C16F070EC26F1C0EC36F6E0EC46F070EE3
:10D7B000C56FC66F310EC76F120001010A0EEA6F06
:10D7C000030EEC6FEB6B070E55D90101056B140EC0
:10D7D000026F1E0E036F7F0E046F096B280E066F1B
:10D7E000076B610E086F0D6B120E0A6F4D0E0B6FFB
:10D7F000610E0C6F116B100E0E6F4D0E0F6F610EE0
:10D80000106F156B020E126F2F0E136F430E146FF5
:10D81000196B040E166F2F0E176F430E186F1D6BCA
:10D82000260E1A6F390E1B6F4D0E1C6F216B240EC6
:10D830001E6F390E1F6F4D0E206F256B160E226F57
:10D840006B0E236F7F0E246F296B180E266F6B0EE5
:10D85000276F7F0E286F070EBC6FBD6F6E0EBE6FF9
:10D86000310EBF6F070EC06F190EC16F120001019C
:10D87000EA6B160EEC6FEB6BFDD80101070EBC6F67
:10D88000060EBD6F070EBE6F110EBF6F070EC06F85
:10D890001C0EC16F070EC26F270EC36F070EC46F39
:10D8A000320EC56F160EC66F060EC76F250EC86FF7
:10D8B000060EC96F340ECA6F060ECB6F430ECC6FC7
:10D8C000060ECD6F520ECE6F060ECF6F620ED06F6A
:10D8D000060ED16F6F0ED26F1C0ED36F6F0ED46F0A
:10D8E000270ED56F6F0ED66F320ED76F250ED86FFD
:10D8F000320ED96F340EDA6F320EDB6F430EDC6FEF
:10D90000320EDD6F520EDE6F320EDF6F620EE06F91
:10D91000320EE16F430EE26F110EE36F430EE46FC0
:10D920001C0EE56F250EE66F270EE76F1200010152
:10D93000030EEA6FEC6B010EEB6F95D80101056BDE
:10D94000140E026F280E036F800E046F096B280EF1
:10D95000066F076F800E086F0D6B1E0E0A6F0B6B44
:10D96000500E0C6F1F0EAF6F020EAA6F010EAD6F3F
:10D97000080EAB6F010EAC6F12000101060EEA6FCC
:10D98000020EEC6F030EEB6F0A0EEE6F340EEF6FAC
:10D990005DD80101010E056F1E0E026F200E036F90
:10D9A0003F0E046F010E096F3E0E066F076B200ECF
:10D9B000086F010E0D6F5E0E0A6F200E0B6F400E8A
:10D9C0000C6F010E116F1E0E0E6F0D0E0F6F150EE8
:10D9D000106F010E156F3E0E126F2C0E136F340E6A
:10D9E000146F010E196F5E0E166F0D0E176F150E68
:10D9F000186F0D0EAE6F150EAF6F030EAA6F010EEE
:10DA0000AD6F090EAB6F030EAC6F0D0EB46F150E3C
:10DA1000B56F050EB06F010EB36F090EB16F010E39
:10DA2000B26F2B0EBA6F330EBB6F040EB66F010EC2
:10DA3000B96F090EB76F020EB86F2C0EBC6F1C0EBB
:10DA4000BD6F4C0EBE6F1C0EBF6F1200E66E6E0EE9
:10DA5000E66E2FDEE552E5521200DBCF00F000C08B
:10DA60003EF00FEF66F00A0EEE6F070EEF6F340E0A
:10DA700026EF6DF0EE6F310EEF6F070E26EF6DF0B3
:10DA8000D9CFE6FFE1CFD9FF030EE12659D8736A5B
:10DA9000820E726E739C94949396958C7288728A9F
:10DAA000949EE66AD0D8E552E76E020EE7CFDBFF20
:10DAB0000000D950020FE96EDACFEAFFEF50070BF2
:10DAC000020801E00000140EE66EBDD8E552E76ED4
:10DAD000020EE7CFDBFF020EDB96DB88020EDB8057
:10DAE000DB92DB94020EDBCFE6FF140EE66E3AD833
:10DAF000E552E552010EE66EA6D8E552DE6EDD6A0D
:10DB00000000110EE66E9FD8E552DE6EDD6A000061
:10DB1000E66A110EE66E26D8E552E5520000110EB7
:10DB2000E66E91D8E552DE6EDD6A0000030EE15C20
:10DB300002E2E16AE552E16EE552E7CFD9FF120059
:10DB4000550EA76EAA0EA76E0E01FF91090ECC6F9F
:10DB50000A0ED36F170EFB6F550EA76EAA0EA76E97
:10DB6000FF811200D9CFE6FFE1CFD9FFE652DF6A8D
:10DB7000FE0EDB50140804E0FE0EDB50340806E114
:10DB8000140EE66E60D8E552E00BDF6E8B9EA49E0D
:10DB9000FE0EDB50756EA4AEFED700000000000044
:10DBA0000000000000000000000000000000000075
:10DBB0000000000000000000000000000000000065
:10DBC0000000000000000000000000000000000055
:10DBD0000000000000000000000000000000000045
:10DBE0000000000000000000000000000000000035
:10DBF0000000000000000000000000000000000025
:10DC00000000000000000000000000000000000014
:10DC100000000000000000000000A49EFE0EDB508B
:10DC20000A0805E1FD0EDB507F0B756E04D0FD0E7A
:10DC3000DB50DF10756EA4AEFED78B8EE552E55239
:10DC4000E7CFD9FF1200D9CFE6FFE1CFD9FF8B9EF6
:10DC5000A49EFE0EDB508009756EA4AEFED70000B8
:10DC600000000000000000000000000000000000B4
:10DC700000000000000000000000000000000000A4
:10DC80000000000000000000000000000000000094
:10DC90000000000000000000000000000000000084
:10DCA0000000000000000000000000000000000074
:10DCB0000000000000000000000000000000000064
:10DCC0000000000000000000000000000000000054
:10DCD0000000000000000000000000000000A49E02
:10DCE000756AA4AEFED78B8E755000D0E552E7CF93
:04DCF000D9FF120046
:0CDCF40020202050524543494F5553203A
:10DD000074696D65203A2920200020596F75206ABA
:10DD100075737420776173746520796F7572200054
:10DD2000202020596F7520776F6E206E6F746869A0
:10DD30006E67202020002020434F524E475241540E
:10DD4000554C4154494F4E53212020002020202083
:10DD50002020515549542047414D45202020202066
:10DD6000200020202020202043414C494252415491
:10DD70004520202020202000202020202053454C1A
:10DD8000454354204C4556454C202020200020205F
:10DD9000202020204E4557202047414D452020205F
:10DDA000202020002020204C41424952594E544806
:10DDB00020204D454E552020200020332E20486144
:10DDC0007665206120676F6F642074696D652E0031
:10DDD00020746F206D6F7665207468652062616CB9
:10DDE0006C2E2020200020322E2054696C74207468
:10DDF000686520626F617264202020002073656C6A
:10DE0000656374206D656E75206974656D732E2071
:10DE1000200020312E20557365207363726F6C6C67
:10DE200020746F20202020005072657373204D6590
:10DE30006E7520746F2070726F63656564002020BA
:10DE400020202020202020202020202020202020D2
:10DE5000202020200020202050726F6A6574204D01
:10DE600041312049534942200020206279204D61F0
:10DE700072696520566F6C6F6C6F6E6A6F20200040
:10DE8000202020536E616B652047616D65207631DF
:10DE90002E3020202000202020202020204C6576BD
:10DEA000656C2025642020202020200020202020B8
:10DEB00053454C45435420204C4556454C2020208A
:10DEC0002000202020593A202025642020202020D6
:10DED000202020202020202000202020583A202010
:10DEE0002564202020202020202020202020200009
:10DEF00020202043414C4942524154452053454E35
:10DF0000534F52202000202020202020202020209D
:0CDF1000202020202020202020202000A5
:04DF1C00030EB16ED1
:10DF2000B392B390B396B288B28EB290B292A494E8
:10DF3000B38E12002F0E926E0F01E00E486F1F0E6F
:10DF4000496FC18EC19CC70EC1140809C16EF80E7D
:10DF5000C1140209C16E498FC29CC29EC30EC21475
:10DF60000809C26EC2801200D9DF9AEF6FF0D9CFD4
:10DF7000E6FFE1CFD9FF020EE126FE0EDB500F0BCC
:10DF8000F36EF346F346C30EC214F310C26EFE0ED8
:10DF9000DB50EA6AD60FE96E000EEA22EF503F0B23
:10DFA000F36EF346F346030EB114F310B16EB38E65
:10DFB000B38200000000000000000000000000002C
:10DFC0000000000000000000000000000000000051
:10DFD00000000000000000000000B392B2800000CA
:10DFE0000000000000000000000000000000000031
:10DFF0000000000000000000000000000000000021
:10E00000000000000000B2909E9CC2829EACFED731
:10E01000C3CFDEFFC4CFDDFFDECF00F0DDCF01F0E8
:10E0200000C0F3FF01C0F4FF00D0020EE15C02E289
:10E03000E16AE552E16EE552E7CFD9FF1200D9CF90
:10E04000E6FFE1CFD9FF030EE126020EDB6A040EE4
:10E05000F36E020EDBCFF4FFF350F45C21E22AD81A
:10E06000EF6A30D80CE226D8EF501F0803E122D81F
:10E07000EF6A13D01FD8EF2A25D8F5E30ED02CD89D
:10E080000CE218D8EF50E10803E114D8EF6A05D08C
:10E0900011D8EF062BD820D8F4E3020EDB2AD7D70D
:10E0A000030EE15C02E2E16AE552E16EE552E7CF80
:10E0B000D9FF1200020EDB50EA6AD60FE96E000E9D
:10E0C000EA22120013D8DECF00F0DDCF01F0200EDF
:10E0D000005C030E01581200D9CFE9FFDACFEAFF46
:10E0E000200ED880EE54030EED541200020EDBCF4A
:10E0F000E6FF3DDFE552F3CFDEFFF4CFDDFF120098
:10E10000000000000000004F00000007000700149E
:10E110007F147F14242A7F2A12231308646236494D
:10E120005522500005030000001C2241000041223E
:10E130001C0014083E081408083E0808005030006F
:10E1400000080808080800606000002010080402A9
:10E150003E5149453E00427F4000426151494621BF
:10E1600041454B311814127F1027454545393C4A2B
:10E17000494930017109050336494949360649497B
:10E18000291E0036360000005636000008142241D1
:10E190000014141414140041221408020151090639
:10E1A000324979413E7E1111117E7F494949363EFF
:10E1B000414141227F4141221C7F494949417F0918
:10E1C0000909013E4149497A7F0808087F00417FDB
:10E1D00041002040413F017F081422417F404040E0
:10E1E000407F020C027F7F0408107F3E4141413E88
:10E1F0007F090909063E4151215E7F0919294646DA
:10E200004949493101017F01013F4040403F1F2002
:10E2100040201F3F4038403F6314081463070870D4
:10E2200008076151494543007F414100020408103D
:10E23000200041417F000402010204404040404070
:10E24000000102040020545454787F484444383874
:10E2500044444420384444487F3854545418087E79
:10E260000901020C5252523E7F0804047800447D9A
:10E2700040002040443D007F1028440000417F4082
:10E28000007C041804787C0804047838444444383A
:10E290007C14141408081414187C7C08040408481E
:10E2A00054545420043F4440203C4040207C1C20D7
:10E2B00040201C3C4030403C44281028440C505026
:10E2C000503C4464544C44000836410000007F0038
:0BE2D0000000413608000201020402B9
:01E2DB000042
:04E2DC000101FFB18C
:10E2E00022D0FF838B809490550EA76EAA0EA76E46
:10E2F0000E01FF910E0ED16F550EA76EAA0EA76EDE
:10E30000FF810F0EBA6ECF0EBA140009BA6EBB6A47
:10E310000F01526B800ECB6E040ECA6EA496600E77
:10E32000776E7F0E766E12000101FF91FF938B8056
:10E33000949012000101FFA109D08B50010B04E160
:10E340009450010B01E1010CFF91C8DF0101FFA313
:10E35000C5DFA4A63AD0A496BA50300BE842E842F2
:10E36000E842E842030819E1400EBB5C10E18B90E3
:10E370009490BA6ACA6A0E01D16B0F01526BCB68D6
:10E38000766A7768A4960101FF81FF93010CBB2A8E
:10E39000CF0EBA140009BA6E000CBA0EE96E0F0E59
:10E3A000EA6EEF50300BE842E842E842E842E82AE1
:10E3B000E850030BF36EF46EF346F346F346F34670
:0CE3C000CF0EEF14F310EF6EF450000CC1
:04E3CC00D9CFE6FFC0
:10E3D000DACFE6FFE1CFD9FFE2CFDAFFE652E6522D
:10E3E000E652E652D950F90F006EFF0EDA20016EA8
:10E3F000020E00C0DBFF030E01C0DBFF020EDBCF0D
:10E40000E6FF030EDBCFE6FFF90EDBCFE6FFFA0EE9
:10E41000DBCFE6FFFB0EDBCFE6FFD950FC0FE66E4D
:10E42000FF0EDA20E66E3BEC57F0006E070EE15C63
:10E4300002E2E16AE552E16E0050F3CFDEFFF4CF75
:10E44000DDFFFC0EDBCFE9FFFD0EDBCFEAFFEF6A5D
:10E45000DECF00F0DDCF01F000C0F3FF01C0F4FF1C
:10E46000040EE15C02E2E16AE552E16EE552E5CFBD
:08E47000DAFFE7CFD9FF12002B
:08E478001E0EF66EA00EF76EF9
:10E48000000EF86E00010900F550CB6F0900F55041
:10E49000CC6F03E1CB6701D03DD00900F550C66FCA
:10E4A0000900F550C76F0900F550C86F0900090051
:10E4B000F550E96E0900F550EA6E090009000900FF
:10E4C000F550C96F0900F550CA6F09000900F6CF71
:10E4D000CDF0F7CFCEF0F8CFCFF0C6C0F6FFC7C073
:10E4E000F7FFC8C0F8FF0001C95302E1CA5307E0B3
:10E4F0000900F550EE6EC907F8E2CA07F9D7CDC09A
:10E50000F6FFCEC0F7FFCFC0F8FF0001CB07000E2B
:06E51000CC5BBFD7120036
:0AE51600D9CFE6FFDACFE6FFE1CF30
:10E52000D9FFE2CFDAFFFB0EDBCF00F0FC0EDBCF32
:10E5300001F00001800E01141AE1FB0EDBCFE9FFB0
:10E54000FC0EDBCFEAFFEECFF3FFEDCFF4FFEE2AB8
:10E55000000EEF22F3CFE9FFF4CFEAFFFD0EDBCF91
:10E56000EFFFEF50016AF36E01C0F4FF10D0FB0E15
:10E57000DB50FE0806E1FD0EDBCFE6FF92EC73F008
:10E5800005D0FD0EDBCFE6FF03EC50F0E552E5527F
:0AE59000E5CFDAFFE7CFD9FF120054
:06E59A003B504002F3CFEC
:10E5A00037F0F4CF38F04102F3503826000EF42053
:10E5B000396E3B504202F3503926000EF4203A6E79
:10E5C0003B504302F3503A263C504002F350382669
:10E5D000F4503922000E3A223C504102F3503926C1
:10E5E000F4503A223C504202F3503A263D50400249
:10E5F000F3503926F4503A223D504102F3503A2666
:0AE600003E504002F3503A2612008B
:06E60A00FE0EE3CFE9FF64
:10E61000FF0EE3CFEAFFF36AF46AEE5203E0F34A37
:10E62000F42AFBD71200FF0EE3CFF8FFE552FF0EEE
:10E63000E3CFF7FFE552FF0EE3CFF6FFE552E66AC0
:10E64000E66AE66A0900F55209E0FD0EE32A05E1F3
:10E65000FE0EE32A02E1FF0EE32AF4D7FD0EE3CF1C
:10E660003CF0FE0EE3CF3DF0FF0EE3CF3EF0120094
:10E670003A6A396A386A376A200EE76ED8903B36B4
:10E680003C363D363E363736383639363A364050E7
:10E69000375C415038584250395843503A5809E392
:10E6A0004050375E4150385A4250395A43503A5AD6
:08E6B0003B2AE72EE4D712001B
:08E6B8003A6A396A100EE76EA0
:10E6C000D8903D363E3639363A364250395C435062
:10E6D0003A5805E34250395E43503A5A3D2AE72EF4
:04E6E000F0D712005D
:0CE6E400F36AF46AFF0EE124E96EFF0EF9
:10E6F000E220EA6EED6607D02F0EEF6404D03A0EEA
:08E70000EF6001D0F32A1200C2
:08E708001DEE00F02DEE00F003
:10E71000F86A369C3CEC72F007EC50F046EC5DF089
:04E72000FBD7120011
:0CE72400FF0EE350ADBA04D0B06AAC8E1A
:10E73000AD8A949CADA2FED7AE6EF36EF46A120061
:10E740003031323334353637383961626364656667
:01E7500000C8
:01E7510000C7
:0EE7520000EE00F00E0EEE6AEA62FDD7120035
:0DE7600000000000000000000000000000AC
:03E76D00000000A9
:10E770000000000000000000000006DF00000000B4
:03E7800000000096
:01FFF800AA5E
:01FFF900F710
:01FFFA001DE9
:01FFFB00FF06
:01FFFC0063A1
:01FFFD00F80B
:01FFFE008181
:01FFFF00F110
:00000001FF
