:020000040000FA
:0600000037EF74F012005E
:0600080004EF50F01200AD
:060018000CEF50F0120095
:06A0000037EF74F01200BE
:02A00600120046
:06A0080018EF62F01200E7
:02A00E0012003E
:04A01000800040008C
:02A01400000545
:06A018001BEF62F01200D4
:02A01E0006003A
:10A0200014A00000450E000002000000B7E8000088
:10A03000470E000001000000ECE80000E600000010
:10A040001600000010A00000410E000004000000F7
:10A05000C6E80000000E00002600000041E40000F9
:08A06000FF01000001000000F7
:08A068008EDB20EC56F007EC42
:10A0700055F01BEC56F038EC54F01BEC56F08DEF1D
:10A0800054F081DB1BEC56F007EC55F020EC56F059
:10A09000EFDB20EC56F08DEF54F0DDEC55F0F70ED1
:10A0A000DBCF3DF0F80EDBCF3EF0ABEC54F092ECA2
:10A0B00055F019EC55F062E021EC55F07FEC54F0CE
:10A0C00092EC55F01DEC55F059E027EC55F0ADEC55
:10A0D00055F067EC55F09BEC55F019EC55F04EE05F
:10A0E0002DEC55F0CBEC55F067EC55F09BEC55F0B2
:10A0F0001DEC55F043E070EC55F019EC55F00FE015
:10A1000081EC55F01DEC55F00AE0F70EDBCF3DF089
:10A11000F80EC0EC55F02CEC56F021812FD070ECED
:10A1200055F01DEC55F00BE081EC55F019EC55F0B5
:10A1300006E021EC55F02CEC56F021831FD070EC9A
:10A1400055F01DEC55F00BE181EC55F01DEC55F090
:10A1500006E12DEC55F037EC56F021850FD070EC70
:10A1600055F019EC55F00AE181EC55F019EC55F079
:10A1700005E127EC55F037EC56F02187EFEF55F06D
:10A180005CEC55F045EC55F0030EFFEC54F000018B
:10A190000010606F01C061F0200E426E436A60C023
:10A1A0003DF001C03EF092EC68F03DC060F03EC072
:10A1B00061F0040E45EC55F0050EFFEC54F0000183
:10A1C0000010626F01C063F0200E426E436A62C0ED
:10A1D0003DF001C03EF092EC68F03DC062F03EC040
:10A1E00063F0060E45EC55F0070EF3EC55F0020E49
:10A1F000E15C02E2E16AE5524BEF55F0DDEC55F02F
:10A200000A0EE126FB0EDBCF00F0FC0EDBCF01F0E7
:10A2100060EC55F000C041F001C042F002C043F0D4
:10A2200003C044F022CE3CF023CE3DF024CE3EF0DD
:10A2300025CE3FF03CEC67F03CC022FE3DC023FE43
:10A240003EC024FE3FC025FE9BDF010100510001FE
:10A250009A6F9B6B0101005100019C6F9D6B010186
:10A26000015100019E6F9F6B280E01010125000125
:10A27000A06FA16B42EC56F09AC0E6FF9BC0E6FFD0
:10A2800076DBF3CFAEF0F4CFAFF042EC56F09CC0EB
:10A29000E6FF9DC0E6FF6BDBF3CFB0F0F4CFB1F08B
:10A2A00045EC56F09EC0E6FF9FC0E6FF60DBF3CFB3
:10A2B000B2F0F4CFB3F045EC56F0A0C0E6FFA1C079
:10A2C000E6FF55DBF3CFB4F0F4CFB5F0FA0EDB5078
:10A2D00001E1C7D00E0102510001625D046E6351BD
:10A2E0000E01035574DB3CC0DAF03DC0DBF03EC02C
:10A2F000DCF03FC0DDF00E0100510001605D046E36
:10A3000061510E01015563DB3CC0DEF03DC0DFF062
:10A310003EC0E0F03FC0E1F030DB90DAF0DA92ECE2
:10A3200055F05EDBDAC03CF0DBC03DF0DCC03EF057
:10A33000DDC03FF0FCEC55F0BEC041F0BFC042F0C4
:10A34000C0C043F0C1C044F03CDB20DBDFCFBEF037
:10A35000010EDBCFBFF0020EDBCFC0F0030EDBCF70
:10A36000C1F01DDB6BDACBDAE6DB3ADBDEC03CF0BA
:10A37000DFC03DF0E0C03EF0E1C03FF0FCEC55F046
:10A38000C2C041F0C3C042F0C4C043F0C5C044F0F5
:10A3900018DB0EDBDFCFC2F0010EDBCFC3F0020E05
:10A3A000DBCFC4F0030EDBCFC5F0416A426A400E3A
:10A3B000436E3CDB42DB0EE00001C26BC36B400E20
:10A3C000C46FC56FD8DB080E0E012115080802E125
:10A3D000010E1E6F416A426A540E436E420E26DB26
:10A3E00028DB0FE00001C26BC36B540EC46F420E3A
:10A3F000C56FC1DB040E0E012115040802E1010E38
:10A400001E6F416A426A400E436EF6DA16DB0EE0BA
:10A410000001BE6BBF6B400EC06FC16FA7DB020EA9
:10A420000E012115020802E1010E1E6F14EC56F018
:10A4300000DB0FE00001BE6BBF6BEC0EC06F420E85
:10A44000C16F94DB010E0E012115010802E1010E1E
:10A450001E6FEADB3BEC69F0010A03E10E01020E1C
:10A46000206F0A0EE15C02E2E16AE55214D30001BA
:10A47000BE6BBF6B800EC06F420EC16FC26BC36BF1
:10A48000C46BC56FD26BD36BD46BD56BD2C0CEF01F
:10A49000D3C0CFF0D4C0D0F0D5C0D1F0D2C0CAF074
:10A4A000D3C0CBF0D4C0CCF0D5C0CDF0E26BE36B21
:10A4B000E46BE56BE2C0DEF0E3C0DFF0E4C0E0F0A7
:10A4C000E5C0E1F0E2C0DAF0E3C0DBF0E4C0DCF0CC
:10A4D000E5C0DDF0D66BD76BD86B3F0ED96F0101AD
:10A4E000780E006F0C0E016FD8DA0E01C30E066FE6
:10A4F000F50E076F1C0E086F410E096F0A6B0B6B90
:10A500000C6B3F0E0D6F00017E6B7F6B806B816F5C
:10A510000E01C30E0E6FF50E0F6F1C0E106F410E65
:10A52000116F126B136B146B3F0E156F1E6B1F6B4D
:10A530000001846B856B1200BFDAFD0EDBCFDEFFFE
:10A54000DBCFDDFFDBCF00F0FE0EDBCF01F0000143
:10A55000800E01140EE03D683E68FD0EDBCF42F038
:10A56000FE0EDBCF43F0B8EC68F03BC0DEFF3CC032
:10A57000DDFFDECF00F0DDCF01F000C0F3FF01C052
:10A58000F4FF020EE15C02E2E16AE55284D215DBDF
:10A5900000016E6B6F6B010E706F716B6EC03DF0E2
:10A5A0006FC03EF0D8D95FDA25EC68F03CC07AF095
:10A5B0003DC07BF03EC07CF03FC07DF070C03DF000
:10A5C00071C03EF0C8D958DA25EC68F03CC07EF086
:10A5D0003DC07FF03EC080F03FC081F0FA0EDB50FE
:10A5E00001E183D040DA2AD9AFDA06CE3CF007CEBB
:10A5F0003DF008CE3EF009CE3FF027DB3DC082F0B3
:10A600003EC083F000013D500101025F46DA34DABA
:10A6100015D99ADA0ECE3CF00FCE3DF010CE3EF0BA
:10A6200011CE3FF012DB3DC086F03EC087F0000146
:10A6300082510101045F00017E6B7F6B806B3F0ED6
:10A64000816F010102510001726F736B01010451AE
:10A650000001746F756B010101510001766F776B1A
:10A66000280E010101250001786F796B0BDB72C0A8
:10A67000E6FF73C0E6FF7BD9F3CF8AF0F4CF8BF00F
:10A6800001DB74C0E6FF75C0E6FF71D9F3CF8CF033
:10A69000F4CF8DF0FADA76C0E6FF77C0E6FF67D92F
:10A6A000F3CF8EF0F4CF8FF0F0DA78C0E6FF79C008
:10A6B000E6FF5DD9F3CF90F0F4CF91F08EC0E6FFC6
:10A6C0008FC0E6FF8AC0E6FF8BC0E6FFEED90AE046
:10A6D00090C0E6FF91C0E6FF8CC0E6FF8DC0E6FFAC
:10A6E000E4D903E10E01010E206F79D266DA010E82
:10A6F0000001926F936B030E946F956BFD0EDBCF91
:10A7000000F0FE0EDBCF01F093510118E8AE02D04D
:10A71000013404D00050925D0150935913E3FB0EB5
:10A72000DBCF02F0FC0EDBCF03F095510318E8AE4F
:10A7300002D0033404D00250945D0350955902E3D3
:10A74000010E01D0000E4BD238DABAD9FB0EDB5025
:10A75000025C006EFC0EDB500358016E00C0E6FF89
:10A76000E66EEADEE552E5523AD2D950F70FE96ECD
:10A77000FF0EDA20EA6E46DA45DAD4D9E5EC68F065
:10A780003E50E66E120019DAFE0EDBCF14F014C054
:10A790003EF015EC67F03CC010F03DC011F03EC03B
:10A7A00012F03FC013F074DA3CC015F03DC016F053
:10A7B0003EC017F03FC018F08AD910C03CF011C05D
:10A7C0003DF012C03EF013C03FF03BEC67F0E3D920
:10A7D000F80EDBCF3DF0F90ED3D93CC01DF03DC0E3
:10A7E0001EF03EC01FF03FC020F052DA3CC021F006
:10A7F0003DC022F03EC023F03FC024F068D91DC008
:10A800003CF01EC03DF01FC03EF020C03FF03BECCE
:10A8100067F03CC019F03DC01AF03EC01BF03FC0CD
:10A820001CF055D90CC03CF00DC03DF00EC03EF000
:10A830000FC03FF0D2EC67F0ADEF55F0C3D925EF74
:10A8400068F025EC68F080D99A0E416E990E426E40
:10A85000190E436E3F0E446E25EF68F03BC041F089
:10A860003CC042F03DC043F03EC044F09BEF55F089
:10A8700087D93CC02DF03DC02EF03EC02FF03FC028
:10A8800030F025D929C03CF02AC03DF02BC03EF065
:10A890002CC03FF03BEC67F03CC025F03DC026F0FB
:10A8A0003EC027F03FC028F012D908C03CF009C0D4
:10A8B0003DF00AC03EF00BC03FF025EC68F00BEF16
:10A8C00056F069D961D949D902D96ED93CEC67F003
:10A8D0003CC0DEFF3DC0DEFF3EC0DEFF3FC0DDFF0F
:10A8E000DD52DD52D9CFE9FFDACFEAFFEECF00F03B
:10A8F000EECF01F0EECF02F0EFCF03F012008BD9D4
:10A9000067EF55F00CEC69F03DC000F03EC001F07F
:10A910003DC0E6FF3EC0E6FF120032D93CC031F038
:10A920003DC032F03EC033F03FC034F0D0D804C058
:10A930003CF005C03DF006C03EF007C03FF03CECE7
:10A9400067F002D93CC03BF03DC03CF03EC03DF05A
:10A950003FC03EF044D128EC67F0F6D867EF55F0E1
:10A96000416A426A800E436EBF0E446E1200ECDEF6
:10A97000E552E552E552E5521200CAC03CF0CBC0A8
:10A980003DF0CCC03EF0CDC03FF012003CC0CAF05C
:10A990003DC0CBF03EC0CCF03FC0CDF01200CEC0E9
:10A9A0003CF0CFC03DF0D0C03EF0D1C03FF012002F
:10A9B0003CC0CEF03DC0CFF03EC0D0F03FC0D1F0A3
:10A9C0001200F2D83BEC67F0FDD8D2EF67F0056ECD
:10A9D00004C03DF03E6E28EC67F0B6D8C4EF55F0E9
:10A9E0003CEC67F0B1D8D6C041F0D7C042F0D8C037
:10A9F00043F0D9C044F01200446E92EF55F0F3D802
:10AA0000DBCF00F000C001F0006ADF501200B8D8C0
:10AA10003CC029F03DC02AF03EC02BF03FC02CF0D6
:10AA20001200C2D83CEC67F00CEF69F0446E9BEF6B
:10AA300055F04BEC69F0010A120042EC69F0010A92
:10AA40001200F90EDBCF3DF0FA0EC0EF55F0FB0E11
:10AA5000DBCF3DF0FC0EC0EF55F0FD0EDBCF3DF03F
:10AA6000FE0EC0EF55F07AC03CF07BC03DF07CC0DC
:10AA70003EF07DC03FF012007EC03CF07FC03DF054
:10AA800080C03EF081C03FF01200E66ECBEC6EF06D
:10AA9000E552DF6E1200E16EA2D000017A6B7B6B93
:10AAA000800E7C6F3F0E7D6F120020DEE552E55276
:10AAB000E552E5520108120080D8020EE12612008C
:10AAC000FD0EDBCF02F0FE0EDBCF03F012003CC028
:10AAD00041F03DC042F03EC043F03FC044F01200A0
:10AAE00044DE41EC50F0046E090EE15E04503BC0C0
:10AAF00000F03CC001F03DC002F03EC003F02EEF7C
:10AB000054F033DE34EC50F0096E090EE15E09506A
:10AB10003BC005F03CC006F03DC007F03EC008F069
:10AB20002EEF54F0BEC03CF0BFC03DF0C0C03EF0C0
:10AB3000C1C03FF01200C2C03CF0C3C03DF0C4C071
:10AB40003EF0C5C03FF012003CC000F03DC001F037
:10AB50003EC002F03FC003F012003CC008F03DC010
:10AB600009F03EC00AF03FC00BF01200F9DE05DF2D
:10AB700068DEC6EF54F0F4DE12DF63DED8EF54F087
:10AB8000DBCF3EF028EF67F0416A426A436A400E2D
:10AB9000446ED2EF67F03CC00CF03DC00DF03EC0FB
:10ABA0000EF03FC00FF0120000C03CF001C03DF0BD
:10ABB00002C03EF003C03FF01200D9CFE6FFE1CF64
:10ABC000D9FF1200FB0EDBCF41F0FC0EDBCF42F0D1
:10ABD000FD0EDBCF43F0FE0EDBCF44F01200E5525A
:10ABE000E7CFD9FF1200E66ECBEC6EF0E552E76ED0
:10ABF000010EE7CFDBFF1200D2EC67F01FDE1EDE96
:10AC000061EF54F0EECFE6FFEECFE6FFEECFE6FFCA
:10AC1000EECFE6FF12003CC004F03DC005F03EC0A0
:10AC200006F03FC007F01200416A426AEC0E436E24
:10AC3000420EFCEF54F0FC0EDBCF3DF0FD0E120097
:10AC4000FA0EDBCF3DF0FB0E1200F8DDF7DD85DFFD
:10AC50009BDF55DE11EF55F03CC0BEF03DC0BFF0AC
:10AC60003EC0C0F03FC0C1F081DF0E0112003CC009
:10AC7000C2F03DC0C3F03EC0C4F03FC0C5F07BDFB2
:10AC80000E0112004FDF82EF54F055DF82EF54F0D7
:0CAC9000F60EDBCF3DF0F70EC0EF55F0E4
:04AC9C008AEC5BF0F3
:10ACA000FB0EDBCFF3FFDB06F35000090AE0D8EC24
:10ACB0005BF0FA0E43EC5CF0F3E1011CF1E1010EF4
:10ACC00001D0000EB9EF5BF08AEC5BF03B0EE124A3
:10ACD00002E3E168E652E16E010EDB6A020EDB6A16
:10ACE000F90EDBCFF6FFFA0EDBCFF7FFFB0EDBCF63
:10ACF000F8FF0800F550DF6EDF5002E1DDEF5AF09B
:10AD0000250EDF5C02E0D0EF5AF0030EDB6A040E82
:10AD1000DB6A050EDB6A060EDB6A070EDB6AF2EC05
:10AD20005AF02D0EDF5C0CE02B0EDF5C09E0200EEC
:10AD3000DF5C06E0230EDF5C03E0300EDF5C1AE12F
:10AD4000DF50300A14E0130A0FE0030A0AE00B0A8E
:10AD500005E0060AE4E1030EDB80E1D7030EDB82A7
:10AD6000DED7030EDB84DBD7030EDB86D8D7030EDA
:10AD7000DB88D5D72A0EDF5C1BE1EEEC5AF03CEC09
:10AD80005BF010E0030EDB803D683E68130EDBCF06
:10AD900042F0140EDBCF43F0B8EC68F0040E3BC079
:10ADA000DBFF03D0130E25EC5BF0F2EC5AF00BD076
:10ADB000090EDB6A93EC5BF003E007EC5CF0FAD77A
:10ADC000090E25EC5BF0030EDBB0DB982E0EDF5C8A
:10ADD0001BE1F2EC5AF02A0EDF5C0BE1EEEC5AF0CC
:10ADE0003CEC5BF003E1130E77EC5BF0F2EC5AF015
:10ADF0000BD0090EDB6A93EC5BF003E007EC5CF030
:10AE0000FAD7090E77EC5BF0680EDF5C07E1F2EC35
:10AE10005AF0680EDF5C1DE1030E18D0740EDF5C83
:10AE200017E07A0EDF5C14E0480EDF5C06E0540E9B
:10AE3000DF5C03E05A0EDF5C02E1020E07D06C0E0D
:10AE4000DF5C03E06A0EDF5C04E1010ECAEC5BF03C
:10AE5000C9DBDF506E0A01E17FD31E0A01E192D106
:10AE6000200A01E18FD13F0A01E149D11A0A01E12B
:10AE700046D10D0A01E143D1200A01E140D13A0A4D
:10AE800001E13DD1200A01E13AD1260A01E135D1A3
:10AE90000D0A01E132D11A0A01E1D9D0200A4AE0B3
:10AEA000300A1FE0460A0EE0250A01E083D3D9509C
:10AEB000F90FE96EFF0EDA20EA6E010EEE5E000E6B
:10AEC000EE5AEE5AD8EC5BF0250EE66E95DB03E108
:10AED000011C01E169D3D4EC5BF001E26BD3DB2A06
:10AEE00069D3080EDB6A040EDB50010806E2040E8B
:10AEF000DB049CEC5BF0DB508BDB080EDB5009E0E5
:10AF0000030EDB50010B05E172DB01E04DD3080EAF
:10AF1000DB6A64DBEFCFDFFF4CEC5CF003E1011C8C
:10AF200001E142D3D4EC5BF001E3DB2A60DB01E119
:10AF300041D33AD3070EDB5002080FE118EC5CF066
:10AF4000030EDFEC5BF00E0EEECFDBFF0F0EEECF4D
:10AF5000DBFF100EEECFDBFF20D0F70EDBCF03F0D0
:10AF6000F80EDBCF04F0020E035E000E045AF70E5B
:10AF700003C0DBFFF80E04C0DBFF03C0E9FF04C021
:10AF8000EAFFCFEC5BF0026A0E0E00C0DBFF0F0E93
:10AF900001C0DBFF100E02C0DBFF0E0EDBCFE6FFB1
:10AFA0000F0EDBCFE6FF100EDBCFE6FFC6EC73F033
:10AFB000E552E552E552130E3CC0DBFF140E3DC0D6
:10AFC000DBFF060EDB5005E0130E13EC5CF001E234
:10AFD0006ADB37EC5CF002E2130E37DBFAEC5BF075
:10AFE00006E0040E13EC5CF002E2050E2EDB030E0D
:10AFF000DBB005D0FCDA01E0D7D2080EDB6A090E1F
:10B00000DB6A0E0EDBCFF6FF0F0EDBCFF7FF100E65
:10B01000DBCFF8FF0800F550DF6EDF5014E03DECA9
:10B020005CF011E24CEC5CF003E1011C01E1BCD2EC
:10B03000BBDB01E3DB2A090EDB2AD9500E0FE96ED8
:10B04000000ECBDBE7D7D3DA01E1B4D2ADD2C6DA5A
:10B05000110EEECFDBFF120EEDCFDBFF110EDBCFBB
:10B06000E6FF120EDBCFE6FFB8EC73F0E552E552D7
:10B07000130EF3CFDBFF140EF4CFDBFF060EDB5015
:10B0800004E0130ED0DB01E20EDB37EC5CF002E2F1
:10B09000130EDBDAAFDB05E0040EC5DB02E2050EC2
:10B0A000D4DA030EDBB005D0A2DA01E07DD2080EBF
:10B0B000DB6A090EDB6A110EDBCFE9FF120EDBCF74
:10B0C000EAFFEFCFDFFFDF5014E0D7DB12E2E4DB73
:10B0D00003E1011C01E168D267DB01E3DB2A090E11
:10B0E000DB2A110EDB2ADBCFE9FF120EE8E3DB2AB5
:10B0F000E6D77DDA01E15ED257D2030EDB8E070E72
:10B10000DB0410E195DB040E5ADB0A0EEECFDBFF09
:10B110000B0EEECFDBFF0C0EEECFDBFF0D0EEECFF6
:10B12000DBFF6CD0070EDB5003082CE1030EDBAE17
:10B130000DD0B2DA020E76DAEFCF00F0016A026AC1
:10B14000036A00AE39D00168026835D0F70EDBCF54
:10B1500001F0F80EDBCF02F0020E015E000E025A83
:10B16000F70E01C0DBFFF80E02C0DBFF01C0E9FFF4
:10B1700002C0EAFFEFCF00F00A0E00C0DBFF0B0EAB
:10B18000DB6A38D0070EDB50020809E1030EDBAEA4
:10B1900004D059DB02AE10D00ED055DB0DD0030E1B
:10B1A000DBAE12D079DA020E3DDAF9DA026A036A0E
:10B1B00001AE02D002680368E2DA0C0E02C0DBFFC7
:10B1C0000D0E03C0DBFF1AD0F70EDBCF02F0F80E36
:10B1D000DBCF03F0020E025E000E035AF70E02C030
:10B1E000DBFFF80E03C0DBFF02C0E9FF03C0EAFF8C
:10B1F000D6DAC5DA0C0EDB6A0D0EDB6A060EDB5002
:10B2000005E1010EF36E050EF3CFDBFF150EDB6AD1
:10B21000160EDB6AD950370F006E000EDA20016E71
:10B22000390E00C0DBFF3A0E01C0DBFF380EDB6ACF
:10B23000080EDB6A0A0EAEDADF50780A12E0200A46
:10B2400010E0280A0CE0200A0AE03F0A06E00D0A96
:10B2500002E0200A08E1020E05D0080E03D0080E15
:10B26000DF26100E97DA030EDBBE02D0DB92DB94F2
:10B27000DB50800B24E08ADAD890030EEB50000AF2
:10B2800008E6000EEE5C000EEE58000EEE58000EC2
:10B29000EE5815E213DA406841684268436880EC72
:10B2A00073F00A0E37C0DBFF0B0E38C0DBFF0C0E4D
:10B2B00039C0DBFF0D0E3AC0DBFF2D0E08D0030EA8
:10B2C000DBA202D02B0E03D0DBA408D0200EF36E3D
:10B2D000170EF3CFDBFF150EDB2A02D0170EDB6A49
:10B2E000050EDB5003E1B7D901E189D0A60E006E4F
:10B2F000E80E016E000E026E070EDBCF03F0046A4B
:10B30000056A066A03C040F004C041F005C042F07F
:10B3100006C043F0D3D9EBEC73F000503724F36E42
:10B3200001503820F46E02503920F86EF4CFF7FF48
:10B33000F3CFF6FF0800090EF5CFDBFF580EDF5CF8
:10B340000FE1610EF36E090E7BD90AE3200E006E49
:10B35000090EDBCFE7FF0050E75E090EE7CFDBFF0A
:10B36000070EDBCF00F0016A026A036A0FDA00C041
:10B3700040F001C041F002C042F003C043F0EECF04
:10B380003BF0EECF3CF0EECF3DF0EFCF3EF0EBECFC
:10B3900073F03EC0EDFF3DC0EDFF3CC0EDFF3BC094
:10B3A000EFFF390EDBCFE9FFDB063A0EDBCFEAFF1A
:10B3B00001E2DB06090EDBCFEFFF150EDB2A4BD9CE
:10B3C00095E1030EDBA61DD06F0EDF5C06E1C1D94F
:10B3D00018E3150EDB285BDA14D0780EDF5C09E089
:10B3E000580EDF5C06E0620EDF5C03E0420EDF5CBD
:10B3F00008E1020EF36E160EF3CFDBFF02D0150E3E
:10B40000DB6A030EDB50100B0EE0040EDBCF00F006
:10B41000050EDB50D880005406E2060EDB5003E137
:10B42000040EDB5034DA95D90AE2050EDBCFE7FFD4
:10B43000150EDB50E75E050EE7CFDBFF02D0050EF1
:10B44000DB6A040EDBCF00F0160E45D9D88000541D
:10B4500014E2160EDBCFE6FF150EDBCFE6FF040E7F
:10B46000DBCFE6FF050EDB50E552E75CE552D88006
:10B47000E754E552D880E7545FD9030EDB50010B47
:10B480000BE1080EDB5008E0B2D801E08DD0080EC9
:10B49000DB50BED8080EDB6A170EDB5007E088D9F8
:10B4A000170EF1D903E1011C01E17ED0160EDB502D
:10B4B00016E07ED9300EE66E9FD802E1011C74E0E2
:10B4C00077D9DFCFE6FF3EEC73F0E552E552E55267
:10B4D000F4CF01F00001F31C02E1011C65E0050E50
:10B4E000DBCF00F0160EDB50D880005409E2050EC9
:10B4F000DBCFE7FF160EDB50E75E050EE7CFDBFF85
:10B50000300EE66E050ECBD94FE1390EDB2ADBCFCC
:10B51000E9FF3A0E01E3DB2ADBCFEAFF090EEFCFAA
:10B52000DBFFDB500EE044D9090EADD902E1011C6E
:10B530003BE0390EDB2ADBCFE9FF3A0EEDE3DB2AF5
:10B54000EBD755D831E1160EDBCFE6FF080EC3D896
:10B55000E552E7245DD82ED0070EDB50030A1CE02D
:10B56000010A14E0030A07E07BD9DBCFEEFF020EED
:10B57000DBCFEDFF1FD0F5D8056A03AE02D004681B
:10B5800005682CD8BCD805C0EEFF14D0EAD803BE9D
:10B59000046824D8B4D80ED063D9DBCFEFFF0AD02B
:10B5A0007BD905E1011C03E1F368F46810D0FCD8F5
:10B5B00001E3DB2A79D979EF56F0010EDBCF00F0F9
:10B5C000020EDBCF01F000C0F3FF01C0F4FF3B0E21
:10B5D000E15C02E2E16AE552E16ECBD029D9020ECC
:10B5E000DFEF5BF061D90800F550DF6E1200200E2E
:10B5F000E66E080E4FEF5CF03EEC73F0E552E5525C
:10B60000E552F3CF00F0F4CF01F00001F31C12007B
:10B61000006E016AD950010F4DD90050EE2601503D
:10B62000ED221200045E000E055AF70E04C0DBFF87
:10B63000F80E05C0DBFF04C0E9FF05C0EAFF1200F9
:10B64000DBCFF4FFF350F45C1200DB50E76E040E26
:10B65000E7CFDBFF12000A0EDBCF00F00B0EDBCFD3
:10B6600001F00C0EDBCF02F00D0EDBCF03F000502B
:10B670000110021003101200130EEECFDBFF140EA8
:10B68000EDCFDBFF130EDBCF00F0140EDBCF01F0AC
:10B690000001800E01141200F70EDBCF04F0F80E4B
:10B6A000DBCF05F01200050EDB50E66ED950130F0C
:10B6B00001D9E552E750EE6EED6A12000A0EDBCFBB
:10B6C0003BF00B0EDBCF3CF00C0EDBCF3DF00D0E54
:10B6D000DBCF3EF01200DBCFE6FF150EDBCFE6FF3F
:10B6E000050EDB50E552E724E552E7241200DB505B
:10B6F000CED8010EF36E060EF3CFDBFF1200EE5034
:10B70000EFCFEAFFE96E02C0EEFF03C0EEFF04C018
:10B71000EEFF1200D9CFE6FFDACFE6FFE1CFD9FF87
:10B72000E2CFDAFF1200DFCFE6FFE66A25EC74F025
:10B73000E552E552F3501200E76E080EE7CFDBFF4B
:10B740001200EECF00F0EECF01F0EFCF02F0036A6F
:10B750001200050EDBCF00F0150EDB50D880005430
:10B760001200010EDBCF02F0020EDBCF03F0046A01
:10B770001200E552E5CFDAFFE7CFD9FF12000A0E3B
:10B7800000C0DBFF0B0E01C0DBFF1200D9500A0F17
:10B790005AEF5CF0F36E070EF3CFDBFF1200EECF33
:10B7A00000F0EFCF01F01200010EDB2A020E1200B2
:10B7B000FC0EDBCFE6FFFD0EDBCFE6FF1200005EE6
:10B7C000000E015AF70E00C0DBFFF80E01C0DBFFD0
:10B7D00000C0E9FF01C0EAFF1200DA20EA6EEF2A9A
:10B7E000EECFF6FF000EEF22EECFF7FFEF22EECF07
:10B7F000F8FF1200040EDBCFE6FF130EDB50E5521C
:10B80000E75C9ADFDB5004DF060EDB501200090E06
:10B81000DB500A0DF350DF24D00FE76E090EE7CF9F
:10B82000DBFFF2EF5AF0DB50F36E050E20EF5BF01A
:10B83000F70EDBCF00F0F80EDBCF01F01200DFCF08
:10B84000E6FFFCEF5AF028DF030EECDEA1EF5BF021
:10B850004EEC56F0E552E552E552E5520009120071
:10B86000BDDEEE50EFCFEAFFE96E010E1200130EBF
:10B87000DB50F36E040E20EF5BF0040EDB50F36E32
:10B88000090E20EF5BF0DBCFE6FFFCEF5AF0E76E2E
:10B89000050EE7CFDBFF12008BDF1FEF5CF0DBCF85
:10B8A000E6FF86DF28EF5CF0D950F90FE96EFF0E56
:0EB8B000EDEF5BF0E96E000EDA20EA6E12009A
:02B8BE00FAECA2
:10B8C00060F0FC0EDB5035E1FA0E66EC61F0B1EC95
:10B8D00061F0FB0EDB50A1EC61F0F90EDB50006E65
:10B8E000016AD890015002E61DEC61F003E2A6EC7B
:10B8F00061F006D0F90E66EC61F0040EF5EC60F034
:10B90000F90EDB50030FACEC61F0FA0EDB5005E1F1
:10B91000EEEC60F0E20EEE6EED68FB0EDB507F08A1
:10B9200036E1EEEC60F0020EE926000EEA22960EF9
:10B930002CD0F90E66EC61F0B1EC61F0F90EDB5041
:10B94000030FA1EC61F0FA0EDB50006E016AD89093
:10B95000015002E61DEC61F003E2A6EC61F006D0B6
:10B96000FA0E66EC61F0040EF5EC60F0FB0EDB50B5
:10B97000ACEC61F0FB0EDB503F0809E1EEEC60F04F
:10B98000060EE926000EEA22500EEE6EED6AFFEF7B
:10B9900060F0FAEC60F0040EE126020EDB6A030EA2
:10B9A000DB6A09EC61F0D890015002E61DEC61F011
:10B9B0003CE209EC61F0B00E002422EC61F0020ED2
:10B9C00022EC61F0100E22EC61F0DE6ADD6A10EC10
:10B9D00061F004E6800E005C000E015820E2DECF2C
:10B9E00002F0DDCF03F0800E3D6E3E6A020EDBCF2B
:10B9F00042F0030EDBCF43F0B8EC68F002503B247A
:10BA0000006E03503C2085EC61F0EF50E66EA9EC2F
:10BA10006AF0E552DF2A010EDAE3DB2AD8D7020EFC
:10BA2000DB2A030EBEE3DB2ABCD7040EE15C02E294
:10BA3000E16AE552E16EE3D3DDDB020EE126DE6A68
:10BA4000DD6AEEDB04E6000E005C040E01580FE236
:10BA5000DE500E014525E96EDD504621EA6EFE0EF0
:10BA6000DBCFEFFFDF2A010EECE3DB2AEAD7020E81
:10BA7000E15C02E2E16AE552E16EC1D3BBDBFD0E9F
:10BA8000DB049CDB02E0A2DBFEE1F2EC61F001EC06
:10BA900062F04DEC61F002E099DBFEE1FBEC61F05D
:10BAA00001EC62F0DEDBFE0F89DB02E08FDBFEE102
:10BAB000E6DBFE0FD6DBFE0F81DB02E087DBFEE17B
:10BAC000DBDBFE0FCEDBFD0F79DB02E07FDBFEE18F
:10BAD000D6DBFD0FC6DBFD0F71DB02E077DBFEE19D
:10BAE000CBDBFD0FE0EC61F002E070DBFEE1CEDBD2
:10BAF000020FC2EC61F002E069DBFEE1C7DB030F7D
:10BB0000CBEC61F002E062DBFEE1C0DB040FC8ECCD
:10BB100061F002E05BDBFEE1B9DB050FE0EC61F018
:10BB200002E054DBFEE1AEDB020FC2EC61F002E0AA
:10BB30004DDBFEE1A7DB030FCBEC61F002E046DB5F
:10BB4000FEE1A0DB040FC8EC61F002E03FDBFEE1A8
:10BB500099DB050FCEEC61F002E038DBFEE1F5EC9D
:10BB600061F0D4EC61F002E031DBFEE1F2EC61F077
:10BB7000D4EC61F002E02ADBFEE1FBEC61F0D4ECF6
:10BB800061F002E023DBFEE125DB050F6EDB95DBD8
:10BB900002E01CDBFEE186DB070FF7DB02E016DBD1
:10BBA000FEE16DDB070FF1DB02E010DBFEE164DBA1
:10BBB000070FEBDB02E00ADBFEE177DB070F59DB67
:10BBC00002E004DBFEE1E6EC61F00CEC62F002E086
:10BBD000FDDAFEE1FFDA060FEADBE3DB02E0F6DA8C
:10BBE000FEE167DB060FDDDB02E0F0DAFEE16BDB96
:10BBF000060FF0DB02E0EADAFEE141DB080FEADBE8
:10BC000002E0E4DAFEE138DB080FDDDB02E0DEDA39
:10BC1000FEE135DB090FD7DB02E0D8DAFEE12CDBF1
:10BC2000DDDB02E0D3DAFEE12ADB0A0F1ADBA7DB59
:10BC300002E0CCDAFEE120DB0A0F77D397DBBEDA35
:10BC400002E0C4DAFEE1C2DBAFDB02E0BFDAFEE114
:10BC5000CCDBAADB02E0BADAFEE1C4DBA5DB02E062
:10BC6000B5DAFEE1C8DB46DB02E0B0DAFEE1AEDBCE
:10BC7000D3DB02E0ABDAFEE1B8DBCEDB02E0A6DA32
:10BC8000FEE1B0DBC9DB02E0A1DAFEE1B4DB8FDB71
:10BC90004CD36CDB2CDB02E099DAFEE19BDA0D0F72
:10BCA00092DA050F78DB02E091DAFEE193DA0C0F0D
:10BCB0008ADA040F76DB02E089DAFEE18BDA0C0F18
:10BCC00082DA060F5FDB02E081DAFEE183DA0B0F36
:10BCD0009BDB02E07BDAFEE17DDA0B0F99DB02E011
:10BCE00075DAFEE177DA0A0F8FDB02E06FDAFEE148
:10BCF00071DA0A0F8DDB02E069DAFEE16BDA090F17
:10BD000083DB02E063DAFEE165DA090F81DB02E042
:10BD10005DDAFEE15FDA080F77DB02E057DAFEE179
:10BD200059DA080F75DB02E051DAFEE1ABDA030FF6
:10BD30002CDB02E04BDAFEE1A5DA070F23DB02E0A1
:10BD400045DAFEE1B6DA030F20DB02E03FDAFEE17E
:10BD5000B0DA070F17DB02E039DAFEE1A6DA030FEB
:10BD600014DB02E033DAFEE1A0DA070F0BDB02E0BE
:10BD70002DDAFEE181DA030F08DB02E027DAFEE1CB
:10BD80007BDA070F1DDB02E021DAFEE178DA020F31
:10BD900021DB02E01BDAFEE172DA080F6ADA02E068
:10BDA00015DAFEE122DB03DB0EDB02E00FDAFEE157
:10BDB00079DA090FF3DA02E009DAFEE107DB55DA96
:10BDC000DEDA02E003DAFEE17EDA0A0F66DA02E08A
:10BDD000FDD9FEE1FFD915DB44DA0B0FEFD902E004
:10BDE000F5D9FEE153DA0B0F58DA02E0EFD9FEE1A4
:10BDF000046EFE0EDB0405DBD1DA02E0E7D9FEE1DA
:10BE0000046EFE0EDB0431DA6FDA02E0DFD9FEE108
:10BE100062DA040FBDDA02E0D9D9FEE15CDA050F7F
:10BE2000D2DA02E0D3D9FEE156DAD8DA02E0CED98E
:10BE3000FEE151DA0A0F31DA02E0C8D9FEE1CAD9CF
:10BE4000FE0FDFDAABDA02E0C1D9FEE1C3D9FE0FA3
:10BE50000CDA4ADA02E0BAD9FEE142DA040F98DAE3
:10BE600002E0B4D9FEE13CDA050FADDA02E0AED96A
:10BE7000FEE136DAB3DA02E0A9D9FEE131DA0A0FDF
:10BE800054D274DA3FDA02E0A1D9FEE1FFD9CADA6E
:10BE900002E09CD9FEE1FAD9040F74DA02E096D9E7
:10BEA000FEE1F0D9C2DA02E091D9FEE1EBD9050F4B
:10BEB000E0D902E08BD9FEE189DAB1DA02E086D975
:10BEC000FEE101DAB2DA02E081D9FEE1FCD9050F28
:10BED00077DA02E07BD9FEE1ECD9A4DA02E076D988
:10BEE000FEE1E7D9040F5DDA02E070D9FEE1E1D9A5
:10BEF000060F54DA02E06AD9FEE177DAB6D902DA3F
:10BF000002E064D9FEE1CED98DDA02E05FD9FEE12C
:10BF1000C9D9040F46DA02E059D9FEE1C3D9060FA8
:10BF20003DDA02E053D9FEE166DA9FD9EBD902E0AF
:10BF30004DD9FEE1A1D976DA02E048D9FEE19CD9DB
:10BF4000040F2FDA02E042D9FEE196D9060F91D90B
:10BF500002E03CD9FEE146DA62DA02E037D9FEE1DE
:10BF60008ED963DA02E032D9FEE189D9050F0DDA04
:10BF700002E02CD9FEE183D9070F7BD902E026D954
:10BF8000FEE128D9050F4BDA02E020D9FEE18DD978
:10BF90004CDA02E01BD9FEE188D9050FF6D902E0A0
:10BFA00015D9FEE182D9070FEDD902E00FD9FEE1E4
:10BFB0006DD93BDA02E00AD9FEE168D9050FF1D963
:10BFC00002E004D9FEE17FD9060FDFD902E0FED8F6
:10BFD000FEE168D9070FE2D902E0F8D8FEE102DA03
:10BFE00044D96BD902E0F2D8FEE146D9070FD6D981
:10BFF00002E0ECD8FEE1EED8050F7CD902E0E6D8ED
:10C00000FEE1E8D8060FD3D9DBD902E0DFD8FEE1A4
:10C0100039D908DA02E0DAD8FEE134D9040F85D143
:10C0200089D9FC0EDB50D880DF5422E3FE0EDB50B2
:10C03000C5D802E0CBD8FEE10AD9FE0EDB40B1D86C
:10C04000FE0EDB505FD902E0C1D8FEE100D9FE0E42
:10C05000DB50020FCDD9DFA009D08CD902E0B6D8D1
:10C06000FEE1F5D8FE0EDB28E8409BD8DF2AD9D7C1
:10C0700081D902E0ABD8FEE1046EFD0E4FD97AD92A
:10C0800002E0A4D8FEE1046EFC0E48D9020EE15C89
:10C0900002E2E16AE552E16EB2D04CD9FC0EDB500F
:10C0A000D880DF5416E3AFD802E090D8FEE192D8F2
:10C0B00024D9A9D802E08AD8FEE197D91ED9DFA0F9
:10C0C00006D0A1D802E082D8FEE180D916D9DF2AB5
:10C0D000E5D7FD0EDB5072D802E078D8FEE176D9C4
:10C0E00069D9FC0EDB506AD802E070D8FEE16ED947
:10C0F000026E036AFC0EDB4054D8020EE15C02E2E1
:10C10000E16AE552E16E7BD075D8E6520E0120510E
:10C1100033E1A2D801C1E6FF8AD8280E010101252A
:10C12000E66E85D801C1E6FF02C1E6FF87DDE55274
:10C13000E552280E01010125E66E04C1E6FF7EDD11
:10C14000E552E552C2C03CF0C3C03DF0C4C03EF071
:10C15000C5C03FF0E5EC68F03E50E66EBEC03CF076
:10C16000BFC03DF0C0C03EF0C1C03FF0E5EC68F09C
:10C170003E50E66E8EDD0FD0200504E16DD8C4EC94
:10C1800065F00BD0020E205D08E166D8140EE66E55
:10C19000370EE66E76DEE552E552C9EC5CF0E5520C
:10C1A0002ED0E840E8401F0B800D0250F324006EB3
:10C1B0000350F420AAD80450EF121200070B056EAA
:10C1C000010E0552120065D8DB501200E846FE0B46
:10C1D00005061200046EFE0EDB501200FD0EDBCFD2
:10C1E000E9FFFE0EDBCFEAFF1200E926000EEA228D
:10C1F000B1EF61F0D9CFE6FFE1CFD9FF1200E552F0
:10C20000E7CFD9FF1200070EDF14056E010E0552AD
:10C210001200020EDBCF00F0030EDBCF01F01200A4
:10C22000DECF00F0DDCF01F0D8900150120000C148
:10C23000E6FF24DCE552E5521200080E005C000E19
:10C2400001581200E66EA6EC6AF0E5521200046E88
:10C25000DF50026E036A1200E66A1CEC5DF0E552E4
:10C260001200C6D8FD0EDB501200A4D8FD0EDB5024
:10C270001200BED8FD0EC2D0BED8E3EF60F0B2D837
:10C28000E3EF60F0A7DF070FE3EF60F0A3DFE3EF7A
:10C2900060F0026E036AFD0E1200AAD8FD0EDB04E8
:10C2A000DEEF60F0A2D8E3EF60F094DF050FE3EF7C
:10C2B00060F090DF060FE3EF60F0070FDEEF60F055
:10C2C000030FDEEF60F082D8E3EF60F0DB50F80F91
:10C2D000E66EEEEF60F0046EFE0EDB04E3EF60F05E
:10C2E00079DFFE0FE3EF60F0040FDEEF60F0050F83
:10C2F000DEEF60F05FD8FD0E81D0026E036ADF5082
:10C30000F8EF61F0020FDEEF60F0016E0E014551B3
:10C310000024E96E46510120EA6E1200DB50026EE5
:10C32000036AFE0EDB28F8EF61F062D868D7060FCB
:10C33000DEEF60F05FDF020EE126FD0EDB50DF6E08
:10C340001200E66E4BDF020EF5EF60F047DF040EE1
:10C35000EB6A050EEB6A1200E66E40DF060EF5EFA3
:10C3600060F0E552E750EE6EED6A120043DFFD0E1D
:10C37000DB501200FE0E42D0090FDEEF60F00A0F14
:10C38000DEEF60F06EDF60EF61F06BDF5DEF61F0BC
:10C3900068DF77EF61F065DF74EF61F062DFDEEF99
:10C3A00060F05FDF97EF61F060DFDEEF60F071DF7C
:10C3B000DB281200026E036AFD0EDB40D1EF60F055
:10C3C00050DF82EF61F04DDFBCEF61F0046EFE0ED6
:10C3D000DB28120046DF080FDEEF60F0090F41DFB7
:10C3E000BFEF61F0F7DE030F1200F4DE020F120060
:10C3F000E840D1EF60F0EEDE040F1200DB28DEEF44
:10C4000060F047DFDB041200DEDE030FC5EF61F0F2
:10C41000DADE070FC2EF61F0CADF39EF61F0C7DF84
:10C42000C2EF61F0020FCBEF61F0030FC8EF61F0D4
:10C43000E3EC66F01100D8CFE4FFE0CFE4FFE46E58
:10C44000E3EC66F0E550E5CFE0FFE5CFD8FF100064
:10C45000D4DB2FEC66F0FDD7DEEC66F0EAEC66F09C
:10C46000BC0E005C020E015807E3F1EC66F0BC0E56
:10C47000025C020E03580DE2EAEC66F0F1EC66F0A5
:10C480000250005C0350015802E2010E03D0020E7C
:10C4900001D0000EE552E7CFD9FF1200DEEC66F0C6
:10C4A000420EE126C0EC50F00E0100510001605D2B
:10C4B000006E61510E010155016E00500E012B27D7
:10C4C00001502C230E0102510001625D006E635188
:10C4D0000E010355016E00500E012D2701502E2331
:10C4E0000001C80EF51939E1F65137E1E66AE66A4E
:10C4F000560EE66EE00E00EC67F02BCE00F02CCE70
:10C5000001F0C80E426E436A2BCE3DF02CCE3EF0B9
:10C51000D3EC66F03F0E026EE00EF2DB020EF8EC9A
:10C5200066F02DCE00F02ECE01F0C80E426E436AAA
:10C530002DCE3DF02ECE3EF0D3EC66F0280E026EEE
:10C54000E00EDEDB030EF8EC66F00E012B6B2C6BBD
:10C550002D6B2E6B0001F56BF66BE66AC1DB08E212
:10C5600060C000FE61C001FE62C002FE63C003FE47
:10C57000030EE66EB5DB03E20001060EEB6F000171
:10C58000F52B000EF623420EE15C02E2E16AE55271
:10C59000CEEF66F0010EE66E05EC67F0020EE66E79
:10C5A0006AEC70F0E552F3CF28FEF4CF29FEF3CF0A
:10C5B000E6FFF4CFE6FF26CEE6FF27CEE6FF4CDF10
:10C5C000D8DB0001E66FE85005E0F05103E1010E11
:10C5D000F06FA6DBE65102E1F06B000CF0510AE0CF
:10C5E000AADBE83407E200506408000E015402E2BE
:10C5F00097DB020CF0510BE09EDBD880E85004E79B
:10C600009C0E005CFF0E015802E28ADB010E120054
:10C61000D5DB230EE126E66AE66A120EE66EE00E30
:10C62000EFDBB8DFE76E020EE7CFDBFFDB5002087F
:10C6300006E10001EC5100080AE2EC0708D0020E06
:10C64000DB0405E1050E0001EC5D01E2EC2B0001CD
:10C65000ED51EC5D030804E1020EED5D01E2ED2B0E
:10C66000ED51EC5D04E1ED51000801E2ED07010E32
:10C67000DB6AEDC0DFFF040E0001ED25DF5C24E284
:10C68000DFCFE6FFE66AFC0E006EDF0E016E026A87
:10C6900000C0E6FFE66E02C0E6FFD950030FBDDB27
:10C6A000036E070EE15E0350DF500001EC5D04E114
:10C6B0006CDB45EC6BF003D068DB36EC6BF059DBE0
:10C6C000010EDB2ADF2AD7D7030EE66E57DB05E221
:10C6D0000001060EEB6F010EEC6FE66A4FDB04E221
:10C6E0000001EB69ECC0F1F1230EE15C02E2E16ACA
:10C6F000E55254D3D9CFE6FFE1CFD9FF070EE126AB
:10C700000001EB51090A01E132D2010A01E1E4D151
:10C710000F0A01E1DFD1010A01E1D9D0030A01E1E9
:10C72000D0D0010A70E0050A67E0010A01E021D2D9
:10C7300053EC6AF0E66AACEC6AF0E552E66AE66A47
:10C74000E50EE66EDF0EE66E18EC6BF0E552E55294
:10C75000E552E552E66A010EE66E6C0EE66EE00EFC
:10C76000E66E18EC6BF0E552E552E552E552E66AEA
:10C77000020EE66ECE0EE66EDF0EE66E18EC6BF085
:10C78000E552E552E552E552E66A030EE66E6C0E9E
:10C79000E66EE00EE66E18EC6BF0E552E552E552FF
:10C7A000E552E66A040EE66EBA0EE66EDF0EE66E3F
:10C7B00018EC6BF0E552E552E552E552E66A050EDB
:10C7C000E66EA30EE66EDF0EE66E18EC6BF0E55239
:10C7D000E552E552E552E66A060EE66E8D0EE66E0D
:10C7E000DF0EE66E18EC6BF0E552E552E552E552CD
:10C7F0000001010EEB6FBED1CFD9010803E10001AA
:10C80000040EEB6FB7D1E66AE66A770EE66EDF0ECE
:10C81000E66E18EC6BF0E552E552E552E552E66A39
:10C82000010EE66E610EE66EDF0EE66E18EC6BF042
:10C83000E552E552E552E552E66A020EE66E4B0E0F
:10C84000E66EDF0EE66E18EC6BF0E552E552E5524F
:10C85000E552E66A030EE66E350EE66EDF0EE66E14
:10C8600018EC6BF0E552E552E552E552E66A040E2B
:10C87000E66E1F0EE66EDF0EE66E18EC6BF0E5520C
:10C88000E552E552E552E66A050EE66E6C0EE66E7E
:10C89000E00EE66E18EC6BF0E552E552E552E5521B
:10C8A000E66A060EE66E8D0EE66EDF0EE66E18EC9C
:10C8B0006BF0E552E552E552E5520001050EEB6FD3
:10C8C00059D16AD9010802E10001EB2B53D162DE94
:10C8D000E76E060EE7CFDBFF060EDB50020807E12E
:10C8E0000001EC51000802E20001EC0709D0060E3D
:10C8F000DB0406E1030E0001EC5D02E20001EC2B1B
:10C90000E66AE66A080EE66EDF0EE66E18EC6BF07D
:10C91000E552E552E552E552E66A010EE66EF3C0D5
:10C92000E6FFF4C0E6FF18EC6BF0E552E552E55285
:10C93000E5520001EC510EE1E66A020EE66EF20EDF
:10C94000E66EDE0EE66E27EC6BF0E552E552E55240
:10C95000E5520DD0E66A020EE66EF20EE66EDE0ECF
:10C96000E66E18EC6BF0E552E552E552E552000137
:10C97000EC050EE1E66A030EE66EDC0EE66EDE0EF8
:10C98000E66E27EC6BF0E552E552E552E5520DD02C
:10C99000E66A030EE66EDC0EE66EDE0EE66E18EC60
:10C9A0006BF0E552E552E552E552020E0001EC5DF6
:10C9B0000EE1E66A040EE66EC60EE66EDE0EE66E6A
:10C9C00027EC6BF0E552E552E552E5520DD0E66AF0
:10C9D000040EE66EC60EE66EDE0EE66E18EC6BF02A
:10C9E000E552E552E552E552030E0001EC5D0EE121
:10C9F000E66A050EE66EB00EE66EDE0EE66E27EC1B
:10CA00006BF0E552E552E552E5520DD0E66A050EAF
:10CA1000E66EB00EE66EDE0EE66E18EC6BF0E552DA
:10CA2000E552E552E552E66A060EE66EF3C0E6FF11
:10CA3000F4C0E6FF18EC6BF0E552E552E552E55222
:10CA4000E66A6AEC70F0E552DE52F3CFDEFFF4CF17
:10CA5000DDFFDD52010EDBCF00F0020EDBCF01F077
:10CA6000580E005C020E015834E20001EC51030A3A
:10CA70002EE0010A1DE0030A08E0010A01E029D0C6
:10CA80000001EB690101F16B24D00001090EEB6F8D
:10CA9000640EE66EE66A2FEC6AF0E552E552E66A4D
:10CAA000ACEC6AF0E5520001EC6B0001ED6B11D0CB
:10CAB0000001070EEB6F640EE66EE66A2FEC6AF07B
:10CAC000E552E552E66AACEC6AF0E55202D0FF00AE
:10CAD00000D050D0E3DC4ED0E668ACEC6AF0E55212
:10CAE000E66AE66A9A0EE66EDE0EE66E27EC6BF0FC
:10CAF000E552E552E552E552E66A020EE66E840E14
:10CB0000E66EDE0EE66E27EC6BF0E552E552E5527E
:10CB1000E552E66A030EE66E6E0EE66EDE0EE66E19
:10CB200027EC6BF0E552E552E552E552E66A040E59
:10CB3000E66E580EE66EDE0EE66E27EC6BF0E55202
:10CB4000E552E552E552D00EE66E070EE66E2FEC8A
:10CB50006AF0E552E5520001060EEB6FE66AACECB6
:10CB60006AF0E5520101F16B0E011F6B03D050DD3D
:10CB700001D000D0070EE15C02E2E16AE552E16E0D
:10CB8000E552E7CFD9FF1200E66A030EE66E440EC7
:10CB9000E66EDE0E00EF67F081B01FD00001F8C036
:10CBA00000F0F9C001F0FAC002F0FBC003F0F82B6E
:10CBB000000EF923FA23FB23D880D00E0054070E71
:10CBC0000154000E0254000E035416E2F86BF96B88
:10CBD000FA6BFB6B010EF76F000C0001F7050CE11F
:10CBE000F851F911FA11FB1102E1F76B010CF8078A
:10CBF000000EF95BFA5BFB5B000CE0D8020EE1264D
:10CC00000F0EC112580EDE6E020EDD6E9B8CDFCF52
:10CC100000F0DF06010EDBCF01F001E2DB06005081
:10CC20000110F5E10F014869496906D8020EE15C7F
:10CC300002E2E16AE552B2D0949C8B8C828C67EC64
:10CC400070F0D2EC70F0E8EC6DF08B8E828EE66ABC
:10CC50001CEC5DF0E5520101F16B37EF52F0AED8FC
:10CC6000020EE126FF0E0001EB5D2FE10E011E51C9
:10CC700009E10E011F5106E1010EE66E6BD8010EAF
:10CC8000E66E03D0E66A66D8E66AE66AE66AE66AAF
:10CC90003F0EE66EC7EC52F0006E050EE15E0050EE
:10CCA00084EC60F00E01470504E1476B0001080EBB
:10CCB000EB6F030EE66E14D808E20001060EEB6F70
:10CCC000EC6BE66AACEC6AF0E5524DEC72F00009F0
:10CCD00001E010DD020EE15C02E2E16AE5525ED0A5
:10CCE0006AEC70F0E552F3CFDEFFF4CFDDFFDECF6C
:10CCF00000F0DDCF01F0580E005C020E015812006A
:10CD0000036E046A02C0E6FFE66E04C0E6FFD95077
:10CD1000020F83D8056E070EE15E0550E66A120029
:10CD20000E012851265D0001EE6F0E012951275991
:10CD30000001EF6F12000E012851265D026E27518F
:10CD40002955036E00010250EE5D006E0350EF594D
:10CD5000016E12000A0EE66ED70EE66E230EE66E28
:10CD60003D0EE66EFEEC50F0006E050EE15E0050EA
:10CD70001200E552E552E552E552120046D80E0186
:10CD8000580EF35C020EF4581200E66A010EDB50F6
:10CD9000020FE66ED950030F10EF67F0E16EE55217
:10CDA000E7CFD9FF120092EC68F03DC000F03EC022
:10CDB00001F03DC0E6FF3EC0E6FF1200D9CFE6FF1E
:10CDC000E1CFD9FF1200DACFE4FFE652E552E5CF1A
:10CDD000DAFF1200FD0EDBCF00F0FE0EDBCF01F01C
:10CDE0001200FB0EDBCF02F0FC0EDBCF03F01200D3
:10CDF000E66ED950020F14D836EC6BF0B9EF66F03E
:10CE0000E66E18EC6BF0B9EF66F06AEC70F0E55284
:10CE1000F3CF26FEF4CF27FE120002D899EF72F06E
:0ACE2000E66E000EDA20E66E120046
:06CE2A00369E05D0369E85
:10CE30003EAE02D03E6C368E3EC038F0376A486A4D
:10CE4000476A860E396E3A6AC5EF69F0369E08D099
:10CE5000369E3EAE05D03D6C3E1EE86A3E22368EC2
:10CE60003EC038F03DC037F0486A476A8E0E396ED2
:10CE70003A6AC5EF69F0447E366A01EC6AF019EC53
:10CE80006AF036B6A9EF69F036A20AD036AA03D006
:10CE900036BEA9EF69F036A4B5EF69F0B2EF69F0DC
:10CEA00036AA05D036ACB5EF69F0B2EF69F036A01E
:10CEB0000AD036A808D036BE04D036A402D0BEEFC1
:10CEC00069F0C2EF69F0476A3A6A44503F5C466EC7
:10CED00010E33CC048F03DC037F03EC038F03FC0E2
:10CEE00045F041C03CF042C03DF043C03EF0363A10
:10CEF00009D041C048F042C037F043C038F044C0C8
:10CF000045F0466C369E36BC368E45C039F036B09C
:10CF1000F1EF69F01A0E4660F1EF69F0396A3F6A85
:10CF200036A408D03C6C3D1E3E1E3F1EE86A3D22E2
:10CF30003E223F2236AC08D0486C371E381E391EC0
:10CF4000E86A3722382239223B6A465207E03F34EA
:10CF50003E323D323C323B32462EF9D73C504826D9
:10CF60003D5037223E5038223F5039223BC047F0D7
:10CF7000369E39AE0BD0476C481E371E381E391E00
:10CF8000E86A4822372238223922368E39A006D064
:10CF9000D8803832373248324732452A45C039F0D6
:10CFA000C5EF69F0366A01EC6AF019EC6AF036B642
:10CFB000A9EF69F036A205D036BAA9EF69F0B0EF53
:10CFC00069F036BABCEF69F036A005D036B8A9EFE3
:10CFD00069F0BCEF69F036B8B0EF69F03A6A7F0EDD
:10CFE0003F24396EE86A3A224450395EE86A3A5A78
:10CFF0001A0E456E3F6A476A486A376A386A415076
:10D000003C5E42503D5A43503E5A000E3F5A09E79B
:10D0100041503C2642503D2243503E22000E3F22CA
:10D0200001D0478AD8903C363D363E363F36D890C0
:10D030004736483637363836452EE1D73E503D1014
:10D040003C10D8A4478AC5EF69F0366A01EC6AF053
:10D0500019EC6AF036B6A9EF69F036A205D036B8F9
:10D06000A9EF69F0B0EF69F036AA05D036B0A9EFA4
:10D0700069F0B0EF69F036B002D036A802D0BCEF4C
:10D0800069F03A6A44503F24396EE86A3A227E0ECB
:10D09000395EE86A3A5A476A486A376A386A4350DA
:10D0A0003E02F4CF38F0F3CF37F042503E02F35057
:10D0B0004826F4503722000E382243503D02F350E8
:10D0C0004826F4503722000E382241503E02F350D9
:10D0D0004726F4504822000E3722382242503D02A3
:10D0E000F3504726F4504822000E3722382243508E
:10D0F0003C02F3504726F4504822000E37223822D3
:10D1000041503D02F4504726000E48223722382273
:10D1100042503C02F4504726000E48223722382263
:10D12000C5EF69F0356A43AE9BEF68F0426C431E71
:10D13000E86A4322351E3EAEA3EF68F03D6C3E1E0A
:10D14000E86A3E22351E0FEC74F03EBEB3EF68F085
:10D1500035AE000C3D6C3E1EE86A3E22396C3A1E2C
:10D16000E86A3A22000C35BEAAEF68F03688FF0C58
:10D170003EC048F03DC047F03D504202F4CF3CF085
:10D18000F3CF3BF03E504302F4CF3EF0F3CF3DF0FF
:10D190004202F3503C26F4503D22E86A3E224750BA
:10D1A0004302F3503C26F4503D22E86A3E2243AE4F
:10D1B000DEEF68F047503D5E48503E5A48AE000CE6
:10D1C00042503D5E43503E5A000C366A01EC6AF014
:10D1D00036B6EFEF68F036A20AD036B403D07F0E31
:10D1E0003E6E19D0800E3E6E16D03E6A14D036B018
:10D1F000FCD7870E3F60F1D77E0E3F64F6D7860ED0
:10D200003F5C04E0D8903E323F2AF9D736A403D0E1
:10D210003E6C3EAEEAD71200366A01EC6AF036B6D2
:10D2200016EF69F036A20ED036B405D07F0E3E6EF2
:10D23000FF0E3D6E1FD0800E3E6E3D6A1BD03E6AD3
:10D240003D6A18D036B0FBD78F0E3F60EDD77E0E0B
:10D250003F64F5D78E0E3F5C05E0D8903E323D32FC
:10D260003F2AF8D736A406D03D6C3E1EE86A3E221F
:10D270003EAEE5D7120054EC69F036B6000C36B07D
:10D28000010C000C54EC69F036B6000C36B0000C02
:10D2900036B4000C010C54EC69F036B6000C36B014
:10D2A000000C36A4000C010C366A01EC6AF019EC93
:10D2B0006AF036B6120036AE08D036A004D036A8D2
:10D2C00002D0368012003690120044503F5C0BE1D1
:10D2D00043503E5C08E142503D5C05E141503C5CFE
:10D2E00002E136801200D8A002D0368E10D03F5016
:10D2F00044C03FF0446E3E5043C03EF0436E3D504C
:10D3000042C03DF0426E3C5041C03CF0416E445042
:10D310003F5C10E0FF0F09E0369036B403D036AE24
:10D320003684120036AE36941200442AD890433226
:10D330004232413241503C5E42503D5A43503E5A87
:10D340003EBEEAD7D8903C363D363E363F2EF8D723
:10D35000C8D77F0E3F6EFF0E3E6E3D6E3C6E1200D4
:10D360007F0E36BEFF0E3F6E02D07F0E3F6E800EE8
:10D370003E6E3D6A3C6AF3D736AE04D0800E3F6EF7
:10D380003E6AF7D73F6A3E6AF4D7385037104810E4
:10D390004710F8E03ABEF0D738BE0CD039503A10FA
:10D3A000EBE0D89047364836373638363906D8A0BD
:10D3B0003A06F2D73A50D4E13928D2E047AE11D03C
:10D3C0007F0E471402E148A00CD0482AE86A3722B1
:10D3D000382207E3D880383237324832392A3928A0
:10D3E000BFE03950C9E048C03CF037C03DF03834A8
:10D3F0003E6E39303F6E3E323F9E36BE3F8EAFEFBF
:10D4000069F03E363F3602E33684367E06E13680EA
:10D410003F6A3E6A3D6A3C6A12003F2803E0D880BA
:10D420003E321200D8903E3202E136821200368639
:10D4300012004336443602E3368C367E06E13688E7
:10D44000446A436A426A416A1200442803E0D88071
:0ED4500043321200D8904332EAE1368A1200CD
:02D45E00D4D91F
:10D46000FD0EDBCF00F0DB06FE0EDBCF01F001E2AC
:10D47000DB060050011010E0DE6ADD6ADECF00F04E
:10D48000DDCF01F0E30E005C0D0E0158E9E2DF2A6A
:10D49000010EF4E3DB2AF2D7020EE15C02E2E16A5C
:10D4A000E552E16E71D102DA060EE1268D92969276
:10D4B0008D9096908D8496948A9A939A8C92A8D9FE
:10D4C00084D902E297D9FCD78C82A2D97ED902E214
:10D4D00091D9FCD7AE0E42D9DB0E40D9230E3ED9EE
:10D4E000D90E3CD9220E3AD9A10E38D9C80E36D958
:10D4F000DA0E34D9120E32D9A80E30D93F0E2ED9F9
:10D50000D50E2CD9A00E2AD9810E28D9600E26D985
:10D51000D30E24D9E66ACFD9A60E20D9AD0E1ED9D6
:10D520008B0E1CD9AF0E1AD90A0EE66EE66A97DF8B
:10D53000E552E552A40E12D9400E10D9ACD9060E10
:10D54000E15C02E2E16AE552E16E1ED14BD98A9AB2
:10D55000A7D148D98A8AA4D157D9B00EDF6EB80EA8
:10D56000DF5C1BE2DFCFE6FFA6D995D9010EDB6AAF
:10D57000DB50006E016AD890015004E6840E005C16
:10D58000000E015808E2FE0EDBCFE6FFE2DFE552B7
:10D59000010EDB2AEDD7DF2AE2D7020EE15C02E2C0
:10D5A000E16AE552E16EF0D03FD9F6BEF768C8D81F
:10D5B0000800F550D6D8F6BEF768C2D8010E5FD97C
:10D5C000F6BEF768BDD8020E5AD9F6BEF768B8D8CD
:10D5D000030E55D9F6BEF768B3D8040EEAD8F55055
:10D5E00056D9E66AB6DFE552E552CED01DD9F6BE71
:10D5F000F768A6D80800F51CB4D8F6BEF768A0D81E
:10D60000010E41D9F6BEF7689BD8020E3CD9F6BE92
:10D61000F76896D8030E37D9F6BEF76891D8040E8E
:10D62000C8D8F51C34D9E66894DFE552E552ACD091
:10D630009ED8AED80AE01DD9ABD8E66EB5DFBED80D
:10D6400001E3DB2A060EDF26F4D7E5529DD08FD802
:10D650009FD80AE00ED99CD8E66EC8DFAFD801E3A8
:10D66000DB2A060EDF26F4D7E5528ED080D899D873
:10D670000AE0FFD896D8E66E97DFA0D801E3DB2A50
:10D68000060EDF26F4D7E5527FD071D88AD80AE09B
:10D69000F0D887D8E66EAADF91D801E3DB2A060E20
:10D6A000DF26F4D7E55270D001D9050EE126030E2E
:10D6B000DB6A040EDB6A020E006EFA0EB0D8FA0EB8
:10D6C000E7CFDBFFF90EDB50B00FDF6EFB0EDB5058
:10D6D000B00FDF5C2EE2DFCFE6FFEDD8FA0EDB50B5
:10D6E0000F0B3CD8FA0EDB380F0B0F0B100936D896
:10D6F000010EDB6AFC0EDB50F36E010EDBCFF4FF94
:10D70000F350F45C14E2030EDB2A040E01E3DB2A7F
:10D71000FD0EDBCFF6FFDB2AFE0EDBCFF7FF01E3CA
:10D72000DB2A0800F550B3D8010EDB2AE3D7DF2A45
:10D73000CDD7050EE15C02E2E16AE552E16E24D04C
:10D74000050EF702F3CFF7FFF602F3CFF6FFF45022
:10D75000F726660EF626E20EF7221200E66E5BEF63
:10D760006CF095D8FE0EDBCFF6FFF76A12009ED85C
:10D77000E652FB0EDB50DF6EFC0EDB50B10FE76EA6
:10D78000FC0EE7CFDBFF1200E552E7CFD9FF120016
:10D79000FD0EDBCFF6FFFE0EDBCFF7FF0800F550E6
:10D7A0001200FD0EDBCFE9FFFE0EDBCFEAFFEF50EC
:10D7B0001200F626000EF72208001200E552E5528C
:10D7C000E552FD0EDB2AFE0E1200D9CFE9FFDACFBB
:10D7D000EAFF640EEE5C000EEE58000EEE58000EEE
:10D7E000EE58120063D8956AFE0EDB508C6E8D8069
:10D7F0008D821200D9CFE9FFDACFEAFFEE2A000EC0
:10D80000EE22EE22EE22120051D8020EE126120084
:10D81000DE6ADE6ADE6ADD6ADD52DD521200DBCFCF
:10D82000E7FF0050E726120041D8E652200E006EB6
:10D83000FE0EDBCFE7FF0050E75EFE0EE7CFDBFF1B
:10D84000FD0EDBCFE6FF37D8020E006EFC0EE7DFE1
:10D85000FC0EE7CFDBFFDB500F0B80DFFC0EDB386D
:10D860000F0B0F0B100F7ADFFE0EDBCFF6FFF76A00
:10D870001200DFCFE6FFFC0EDBCFE6FF120099DFE0
:10D88000F550B1EF6BF095DFF51CB1EF6BF0E66E84
:10D8900060DEE5521200020E61DF100EAEEF6BF09B
:10D8A0008D948D928D828D8495686ED7D9CFE6FF49
:0CD8B000E1CFD9FF12004ADEE552120061
:04D8BC00D9CFE6FFDB
:10D8C000E1CFD9FFE652DF6A0101EE51DF5C28E2C9
:10D8D000DF50040DF3CFE9FFF4CFEAFF060EE9268F
:10D8E000010EEA22EECFE6FFEECFE6FFEECFE6FF37
:10D8F000EFCFE6FFDF50080DF3CF00F0F4CF01F0DB
:10D900003E0E0026010E012200C0E6FF01C0E6FF28
:10D910005FEC5CF0026E060EE15E0250DF2AD4D7A7
:10D92000E552E552E7CFD9FF1200D9CFE6FFE1CFAC
:10D93000D9FFFE0E47D93CC0BEF03DC0BFF03EC08F
:10D94000C0F03FC0C1F0FD0E3DD93CC0C2F03DC0AB
:10D95000C3F03EC0C4F03FC0C5F00001C66BC76B4A
:10D96000C86BC96B0001D26BD36BD46BD56BD2C0C3
:10D97000CEF0D3C0CFF0D4C0D0F0D5C0D1F0D2C05B
:10D98000CAF0D3C0CBF0D4C0CCF0D5C0CDF00001EC
:10D99000E26BE36BE46BE56BE2C0DEF0E3C0DFF06B
:10D9A000E4C0E0F0E5C0E1F0E2C0DAF0E3C0DBF0B3
:10D9B000E4C0DCF0E5C0DDF0E552E7CFD9FF1200AE
:10D9C0001200120012000101EE6B160EF06FEF6BE9
:10D9D000F26F310EF36F070EEED80101070EC06F24
:10D9E000060EC16F070EC26F110EC36F070EC46F14
:10D9F0001C0EC56F070EC66F270EC76F070EC86FC8
:10DA0000320EC96F160ECA6F060ECB6F250ECC6F85
:10DA1000060ECD6F340ECE6F060ECF6F430ED06F55
:10DA2000060ED16F520ED26F060ED36F620ED46FF8
:10DA3000060ED56F6F0ED66F1C0ED76F6F0ED86F98
:10DA4000270ED96F6F0EDA6F320EDB6F250EDC6F8B
:10DA5000320EDD6F340EDE6F320EDF6F430EE06F7D
:10DA6000320EE16F520EE26F320EE36F620EE46F20
:10DA7000320EE56F430EE66F110EE76F430EE86F4F
:10DA80001C0EE96F250EEA6F270EEB6F12000101E5
:10DA9000030EEE6FF06B010EEF6F0A0EF26F070EC2
:10DAA000F36F340E88D80101096B140E066F280E2F
:10DAB000076F800E086F0D6B280E0A6F0B6F800EBC
:10DAC0000C6F116B1E0E0E6F0F6B500E106F1F0E32
:10DAD000B36F020EAE6F010EB16F080EAF6F010E85
:10DAE000B06F12000101060EEE6F020EF06F030E12
:10DAF000EF6F0A0EF26F340EF36F5DD80101010E65
:10DB0000096F1E0E066F200E076F3F0E086F010E85
:10DB10000D6F3E0E0A6F0B6B200E0C6F010E116F16
:10DB20005E0E0E6F200E0F6F400E106F010E156F00
:10DB30001E0E126F0D0E136F150E146F010E196F5E
:10DB40003E0E166F2C0E176F340E186F010E1D6FE0
:10DB50005E0E1A6F0D0E1B6F150E1C6F0D0EB26F41
:10DB6000150EB36F030EAE6F010EB16F090EAF6FDE
:10DB7000030EB06F0D0EB86F150EB96F050EB46FB2
:10DB8000010EB76F090EB56F010EB66F2B0EBE6F8B
:10DB9000330EBF6F040EBA6F010EBD6F090EBB6F5F
:10DBA000020EBC6F2C0EC06F1C0EC16F4C0EC26FEC
:10DBB0001C0EC36F1200E66E6E0EE66EB6DEE55208
:10DBC000E5521200DBCF00F000C03EF015EF67F029
:10DBD000D9CFE6FFE1CFD9FF030EE12659D8736A0A
:10DBE000820E726E739C94949396958C7288728A4E
:10DBF000949EE66AD0D8E552E76E020EE7CFDBFFCF
:10DC00000000D950020FE96EDACFEAFFEF50070BA0
:10DC1000020801E00000140EE66EBDD8E552E76E82
:10DC2000020EE7CFDBFF020EDB96DB88020EDB8005
:10DC3000DB92DB94020EDBCFE6FF140EE66E3AD8E1
:10DC4000E552E552010EE66EA6D8E552DE6EDD6ABB
:10DC50000000110EE66E9FD8E552DE6EDD6A000010
:10DC6000E66A110EE66E26D8E552E5520000110E66
:10DC7000E66E91D8E552DE6EDD6A0000030EE15CCF
:10DC800002E2E16AE552E16EE552E7CFD9FF120008
:10DC9000550EA76EAA0EA76E0E01FF91090ECC6F4E
:10DCA0000A0ED36F170EFB6F550EA76EAA0EA76E46
:10DCB000FF811200D9CFE6FFE1CFD9FFE652DF6A3C
:10DCC000FE0EDB50140804E0FE0EDB50340806E1C3
:10DCD000140EE66E60D8E552E00BDF6E8B9EA49EBC
:10DCE000FE0EDB50756EA4AEFED7000000000000F3
:10DCF0000000000000000000000000000000000024
:10DD00000000000000000000000000000000000013
:10DD10000000000000000000000000000000000003
:10DD200000000000000000000000000000000000F3
:10DD300000000000000000000000000000000000E3
:10DD400000000000000000000000000000000000D3
:10DD500000000000000000000000000000000000C3
:10DD600000000000000000000000A49EFE0EDB503A
:10DD70000A0805E1FD0EDB507F0B756E04D0FD0E29
:10DD8000DB50DF10756EA4AEFED78B8EE552E552E8
:10DD9000E7CFD9FF1200D9CFE6FFE1CFD9FF8B9EA5
:10DDA000A49EFE0EDB508009756EA4AEFED7000067
:10DDB0000000000000000000000000000000000063
:10DDC0000000000000000000000000000000000053
:10DDD0000000000000000000000000000000000043
:10DDE0000000000000000000000000000000000033
:10DDF0000000000000000000000000000000000023
:10DE00000000000000000000000000000000000012
:10DE10000000000000000000000000000000000002
:10DE20000000000000000000000000000000A49EB0
:10DE3000756AA4AEFED78B8E755000D0E552E7CF41
:04DE4000D9FF1200F4
:0CDE440020202020202047414D45204F89
:10DE50005645522020202000202020505245434982
:10DE60004F55532074696D65203A292020002059B0
:10DE70006F75206A75737420776173746520796F8C
:10DE800075722000202020596F7520776F6E206EEC
:10DE90006F7468696E67202020002020434F524E27
:10DEA00047524154554C4154494F4E532120200074
:10DEB000202020202020515549542047414D452005
:10DEC00020202020200020202020202043414C49D9
:10DED0004252415445202020202020002020202094
:10DEE0002053454C454354204C4556454C2020205A
:10DEF00020002020202020204E4557202047414D43
:10DF00004520202020202000202020414C4C494545
:10DF10004E2047414D45204D454E552020200020A4
:10DF2000332E2048617665206120676F6F6420740E
:10DF3000696D652E0020746F206D6F7665207468A2
:10DF40006520706C616E652020200020322E2054E8
:10DF5000696C742074686520626F6172642020208F
:10DF6000002073656C656374206D656E752069743F
:10DF7000656D732E20200020312E2055736520738F
:10DF800063726F6C6C20746F2020202000507265CB
:10DF90007373204D656E7520746F2070726F6365AA
:10DFA0006564002020202020202020202020202008
:10DFB0002020202020202020200020202050726FB0
:10DFC0006A6574204D413120495349422000202088
:10DFD0006279204D6172696520566F6C6F6C6F6E4F
:10DFE0006A6F202000202020416C6C69656E2047FC
:10DFF000616D652076312E302020200020202020E9
:10E000002020204C6576656C20256420202020206F
:10E0100020002020202053454C45435420204C45CF
:10E0200056454C2020202000202020593A20202531
:10E0300064202020202020202020202020200020BC
:10E040002020583A20202564202020202020202035
:10E0500020202020200020202043414C49425241D2
:10E0600054452053454E534F52202000202020205D
:10E0700020202020202020202020202020202020A0
:02E0800020007E
:0EE08200030EB16EB392B390B396B288B28E15
:10E09000B290B292A494B38E12002F0E926E0F0122
:10E0A000E00E486F1F0E496FC18EC19CC70EC11490
:10E0B0000809C16EF80EC1140209C16E498FC29CD5
:10E0C000C29EC30EC2140809C26EC2801200D9DFFC
:10E0D0004DEF70F0D9CFE6FFE1CFD9FF020EE12678
:10E0E000FE0EDB500F0BF36EF346F346C30EC21465
:10E0F000F310C26EFE0EDB50EA6AFC0FE96E000EF2
:10E10000EA22EF503F0BF36EF346F346030EB114D1
:10E11000F310B16EB38EB382000000000000000067
:10E1200000000000000000000000000000000000EF
:10E1300000000000000000000000000000000000DF
:10E14000B392B28000000000000000000000000058
:10E1500000000000000000000000000000000000BF
:10E16000000000000000000000000000B2909E9C33
:10E17000C2829EACFED7C3CFDEFFC4CFDDFFDECFB1
:10E1800000F0DDCF01F000C0F3FF01C0F4FF00D0CC
:10E19000020EE15C02E2E16AE552E16EE552E7CF90
:10E1A000D9FF1200D9CFE6FFE1CFD9FF030EE12658
:10E1B000020EDB6A040EF36E020EDBCFF4FFF350A7
:10E1C000F45C21E22AD8EF6A30D80CE226D8EF506E
:10E1D0001F0803E122D8EF6A13D01FD8EF2A25D8F1
:10E1E000F5E30ED02CD80CE218D8EF50E10803E18B
:10E1F00014D8EF6A05D011D8EF062BD820D8F4E355
:10E20000020EDB2AD7D7030EE15C02E2E16AE55297
:10E21000E16EE552E7CFD9FF1200020EDB50EA6A49
:10E22000FC0FE96E000EEA22120013D8DECF00F0D8
:10E23000DDCF01F0200E005C030E01581200D9CF93
:10E24000E9FFDACFEAFF200ED880EE54030EED543A
:10E250001200020EDBCFE6FF3DDFE552F3CFDEFF1B
:06E26000F4CFDDFF120007
:0AE26600000000000000004F00005F
:10E270000007000700147F147F14242A7F2A12232A
:10E280001308646236495522500005030000001C43
:10E290002241000041221C0014083E081408083ED8
:10E2A00008080050300000080808080800606000F6
:10E2B0000020100804023E5149453E00427F4000C4
:10E2C00042615149462141454B311814127F1027B4
:10E2D000454545393C4A49493001710905033649EC
:10E2E000494936064949291E00363600000056368F
:10E2F00000000814224100141414141400412214C4
:10E30000080201510906324979413E7E1111117E00
:10E310007F494949363E414141227F4141221C7F8C
:10E32000494949417F090909013E4149497A7F0824
:10E3300008087F00417F41002040413F017F0814D1
:10E3400022417F404040407F020C027F7F04081042
:10E350007F3E4141413E7F090909063E4151215E10
:10E360007F09192946464949493101017F01013F89
:10E370004040403F1F2040201F3F4038403F631433
:10E3800008146307087008076151494543007F413D
:10E39000410002040810200041417F0004020102F4
:10E3A000044040404040000102040020545454788E
:10E3B0007F484444383844444420384444487F38F3
:10E3C00054545418087E0901020C5252523E7F08E0
:10E3D00004047800447D40002040443D007F102824
:10E3E000440000417F40007C041804787C08040449
:10E3F0007838444444387C14141408081414187CE5
:10E400007C080404084854545420043F4440203CF1
:10E410004040207C1C2040201C3C4030403C442894
:10E420001028440C5050503C4464544C440008366E
:10E43000410000007F000000413608000201020494
:01E4400002D9
:01E4410000DA
:0EE442000101FFB122D0FF838B809490550E14
:10E45000A76EAA0EA76E0E01FF910E0ED16F550E7C
:10E46000A76EAA0EA76EFF810F0EBA6ECF0EBA145A
:10E470000009BA6EBB6A0F01526B800ECB6E040EA0
:10E48000CA6EA496600E776E7F0E766E1200010142
:10E49000FF91FF938B80949012000101FFA109D09E
:10E4A0008B50010B04E19450010B01E1010CFF9131
:10E4B000C8DF0101FFA3C5DFA4A63AD0A496BA50D5
:10E4C000300BE842E842E842E842030819E1400E16
:10E4D000BB5C10E18B909490BA6ACA6A0E01D16B52
:10E4E0000F01526BCB68766A7768A4960101FF81B1
:10E4F000FF93010CBB2ACF0EBA140009BA6E000CB0
:10E50000BA0EE96E0F0EEA6EEF50300BE842E842A9
:10E51000E842E842E82AE850030BF36EF46EF34653
:10E52000F346F346F346CF0EEF14F310EF6EF450BC
:02E53000000CDD
:0EE53200D9CFE6FFDACFE6FFE1CFD9FFE2CF87
:10E54000DAFFE652E652E652E652D950F90F006E73
:10E55000FF0EDA20016E020E00C0DBFF030E01C0C9
:10E56000DBFF020EDBCFE6FF030EDBCFE6FFF90E8B
:10E57000DBCFE6FFFA0EDBCFE6FFFB0EDBCFE6FFDD
:10E58000D950FC0FE66EFF0EDA20E66E64EC56F012
:10E59000006E070EE15C02E2E16AE552E16E0050B6
:10E5A000F3CFDEFFF4CFDDFFFC0EDBCFE9FFFD0E86
:10E5B000DBCFEAFFEF6ADECF00F0DDCF01F000C075
:10E5C000F3FF01C0F4FF040EE15C02E2E16AE552F0
:0EE5D000E16EE552E5CFDAFFE7CFD9FF12008A
:02E5DE001E0E0F
:10E5E000F66EA00EF76E000EF86E0E010900F550E3
:10E5F000366F0900F550376F03E1366701D03DD023
:10E600000900F550316F0900F550326F0900F550DF
:10E61000336F09000900F550E96E0900F550EA6E04
:10E62000090009000900F550346F0900F550356FF5
:10E6300009000900F6CF38FEF7CF39FEF8CF3AFED1
:10E6400031CEF6FF32CEF7FF33CEF8FF0E01345352
:10E6500002E1355307E00900F550EE6E3407F8E2A9
:10E660003507F9D738CEF6FF39CEF7FF3ACEF8FFA7
:0CE670000E013607000E375BBFD712000A
:04E67C00D9CFE6FF0D
:10E68000DACFE6FFE1CFD9FFE2CFDAFFFB0EDBCF37
:10E6900000F0FC0EDBCF01F00001800E01141AE146
:10E6A000FB0EDBCFE9FFFC0EDBCFEAFFEECFF3FF83
:10E6B000EDCFF4FFEE2A000EEF22F3CFE9FFF4CF07
:10E6C000EAFFFD0EDBCFEFFFEF50016AF36E01C0F2
:10E6D000F4FF10D0FB0EDB50FE0806E1FD0EDBCF91
:10E6E000E6FF45EC74F005D0FD0EDBCFE6FF03EC52
:10E6F00050F0E552E552E5CFDAFFE7CFD9FF12003F
:10E700003B504002F3CF37F0F4CF38F04102F350E2
:10E710003826000EF420396E3B504202F350392661
:10E72000000EF4203A6E3B504302F3503A263C5020
:10E730004002F3503826F4503922000E3A223C5061
:10E740004102F3503926F4503A223C504202F35031
:10E750003A263D504002F3503926F4503A223D50BB
:10E760004102F3503A263E504002F3503A2612003E
:10E77000FE0EE3CFE9FFFF0EE3CFEAFFF36AF46A90
:10E78000EE5203E0F34AF42AFBD71200FF0EE3CF68
:10E79000F8FFE552FF0EE3CFF7FFE552FF0EE3CFA0
:10E7A000F6FFE552E66AE66AE66A0900F55209E014
:10E7B000FD0EE32A05E1FE0EE32A02E1FF0EE32A45
:10E7C000F4D7FD0EE3CF3CF0FE0EE3CF3DF0FF0E9D
:06E7D000E3CF3EF0120051
:0AE7D6003A6A396A386A376A200E81
:10E7E000E76ED8903B363C363D363E3637363836C7
:10E7F00039363A364050375C4150385842503958D3
:10E8000043503A5809E34050375E4150385A42501D
:0EE81000395A43503A5A3B2AE72EE4D71200F9
:02E81E003A6A54
:10E82000396A100EE76ED8903D363E3639363A36A4
:10E830004250395C43503A5805E34250395E4350E8
:0AE840003A5A3D2AE72EF0D71200E5
:06E84A00F36AF46AFF0E00
:10E85000E124E96EFF0EE220EA6EED6607D02F0E8E
:0EE86000EF6404D03A0EEF6001D0F32A1200EC
:02E86E001DEE9D
:10E8700000F02DEE00F0F86A369CEFEC72F007EC39
:0AE8800050F028EC62F0FBD7120004
:06E88A00FF0EE350ADBAE1
:10E8900004D0B06AAC8EAD8A949CADA2FED7AE6EA9
:06E8A000F36EF46A1200A1
:0AE8A600303132333435363738395B
:07E8B000616263646566000C
:01E8B7000060
:08E8B80000EE00F00E0EEE6A06
:06E8C000EA62FDD7120020
:0AE8C600000000000000C3F51C4133
:10E8D0000000003FC3F51C410000003FC3F51C4190
:0CE8E0000000003F0000000000000000ED
:04E8EC000000000028
:10E8F0000000000000000000006CE00000000000CC
:02E90000000015
:01FFF800AA5E
:01FFF900F710
:01FFFA001DE9
:01FFFB00FF06
:01FFFC0063A1
:01FFFD00F80B
:01FFFE008181
:01FFFF00F110
:00000001FF
